:020000023000CC
:10F800000D9466FC0D9487FC0D9487FC0D9487FC89
:10F810000D9487FC0D9487FC0D9487FC0D9487FC58
:10F820000D9487FC0D9487FC0D9487FC0D9487FC48
:10F830000D9487FC0D9487FC0D9487FC0D9487FC38
:10F840000D9487FC0D9487FC0D9487FC0D9487FC28
:10F850000D9487FC0D9487FC0D9487FC0D9487FC18
:10F860000D9487FC0D9487FC0D9487FC0D9487FC08
:10F870000D9487FC0D9487FC0D9487FC0D9487FCF8
:10F880000D9487FC0D9487FC0D9487FC0D9487FCE8
:10F890000D9487FC0D9487FC0D9487FC0D9487FCD8
:10F8A0000D9487FC0D9487FC0D9487FC0D9487FCC8
:10F8B0000D9487FC0D9487FC0D9487FC0D9487FCB8
:10F8C0000D9487FC0D9487FC0D9487FC11241FBEBA
:10F8D000CFEFD1E2DEBFCDBF01E00CBF12E0A0E070
:10F8E000B2E0E0E1FDEF03E00BBF02C007900D9234
:10F8F000A030B107D9F713E0A0E0B2E001C01D923B
:10F90000A530B107E1F70F94F8FC0D9487FE0D9434
:10F9100089FC08951A98969890916500977F909326
:10F920006500979883FD1A9A82FD969A81FD979AB1
:10F9300080FF05C080916500886080936500089510
:10F94000282F30E080910102909102022827392768
:10F9500040E0C9019695879520FF05C021E030EA77
:10F960002827392701C09C014F5F483091F7309319
:10F9700002022093010208951F93282F9091000204
:10F98000992319F45F9BFCCF05C080919B008823CD
:10F99000BCF702C01CB102C010919C00222319F0D8
:10F9A000812F0F94A0FC812F90E01F9108950F9359
:10F9B0001F93182F0F94BCFC082F812F0F94BCFCB1
:10F9C00090E0982F8827800F911D1F910F91089527
:10F9D000982F80910002882321F45D9BFECF9CB973
:10F9E000089580919B0085FFFCCF90939C00089523
:10F9F0008F929F92AF92BF92CF92DF92EF92FF923F
:10FA00000F931F93CF93DF93129A8F9A8E9A8091C0
:10FA1000640088608093640089E0E1E0F0E0809316
:10FA200068009490E0E0F0E080936800C490E3E028
:10FA3000F0E0809368008490E2E0F0E0809368005A
:10FA4000B49030E139B91092900022E02BB998E1DE
:10FA50009AB980916400826080936400809165000F
:10FA60008D7F8093650030939900109298002093C9
:10FA70009B0090939A008D9A959810E1D12EC0E04A
:10FA8000D0E08D2D0F948AFCB0E9EB2EB0EDFB2E6B
:10FA9000B3E00B2F112D25C080910002882319F4AB
:10FAA0005F9B19C004C080919B0087FF14C080E059
:10FAB0000F94BCFCE0910002803549F4F0E0ED5F6A
:10FAC000FC4F80818F5F8083823028F01BC0F0E084
:10FAD000ED5FFC4F10828091000291E089278093B6
:10FAE00000020894E108F10801091109E114F10488
:10FAF0000105110589F6D6942196C530D10509F482
:10FB0000EBC0BFCF99E08CECE1E0F0E0082E9093E1
:10FB10006800E8958FE00F948AFC84E20F94E8FC7B
:10FB200084E60F94E8FC80E00F94E8FC81E00F94F9
:10FB3000E8FC80E20F94E8FC8C2D0F94E8FC892D02
:10FB40000F94E8FC8B2D0F94E8FC882D0F94E8FCB3
:10FB5000AA24A3E08A2EA2E09A2E8FEF9FEF909323
:10FB600002028093010281E00F94D7FC6C018FEFB9
:10FB7000C8168FEFD80609F49BC08C2D0F948AFC11
:10FB8000C601A0E0B0E09F77A070B070EE24F82E20
:10FB9000092F1A2F80E00F94BCFCB82EE7E58E17D2
:10FBA00021F0F2E58F1709F083C0C0E0D0E081E0DA
:10FBB0000F94BCFCFE01ED5FFD4F808387E5B81616
:10FBC00071F4C038D10559F4D7FC09C083E0F701BE
:10FBD00000935B0080936800E895AA24A394219683
:10FBE000E1E0C030DE0719F780E00F94D7FC2091E8
:10FBF0000102309102028217930709F055C0F7E520
:10FC0000BF1609F036C0D7FE0FC0F40197018191ED
:10FC1000D901082E0F947BFE2F5F3F4F83E0E33026
:10FC2000F80709F43FC0F3CFD401B801A701FD01E3
:10FC3000818190E0982F882731E02C91820F911DCF
:10FC40000C01FA0160935B0030936800E895112481
:10FC500012964E5F5F4F6F4F7F4FF3E0A330BF07A9
:10FC600031F785E0F70100935B0080936800E89529
:10FC700019C0E401A80197019881D7FE05C0D901F8
:10FC80000F9473FE802D03C04BBFF9018791981725
:10FC900059F421962F5F3F4F4F4F5F4F83E0C330A2
:10FCA000D80751F781E401C08EE40F94E8FC55CFEA
:10FCB0008091680080FDFCCF88E00F948AFCAA2028
:10FCC00059F08FEFA8EFBFE0082E0F947BFEA9EF4D
:10FCD000BFE0082E0F947BFE81E180936800E895D9
:10FCE0000C940000F9CFE199FECFBFBBAEBBE09A08
:10FCF00011960DB20895E199FECFBFBBAEBB0DBA10
:10FD000011960FB6F894E29AE19A0FBE0895FFCFCC
:040000033000F800D1
:00000001FF
