:020000021000EC
:10F800000C9446FC0C9465FC0C9465FC0C9465FC13
:10F810000C9465FC0C9465FC0C9465FC0C9465FCE4
:10F820000C9465FC0C9465FC0C9465FC0C9465FCD4
:10F830000C9465FC0C9465FC0C9465FC0C9465FCC4
:10F840000C9465FC0C9465FC0C9465FC0C9465FCB4
:10F850000C9465FC0C9465FC0C9465FC0C9465FCA4
:10F860000C9465FC0C9465FC0C9465FC0C9465FC94
:10F870000C9465FC0C9465FC0C9465FC0C9465FC84
:10F880000C9465FC0C9465FC0C9465FC11241FBE63
:10F89000CFEFD0E1DEBFCDBF11E0A0E0B1E0E4EDFD
:10F8A000FCEF01E00BBF02C007900D92A030B10742
:10F8B000D9F712E0A0E0B1E001C01D92A530B10778
:10F8C000E1F70E94D6FC0C9469FE0C9467FC089545
:10F8D0001A98969890916500977F909365009798F5
:10F8E00083FD1A9A82FD969A81FD979A80FF05C042
:10F8F000809165008860809365000895282F30E02E
:10F9000080910101909102012827392740E0C90127
:10F910009695879520FF05C021E030EA28273927F2
:10F9200001C09C014F5F483091F730930201209352
:10F93000010108951F93282F90910001992319F434
:10F940005F9BFCCF05C080919B008823BCF702C061
:10F950001CB102C010919C00222319F0812F0E943B
:10F960007EFC812F90E01F9108950F931F93182F15
:10F970000E949AFC082F812F0E949AFC90E0982FF9
:10F980008827800F911D1F910F910895982F8091C6
:10F990000001882321F45D9BFECF9CB908958091DE
:10F9A0009B0085FFFCCF90939C0008958F929F92BF
:10F9B000AF92BF92CF92DF92EF92FF920F931F937D
:10F9C000CF93DF93B998C19A129A8F9A8E9A8091A9
:10F9D000640088608093640089E0E1E0F0E0809357
:10F9E00068009490E0E0F0E080936800C490E3E069
:10F9F000F0E0809368008490E2E0F0E0809368009B
:10FA0000B490B19B4BC130E139B91092900022E023
:10FA10002BB998E19AB98091640082608093640068
:10FA2000809165008D7F80936500309399001092DE
:10FA3000980020939B0090939A008D9A959810E1DE
:10FA4000D12EC0E0D0E08D2D0E9468FCB0E9EB2EF5
:10FA5000B0EDFB2EB3E00B2F112D25C080910001DE
:10FA6000882319F45F9B19C004C080919B0087FF15
:10FA700014C080E00E949AFCE0910001803549F4B6
:10FA8000F0E0ED5FFD4F80818F5F8083823028F052
:10FA90001BC0F0E0ED5FFD4F10828091000191E00E
:10FAA0008927809300010894E108F10801091109F0
:10FAB000E114F1040105110589F6D6942196C530AB
:10FAC000D10509F4EBC0BFCF99E08CECE1E0F0E0A8
:10FAD000082E90936800E8958FE00E9468FC84E20D
:10FAE0000E94C6FC84E60E94C6FC80E00E94C6FC20
:10FAF00081E00E94C6FC80E20E94C6FC8C2D0E9420
:10FB0000C6FC892D0E94C6FC8B2D0E94C6FC882D48
:10FB10000E94C6FCAA24A3E08A2EA1E09A2E8FEFB1
:10FB20009FEF909302018093010181E00E94B5FC58
:10FB30006C018FEFC8168FEFD80609F49BC08C2D8F
:10FB40000E9468FCC601A0E0B0E09F77A070B07092
:10FB5000EE24F82E092F1A2F80E00E949AFCB82E6E
:10FB6000E7E58E1721F0F2E58F1709F083C0C0E0BA
:10FB7000D0E081E00E949AFCFE01ED5FFE4F8083A1
:10FB800087E5B81671F4C038D10559F4D7FC09C01F
:10FB900083E0F70100935B0080936800E895AA2456
:10FBA000A3942196E1E0C030DE0719F780E00E94BF
:10FBB000B5FC20910101309102018217930709F0F1
:10FBC00055C0F7E5BF1609F036C0D7FE0FC0F401E7
:10FBD00097018191D901082E0E945DFE2F5F3F4F52
:10FBE00082E0E330F80709F43FC0F3CFD401B80155
:10FBF000A701FD01818190E0982F882731E02C91A9
:10FC0000820F911D0C01FA0160935B003093680034
:10FC1000E895112412964E5F5F4F6F4F7F4FF2E0D1
:10FC2000A330BF0731F785E0F70100935B008093B5
:10FC30006800E89519C0E401A80197019881D7FEF2
:10FC400005C0D9010E9455FE802D03C04BBFF901AC
:10FC50008791981759F421962F5F3F4F4F4F5F4F71
:10FC600082E0C330D80751F781E401C08EE40E94DE
:10FC7000C6FC55CF8091680080FDFCCF88E00E94D3
:10FC800068FCAA2059F08FEFA8EFBFE0082E0E9471
:10FC90005DFEA9EFBFE0082E0E945DFE81E180932A
:10FCA0006800E8950C940000F9CFE199FECFBFBB46
:10FCB000AEBBE09A11960DB20895E199FECFBFBB9D
:10FCC000AEBB0DBA11960FB6F894E29AE19A0FBE48
:04FCD0000895FFCFC5
:040000031000F800F1
:00000001FF
