:100000000C9448100C9469100C9469100C946910AD
:100010000C9469100C9469100C9469100C9469107C
:100020000C9469100C9469100C9469100C9469106C
:100030000C9469100C9469100C9469100C9469105C
:100040000C9469100C9469100C9469100C9469104C
:100050000C946B100C94194D0C9469100C9469104D
:100060000C9469100C94C5550C9469100C9445506F
:100070000C9469100C9469100C9469100C9469101C
:100080000C9469100C9469100C9469100C9469100C
:100090000C941D530C9469100C94B4500C9469107A
:1000A0000C9469100C9469100C9469100C946910EC
:1000B0000C9469100C9469100C9469100C946910DC
:1000C0000C9469100C9469100C94691005A84CCD1F
:1000D000B2D44EB93836A9020C50B9918688083C82
:1000E000A6AAAA2ABE000000803F00020407090B4E
:1000F0000D0F121416181A1D1F21232527292B2E28
:1001000030323436383A3C3E4041434547494B4C07
:100110004E5052535557585A5B5D5E60616364653B
:100120006768696B6C6D6E6F7071727374757677DA
:10013000777879797A7B7B7C7C7D7D7D7E7E7E7F06
:100140007F7F7F7F7F7F7F7F7F7F7E7E7E7D7D7DC8
:100150007C7C7B7B7A79797877777675747372712A
:10016000706F6E6D6C6B69686765646361605E5D1E
:100170005B5A5857555352504E4C4B494745434193
:10018000403E3C3A38363432302E2B292725232165
:100190001F1D1A181614120F0D0B0907040200FE7A
:1001A000FCF9F7F5F3F1EEECEAE8E6E3E1DFDDDB9D
:1001B000D9D7D5D2D0CECCCAC8C6C4C2C1BFBDBBA8
:1001C000B9B7B5B4B2B0AEADABA9A8A6A5A3A2A06D
:1001D0009F9D9C9B9998979594939291908F8E8DCB
:1001E0008C8B8A89898887878685858484838383A5
:1001F00082828281818181818181818181818282EA
:1002000082838383848485858687878889898A8B8E
:100210008C8D8E8F9091929394959798999B9C9D9D
:100220009FA0A2A3A5A6A8A9ABADAEB0B2B4B5B726
:10023000B9BBBDBFC1C2C4C6C8CACCCED0D2D5D747
:10024000D9DBDDDFE1E3E6E8EAECEEF1F3F5F7F91F
:10025000FCFE000306090C101316191C1F2225288A
:100260002B2E313336393C3F414447494C4E515394
:1002700055585A5C5E60626466686A6B6D6F707137
:100280007374757678797A7A7B7C7D7D7E7E7E7FCD
:100290007F7F7F7F7F7F7E7E7E7D7D7C7B7A7A798C
:1002A000787675747371706F6D6B6A68666462607E
:1002B0005E5C5A585553514E4C494744413F3C3976
:1002C0003633312E2B2825221F1C191613100C092A
:1002D000060300FDFAF7F4F0EDEAE7E4E1DEDBD82F
:1002E000D5D2CFCDCAC7C4C1BFBCB9B7B4B2AFAD08
:1002F000ABA8A6A4A2A09E9C9A9896959391908F45
:100300008D8C8B8A8887868685848383828282818E
:1003100081818181818182828283838485868687AF
:10032000888A8B8C8D8F9091939596989A9C9EA09D
:10033000A2A4A6A8ABADAFB2B4B7B9BCBFC1C4C785
:10034000CACDCFD2D5D8DBDEE1E4E7EAEDF0F4F7B1
:10035000FAFD253464202534642048253364005890
:100360000050004E005A4D001B18191A2053204807
:1003700000204D61702044656D6F00008040C020FA
:10038000A060E0109050D030B070F0088848C828C5
:10039000A868E8189858D838B878F8048444C42471
:1003A000A464E4149454D434B474F40C8C4CCC2C65
:1003B000AC6CEC1C9C5CDC3CBC7CFC028242C2222F
:1003C000A262E2129252D232B272F20A8A4ACA2A65
:1003D000AA6AEA1A9A5ADA3ABA7AFA068646C62611
:1003E000A666E6169656D636B676F60E8E4ECE2E05
:1003F000AE6EEE1E9E5EDE3EBE7EFE018141C121DE
:10040000A161E1119151D131B171F1098949C92934
:10041000A969E9199959D939B979F9058545C525E0
:10042000A565E5159555D535B575F50D8D4DCD2DD4
:10043000AD6DED1D9D5DDD3DBD7DFD038343C3239E
:10044000A363E3139353D333B373F30B8B4BCB2BD4
:10045000AB6BEB1B9B5BDB3BBB7BFB078747C72780
:10046000A767E7179757D737B777F70F8F4FCF2F74
:10047000AF6FEF1F9F5FDF3FBF7FFF0000000000F7
:100480000000007E81A581BD99817E7EFFDBFFC3D8
:10049000E7FF7E367F7F7F3E1C0800081C3E7F3EC4
:1004A0001C08001C3E1C7F7F3E1C3E08081C3E7F33
:1004B0003E1C3E0000183C3C180000FFFFE7C3C391
:1004C000E7FFFF003C664242663C00FFC399BDBDAA
:1004D00099C3FFF0E0F0BE3333331E3C6666663CE2
:1004E000187E18FCCCFC0C0C0E0F07FEC6FEC6C610
:1004F000E66703995A3CE7E73C5A9901071F7F1FBB
:1005000007010040707C7F7C704000183C7E18180A
:100510007E3C186666666666006600FEDBDBDED83B
:10052000D8D8007CC61C36361C331E000000007E66
:100530007E7E00183C7E187E3C18FF183C7E181802
:10054000181800181818187E3C18000018307F3052
:10055000180000000C067F060C00000000030303D7
:100560007F0000002466FF6624000000183C7EFF28
:10057000FF000000FFFF7E3C1800000000000000AC
:100580000000000C1E1E1E0C000C0036363600004B
:1005900000000036367F367F3636000C3E031E30B4
:1005A0001F0C00006333180C6663001C361C6E3B86
:1005B000336E000606030000000000180C06060655
:1005C0000C1800060C1818180C060000663CFF3CBE
:1005D000660000000C0C3F0C0C0000000000000046
:1005E0000C0C060000003F000000000000000000AE
:1005F0000C0C006030180C060301003E63737B6F27
:10060000673E000C0E0C0C0C0C3F001E33301C0619
:10061000333F001E33301C30331E00383C36337FEE
:100620003078003F031F3030331E001C06031F3399
:10063000331E003F3330180C0C0C001E33331E33B6
:10064000331E001E33333E30180E00000C0C000029
:100650000C0C00000C0C00000C0C06180C06030619
:100660000C180000003F00003F0000060C18301876
:100670000C06001E3330180C000C003E637B7B7BA5
:10068000031E000C1E33333F3333003F66663E6665
:10069000663F003C66030303663C001F36666666E1
:1006A000361F007E06061E06067E007E06061E0615
:1006B0000606003C66030373667C003333333F3326
:1006C0003333001E0C0C0C0C0C1E00783030303311
:1006D000331E006766361E36666700060606060687
:1006E000067E0063777F7F6B63630063676F7B7356
:1006F0006363001C36636363361C003F66663E0618
:10070000060F001E3333333B1E38003F66663E360D
:100710006667001E33070E38331E003F0C0C0C0CAE
:100720000C0C003333333333333F00333333333341
:100730001E0C006363636B7F7763006363361C1C6E
:100740003663003333331E0C0C1E007F6030180CF0
:10075000067F001E06060606061E0003060C18305D
:100760006040001E18181818181E00081C36630078
:1007700000000000000000000000FF0C0C1800004A
:1007800000000000001E303E336E000706063E6685
:10079000663B0000001E3303331E003830303E330A
:1007A000336E0000001E333F031E001C36060F068A
:1007B000060F0000006E33333E301F0706366E66AC
:1007C0006667000C000E0C0C0C1E00300030303040
:1007D00033331E070666361E3667000E0C0C0C0CF3
:1007E0000C1E000000337F7F6B630000001F33335B
:1007F00033330000001E3333331E0000003B6666B7
:100800003E060F00006E33333E307800003B6E66CC
:10081000060F0000003E031E301F00080C3E0C0CAB
:100820002C18000000333333336E000000333333B1
:100830001E0C000000636B7F7F3600000063361CD7
:1008400036630000003333333E301F00003F190C85
:10085000263F00380C0C070C0C380018181800182C
:10086000181800070C0C380C0C07006E3B00000039
:1008700000000000081C3663637F003E6303633E94
:1008800030603E0033003333336E0038001E333F98
:10089000031E007E813C607C66DC0033001E303E1F
:1008A000336E0007001E303E336E000C0C1E303ECF
:1008B000336E0000003E63031E301C7E813C667E6A
:1008C000063C0033001E333F031E0007001E333F6B
:1008D000031E0033000E0C0C0C1E003E411C1818A9
:1008E000183C0007000E0C0C0C1E0063083E637FD2
:1008F0006363000C0C001E333F330038003F061EBC
:10090000063F000000FE30FE33FE007C36337F33AE
:100910003373001E21001E33331E000033001E33CC
:10092000331E000007001E33331E001E2100333328
:10093000336E000007003333336E0000330033336F
:100940003E301FC3183C66663C1800330033333317
:10095000331E0018187E03037E18181C36260F0657
:10096000673F0033331E0C3F0C3F0C1F33335F6374
:10097000F363C370D8183C18181B0E38001E303EA5
:10098000336E001C000E0C0C0C1E000038001E33D1
:10099000331E000038003333336E00001F001D3358
:1009A0003333003F0033373F3B33003C36367C0067
:1009B0007E00001C36361C003E0000180018180C83
:1009C000663C000000003F030300000000003F30D1
:1009D00030000063331B6CD64321F0C36333DBEC80
:1009E000B6F3C0180018183C3C180000CC663366FB
:1009F000CC0000003366CC6633000044114411443F
:100A0000114411AA55AA55AA55AA55DB6FDBF6DB8E
:100A10007EEBB71818181818181818181818181F77
:100A200018181818181F181F1818186C6C6C6C6F91
:100A30006C6C6C000000007F6C6C6C00001F181F59
:100A40001818186C6C6F606F6C6C6C6C6C6C6C6CE8
:100A50006C6C6C00007F606F6C6C6C6C6C6F607F9A
:100A60000000006C6C6C6C7F00000018181F181FD1
:100A7000000000000000001F18181818181818F8B7
:100A800000000018181818FF00000000000000FF08
:100A900018181818181818F818181800000000FF6F
:100AA00000000018181818FF1818181818F818F867
:100AB0001818186C6C6C6CEC6C6C6C6C6CEC0CFC42
:100AC0000000000000FC0CEC6C6C6C6C6CEF00FF28
:100AD0000000000000FF00EF6C6C6C6C6CEC0CEC28
:100AE0006C6C6C0000FF00FF0000006C6CEF00EF0E
:100AF0006C6C6C1818FF00FF0000006C6C6C6CFFD5
:100B00000000000000FF00FF18181800000000FFA0
:100B10006C6C6C6C6C6C6CFC0000001818F818F8AD
:100B20000000000000F818F818181800000000FC79
:100B30006C6C6C6C6C6C6CFF6C6C6C1818FF18FF38
:100B4000181818181818181F00000000000000F8E6
:100B5000181818FFFFFFFFFFFFFFFF00000000FF56
:100B6000FFFFFF0F0F0F0F0F0F0F0FF0F0F0F0F060
:100B7000F0F0F0FFFFFFFF0000000000006E3B13ED
:100B80003B6E00001E331F331F0303003F3303037C
:100B900003030000007F36363636003F33060C066E
:100BA000333F0000007E1B1B1B0E0000666666665E
:100BB0003E0603006E3B18181818003F0C1E333316
:100BC0001E0C3F1C36637F63361C001C3663633685
:100BD000367700380C183E33331E0000007EDBDB16
:100BE0007E000060307EDBDB7E06031C06031F03F5
:100BF000061C001E33333333333300007E007E0087
:100C00007E000018187E1818007E00060C180C06CE
:100C1000003F00180C060C18003F0070D8D81818B8
:100C200018181818181818181B1B0E1818007E0012
:100C3000181800006E3B006E3B00001C36361C008E
:100C4000000000000000181800000000000000185C
:100C5000000000F030303037363C381A3636363641
:100C60000000000E190C061F00000000003C3C3C78
:100C70003C0000007E424242427E000A4348454317
:100C80004B53554D204552524F520A000A43484596
:100C9000434B53554D204F4B0A000A434845434BA5
:100CA00053554D2053415645440A00434845434B54
:100CB00053554D2073623A253034580A0043484555
:100CC000434B53554D2069733A253034580A002060
:100CD0002530325800253034583A004558495400E0
:100CE000434C45415220434845434B504F494E5495
:100CF0000044554D5020746F20434F4D30004368E1
:100D000065636B506F696E742044756D703A202571
:100D10003032580044554D50494E472052414D3ACB
:100D2000202530325800580053657420636C6F637F
:100D30006B00496E7665727420627574746F6E73A1
:100D400000426565706572004261636B6C6967683B
:100D500074004D697363205365747570204D656E22
:100D60007500312E303400536574757000200058C2
:100D7000002000580058002000001F1D1F1E1F1ECD
:100D80001F1F1E1F1E1F2564206D736563732F6850
:100D900072002B2F2D206D736563732F68722000F6
:100DA0002564256325642563256400444154453A40
:100DB000204D4D2F44442F59593F0054494D453A39
:100DC0002048483A4D4D3A53533F00580020414483
:100DD0004A5553542000253032642F253032642F79
:100DE0002530326400253032643A253032643A25A9
:100DF000303264005365742054696D65204D656E12
:100E000075000003020500030501040602044441C5
:100E1000544120426974733F0042617564207261DD
:100E200074653F00580054494D454F555400525485
:100E3000530043545300464C4F572043544C0058E2
:100E40004D49540052435600584F4E2F584F464676
:100E5000004556454E004F44440050617269747914
:100E60003A200053544F503A2025640044415441E5
:100E70003A202564004261756420726174653A20ED
:100E800025366C6400434F4D25642053657475709E
:100E9000204D656E75005B585D20457869740A0ABF
:100EA000005B525D205265616420454550524F4DB4
:100EB000205B575D20577269746520454550524F3D
:100EC0004D0A005B2B2F2D5D206368616E676520E6
:100ED000766172204F5220656E7465722064696776
:100EE00069747320666F6C6C6F776564206279201B
:100EF0005B456E7465725D0A005B475D204E6578E8
:100F0000742047726F757020205B3C5D5B3E5D20F6
:100F100070726576206E657874207661720A000CB6
:100F20005661726961626C6520456469746F7220F4
:100F3000204D656761446F6E6B657920434F4D2589
:100F400064200A00566172204564697420506F72F3
:100F500074256400564520457869740045786974A5
:100F60002E205468616E6B20596F7520666F722059
:100F70007573696E67204D656761646F6E6B657927
:100F8000205661726961626C6520456469746F7294
:100F90000A002D002B004720AEAF202023205752FF
:100FA000005661726961626C6520456469746F7294
:100FB00000580046696E69736865640A0A000A573A
:100FC000726974696E6720454550524F4D2E2E2E22
:100FD000000A52656164696E6720454550524F4D65
:100FE0002E2E2E0057726974696E67204545505247
:100FF0004F4D0052656164696E6720454550524F00
:101000004D000A00FF0190D0E1E6018697D7E62265
:1010100024B5C44A0190C301E1E6018697D7E602F0
:10102000A0B1C0E203E304B7E405A705959706E67F
:1010300010D0E1109120A1B0C123D0D126A730B3A8
:1010400036B740C146C7E555E555DF0190C301B449
:1010500001C1C30183A5C302A4C202C203B0C1037C
:10106000C31094C111B313B114B421A630BC03B69C
:10107000E303B0E303E312C512D2D41294C1C51343
:10108000B5D313B1D314D421D421C121A5D222C404
:1010900024C225C530BE03C703D3D40384B704B12B
:1010A00004D411A0B111C411C113B51395B314C167
:1010B00015C517D317C720B0C120A7D421B0B721B9
:1010C000D422B223C525C3C526BE03C703B0E3E5BA
:1010D00003E30385C1C504B1E404E412C512D2D40C
:1010E000129413B5D321E521C121A5D222C424C273
:1010F00025C527E327C730BF23B4C3C423B2C32306
:10110000C323A4B3C424B5C424C432BD00E0E700A3
:1011100087E701909201E102A0A1029203B0E304EB
:10112000B7E405A7059597069706E626A730B136DA
:10113000B740E240C146C7E550E150D2E255E5551F
:10114000D7EE03A1C1E3E40384A6C6EC00E0E70008
:1011500087E723B4C3C423B2C323C323A4B3C424E3
:10116000B5C424C432BD0493B3C4C6048697B7C6BD
:1011700033E0E240E811A0C0D1D31193A4C4D31648
:10118000D634BF0695A5068797A620E0E220A622C2
:10119000EA0594A4058696A520E0E620A522E2466D
:1011A000D5E546C7D7EE00A20393B5D3E306A41353
:1011B000B1D330B135B642E044EE00B30086B3019E
:1011C000A301919502A402A2A403B304A204A4055E
:1011D000A3059D23D623D0D623D332D432D232B422
:1011E000D233D533D134D441D141C5DD12B0D2157B
:1011F000B7D530BF10941650D45E0190E0E601825E
:1012000093B330BE0697B7C611A2B2C3C411A0C033
:10121000D113A21394A5B5C635CC14B6D4D614D424
:101220001496B4D615A6C4D515A4C6D515D516D60C
:1012300024A634B644CE12B0D214B6D417D730BEDA
:1012400012B0D230BE14B6D430BE03D331D335DBA6
:1012500003A503A103DB0285DD03A503A103E3418D
:10126000E345EB04B1E404E413D3D41394B2D422E1
:10127000C422C2C422A4C231BC02B5E202E212B44A
:10128000D2D31293D322C422A4C2C424C432BDFF39
:1012900011A0B1B311B311B11193A4B312B213B130
:1012A00013B320A42E109240CA02D204D410964048
:1012B000CE0293B3C40291C105B5C420A125AE01ED
:1012C000919201829206D145D5D645C6DE04A2B2DE
:1012D000D4E3048596C6D5E611A211A0B0C132C1EF
:1012E00054DD0291109912B01294BE10B2B416BC23
:1012F00003E311D515D130BE03C321AD17A625AE2A
:1013000003CB25AE05D80190C0D1D5018596C6D5B1
:1013100005D911A0A616BE0190B0C1C205A3B3C2E3
:101320000586CE0190B0C1C20596B6C523B3C4C52B
:1013300033CA03B0C0C60384DC00C00082B2C3C598
:101340000596B6CD02A0B0028596B6C503B3C4CD4E
:1013500000C0C2008124C224AE0190B0C1C201828B
:1013600093B3C4C50493048596B6C533CA0190B03F
:10137000C1C4018293C316A6CC21A225AE17A62113
:10138000A225AE03B603B802C205CD10C316CB0129
:1013900090B0C1C224C224A52F0190C0D1D4018530
:1013A00096B632B4DC02A0C2C6028604CC00B0C13C
:1013B000C20086B6C503B3C4C533CA02A0C0D102F9
:1013C00084A6C6DD00A0C2C40086A6CC10D01096AC
:1013D000D613BB10D0109613BB02A0C0D10284A6B6
:1013E000D644D4DE008603C340CE10B016B620AE7D
:1013F000048596B6C530D040CD008603A3C5C6236C
:10140000C140C91096DE00B3E0E6008633BC00D5CB
:10141000008650DE02A0B0D2D40284A6B6DC10C092
:10142000D1D2109613C3DA0190B0C1C5018596B62A
:10143000C524DF10C0D1D2109613C3D233D5DE013C
:1014400090B0C1018293B3C4C50596B6CD00C0204B
:10145000AE008596B6C540CD0084A6C440CC0086BB
:10146000B3E632B360EE0081D606D150D90082A433
:10147000C216B624A640CA10D0D115D11596DE10DA
:10148000B01096BE00EE10B0B616BE03B0EB07EF7C
:1014900020A1BA0596B6C5D60594C412B2C3CD062E
:1014A00095A6C6D5109513C3D4DD0392B2C30385A8
:1014B00096B6CD0493C3048596B6C5D640CD0392A7
:1014C000B2C3C4038596B604CC03A306A611A0B08C
:1014D000C1119E0392B2C3D2038495C507B7C64318
:1014E000CE109614B2C2D3DE12A2A616B628058676
:1014F00097B7C64042CE109614B4D634DA10A0A6E0
:1015000016BE028604A2B3C2D3D633BD028604A29D
:10151000B2C3CE0392B2C3C5038596B6CD0293A2E1
:10152000C2D3D407A7139715C5DC0392B2C3D20365
:101530008495C537D743CF0293A2B2C306A6139EA4
:101540000394B4C50392C206B6CD12C220A5B6CD8F
:10155000028596B6C5D642CD0284A6C442CC028589
:1015600096B4D6E533B462ED02A4B4D606A434DA58
:10157000028495C507B7C642CE02C206C206CE0394
:1015800093A4A5B6C613A221B0C021AA30B234BE1E
:101590000090A1A2B3C30696A524B324AD0190A0E8
:1015A000B1C1D804B1E4E60486EE0190C0D1018354
:1015B00094C4D327C7D634DE01038596B6C5D64179
:1015C00043CD0392B2C3C4038596B604C430C801A8
:1015D00090D0E115A6C6D5E615A4D422C2D3DD0568
:1015E00096B6C5D60594C41012B2C3C5480090057E
:1015F00096B6C5D60594C412B2C3CD0596B6C5D667
:101600000594C412B2C3C520B0B120A1B90392C2DF
:10161000D3038495C50797BD0190D0E113A2C2D32F
:10162000D41395A6C614DC000392B2C3C4038596F6
:10163000B604C44800A00392B2C3C4038596B6049E
:10164000CC0012A2A616B6480190C0D122B2B6268E
:10165000CE00A012A2A616BE0003A1C3C603860434
:10166000C4480493B3C4C6048605C520B0B120A104
:10167000B912C21296C614B420C815A4E41596E691
:1016800022E242CE02A0E0028603D330B6EE019001
:10169000B0C10493B3C4C5048596B6CD010493B319
:1016A000C4C5048596B6C54901A10493B3C4C50455
:1016B0008596B6CD0190B0C1038596B6C5D643CD0B
:1016C00001A1038596B6C5D643CD01038495C50710
:1016D000B7C64143CE0013B1D3D41394B6D4680037
:1016E000028596B6C54042CD0392D2038495D5308B
:1016F000BF03A306C6D511A0B0C1C2119E0081A32D
:10170000C104C406C61223A73240C900B0C1C2003A
:101710008703B3C254F463E6F7FF0697A7B623C363
:1017200031C0D0E131BE0596B6C5D60594C412B21B
:10173000C3C520C812A2A616B620C80493B3C4C558
:10174000048596B6C521C9038596B6C5D621C14381
:10175000CD0190A0B1C1D003860493B3C4CE00C024
:1017600002C6028642CE11A0C0C31192A3D315DDDA
:1017700011A0B0C1C21192A3B3C215CD15A6C6D592
:1017800015B33032BB03C3038D03C3CD008205D034
:1017900034C3D3E446E446C7EF008205D044E2E711
:1017A00044C5ED13A2B3B513B513B31395A6B51481
:1017B000B415B315B52022AE03A503A143E543E953
:1017C00001A305A341E345EB0103050720222426DD
:1017D000414345476062646E01E7F60190F603C736
:1017E000F403B0F405A7F205D0F207F80191A2B214
:1017F000C3D3E4F40393A4B4C5D5E6F60595A6B621
:10180000C7D7E60797A611A0B0C1D1E2F213A2157F
:10181000A432C134C336C551E0F053E255EC30BFB9
:1018200004B430BF02B204B430BF04B430B760EFC8
:1018300004E4E734BF02B2B704BC02B204B4B73068
:10184000B260EF30B760EF02E2E704B4BF02B20467
:10185000E430B260EC04E430B460EC02B204B430C2
:10186000BC04B4BF30B4FC04F430BC04F434BF3066
:10187000B734FC04FC04F430BF30B732F234FC302F
:10188000B760E764FC30B4F460E2FA32F232B76475
:10189000F464EF02B204F430B260E2FA02F204B48B
:1018A000B764F464EF30B760E2F264F464EF02F21C
:1018B00004FC02B204B4B730B260E2F264F464EF44
:1018C00002F204F440CA04F430B460EC02F204F40E
:1018D00034BF04F434B764EF30B4F460EC30B4F4E3
:1018E00032FA32F232B734FC34F434B764EF04F431
:1018F00030B760EF02F204F430BF04B430BC34F40B
:1019000034BF00F0F70087F701F102F203F304F4AB
:1019100005F506F6109720A730B740C750D760EFFF
:1019200004F4F70487F705F506F6149724A734B7EF
:1019300044C754D764EF00B0B70087B701B102B213
:1019400003B304B405B506B6109720AF40F0F740D6
:10195000C7F741F142F243F344F445F546F650D758
:1019600060EF00F0F30083F301F102F2109320A383
:1019700030B340C350D360EB0392A2B3C3D203850C
:1019800096A6B5C5D633BD0291B1C2028703B3C4D2
:1019900005B5C433CA01C1C2018E02D2129642CE2D
:1019A00000C0C10081A305A30586C645CE0392D21F
:1019B000038596A6B532BD07A5C5D41194A551DC03
:1019C0000291A1B2D2E132BE0392B2C3C4038495A4
:1019D000B5C410B017B720AF02A0B0D2D40284A60D
:1019E000B6D403DB02A0B0D2D30283949606964409
:1019F000D344C6DE0493C3048596B6C531C2C5314F
:101A0000C0D80392A2B3C2D2E3E4038495A5B4C5BF
:101A1000D5E433BC0291D1E2E4028495D5E406E832
:101A200002A0B00284A6B603BB0190B0C1C6018E6D
:101A300011D113D315DD12D216D630BC06C610B2A2
:101A400014BA06C612B412B831C0D0E1E231BF05F3
:101A50008697A7B630BE13D330B135BE0291A1B27E
:101A6000C2D10594A4B5C5DC11A0B0C1C21192A326
:101A7000B3CA33BC3C15B7C740E040CF0091A0B01B
:101A8000C1C4119C0190A0B104B104BC22C422C203
:101A9000C522A5C323C523C324C224C425C532BD82
:101AA00001D1D60186DE0410051014104B106E1003
:101AB0009610CA10F8100C1142114C1166117511D4
:101AC00083119111A611BA11D311EC11F411FA116D
:101AD00004121A123612401245124A1250125612AD
:101AE0005912631279128F129012A512A912B11213
:101AF000BF12CD12E212E612EB12F012F812FC1233
:101B000000130213041306131213171323133213B3
:101B100039134413501359136D1379137D13831321
:101B200087138B138F139913A513AD13BB13C41312
:101B3000CC13D313D913E413EA13F013F9130314DA
:101B400006140E1414141E14271433143F144D14C9
:101B5000511458145E1466146D1477147F14841491
:101B600086148B148E14901493149F14AA14B31417
:101B7000BE14C914D314E114E814EE14F614FD14C1
:101B800002150C1513151D152A15371540154A1584
:101B9000501558155E156815701579157F158C153B
:101BA00090159D15A315AA15B815C215CF15DF15EB
:101BB000ED15FB150D161816271634164116481686
:101BC00051165816621671167A1684168E169C16C1
:101BD000A816B416C016CA16D516DF16E816F116E2
:101BE000FD160B171A17261734173B1747175117EF
:101BF0005E17661770177C17851789178C1799174A
:101C0000A317B817C017C817D817EC171E18201835
:101C100024182A18301835183A18431847184D1840
:101C200055185B186118641867186B186F187318CB
:101C3000751879187F1885188B1893189C18A51893
:101C4000AE18B218C018C618CC18D218D818DD189B
:101C5000E218E818EE18F418FA18FE1802192019FC
:101C600036194C1962197819871995199A19A019FA
:101C7000AD19B719C019C819D819E419F419021AFD
:101C8000141A201A291A301A361A3C1A421A481AFB
:101C90004F1A561A5C1A681A721A741A751A7C1A34
:101CA000841A8C1AA01A546F756368207363726566
:101CB000656E20746F20657869740043616C696299
:101CC000726174696F6E20636F6D706C657465000E
:101CD00043616C6962726174696F6E2043414E4367
:101CE000454C45440043414C3A25346C642C252D29
:101CF000346C64004144433A25346C642C252D3403
:101D00006C640043414E43454C00202020546865DC
:101D10006E20746F75636820275827002020205498
:101D20006F756368206561636820272B2700546FF7
:101D30007563682043616C6962726174696F6E00DB
:101D400058002B002B00252D3136730025313673BA
:101D5000005800434C520044454C0020F1200048FC
:101D6000455800464958002E303000302E3D2F0097
:101D700031323378003435362B003738392D003086
:101D80002E3D2000313233200034353620003738E4
:101D90003920004445430030203D2F003132337854
:101DA000003435362B20444546003738392D204144
:101DB00042430030203D0031323300343536204478
:101DC0004546003738392041424300FD333633362B
:101DD000373C3A3A3B3B3B3B3C3C323F3F4B3F4B33
:101DE000404C3D403C3C3C3C3C3B3E3B3F3B3F3B16
:101DF000443B48344C324C324C32502F4F2D4F2DF7
:101E00004F2D4E2B4E2B4E2B4C2B4B2F492C492C10
:101E1000482A4D2B4C284C284B2547294629462932
:101E20003B2B2E2B3114311432113A00390039007A
:101E300037013200300330032D0A2D172B192B19CF
:101E4000270C17080A150A1505190A000900FE04CF
:101E50000004000001052008290829082906290690
:101E6000280628042502140115011500150129046E
:101E70002C042C062E082C082C082C1D2327263376
:101E800036FD413841383F383E383D38FE40364017
:101E90003640374137413741374237433643354380
:101EA00035433542344134413440343F353F353F8A
:101EB000353F363F364036FE3D373D373D373D37BF
:101EC0003D373D373D353E33413341334333453371
:101ED00045354535453643384138FD0E23FE25232B
:101EE0002523262326232622FE26172617261626F6
:101EF000162516FE21162116281827221B211B2124
:101F00001C1D1C191C16FE1A161A161A191A1D1B4E
:101F100021FE1721FE151BFE1321FE0F210F210F9D
:101F20001D0F190F16FE0E160E160E160E160E1794
:101F3000FE0E220E220E230E230E23FE0E23FD186C
:101F400016FE181AFE1516FE1816FE1816FD1516A2
:101F5000FE121AFE1216FE1516FE1516FD1E1FFEA7
:101F60001E171E172518231F1E1FFF21402324257F
:101F70005E262A2F2E007E27225C3C3E7B7D5B5D09
:101F80000021402324255E262A2F2E005A5843562E
:101F9000424E4D2B2D3D005A584356424E4D2C2E4D
:101FA0002F005A584356424E4D2B2D3D004153446D
:101FB0004647484A4B4C3B004153444647484A4BEE
:101FC0004C3A004153444647484A4B4C3B0051571A
:101FD0004552545955494F5000515745525459553F
:101FE000494F500051574552545955494F500031AF
:101FF00032333435363738393000313233343536D0
:1020000037383930003132333435363738393000EB
:1020100053480021402324255E262A2F2E00736872
:10202000007E27225C3C3E7B7D5B5D0020200043E0
:1020300052004253004553005A584356424E4D2BCE
:102040002D3D005A584356424E4D2C2E2F004153E1
:10205000444647484A4B4C3B004153444647484A54
:102060004B4C3A0051574552545955494F50005125
:10207000574552545955494F500031323334353653
:10208000373839300031323334353637383930006B
:1020900011241FBECFEFD1E2DEBFCDBF00E00CBFE9
:1020A00013E0A0E0B2E0E4E9F6E001E00BBF02C01B
:1020B00007900D92AE3EB107D9F717E0AEEEB3E050
:1020C00001C01D92AC3FB107E1F70E94F6100C94DD
:1020D00034110C9400001F920F920FB60F9211242E
:1020E0002F933F934F935F936F937F938F939F9320
:1020F000AF93BF93EF93FF93CF93DF93CDB7DEB74B
:102100000E94194ADF91CF91FF91EF91BF91AF915A
:102110009F918F917F916F915F914F913F912F91FF
:102120000F900FBE0F901F901895AF92BF92CF9255
:10213000DF92EF92FF920F931F93CF93DF93CDB770
:10214000DEB780E092E00E94E25D80913A059091D6
:102150003B05AA2797FDA095BA2FE0E1F2E00F2EEC
:10216000F8EEAF2EF3E0BF2EF0E0CF2EF0E0DF2E42
:10217000F02DEE24FF24870122E0AC01BD01CF0148
:102180000E94665EDC01CB0190933B0580933A058B
:1021900080911E0590911F05AA2797FDA095BA2F43
:1021A000E8E1F2E00F2EF8EEAF2EF3E0BF2EF0E004
:1021B000CF2EF0E0DF2EF02DEE24FF24870122E069
:1021C000AC01BD01CF010E94665EDC01CB019093A2
:1021D0001F0580931E05DF91CF911F910F91FF90F6
:1021E000EF90DF90CF90BF90AF900895CF93DF93A3
:1021F000CDB7DEB70E943F3480E00E94663F84EF97
:1022000091E090933B0580933A0584EF91E09093A1
:102210001F0580931E0580E00E94664A85E990E1D3
:102220000E94ED5A10C080913A0590913B05BC0187
:1022300080E00E94E84980911E0590911F05BC0135
:1022400081E00E94E8490E94135C882361F70E94A4
:102250005F4A0E943C2B80E292E09F938F930E9402
:1022600037110F900F90FFCFF8940C944983A2E0A0
:10227000B0E0EDE3F1E10C94DF82FE01389661916C
:102280007191FA83E983AF0180916F079091700794
:102290000E944E11E2E022960C94FB822F923F9214
:1022A0005F926F927F928F929F92AF92BF92CF92E6
:1022B000DF92EF92FF920F931F93CF93DF93CDB7EF
:1022C000DEB72B970FB6F894DEBF0FBECDBF3C0133
:1022D0004B016A01FC0117821682838181FD03C0D4
:1022E0008FEF9FEFBBC11E010894211C311CF3012D
:1022F0003381F40133FD859133FF81914F018823B0
:1023000009F4A9C1853239F433FD859133FF8191F8
:102310004F01853229F4B30190E00E945C13E7CFAE
:10232000982FAA2410E055241032B0F49B3269F0A3
:102330009C3228F4903251F0933271F40BC09D32EC
:1023400039F0903349F411602AC01260146027C03C
:10235000186025C0106123C017FD2AC0292F205303
:102360002A3088F416FF07C08AE0A89EC001112415
:10237000A22EA80E14C08AE0589EC0011124522E2D
:10238000580E10620CC09E3221F416FD64C1106418
:1023900006C09C3611F4106802C0983649F4F40166
:1023A00033FD959133FF91914F01992309F0BCCFF3
:1023B000892F8554833018F08052833038F424E01C
:1023C00030E0C20ED31E8FE389830FC0933631F005
:1023D000933781F0933509F056C020C0F601808113
:1023E000898322E030E0C20ED31E710181E0A82E65
:1023F000B12C12C0F601E080F18016FD03C06FEF32
:102400007FEF02C06A2D70E022E030E0C20ED31EE2
:10241000C7010E9451135C011F7713C0F601E080D1
:10242000F18016FD03C06FEF7FEF02C06A2D70E0F0
:1024300022E030E0C20ED31EC7010E9446135C01A9
:10244000106813FF07C01BC0B30180E290E00E9438
:102450005C135A94852D90E0A816B906A8F30FC016
:10246000F70117FD859117FF81917F01B30190E07E
:102470000E945C1351105A940894A108B108A11449
:10248000B10471F7E5C0943611F0993669F517FF7C
:102490000AC0F601608171818281938124E030E07D
:1024A000C20ED31E0DC0F601808191819C01B9013D
:1024B000882777FD8095982F42E050E0C40ED51E06
:1024C000012F0F7697FF08C09095809570956195C4
:1024D0007F4F8F4F9F4F00682AE030E0A1010E949C
:1024E0008813B82EB2183DC0953721F41F7E2AE01C
:1024F00030E01CC0197F9F3661F0903720F498358A
:1025000009F0A9C00FC0903739F0983709F0A3C07F
:1025100004C028E030E00AC0106114FD146020E11E
:1025200030E004C014FD166020E132E017FF08C05F
:10253000F601608171818281938144E050E008C09E
:10254000F60180819181BC0180E090E042E050E0A2
:10255000C40ED51EA1010E948813B82EB218012FF7
:102560000F7706FF09C00E7FBA1430F404FF06C0CF
:1025700002FD04C00F7E02C01B2D01C01A2D04FFF6
:102580000CC0FE01EB0DF11D8081803311F4097E3A
:1025900008C01F5F02FF05C003C0802F867809F0C6
:1025A0001F5FE02E03FD14C000FF0FC0151510F0D3
:1025B000AB2C0BC0AB2CA50CA11A152D06C0B3017A
:1025C00080E290E00E945C131F5F1515C0F304C009
:1025D000151510F4511A01C05524E4FE10C0B301C2
:1025E00080E390E00E945C13E2FE1EC0E1FE03C0A7
:1025F00088E590E002C088E790E0B3010CC08E2D22
:10260000867891F0E1FE02C08BE201C080E207FD16
:102610008DE2B30190E00E945C1306C0B30180E339
:1026200090E00E945C13AA94BA14C0F3BA94F1012A
:10263000EB0DF11D8081B30190E00E945C13BB2083
:1026400039F0F4CFB30180E290E00E945C135A9419
:102650005520C1F74CCEF301868197812B960FB69A
:10266000F894DEBF0FBECDBFDF91CF911F910F91C8
:10267000FF90EF90DF90CF90BF90AF909F908F90A2
:102680007F906F905F903F902F900895FC01059090
:10269000615070400110D8F7809590958E0F9F1F64
:1026A0000895FC016150704001900110D8F78095A9
:1026B00090958E0F9F1F08950F931F93CF93DF93D5
:1026C0008C01EB018B8181FF1BC082FF0DC02E812D
:1026D0003F818C819D812817390764F4E881F98155
:1026E0000193F983E88306C0E885F985802F199561
:1026F000892B31F48E819F8101969F838E8302C046
:102700000FEF1FEFC801DF91CF911F910F91089537
:10271000FA01AA27283051F1203181F1E8946F9312
:102720006E7F6E5F7F4F8F4F9F4FAF4FB1E03ED0B8
:10273000B4E03CD0670F781F891F9A1FA11D680F56
:10274000791F8A1F911DA11D6A0F711D811D911D89
:10275000A11D20D009F468943F912AE0269F1124FE
:102760003019305D3193DEF6CF010895462F477062
:10277000405D4193B3E00FD0C9F7F6CF462F4F70BD
:10278000405D4A3318F0495D31FD4052419302D01B
:10279000A9F7EACFB4E0A6959795879577956795C1
:1027A000BA95C9F700976105710508959B01AC01C1
:1027B0000A2E06945795479537952795BA95C9F7E8
:1027C000620F731F841F951FA01D0895109223068A
:1027D000109222068FE990E09093270680932606B8
:1027E00010922506109224068FE490E0909329061B
:1027F0008093280684E196E09093F1058093F0059C
:102800000895E4EFF4E08FEF9FE79183808335969E
:1028100085E0EC31F807B9F708959C01E091F005E7
:10282000F091F105868597852817390714F421E082
:1028300008C0828993898217930714F422E001C0AB
:1028400020E0848995898617970714F4246006C0D0
:1028500080899189681779070CF42860822F90E0AD
:1028600008952F923F924F925F926F927F928F9234
:102870009F92AF92BF92CF92DF92EF92FF920F930F
:102880001F93CF93DF93CDB7DEB72C970FB6F89495
:10289000DEBF0FBECDBF5C013B015E834D83388739
:1028A0002F832091F2033091F303C901865A9F4F81
:1028B00068E671E00E947F820AEE10E0FC01E00F02
:1028C000F11F6491862F992787FD9095A92FB92F25
:1028D00089839A83AB83BC83C90168E671E00E9457
:1028E0007F82080F191FF8012490332427FC3094AD
:1028F000432C532CCC24B7FCC094DC2C882477FCCC
:102900008094982C69817A818B819C81A6019501A4
:102910000E944C827B018C01C201B101A401930190
:102920000E944C82E61AF70A080B190B20915302F9
:10293000309154024091550250915602C801B7019E
:102940000E944C8269877A878B879C87C201B1017C
:10295000A60195010E944C827B018C0169817A81DC
:102960008B819C81A40193010E944C82E60EF71E8C
:10297000081F191F209157023091580240915902A7
:1029800050915A02C801B7010E944C822091EE0377
:102990003091EF034B855C85240F351FAD81BE81DF
:1029A0002D933C932091F0033091F103280F391FB0
:1029B000EF81F885318320832C960FB6F894DEBF23
:1029C0000FBECDBFDF91CF911F910F91FF90EF9080
:1029D000DF90CF90BF90AF909F908F907F906F903F
:1029E0005F904F903F902F9008952F923F924F927B
:1029F0005F926F927F928F929F92AF92BF92CF928F
:102A0000DF92EF92FF920F931F93CF93DF93CDB797
:102A1000DEB72E970FB6F894DEBF0FBECDBF5C01B8
:102A20003B011A013A8729874090F0055090F10543
:102A3000F20124813581C901865A9F4F68E671E011
:102A40000E947F820AEE10E0FC01E00FF11F64910A
:102A5000862F992787FD9095A92FB92F8D839E8367
:102A6000AF83B887C90168E671E00E947F82080FD2
:102A7000191FF8016491862F992787FD9095A92F3A
:102A8000B92F89839A83AB83BC83D2018D919C91AA
:102A9000A81AB90ACC24B7FCC094DC2CF2018281BC
:102AA0009381681A790A882477FC8094982C6D8128
:102AB0007E818F819885A60195010E944C827B01C1
:102AC0008C0169817A818B819C81A40193010E9490
:102AD0004C82E61AF70A080B190BF201228533859E
:102AE000442737FD4095542FC801B7010E944C82FE
:102AF0006B877C878D879E8769817A818B819C819A
:102B0000A60195010E944C827B018C016D817E8122
:102B10008F819885A40193010E944C82E60EF71ED6
:102B2000081F191FF20124853585442737FD40957C
:102B3000542FC801B7010E944C82F20126893789BF
:102B40004D855E85240F351FD1012D933C93208D3B
:102B5000318D281B390BE985FA85318320832E9628
:102B60000FB6F894DEBF0FBECDBFDF91CF911F919E
:102B70000F91FF90EF90DF90CF90BF90AF909F901C
:102B80008F907F906F905F904F903F902F9008951F
:102B90001092CD041092CC041092CA061092CB066B
:102BA0001092CC061092CD061092EC041092ED0417
:102BB0001092EE041092EF0408958091F703209193
:102BC000F0048823B9F081E090E09093230680938D
:102BD0002206222311F08AE090E09093250680934C
:102BE00024068EE990E090932706809326068EE4D3
:102BF00090E016C081E090E0909323068093220637
:102C0000222311F08AE090E0909325068093240619
:102C100088E890E0909327068093260680E490E071
:102C20009093290680932806809126069091270686
:102C3000019662E070E00E947F8270932B066093A1
:102C40002A06809128069091290620912406309129
:102C50002506820F931F62E070E00E947F827093CE
:102C60002D0660932C06109219061092180684E126
:102C700096E09093F1058093F0058FEF0E943F3E20
:102C80000E941C3080914205882319F082E00E9446
:102C900098210E942640089581E080934506809304
:102CA00042051092F7038093F0041092F6031092FD
:102CB000CD041092CC041092CA061092CB0610924A
:102CC000CC061092CD061092EC041092ED041092F6
:102CD000EE041092EF0482E380934D060E9403629B
:102CE0008091F2049091F3049D7F9093F30480937C
:102CF000F204109215061092140610921706109204
:102D0000160680E091E090931F0680931E06909334
:102D10002106809320061092730710927407109278
:102D20007507109276070E94DD1508950F931F9383
:102D3000CF93DF93009126051091270580E00E9434
:102D4000AE3EC0E0D0E01BC030E080E496E0AC01D5
:102D5000249FC001259F900D349F900D11240E9447
:102D60005836E091F005F091F10524892F5F4289F2
:102D70004F5F60896150868581500E94722F2C2F91
:102D80002196809165078217F8F6C8010E9458368F
:102D9000DF91CF911F910F9108950E94E8358091A6
:102DA000F30580950E943F3EE091F005F091F1051A
:102DB00024894289608986850E94BF258091F30518
:102DC00080950E943F3E08952F923F924F925F92CE
:102DD0006F927F928F929F92AF92BF92CF92DF922B
:102DE000EF92FF920F931F93CF93DF93CDB7DEB790
:102DF0002A970FB6F894DEBF0FBECDBF4C017A877D
:102E000069875E834D8338872F830E940D148B83DF
:102E10006F8178858D819E810E940D148A83209018
:102E2000F0053090F1054424552466247724198256
:102E30007BC08A812B81822319F080E090E084C0DE
:102E40008D819E81881999095C01CC24B7FCC094BE
:102E5000DC2C8F819885E985FA858E1B9F0B7C0180
:102E60000027F7FC0095102FFB81FF2319F42A811E
:102E70002C8302C03B813C83EC81E3FF04C0F10161
:102E80006088718824C0E0FF04C0F1014684578443
:102E900005C0E1FF17C0F10142885388B2016819EB
:102EA0007909882777FD8095982FA80197010E94BE
:102EB0004C82A60195010E94B48269847A84620ED4
:102EC000731E19C0E2FF17C0F10164887588B30151
:102ED00029853A85621B730B882777FD8095982F8B
:102EE000A60195010E944C82A80197010E94B4821C
:102EF0002401420E531E3C818B81381749F4B301E3
:102F0000C2010E940D148B8342017A86698609C032
:102F1000B301C2010E940D148A835E824D827886BD
:102F20006F8299819F5F99838A81EB818E2B21F03B
:102F3000F981F43009F07DCF2F814D816985882D8D
:102F40000E942C2D81E090E02A960FB6F894DEBF07
:102F50000FBECDBFDF91CF911F910F91FF90EF90EA
:102F6000DF90CF90BF90AF909F908F907F906F90A9
:102F70005F904F903F902F900895AF92BF92CF9265
:102F8000DF92EF92FF920F931F935C017B018A0106
:102F900069019B010E94E4169601A801B701C801CE
:102FA0000E94E4169601A501B601C8010E94E4162C
:102FB0009701A501B601C5010E94E4161F910F916A
:102FC000FF90EF90DF90CF90BF90AF9008958F92D9
:102FD0009F92AF92BF92CF92DF92EF92FF920F93A8
:102FE0001F93CF93DF93CDB7DEB724970FB6F89436
:102FF000DEBF0FBECDBF24EFC22E24E0D22E9FEF46
:10300000E92E9FE7F92E0FEF1FE783E0882E912C22
:103010008C0E9D1E5E010894A11CB11C4FC0F601D0
:10302000628173819401A5010E94F514FFEFEF16F0
:10303000FFE7FF06F9F02B813C8149815A81B801F5
:10304000C7010E94E4162B813C8149815A814F5F60
:103050005F4FB801C70101960E94E4162B813C81A5
:103060002F5F3F4F49815A810F5F1F4FB801C70142
:103070000E94E4162B813C8189819A810396B901D3
:10308000635070402D5F3F4FAC0106970E94BD1703
:103090006B817C8189819A81F601448105960E9429
:1030A0001D62E980FA800B811C8185E090E0C80EEA
:1030B000D91E91E2C91695E0D90641F0F60180814A
:1030C0009181FFE78F3F9F0709F0A9CF24960FB6A4
:1030D000F894DEBF0FBECDBFDF91CF911F910F914E
:1030E000FF90EF90DF90CF90BF90AF909F908F9028
:1030F00008952F923F924F925F926F927F928F929C
:103100009F92AF92BF92CF92DF92EF92FF920F9376
:103110001F93CF93DF93CDB7DEB72A970FB6F894FE
:10312000DEBF0FBECDBF2C016B013A014901580132
:10313000FA86E9868C0177E0272E312C2C0E3D1E75
:1031400065E0E62EF12CEC0EFD1E1CC09E012D5FED
:103150003F4FAE014F5F5F4FB601C8010E94F514AB
:103160009101A701B401C8010E94F5142F8138858F
:103170004D815E816B817C8189819A810E94E416F8
:103180000A0D1B1D601671060CF7860153E0E52E33
:10319000F12CEC0EFD1E1E010894211C311C47E091
:1031A000A42EB12CAC0EBD1E35E0C32ED12CCC0EFE
:1031B000DD1E1AC09701A101B801C2010E94F514D9
:1031C0009501A601B801C3010E94F5142F8138852D
:1031D0004D815E816B817C8189819A810E94E41698
:1031E00089859A85080F191F801691061CF72A9663
:1031F0000FB6F894DEBF0FBECDBFDF91CF911F9108
:103200000F91FF90EF90DF90CF90BF90AF909F9085
:103210008F907F906F905F904F903F902F90089588
:103220006F927F928F929F92AF92BF92CF92DF92D6
:10323000FF920F931F93CF93DF93CDB7DEB7249701
:103240000FB6F894DEBF0FBECDBF8C01AA24BB24FD
:10325000CC24DD24FF2463E0662E712C6C0E7D1ED1
:103260004E010894811C911C36C0992787FD9095CA
:103270009A838983F8016181772767FD70957C8344
:103280006B839B0153E0220F331F5A95E1F7660FC2
:10329000771F620F731FFC01B3E0EE0FFF1FBA959B
:1032A000E1F79301A401880F991F8E0F9F1F0E94C1
:1032B000F514F394F1E0FF1641F02B813C81498134
:1032C0005A81B601C5010E94E4160E5F1F4FA98006
:1032D000BA80CB80DC80F80180818F3731F624966C
:1032E0000FB6F894DEBF0FBECDBFDF91CF911F9117
:1032F0000F91FF90DF90CF90BF90AF909F908F90F5
:103300007F906F900895AF92BF92CF92DF92EF922D
:10331000FF920F931F932091C6053091C705293066
:10332000310548F40E9449678091F00491E08927B3
:103330008093F00428C04091470550914805809142
:103340002206909123064817590714F1809126060A
:103350009091270684179507DCF0809124069091C0
:10336000250628173907A4F0809128069091290690
:10337000821793076CF00E9449678091F70391E0F0
:1033800089278093F7030E94DD1588E590E059C1F5
:103390000E94AB498091F703882309F076C08091A1
:1033A000F004882349F081E793E00E94A521AC0155
:1033B00060E080E00E944F4088E693E00E94A521F3
:1033C000AC0164E480E00E94AA47E0904D06FF242F
:1033D00000E010E085E693E00E94A52123E02F9312
:1033E00021E02F9323E630E040E050E05F934F93DD
:1033F0003F932F9341E0A42EB12CC12CD12C9C01E2
:1034000048E168E182E90E94534260934D061091C1
:10341000F60383E693E00E94A52101E0212FAC0191
:1034200068E48CE80E949D448093F6031091420565
:1034300081E693E00E94A52102E0212FAC016EE31A
:103440008CE80E949D44809342058FE593E00E94A2
:10345000A521E0914105F0E0EE0FFF1FEE0FFF1FE9
:103460002091FA03E20FF11DEE0FFF1F2FEFAC01C9
:1034700060E080EA8E1B0E942D468DB79EB70696AF
:103480000FB6F8949EBF0FBE8DBF8091D9048823DC
:1034900011F00E9496161092D9040E944B408A3176
:1034A00051F18B3138F4883101F1893108F58230DE
:1034B000B9F40AC0883411F1833519F08B3181F4E5
:1034C00011C093E5D92E1CC00E941C30809142058A
:1034D000882319F082E00E94982181E08093D9042A
:1034E000DD240EC08CE4D82E0BC005E5D02E08C01C
:1034F00014E4D12E05C0B2E5DB2E02C0A8E4DA2E1A
:10350000E0907307F09074070091750710917607AB
:103510000E94064BE61AF70A080B190B99ECE916FC
:10352000F1040105110508F488C00E94064B609360
:103530007307709374078093750790937607809153
:10354000F603882329F010921906109218061EC05F
:103550008091CC049091CD04909319068093180625
:1035600097FF06C088599E4F9093190680931806BE
:10357000809118069091190621E08836920734F060
:103580008856914090931906809318068091CA0638
:103590009091CB06A091CC06B091CD06892F9A2FA1
:1035A000AB2FBB27A7FDBA95909315068093140601
:1035B0008091EC049091ED04A091EE04B091EF04A1
:1035C000892F9A2FAB2FBB27A7FDBA95909317068B
:1035D0008093160680914D0624E1829FC00111243C
:1035E00090931F0680931E069093210680932006D9
:1035F00080914205882311F00E9428300E94CD1648
:1036000081E492E00E9410197CE0E72EF12C0CE09E
:1036100010E020E630E040E650E060EA7FEF80EA2C
:103620009FEF0E94791861E081E00E946A6361E087
:1036300082E00E9459630E94E7178D2D992787FD2C
:1036400090951F910F91FF90EF90DF90CF90BF90DA
:10365000AF900895EF92FF920F931F93CF93DF9354
:10366000CDB7DEB728970FB6F894DEBF0FBECDBF3B
:103670007A0189019E012D5F3F4FAE014F5F5F4F81
:103680000E94F5149E01295F3F4FAE014B5F5F4FD3
:10369000B801C7010E94F5142F8138854D815E81E4
:1036A0006B817C8189819A810E94E41628960FB6ED
:1036B000F894DEBF0FBECDBFDF91CF911F910F9168
:1036C000FF90EF9008956F927F928F929F92AF92AA
:1036D000BF92CF92DF92EF92FF920F931F93CF93FF
:1036E000DF93CDB7DEB724970FB6F894DEBF0FBED9
:1036F000CDBF8C01AA24BB24CC24DD24EE24FF24DE
:1037000053E0652E712C6C0E7D1E4E010894811CB9
:10371000911C2CC0992787FD90959A838983F80185
:103720006181772767FD70957C836B839301A4018A
:103730000E9431144E2D405D6B817C8189819A817C
:1037400005960E941D62EE2041F02B813C8149814B
:103750005A81B601C5010E94E4160E5F1F4FA98071
:10376000BA80CB80DC800894E11CF11CF8018081D8
:103770008F3781F624960FB6F894DEBF0FBECDBF0B
:10378000DF91CF911F910F91FF90EF90DF90CF903D
:10379000BF90AF909F908F907F906F9008952F92E1
:1037A0003F924F925F926F927F928F929F92AF92D1
:1037B000BF92CF92DF92EF92FF920F931F93CF931E
:1037C000DF93CDB7DEB72A970FB6F894DEBF0FBEF2
:1037D000CDBF2C016B013A0149015801FA86E986F7
:1037E0008C01A7E02A2E312C2C0E3D1EF5E0EF2E89
:1037F000F12CEC0EFD1E1CC09E012D5F3F4FAE0153
:103800004F5F5F4FB601C8010E9431149101A701BB
:10381000B401C8010E9431142F8138854D815E8129
:103820006B817C8189819A810E94E4160A0D1B1D9F
:10383000601671060CF78601E3E0EE2EF12CEC0E1B
:10384000FD1E1E010894211C311C77E0A72EB12C0F
:10385000AC0EBD1E65E0C62ED12CCC0EDD1E1AC0EE
:103860009701A101B801C2010E9431149501A6017E
:10387000B801C3010E9431142F8138854D815E81CA
:103880006B817C8189819A810E94E41689859A8561
:10389000080F191F801691061CF72A960FB6F89488
:1038A000DEBF0FBECDBFDF91CF911F910F91FF9073
:1038B000EF90DF90CF90BF90AF909F908F907F90D0
:1038C0006F905F904F903F902F900895EF92FF92EE
:1038D0000F931F93CF93DF938C019B01E0903F05E3
:1038E000CB01865A9F4F68E671E00E947F82CAEE44
:1038F000D0E08C0F9D1FFC014491F090CB05C901D5
:1039000068E671E00E947F82C80FD91FFE01849192
:10391000992787FD9095809F9001819F300D909F02
:10392000300D1124220F232F221F330B2F0D311D99
:10393000842F992787FD9095809FA001819F500D2E
:10394000909F500D1124440F452F441F550B4E0DD1
:10395000511D6F2D8E2D0E942C2DDF91CF911F9127
:103960000F91FF90EF900895AF92BF92CF92DF92A8
:10397000FF920F931F93CF93DF93F82E162F042FF0
:1039800080933F056093CB05C1E0D0E0C22EDD24DB
:10399000A42EBB2412C0CA9DC001CB9D900DDA9D00
:1039A000900D1124B6010E947F82AB0120EC30E023
:1039B000612F8F2D0E94B32B2196CC16DD065CF76C
:1039C000402F4F0D6F2D601B812F0E943126202F1D
:1039D000210F101B4F2D612F8F2D0E942C2DDF9159
:1039E000CF911F910F91FF90DF90CF90BF90AF903C
:1039F0000895282F44E168E280E50E94B41C0895F0
:103A00004F925F926F927F928F929F92AF92BF92EE
:103A1000CF92DF92EF92FF920F93CF93DF93CDB7C8
:103A2000DEB722970FB6F894DEBF0FBECDBF0E945F
:103A30004C16E4EFF4E08FEF9FE791838083359697
:103A400025E0EC31F207B9F781E48093F804109295
:103A5000F5041092F4041092F7041092F60482E434
:103A60008093FD0482E390E09093FA048093F9043C
:103A700089E190E09093FC048093FB0483E48093BD
:103A800002051092FF041092FE0480E590E09093EE
:103A900001058093000584E48093070580EB9FEF88
:103AA00090930405809303058EE190E090930605C2
:103AB000809305056624772492E5492E93E0592EDC
:103AC0000E948319082F662011F4772039F0809125
:103AD000F004882319F081E0809345068091450623
:103AE000882351F160E080E00E9420228091CC0484
:103AF0009091CD049A838983E0901606F090170682
:103B0000C0901406D0901506C2010E94A521E9813B
:103B1000FA81FF93EF93FF92EF92DF92CF929F9300
:103B20008F930E9437112DB73EB7285F3F4F0FB6D6
:103B3000F8943EBF0FBE2DBF0C3471F00D342CF441
:103B4000043471F0083431F50FC0033509F105353F
:103B500029F00235F9F406C06A941CC073941AC0A7
:103B60007A9418C0639416C01092CD041092CC04BD
:103B70001092CA061092CB061092CC061092CD0677
:103B80001092EC041092ED041092EE041092EF04E7
:103B900066247724262D332727FD30958091CC0489
:103BA0009091CD04280F391F3093CD042093CC047D
:103BB00081E02836380734F0285631403093CD0460
:103BC0002093CC048091CC049091CD0497FF06C043
:103BD00088599E4F9093CD048093CC04872C9924D0
:103BE00087FC9094A92CB92CC090CC04D090CD0423
:103BF000C60168E671E00E947F82FC01E651FF4F3A
:103C0000E4916E2F772767FD7095872F972FA50179
:103C100094010E944C822091CA063091CB064091BB
:103C2000CC065091CD06260F371F481F591F2093F1
:103C3000CA063093CB064093CC065093CD06C601FE
:103C4000865A9F4F68E671E00E947F82FC01E65130
:103C5000FF4FE4916E2F772767FD7095872F972F81
:103C6000A50194010E944C822091EC043091ED0456
:103C70004091EE045091EF04260F371F481F591F43
:103C80002093EC043093ED044093EE045093EF0442
:103C90000E944B408F3F09F013CF0E9449670E945A
:103CA000E6130E9403620E941C300E943C2B8FEF9F
:103CB0000E943F3E22960FB6F894DEBF0FBECDBFE6
:103CC000DF91CF910F91FF90EF90DF90CF90BF9059
:103CD000AF909F908F907F906F905F904F900895DE
:103CE00082B3869586958095817090E00895459A77
:103CF00000000000000080E0079B04C0823311F048
:103D00008F5FFACF459808951F931FEF12B911B82E
:103D1000469A479A0E94771E469811B947981F9174
:103D200008950F931F93182F062F0E94841E479A01
:103D300012B9459A0000000000004598479802B962
:103D4000459A00000000000045981F910F910895CA
:103D5000FF920F931F9390EA699F80011124080F2F
:103D6000111D93E0169507959A95E1F78091260528
:103D700090912705080F191FA2984698FF24FA94DE
:103D8000F1B8602F8AE00E94911E012F1127602F49
:103D90008BE00E94911EA29AF2B811B8469A1F9128
:103DA0000F91FF900895EF92FF920F931F93E42ECF
:103DB0008695869586950091260510912705080F12
:103DC000111D66956695669584E1689FB001112482
:103DD000060F171FA2984698FF24FA94F1B8602F97
:103DE0008AE00E94911E012F1127602F8BE00E9414
:103DF000911E6E2D8CE00E94911EA29AF2B811B80D
:103E0000469A1F910F91FF90EF900895EF92FF92C5
:103E10000F931F93E42E90EA699F80011124080FED
:103E2000111D43E0169507954A95E1F78091260507
:103E300090912705080F191FA2984698FF24FA941D
:103E4000F1B8602F8AE00E94911E012F1127602F88
:103E50008BE00E94911E0E94841E479A8CE082B9DA
:103E6000459A00000000000045984798E2B8459A3E
:103E70000000000000004598A29AF2B811B8469AD6
:103E80001F910F91FF90EF900895FF920F931F9352
:103E900090EA699F80011124080F111D63E01695B7
:103EA00007956A95E1F78091260590912705080FFF
:103EB000191FA2984698FF24FA94F1B8602F8AE05F
:103EC0000E94911E012F1127602F8BE00E94911EEE
:103ED0000E94841E479A8DE082B9459A0000000036
:103EE00000004598F2B811B8469A0E94771E47988C
:103EF000459A0000000000004598479A0E94771EEE
:103F00004798459A00000000000080B14598A29AA9
:103F1000F2B811B8469A90E01F910F91FF90089562
:103F20000F931F9300912605109127059093270565
:103F30008093260560E080E00E94451F10932705CE
:103F40000093260590E01F910F9108950F931F9302
:103F5000462F009126051091270590932705809301
:103F6000260560E080E00E94061F1093270500935D
:103F700026051F910F91089584E892E090937007B1
:103F800080936F078FEF9FEF9093F3048093F20479
:103F90000895EF92FF920F931F937C018B010E9473
:103FA000A61F012F1127602FC70101960E94A61F8F
:103FB0001F910F91FF90EF900895CF92DF92EF92B3
:103FC000FF920F931F936C017A018B01642F0E9463
:103FD000A61F9927812F702F6F2DC60101960E9471
:103FE000A61FB80188279927C60102960E94A61F1E
:103FF000E12EFF24002711276E2DC60103960E9493
:10400000A61F1F910F91FF90EF90DF90CF90089522
:10401000EF92FF920F931F937C0101960E94901FD5
:10402000082F10E0102F0027C7010E94901F90E07A
:10403000802B912B1F910F91FF90EF900895CF92BD
:10404000DF92EF92FF920F931F936C0103960E94F1
:10405000901FE82EFF2400E010E0102F0F2DFE2C03
:10406000EE24C60102960E94901F90E0A0E0B0E00E
:10407000E82AF92A0A2B1B2B102F0F2DFE2CEE24D9
:10408000C60101960E94901F90E0A0E0B0E0E82AEF
:10409000F92A0A2B1B2B102F0F2DFE2CEE24C60104
:1040A0000E94901F90E0A0E0B0E0E82AF92A0A2BD5
:1040B0001B2BC801B7011F910F91FF90EF90DF906C
:1040C000CF90089597FF06C0DB01BF770E9416834B
:1040D000802D0AC096FF03C0FB01849105C095FFA7
:1040E00005C0CB010E94901F90E00895FB018081E4
:1040F00090E0089597FF06C0DB01BF770E942383FD
:10410000CF01089596FF04C0FB0185919491089515
:1041100095FF04C0CB010E9408200895FB01808117
:1041200091810895AF92BF92CF92DF92EF92FF926A
:104130000F931F93CF93DF93EA01A22E6A01BB2452
:1041400011C07B018C010894E11CF11C011D111DA3
:104150000E946220882351F0F60181936F01B3948D
:10416000C801B701BA1469F77B018C01CB0DD11DD1
:104170001882C801B701DF91CF911F910F91FF9075
:10418000EF90DF90CF90BF90AF9008956F927F92A5
:104190008F929F92AF92BF92CF92DF92EF92FF9257
:1041A0000F931F93CF93DF935B016C013A01490199
:1041B000E9010EC07B018C010894E11CF11C011D7A
:1041C000111D0E946220F30181933F01C801B701D4
:1041D0002197FFEFCF3FDF0769F7B40180E090E060
:1041E0006A0D7B1D8C1D9D1DDF91CF911F910F913D
:1041F000FF90EF90DF90CF90BF90AF909F908F9007
:104200007F906F900895DC01CB01B7FF06C0DC0101
:10421000BF77042E0E9428830895B5FF04C0642F41
:104220000E94A61F0895B6FD02C0FC0140830895B8
:10423000DC01CB01B7FF06C0DC01BF770A010E9499
:1042400034830895B5FF04C0BA010E94C91F0895C0
:10425000B6FD03C0FC01518340830895BF92CF9205
:10426000DF92EF92FF920F931F93CF93DF93B22EC3
:10427000EA0100E010C019916B017C010894C11C97
:10428000D11CE11CF11C412F0E940321112339F0A4
:104290000F5FC701B6010B1571F76B017C01C701F8
:1042A000B601DF91CF911F910F91FF90EF90DF90BA
:1042B000CF90BF9008956F927F928F929F92AF920E
:1042C000BF92CF92DF92EF92FF920F931F93CF9303
:1042D000DF935B016C013A014901E9010EC0F30172
:1042E00041913F017B018C010894E11CF11C011DEF
:1042F000111D0E940321C801B7012197FFEFCF3F95
:10430000DF0769F7B40180E090E06A0D7B1D8C1D2A
:104310009D1DDF91CF911F910F91FF90EF90DF9046
:10432000CF90BF90AF909F908F907F906F900895A7
:10433000853010F084E003C0882309F481E08150C7
:10434000809365078F5F90E008950F931F930EEFA2
:1043500013E040E550E0BC01C8010E94257CC80183
:104360001F910F910895CF93DF93CDB7DEB72497B8
:104370000FB6F894DEBF0FBECDBFDC01CB012983A1
:104380003A834B835C83B7FF09C0DC01BF7784E0CD
:10439000FE013196182E0E94398314C0B5FF07C064
:1043A00049815A816B817C810E94DD1F0BC0B6FD63
:1043B00009C0FC0189819A81AB81BC818083918392
:1043C000A283B38324960FB6F894DEBF0FBECDBF91
:1043D000DF91CF910895CF93DF93CDB7DEB72497C8
:1043E0000FB6F894DEBF0FBECDBF97FF0DC0DB0147
:1043F000BF7784E0FE013196182E0E941E836981EA
:104400007A818B819C8113C096FF06C0FB01659168
:104410007591859194910BC095FF04C0CB010E94CA
:104420001F2005C0FB0160817181828193812496E8
:104430000FB6F894DEBF0FBECDBFDF91CF910895C8
:10444000982F80933C056093F2058091F9038823AF
:1044500029F070E0892F90E00E94B73D08951F93E6
:104460001091F3058091F5030E943F3E812F0E9439
:104470000C3E1F9108952F923F924F925F926F9240
:104480007F928F929F92AF92BF92CF92DF92EF92E4
:10449000FF920F931F93CF93DF93CDB7DEB76E9745
:1044A0000FB6F894DEBF0FBECDBF782EB62EC42E49
:1044B000D22E902EAE2C8091F903882349F0FF2450
:1044C00010E030E050E070E0872D90E00E94EB3685
:1044D000DB1418F48D2DDB2CB82EC71418F48C2D9A
:1044E000C72C782E2FE9291508F430C34C2D403AFB
:1044F00008F04FE9692D70E0842F90E08719910949
:10450000860F971F803A910528F04156481B4715A2
:1045100008F41CC3292D269526952695922FA22FA7
:10452000BB27A7FDB095BA83A983F7E06F2E69205A
:10453000872D8770681AB4E0B61524F4E8EF6E0E84
:104540009F5F09C0222339F0FCEF6F1624F438E096
:10455000630E922F9150D3945D2D5B195C83DA9496
:10456000BA1428F0BB82EA2C81E08D8391C2EA2C38
:10457000EA94AC81EA0EDB82BFEFBD8389C2282FAB
:1045800030E087FF1DC085FDBCC020E030E00DC0DD
:10459000842F90E0AA85BB85A80FB91FA15DB94FF4
:1045A000815D994FFC0180818C93122F442D421B19
:1045B0002F5F3F4F8C859D852817390749F7A2C08B
:1045C000C90183709070892BE9F125FD9AC021FD06
:1045D0000AC05091F305472D20E030E06E817F81C5
:1045E000685F7F4F26C0E0FEF4CF5091F3055095F1
:1045F000472D20E030E06E817F81685F7F4F08C0EB
:10460000AA85BB85A10FB11DA15DB94F5C93485F21
:10461000122F2F5F3F4F842F90E06817790784F7A0
:1046200071C0AA85BB85A10FB11DA15DB94F5C9377
:10463000485F122F2F5F3F4F842F90E06817790754
:1046400084F760C000EA9B81909F80011124070DD0
:10465000111DE3E016950795EA95E1F7809126058F
:1046600090912705080F191FA2984698FF24FA94E5
:10467000F1B8602F8AE00E94911E012F1127602F50
:104680008BE00E94911E0E94841E479A8DE082B9A1
:10469000459A0000000000004598F2B811B8469A0B
:1046A0000E94771E4798459A000000000000459838
:1046B000072D1C8E1B8E12C0479A0E94771E4798AA
:1046C000459A00000000000080B1AA85BB85A10FBB
:1046D000B11DA15DB94F8C934598085F1B8DAB8DC3
:1046E000BC8D1196BC8FAB8F802F90E0E885F9854B
:1046F000E817F9070CF7A29A8FEF82B911B8469A1A
:1047000001C010E0A09156076A2FA5FD41C0462DBB
:1047100016148CF01FC05B2FF9010AC09181990F0C
:104720009183808187FF02C09160918351503197BE
:1047300057FFF4CF0CC0B12FB1502B2F332727FDDB
:10474000309589819A81280F391F225D394F415058
:1047500010F71EC0662099F41BC0ED8DFE8D908170
:1047600096959083818180FF02C0906890832F5F2F
:104770008D8D9E8D01969E8F8D8F211771F74F5FC6
:10478000413031F0EE85FF85FE8FED8F20E0F5CFD3
:1047900061FF03C08A2F8F7D05C0862F817821F0AD
:1047A0008A2F80620E94AE3E852C288939894A89E9
:1047B0005B892417350709F04AC0A88DB98D1C9173
:1047C000F1018081182B80915607282F30E0C90114
:1047D0008C719070892B49F46E2D892D0E94451F94
:1047E00081231095D6019C9109C022FF0AC06E2D2D
:1047F000892D0E94451F1095F60190811923182BD1
:1048000019C023FF0CC06E2D892D0E94451F912FCA
:104810009095D6012C919223192B18230BC024FFBD
:1048200009C06E2D892D0E94451F1095F6019081BB
:10483000192318278091560786FF03C0D6011C93C1
:1048400021C1412F6E2D892D0E94061F1BC1EC89AD
:10485000FD89EF2B11F4F92C3BC06E2D892D0E94A0
:10486000451F482F80915607682F70E0CB018C714F
:104870009070892B21F4D1018C91482304C062FFF0
:1048800008C0D1018C918095F60190818923482B35
:1048900015C063FF0AC0D1018C91982F9095F60145
:1048A00020819223982B492309C064FF07C0D101BE
:1048B0008C918095F60190818923482766FF03C07B
:1048C000D6014C9304C06E2D892D0E94061FFA8CD0
:1048D000EE89FF89379709F445C06E2D852D0E941A
:1048E000451F482F80915607682F70E0CB018C71CF
:1048F0009070892B29F4A88DB98D8C91482305C01F
:1049000062FF09C0A88DB98D8C918095F5019081C9
:104910008923482B17C063FF0BC0A88DB98D8C91DC
:10492000982F9095F50120819223982B49230AC056
:1049300064FF08C0A88DB98D8C918095F501908198
:104940008923482766FF03C0D5014C9304C06E2D10
:10495000852D0E94061F68EF862E8520BFE9B815B9
:1049600008F490C0F81408F08DC080915607282FE5
:1049700030E0C9018C719070892B09F045C026FD8B
:1049800081C000EAE09E800111240F0D111D53E04B
:10499000169507955A95E1F7809126059091270580
:1049A000080F191FA29846988FEF81B9602F8AE0EF
:1049B0000E94911E012F1127602F8BE00E94911EF3
:1049C0000E94841E479A8CE082B9459A000000003C
:1049D000000045980E94841EEF2DE695E695E69529
:1049E000F0E0E15DF94F808182B9459A0000000056
:1049F00000004598E8E0FE0EF81460F3A29A8FEFED
:104A000082B911B8469A3EC06E2D8F2D0E94451F67
:104A1000482F80915607282F82FF0AC0EF2DE69578
:104A2000E695E695F0E0E15DF94F8081482B17C0EF
:104A300083FF0AC0EF2DE695E695E695F0E0E15D8F
:104A4000F94F808148230BC084FF09C0EF2DE69504
:104A5000E695E695F0E0E15DF94F8081482726FF75
:104A600009C0EF2DE695E695E695F0E0E15DF94F9A
:104A7000408304C06E2D8F2D0E94061FF8E0FF0EAC
:104A8000F81410F22B813D81230F2B83E30E53C0CA
:104A9000A42FB0E0BF83AE831196B987A887E92F12
:104AA000FF27E7FDF095FB87EA87CD0133E0959579
:104AB00087953A95E1F7482E4394842D90E04A94E7
:104AC00001969D878C87A981BA81A15DB94FBF8767
:104AD000AE87592C5718540E852D90E0FB01E87FC6
:104AE000F98BE88BAC01487F5B8B4A8B67707070E9
:104AF0007D8B6C8B877090709F8B8E8B852D8695B0
:104B000086958695A82EBB248FE296E0A80EB91E46
:104B1000AE89BF89A559BD4FB98FA88FB92DB87F70
:104B2000B85FBA8FC22EDD24C80ED91E1B01E3E682
:104B3000F2E02E0E3F1EFC81F150FC83809156075F
:104B4000FF3F09F01CCD8F7D0E94AE3E6E960FB6E2
:104B5000F894DEBF0FBECDBFDF91CF911F910F91B3
:104B6000FF90EF90DF90CF90BF90AF909F908F908D
:104B70007F906F905F904F903F902F900895AF92ED
:104B8000BF92CF92DF92EF92FF920F931F93C82EA6
:104B9000F62EB42ED22EA090F903AA2031F030E0E8
:104BA00050E070E090E00E94D23A8091CA058823DC
:104BB000F9F41092F903DF1418F48D2DDF2CF82E80
:104BC000BC1418F48B2DBC2CC82E10915607812FC5
:104BD00081600E94AE3EEF2C0C2D2D2D4B2D6F2DA4
:104BE0008C2D0E943B22812F0E94AE3EA092F903A1
:104BF0001F910F91FF90EF90DF90CF90BF90AF90FB
:104C00000895CF92DF92EF92FF920F931F93E82EB9
:104C1000D42EC22EF02E0111FA940F2D060F202F44
:104C20004D2D8E2D0E94BF251C2D1F192C2D4D2D75
:104C3000612F8E2D0E94BF254F2D4E0D212F602FED
:104C40008E2D0E94BF254D2D4F19212F602F8D2DA8
:104C50000E94BF251F910F91FF90EF90DF90CF90A2
:104C60000895BF92CF92DF92EF92FF920F931F931E
:104C7000C82EF62ED42E461710F4D62EF42EB09051
:104C8000F903BB2041F04C2D50E06D2D70E08F2DCD
:104C900090E00E94F83B8091CA058823A9F4109205
:104CA000F90310915607812F81600E94AE3EEC2CD3
:104CB0000F2D2C2D4D2D6C2D8F2D0E943B22812FE1
:104CC0000E94AE3EB092F9031F910F91FF90EF90BA
:104CD000DF90CF90BF9008956F927F928F929F92B6
:104CE000AF92BF92CF92DF92EF92FF920F931F93FA
:104CF000CF93DF93962ED42E3901082F10E0780140
:104D00000894E11CF11CE80121970E94451F0770DF
:104D10001070055A1D4FF8019081982319F00FEF7C
:104D200010E002C000E010E0CD2CDD240C151D05C4
:104D300009F04BC080918302C81BD109D7FF03C083
:104D4000C0E0D0E014C0692D8C2F0E94451FFE01E9
:104D5000E770F070E55AFD4F9081982319F08FEFBE
:104D600090E002C080E090E08017910719F38091F5
:104D70008302A82EBB2480918302E80EF11CF1EA85
:104D8000EF16F10424F0A0EAEA2EF12C14C0692DEC
:104D90008E2D0E94451FF701E770F070E55AFD4F18
:104DA0009081982319F08FEF90E002C080E090E0AE
:104DB0008017910701F3CA0DDB1D80918302E81A69
:104DC000F10803C02197D7FD1CC0692D8C2F0E94CC
:104DD000451FFE01E770F070E55AFD4F9081982362
:104DE00019F08FEF90E002C080E090E08C159D05F7
:104DF00049F707C00894E11CF11C81EAE816F104A8
:104E0000A4F4692D8E2D0E94451FF701E770F07004
:104E1000E55AFD4F9081982319F08FEF90E002C082
:104E200080E090E08C159D0529F7219687010150BF
:104E300010407301E90CF11C862C03C0E60CF71C32
:104E4000980CA02E402F6C2F892D0E943126E0E572
:104E5000EE16F10418F080E090E096C0BE2C6E2DA6
:104E60008C2F0E94451FFE01E770F070E55AFD4F40
:104E70009081982319F08FEF90E002C080E090E0DD
:104E80008C159D05C9F02197D7FD14C06B2D8C2F73
:104E90000E94451FFE01E770F070E55AFD4F9081BA
:104EA000982319F08FEF90E002C080E090E08C151D
:104EB0009D0549F7219618C02196C017D107A4F483
:104EC0006B2D8C2F0E94451FFE01E770F070E55A94
:104ED000FD4F9081982319F08FEF90E002C080E0A1
:104EE00090E08C159D0541F36B2D8A2D0E94451F86
:104EF000F801E770F070E55AFD4F9081982319F0A2
:104F00008FEF90E002C080E090E08C159D05D9F411
:104F1000015010400C171D078CF16B2D802F0E9443
:104F2000451FF801E770F070E55AFD4F9081982316
:104F300019F08FEF90E002C080E090E08C159D05A5
:104F400009F07CCFE5CF0F5F1F4F003A1105A4F4A5
:104F50006B2D802F0E94451FF801E770F070E55A15
:104F6000FD4F9081982319F08FEF90E002C080E010
:104F700090E08C159D0539F7015010400C171D0766
:104F80000CF05CCF81E090E0DF91CF911F910F9109
:104F9000FF90EF90DF90CF90BF90AF909F908F9059
:104FA0007F906F900895EF92FF920F931F93082FB9
:104FB000162FF42EE090F903EE2041F00E94923675
:104FC0008091CA05882369F51092F903612F802F1B
:104FD0000E94451FE02FF0E0E770F070E55AFD4FAA
:104FE0009081982319F02FEF30E002C020E030E0EC
:104FF0008F2D90E02817390719F480E090E013C056
:105000002FEF3FEF4F2D612F802F0E946C261F5FE7
:1050100021E030E04F2D612F802F0E946C26E0921E
:10502000F90381E090E01F910F91FF90EF900895B8
:10503000EF92FF920F931F93F82E8091F90388232C
:1050400021F08F2D90E00E9470351091560780E07E
:105050000E94AE3EEE2400E02FE44FE96F2D80E089
:105060000E943B2281E00E94AE3E0E942F2260E51A
:105070006F19E62E2FE44FE980E00E943B220E9448
:105080002F22812F0E94AE3E1F910F91FF90EF9033
:1050900008952F923F924F925F926F927F928F92DC
:1050A0009F92AF92BF92CF92DF92EF92FF920F93B7
:1050B0001F93CF93DF93CDB7DEB724970FB6F89445
:1050C000DEBF0FBECDBFC82ED62E142F2090F90301
:1050D000222039F0462F50E0682F70E0812F0E9487
:1050E000543D1092F9038091F505882331F0412F4A
:1050F0006D2D8C2D0E94D31E49C12C2D30E03A839A
:105100002983C90187709070892B61F480914105D2
:10511000823040F4809156078E7121F48091CE0444
:1051200080FF0FC0812F90E003E0880F991F0A9540
:10513000E1F79C838B836624772417E0412E512C62
:1051400031C0E12EFF24B3E0EE0CFF1CBA95E1F76D
:1051500000E010E06D2D600F8091CE0481FF05C04E
:10516000E7E0F0E0E01BF10B01C0F801EE0DFF1DE0
:10517000E558FB4F449182FF05C0E42FF0E0E5586D
:10518000FC4F44919091F5038091F305981708F036
:1051900040958C2D0E94061F0F5F1F4F0830110590
:1051A000C9F6DFC08091CE0490E080FF2FC0BB2401
:1051B00020E030E0BC0162707070AC01447050704F
:1051C0006115710529F0E7E0F0E0E21BF30B01C087
:1051D000F9018B819C81E80FF91FE558FB4F9491F1
:1051E0004115510511F0F20101C0F301E55AFD4FDF
:1051F0008081982329F0F901E55AFD4F8081B82A72
:105200002F5F3F4F28303105A9F0DACF81FF02C070
:10521000F20101C0F3012B813C81E20FF31FE5583D
:10522000FB4FE49182FD02C0BE2E04C0F0E0E558C1
:10523000FC4FB4909091F5038091F305981708F016
:10524000B0948824992469C0812F8B2109F48CC0E3
:105250004115510591F06115710511F4902F01C0B0
:10526000932DA981BA81A20FB11DA770B070A55A64
:10527000BD4F8C91982309F477C0A22FA695A695CF
:10528000A695B0E0A15DB94FE22FF0E0E770F070B5
:10529000E55AFD4F80819C91892B8C932F5F203A9A
:1052A00018F43F5F3A1580F2110F11F030E0FACF99
:1052B0000894811C911C8E2D806A452BA9F00E94B8
:1052C000AE3E40914105440F440F440F4150EF2C36
:1052D0000C2D20E060E080E00E943B228091560788
:1052E0008F750E94AE3E19C00E94AE3E20914105CE
:1052F000422F440F440F440F4150EF2C0C2D2150EE
:1053000060E080E00E943B22809156078F750E94EA
:10531000AE3ED0904105DF0C19C0F82CFD0CA090DA
:1053200041058A1490F4E09056074E2D50E04270EB
:1053300050700091F305302E30942C2D30E011E0A8
:105340006F2D70E061707070ADCFDF2C0894611C20
:10535000711C08944108510838E06316710409F083
:1053600021CF2092F90312C0A22FA695A695A6954B
:10537000B0E0A15DB94FE22FF0E0E770F070E55AC0
:10538000FD4F808180959C91892387CF24960FB60D
:10539000F894DEBF0FBECDBFDF91CF911F910F916B
:1053A000FF90EF90DF90CF90BF90AF909F908F9045
:1053B0007F906F905F904F903F902F9008950F9344
:1053C0001F93CF93DF93082F162FEA012BC0612F75
:1053D000802F0E9449288091CE0490E09C0120718A
:1053E000307083FF10C080914105232B29F0880F76
:1053F000880F880F181B04C0880F880F880F180F9C
:10540000103580F012C080914105232B29F0880FC0
:10541000880F880F081B04C0880F880F880F080F9B
:10542000003A18F44991442391F6DF91CF911F91EE
:105430000F910895EF92FF920F931F93CF93DF93F5
:10544000082F162F7A01C0E0D0E001C02196F701A5
:10545000EC0FF11D4491442359F1612F802F0E94DC
:1054600049288091CE0490E09C012071307083FF28
:1054700010C080914105232B29F0880F880F880FD9
:10548000181B04C0880F880F880F180F1035F0F212
:105490000FC080914105232B29F0880F880F880FBA
:1054A000081B04C0880F880F880F080F003A70F29D
:1054B000DF91CF911F910F91FF90EF900895482FAA
:1054C0002091F2043091F30420FF09C0873039F4B1
:1054D00060ED77E088EC90E00E94C04A4FC021FF69
:1054E00016C04830A1F440913C0580914105282F19
:1054F00030E093E0220F331F9A95E1F7842F90E07C
:105500008217930754F0421B40933C0537C022FF9B
:1055100007C04C3029F41092F20510923C052EC0C1
:1055200023FF05C04A3019F410923C050CC024FF3B
:1055300002C04D3091F325FF02C04930A9F026FF8B
:105540000DC04B3059F480914105880F880F880FAA
:105550009091F205890F8093F20510C06091F205D9
:1055600080913C050E94492880914105880F880F51
:10557000880F90913C05890F80933C0580914105EF
:10558000482F50E083E0440F551F8A95E1F72091A2
:105590003C0530E080EA90E0841B950B821793076E
:1055A0003CF410923C058091F205840F8093F20543
:1055B0006091F205262F30E080E590E0841B950B8A
:1055C000821793076CF48091F20487FF07C0641B75
:1055D0006093F205842F0E94182802C01092F205F1
:1055E00080E090E00895FF920F931F93CF93DF9395
:1055F000F82E8091F903882319F08F2D0E94FF3532
:105600008091CA05882391F5009126051091270500
:10561000A29846988FEF81B9602F8AE00E94911E70
:10562000012F1127602F8BE00E94911E0E94841E83
:10563000479A8CE082B9459A000000000000459826
:105640004798C0E4D6E008C00E94841EF2B8459A8C
:10565000000000000000459821978FEFCF3FD8074A
:1056600099F7A29A8FEF82B911B8469ADF91CF913C
:105670001F910F91FF90089560E080E00E9420222A
:105680008091F5030E94F32A08950F931F93182F1A
:10569000062F803A08F064C0603508F061C0809140
:1056A000F903882329F070E0812F90E00E94FF3CED
:1056B0008091F505882339F04091F305602F812F03
:1056C0000E94D31E4DC0602F812F0E94451F482F7E
:1056D00080915607282F30E0C9018C719070892B7A
:1056E00039F1E12FF0E0E770F070E55AFD4FE0810D
:1056F000842F8E2323FF03C08823B9F004C022FF28
:1057000007C0882381F48091F305882361F40DC0DC
:1057100024FF22C09091F305882319F0992319F0F2
:1057200004C0992311F04E2B17C0E0954E2314C0EE
:105730008091F305E12FF0E0882339F0E770F070F5
:10574000E55AFD4F8081482B07C0E770F070E55A9D
:10575000FD4F808180954823602F812F0E94061F76
:105760001F910F9108952F923F924F925F926F92E7
:105770007F928F929F92AF92BF92CF92DF92EF92E1
:10578000FF920F931F93CF93DF93CDB7DEB7609750
:105790000FB6F894DEBF0FBECDBF8D876E87E42EA7
:1057A00069012091F9032983222369F050E070E018
:1057B000960190E00E94ED388091CA05882309F097
:1057C00032C11092F903FF2400E010E0B6018827EF
:1057D00077FD8095982FA80197010E944C825B016C
:1057E0006C01C801B7010E944C82DC01CB01880F1B
:1057F000991FAA1FBB1F8E839F83A887B987A60105
:10580000950104E055954795379527950A95D1F769
:10581000CA01B9010E944C82DC01CB0117E0B595A9
:10582000A795979587951A95D1F78A839B83AC8323
:10583000BD8380E490E0A0E0B0E0A80EB91ECA1ECF
:10584000DB1EA7E0D594C794B794A794AA95D1F787
:10585000D601C501B595A79597958795EE85E80F73
:10586000EC873D85232F30E0220F331F3B872A87AB
:105870009E85892F90E0880F991F988B8F87EE80E7
:10588000FF800885198516950795F794E794C6015A
:10589000B501A80197010E944C82222433242101E2
:1058A000261A370A480A590A6A807B808C809D80B4
:1058B000969487947794679464015301AE18BF0857
:1058C000C00AD10AAA0CBB1CCC1CDD1C169507957E
:1058D000F794E794AE0CBF1CC01ED11E0A85AD859F
:1058E0000A1B1A2F44C08091560790E08370907075
:1058F000EF84BC85EB1A892B59F0412F602F8B2F39
:105900000E943126412F602F8E2D0E94312610C01B
:105910006C85812F0E94452B6E2D812F0E94452B77
:105920006C85802F0E94452B6E2D802F0E94452B69
:105930008A819B81AC81BD81680E791E8A1E9B1E67
:10594000A60CB71CC81CD91CD7FC0FC08E819F8128
:10595000A885B985280E391E4A1E5B1EA20CB31CF1
:10596000C41CD51C9C8591509C871F5F0150D2019F
:10597000C101860D971DA81DB91DB7FDB4CF0F85B8
:10598000AC850A1B48C08091560790E083709070E8
:10599000EA84E11A892B59F0412F6E2D8C850E94E3
:1059A0003126412F6E2D802F0E94312610C06C852C
:1059B000812F0E94452B602F812F0E94452B6C85E3
:1059C0008E2D0E94452B602F8E2D0E94452B1A1480
:1059D0001B041C041D046CF08A819B81AC81BD8179
:1059E000680E791E8A1E9B1EA60CB71CC81CD91CEB
:1059F0001F5F0F5F9C85992399F091509C878E8142
:105A00009F81A885B985280E391E4A1E5B1EA20CEF
:105A1000B31CC41CD51C9C85AE859A1708F0B3CF67
:105A2000B981B093F90360960FB6F894DEBF0FBE4C
:105A3000CDBFDF91CF911F910F91FF90EF90DF903D
:105A4000CF90BF90AF909F908F907F906F905F901E
:105A50004F903F902F9008957F928F929F92AF9298
:105A6000BF92CF92DF92EF92FF920F931F93CF934B
:105A7000DF93C82ED62EA42EB22E7090F903772075
:105A800031F030E050E070E090E00E946C3C80919A
:105A9000CA05882309F050C01092F903EA2CFF24AC
:105AA000EC18F108F7FC03C08824839406C0F09436
:105AB000E194F108F39488248A940B2D10E00D19D9
:105AC000110917FD03C09924939405C01095019501
:105AD0001F4F99249A940E151F05B4F4000F111F3F
