:100000000C94C00A0C94E10A0C94E10A0C94E10AE5
:100010000C94E10A0C94E10A0C94E10A0C94E10AB4
:100020000C94E10A0C94E10A0C94E10A0C94E10AA4
:100030000C94E10A0C94E10A0C94E10A0C94E10A94
:100040000C94E10A0C94E10A0C94E10A0C94E10A84
:100050000C94E10A0C9465460C94E10A0C94E10AB4
:100060000C94E10A0C94114F0C94E10A0C94914900
:100070000C94E10A0C94E10A0C94E10A0C94E10A54
:100080000C94E10A0C94E10A0C94E10A0C94E10A44
:100090000C94694C0C94E10A0C94004A0C94E10A0B
:1000A0000C94E10A0C94E10A0C94E10A0C94E10A24
:1000B0000C94E10A0C94E10A0C94E10A0C94E10A14
:1000C0000C94E10A0C94E10A0C94E10A05A84CCDC9
:1000D000B2D44EB93836A9020C50B9918688083C82
:1000E000A6AAAA2ABE000000803F00020407090B4E
:1000F0000D0F121416181A1D1F21232527292B2E28
:1001000030323436383A3C3E4041434547494B4C07
:100110004E5052535557585A5B5D5E60616364653B
:100120006768696B6C6D6E6F7071727374757677DA
:10013000777879797A7B7B7C7C7D7D7D7E7E7E7F06
:100140007F7F7F7F7F7F7F7F7F7F7E7E7E7D7D7DC8
:100150007C7C7B7B7A79797877777675747372712A
:10016000706F6E6D6C6B69686765646361605E5D1E
:100170005B5A5857555352504E4C4B494745434193
:10018000403E3C3A38363432302E2B292725232165
:100190001F1D1A181614120F0D0B0907040200FE7A
:1001A000FCF9F7F5F3F1EEECEAE8E6E3E1DFDDDB9D
:1001B000D9D7D5D2D0CECCCAC8C6C4C2C1BFBDBBA8
:1001C000B9B7B5B4B2B0AEADABA9A8A6A5A3A2A06D
:1001D0009F9D9C9B9998979594939291908F8E8DCB
:1001E0008C8B8A89898887878685858484838383A5
:1001F00082828281818181818181818181818282EA
:1002000082838383848485858687878889898A8B8E
:100210008C8D8E8F9091929394959798999B9C9D9D
:100220009FA0A2A3A5A6A8A9ABADAEB0B2B4B5B726
:10023000B9BBBDBFC1C2C4C6C8CACCCED0D2D5D747
:10024000D9DBDDDFE1E3E6E8EAECEEF1F3F5F7F91F
:10025000FCFE000306090C101316191C1F2225288A
:100260002B2E313336393C3F414447494C4E515394
:1002700055585A5C5E60626466686A6B6D6F707137
:100280007374757678797A7A7B7C7D7D7E7E7E7FCD
:100290007F7F7F7F7F7F7E7E7E7D7D7C7B7A7A798C
:1002A000787675747371706F6D6B6A68666462607E
:1002B0005E5C5A585553514E4C494744413F3C3976
:1002C0003633312E2B2825221F1C191613100C092A
:1002D000060300FDFAF7F4F0EDEAE7E4E1DEDBD82F
:1002E000D5D2CFCDCAC7C4C1BFBCB9B7B4B2AFAD08
:1002F000ABA8A6A4A2A09E9C9A9896959391908F45
:100300008D8C8B8A8887868685848383828282818E
:1003100081818181818182828283838485868687AF
:10032000888A8B8C8D8F9091939596989A9C9EA09D
:10033000A2A4A6A8ABADAFB2B4B7B9BCBFC1C4C785
:10034000CACDCFD2D5D8DBDEE1E4E7EAEDF0F4F7B1
:10035000FAFD253464202534642048253364005890
:100360000050004E005A4D001B18191A2053204807
:1003700000204D61702044656D6F00008040C020FA
:10038000A060E0109050D030B070F0088848C828C5
:10039000A868E8189858D838B878F8048444C42471
:1003A000A464E4149454D434B474F40C8C4CCC2C65
:1003B000AC6CEC1C9C5CDC3CBC7CFC028242C2222F
:1003C000A262E2129252D232B272F20A8A4ACA2A65
:1003D000AA6AEA1A9A5ADA3ABA7AFA068646C62611
:1003E000A666E6169656D636B676F60E8E4ECE2E05
:1003F000AE6EEE1E9E5EDE3EBE7EFE018141C121DE
:10040000A161E1119151D131B171F1098949C92934
:10041000A969E9199959D939B979F9058545C525E0
:10042000A565E5159555D535B575F50D8D4DCD2DD4
:10043000AD6DED1D9D5DDD3DBD7DFD038343C3239E
:10044000A363E3139353D333B373F30B8B4BCB2BD4
:10045000AB6BEB1B9B5BDB3BBB7BFB078747C72780
:10046000A767E7179757D737B777F70F8F4FCF2F74
:10047000AF6FEF1F9F5FDF3FBF7FFF0000000000F7
:100480000000007E81A581BD99817E7EFFDBFFC3D8
:10049000E7FF7E367F7F7F3E1C0800081C3E7F3EC4
:1004A0001C08001C3E1C7F7F3E1C3E08081C3E7F33
:1004B0003E1C3E0000183C3C180000FFFFE7C3C391
:1004C000E7FFFF003C664242663C00FFC399BDBDAA
:1004D00099C3FFF0E0F0BE3333331E3C6666663CE2
:1004E000187E18FCCCFC0C0C0E0F07FEC6FEC6C610
:1004F000E66703995A3CE7E73C5A9901071F7F1FBB
:1005000007010040707C7F7C704000183C7E18180A
:100510007E3C186666666666006600FEDBDBDED83B
:10052000D8D8007CC61C36361C331E000000007E66
:100530007E7E00183C7E187E3C18FF183C7E181802
:10054000181800181818187E3C18000018307F3052
:10055000180000000C067F060C00000000030303D7
:100560007F0000002466FF6624000000183C7EFF28
:10057000FF000000FFFF7E3C1800000000000000AC
:100580000000000C1E1E1E0C000C0036363600004B
:1005900000000036367F367F3636000C3E031E30B4
:1005A0001F0C00006333180C6663001C361C6E3B86
:1005B000336E000606030000000000180C06060655
:1005C0000C1800060C1818180C060000663CFF3CBE
:1005D000660000000C0C3F0C0C0000000000000046
:1005E0000C0C060000003F000000000000000000AE
:1005F0000C0C006030180C060301003E63737B6F27
:10060000673E000C0E0C0C0C0C3F001E33301C0619
:10061000333F001E33301C30331E00383C36337FEE
:100620003078003F031F3030331E001C06031F3399
:10063000331E003F3330180C0C0C001E33331E33B6
:10064000331E001E33333E30180E00000C0C000029
:100650000C0C00000C0C00000C0C06180C06030619
:100660000C180000003F00003F0000060C18301876
:100670000C06001E3330180C000C003E637B7B7BA5
:10068000031E000C1E33333F3333003F66663E6665
:10069000663F003C66030303663C001F36666666E1
:1006A000361F007E06061E06067E007E06061E0615
:1006B0000606003C66030373667C003333333F3326
:1006C0003333001E0C0C0C0C0C1E00783030303311
:1006D000331E006766361E36666700060606060687
:1006E000067E0063777F7F6B63630063676F7B7356
:1006F0006363001C36636363361C003F66663E0618
:10070000060F001E3333333B1E38003F66663E360D
:100710006667001E33070E38331E003F0C0C0C0CAE
:100720000C0C003333333333333F00333333333341
:100730001E0C006363636B7F7763006363361C1C6E
:100740003663003333331E0C0C1E007F6030180CF0
:10075000067F001E06060606061E0003060C18305D
:100760006040001E18181818181E00081C36630078
:1007700000000000000000000000FF0C0C1800004A
:1007800000000000001E303E336E000706063E6685
:10079000663B0000001E3303331E003830303E330A
:1007A000336E0000001E333F031E001C36060F068A
:1007B000060F0000006E33333E301F0706366E66AC
:1007C0006667000C000E0C0C0C1E00300030303040
:1007D00033331E070666361E3667000E0C0C0C0CF3
:1007E0000C1E000000337F7F6B630000001F33335B
:1007F00033330000001E3333331E0000003B6666B7
:100800003E060F00006E33333E307800003B6E66CC
:10081000060F0000003E031E301F00080C3E0C0CAB
:100820002C18000000333333336E000000333333B1
:100830001E0C000000636B7F7F3600000063361CD7
:1008400036630000003333333E301F00003F190C85
:10085000263F00380C0C070C0C380018181800182C
:10086000181800070C0C380C0C07006E3B00000039
:1008700000000000081C3663637F003E6303633E94
:1008800030603E0033003333336E0038001E333F98
:10089000031E007E813C607C66DC0033001E303E1F
:1008A000336E0007001E303E336E000C0C1E303ECF
:1008B000336E0000003E63031E301C7E813C667E6A
:1008C000063C0033001E333F031E0007001E333F6B
:1008D000031E0033000E0C0C0C1E003E411C1818A9
:1008E000183C0007000E0C0C0C1E0063083E637FD2
:1008F0006363000C0C001E333F330038003F061EBC
:10090000063F000000FE30FE33FE007C36337F33AE
:100910003373001E21001E33331E000033001E33CC
:10092000331E000007001E33331E001E2100333328
:10093000336E000007003333336E0000330033336F
:100940003E301FC3183C66663C1800330033333317
:10095000331E0018187E03037E18181C36260F0657
:10096000673F0033331E0C3F0C3F0C1F33335F6374
:10097000F363C370D8183C18181B0E38001E303EA5
:10098000336E001C000E0C0C0C1E000038001E33D1
:10099000331E000038003333336E00001F001D3358
:1009A0003333003F0033373F3B33003C36367C0067
:1009B0007E00001C36361C003E0000180018180C83
:1009C000663C000000003F030300000000003F30D1
:1009D00030000063331B6CD64321F0C36333DBEC80
:1009E000B6F3C0180018183C3C180000CC663366FB
:1009F000CC0000003366CC6633000044114411443F
:100A0000114411AA55AA55AA55AA55DB6FDBF6DB8E
:100A10007EEBB71818181818181818181818181F77
:100A200018181818181F181F1818186C6C6C6C6F91
:100A30006C6C6C000000007F6C6C6C00001F181F59
:100A40001818186C6C6F606F6C6C6C6C6C6C6C6CE8
:100A50006C6C6C00007F606F6C6C6C6C6C6F607F9A
:100A60000000006C6C6C6C7F00000018181F181FD1
:100A7000000000000000001F18181818181818F8B7
:100A800000000018181818FF00000000000000FF08
:100A900018181818181818F818181800000000FF6F
:100AA00000000018181818FF1818181818F818F867
:100AB0001818186C6C6C6CEC6C6C6C6C6CEC0CFC42
:100AC0000000000000FC0CEC6C6C6C6C6CEF00FF28
:100AD0000000000000FF00EF6C6C6C6C6CEC0CEC28
:100AE0006C6C6C0000FF00FF0000006C6CEF00EF0E
:100AF0006C6C6C1818FF00FF0000006C6C6C6CFFD5
:100B00000000000000FF00FF18181800000000FFA0
:100B10006C6C6C6C6C6C6CFC0000001818F818F8AD
:100B20000000000000F818F818181800000000FC79
:100B30006C6C6C6C6C6C6CFF6C6C6C1818FF18FF38
:100B4000181818181818181F00000000000000F8E6
:100B5000181818FFFFFFFFFFFFFFFF00000000FF56
:100B6000FFFFFF0F0F0F0F0F0F0F0FF0F0F0F0F060
:100B7000F0F0F0FFFFFFFF0000000000006E3B13ED
:100B80003B6E00001E331F331F0303003F3303037C
:100B900003030000007F36363636003F33060C066E
:100BA000333F0000007E1B1B1B0E0000666666665E
:100BB0003E0603006E3B18181818003F0C1E333316
:100BC0001E0C3F1C36637F63361C001C3663633685
:100BD000367700380C183E33331E0000007EDBDB16
:100BE0007E000060307EDBDB7E06031C06031F03F5
:100BF000061C001E33333333333300007E007E0087
:100C00007E000018187E1818007E00060C180C06CE
:100C1000003F00180C060C18003F0070D8D81818B8
:100C200018181818181818181B1B0E1818007E0012
:100C3000181800006E3B006E3B00001C36361C008E
:100C4000000000000000181800000000000000185C
:100C5000000000F030303037363C381A3636363641
:100C60000000000E190C061F00000000003C3C3C78
:100C70003C0000007E424242427E000A4348454317
:100C80004B53554D204552524F520A000A43484596
:100C9000434B53554D204F4B0A000A434845434BA5
:100CA00053554D2053415645440A00434845434B54
:100CB00053554D2073623A253034580A0043484555
:100CC000434B53554D2069733A253034580A002060
:100CD0002530325800253034583A004558495400E0
:100CE000434C45415220434845434B504F494E5495
:100CF0000044554D5020746F20434F4D30004368E1
:100D000065636B506F696E742044756D703A202571
:100D10003032580044554D50494E472052414D3ACB
:100D2000202530325800580053657420636C6F637F
:100D30006B00496E7665727420627574746F6E73A1
:100D400000426565706572004261636B6C6967683B
:100D500074004D697363205365747570204D656E22
:100D60007500312E303300536574757000200058C3
:100D7000002000580058002000001F1D1F1E1F1ECD
:100D80001F1F1E1F1E1F2564206D736563732F6850
:100D900072002B2F2D206D736563732F68722000F6
:100DA0002564256325642563256400444154453A40
:100DB000204D4D2F44442F59593F0054494D453A39
:100DC0002048483A4D4D3A53533F00580020414483
:100DD0004A5553542000253032642F253032642F79
:100DE0002530326400253032643A253032643A25A9
:100DF000303264005365742054696D65204D656E12
:100E000075000003020500030501040602044441C5
:100E1000544120426974733F0042617564207261DD
:100E200074653F00580054494D454F555400525485
:100E3000530043545300464C4F572043544C0058E2
:100E40004D49540052435600584F4E2F584F464676
:100E5000004556454E004F44440050617269747914
:100E60003A200053544F503A2025640044415441E5
:100E70003A202564004261756420726174653A20ED
:100E800025366C6400434F4D25642053657475709E
:100E9000204D656E75000500F800AF00FF00FF00F3
:100EA000FF001E00F2004F00FF00FF00FF00FF00E8
:100EB000FF00FF00FF00FF00FF0041003900B80005
:100EC000BF00FF00FF00FF00FF00FF00FF00FF006A
:100ED000FF00FF00FF00FF00FF00FF00FF001E00FB
:100EE000FF00FF00FF00FF00FF002E00DC00FF00FE
:100EF000FF00FF00FF000E00DA00FF00FF00FF0010
:100F0000FF000C00F200AF005700FF00FF00570089
:100F1000FE00DF00FF00FF00FF00DA00FF00FF001F
:100F2000FF00FF00FF005700FF00FF00FF00FF0071
:100F3000FF008A00FF00FF00FF00FF00FF002A0003
:100F4000FF00FF00FF00FF00FF00830014009B0074
:100F50008F00FF00FF003100BF00AC00FF00FF006A
:100F6000FF00310047008A00CF00FF00FF000100B2
:100F70004900BA00F5007F00FF00B600510067008D
:100F8000FF00FF00FF00200056009B00AF00FF00A5
:100F9000FF0021005800B9007500FF00FF000200AB
:100FA000AF00FF00FF00FF00FF00630014006900B6
:100FB000B8006F00FF008B00940013005D007F00FD
:100FC000FF001E00FD00BF00FF00FF00FF001E002D
:100FD000FD00AF00FF00FF00FF002500CF00FF0075
:100FE000FF00FF00FF005700F8009F00FF00FF0018
:100FF000FF000700AF00FF00FF00FF00FF00BD0083
:1010000074001300FF00FF00FF009B00830014002A
:101010007D005E00D500A5001700CF005700FF003F
:10102000FF00A00014006900BA000F005600410044
:101030003800B900FF00FF00FF000A00B9004100BE
:101040000F00FF00FF002000AC00F5006F00FF0064
:10105000FF002000AF005600FF00FF00FF0041002E
:101060003800B9007600FF00FF000A00F200CF0050
:101070007500FF00FF000200FA00CF001B00FF0018
:10108000FF002900B800FF00FF00FF00FF000A007A
:10109000F2005C00FF00FF00FF000A00CF00FF002D
:1010A000FF00FF00FF00A000E200CF00FF00FF00F4
:1010B000FF00A000C200FF00FF00FF00FF003100A2
:1010C0004900B8003F00FF00FF00A00014006500C9
:1010D000FF00FF00FF00DC00F80031004900B8000D
:1010E000FF00A00014006500CF00FF00FF004100DA
:1010F0003900B800FF00FF00FF000200F100BF0050
:10110000FF00FF00FF000800B9002F00FF00FF00F4
:10111000FF000B002F00FF00FF00FF00FF000A0090
:101120006C002F00FF00FF00FF000C00F200AF007A
:10113000FF00FF00FF000E002B00FF00FF00FF007C
:10114000FF000200AC00FF00FF00FF00FF002100D5
:10115000BC00FF00FF00FF00FF000C00FF00FF00CD
:10116000FF00FF00FF000100BA00FF00FF00FF00CA
:10117000FF0051007F00FF00FF00FF00FF00AC00F8
:10118000FF00FF00FF00FF00FF000E00FF00FF0058
:10119000FF00FF00FF00546F756368207363726582
:1011A000656E20746F20657869740043616C6962B4
:1011B000726174696F6E20636F6D706C6574650029
:1011C00043616C6962726174696F6E2043414E4382
:1011D000454C45440043414C3A25346C642C252D44
:1011E000346C64004144433A25346C642C252D341E
:1011F0006C640043414E43454C00202020546865F8
:101200006E20746F756368202758270020202054B3
:101210006F756368206561636820272B2700546F12
:101220007563682043616C6962726174696F6E00F6
:1012300058002B002B00252D3136730025313673D5
:10124000005800434C520044454C0020F120004817
:10125000455800464958002E303000302E3D2F00B2
:1012600031323378003435362B003738392D0030A1
:101270002E3D2000313233200034353620003738FF
:101280003920004445430030203D2F00313233786F
:10129000003435362B20444546003738392D20415F
:1012A00042430030203D0031323300343536204493
:1012B0004546003738392041424300FD3336333646
:1012C000373C3A3A3B3B3B3B3C3C323F3F4B3F4B4E
:1012D000404C3D403C3C3C3C3C3B3E3B3F3B3F3B31
:1012E000443B48344C324C324C32502F4F2D4F2D12
:1012F0004F2D4E2B4E2B4E2B4C2B4B2F492C492C2C
:10130000482A4D2B4C284C284B254729462946294D
:101310003B2B2E2B3114311432113A003900390095
:1013200037013200300330032D0A2D172B192B19EA
:10133000270C17080A150A1505190A000900FE04EA
:1013400000040000010520082908290829062906AB
:101350002806280425021401150115001501290489
:101360002C042C062E082C082C082C1D2327263391
:1013700036FD413841383F383E383D38FE40364032
:10138000364037413741374137423743364335439B
:1013900035433542344134413440343F353F353FA5
:1013A000353F363F364036FE3D373D373D373D37DA
:1013B0003D373D373D353E3341334133433345338C
:1013C00045354535453643384138FD0E23FE252346
:1013D0002523262326232622FE2617261726162611
:1013E000162516FE21162116281827221B211B213F
:1013F0001C1D1C191C16FE1A161A161A191A1D1B6A
:1014000021FE1721FE151BFE1321FE0F210F210FB8
:101410001D0F190F16FE0E160E160E160E160E17AF
:10142000FE0E220E220E230E230E23FE0E23FD1887
:1014300016FE181AFE1516FE1816FE1816FD1516BD
:10144000FE121AFE1216FE1516FE1516FD1E1FFEC2
:101450001E171E172518231F1E1FFF21402324259A
:101460005E262A2F2E007E27225C3C3E7B7D5B5D24
:101470000021402324255E262A2F2E005A58435649
:10148000424E4D2B2D3D005A584356424E4D2C2E68
:101490002F005A584356424E4D2B2D3D0041534488
:1014A0004647484A4B4C3B004153444647484A4B09
:1014B0004C3A004153444647484A4B4C3B00515735
:1014C0004552545955494F5000515745525459555A
:1014D000494F500051574552545955494F500031CA
:1014E00032333435363738393000313233343536EB
:1014F0003738393000313233343536373839300007
:1015000053480021402324255E262A2F2E0073688D
:10151000007E27225C3C3E7B7D5B5D0020200043FB
:1015200052004253004553005A584356424E4D2BE9
:101530002D3D005A584356424E4D2C2E2F004153FC
:10154000444647484A4B4C3B004153444647484A6F
:101550004B4C3A0051574552545955494F50005140
:10156000574552545955494F50003132333435366E
:101570003738393000313233343536373839300086
:1015800011241FBECFEFD1E2DEBFCDBF00E00CBF04
:1015900013E0A0E0B2E0E8EAF9EE00E00BBF02C021
:1015A00007900D92A43BB107D9F717E0A4EBB3E085
:1015B00001C01D92AC38B107E1F70E94FF0A0C94FC
:1015C000450B0C9400008FB7F8942091990430914A
:1015D0009A043093B5032093B40325EF3AE0309397
:1015E0009A04209399048FBF08950E940644E091C5
:1015F000B403F091B503309709F019950895EF926F
:10160000FF920F931F93CF93DF930E94502E2FB71B
:10161000F8948091990490919A049093B5038093E3
:10162000B40385EF9AE090939A04809399042FBFB6
:1016300080E092E09F938F930E94480BEE24FF245A
:1016400087010F900F90CBE1D2E00E944644E6164E
:10165000F70608071907C9F30E9446447B018C016D
:1016600064E184E10E94311C1F930F93FF92EF927B
:10167000DF93CF930E94480B8DB79EB706960FB6A7
:10168000F8949EBF0FBE8DBFE0CFF8940C94D37436
:10169000A2E0B0E0EEE4FBE00C946974FE01389641
:1016A00061917191FA83E983AF0180913207909142
:1016B00033070E945F0BE2E022960C9485742F9210
:1016C0003F925F926F927F928F929F92AF92BF9262
:1016D000CF92DF92EF92FF920F931F93CF93DF93FE
:1016E000CDB7DEB72B970FB6F894DEBF0FBECDBFD8
:1016F0003C014B016A01FC0117821682838181FD46
:1017000003C08FEF9FEFBBC11E010894211C311C49
:10171000F3013381F40133FD859133FF81914F0152
:10172000882309F4A9C1853239F433FD859133FF4B
:1017300081914F01853229F4B30190E00E946D0D33
:10174000E7CF982FAA2410E055241032B0F49B3232
:1017500069F09C3228F4903251F0933271F40BC04E
:101760009D3239F0903349F411602AC01260146040
:1017700027C0186025C0106123C017FD2AC0292F7B
:1017800020532A3088F416FF07C08AE0A89EC001C3
:101790001124A22EA80E14C08AE0589EC001112464
:1017A000522E580E10620CC09E3221F416FD64C1F8
:1017B000106406C09C3611F4106802C0983649F4D3
:1017C000F40133FD959133FF91914F01992309F075
:1017D000BCCF892F8554833018F08052833038F481
:1017E00024E030E0C20ED31E8FE389830FC093360E
:1017F00031F0933781F0933509F056C020C0F601DF
:101800008081898322E030E0C20ED31E710181E025
:10181000A82EB12C12C0F601E080F18016FD03C0A5
:101820006FEF7FEF02C06A2D70E022E030E0C20E61
:10183000D31EC7010E94620D5C011F7713C0F60121
:10184000E080F18016FD03C06FEF7FEF02C06A2DCC
:1018500070E022E030E0C20ED31EC7010E94570D97
:101860005C01106813FF07C01BC0B30180E290E069
:101870000E946D0D5A94852D90E0A816B906A8F324
:101880000FC0F70117FD859117FF81917F01B3010B
:1018900090E00E946D0D51105A940894A108B1086F
:1018A000A114B10471F7E5C0943611F0993669F5C9
:1018B00017FF0AC0F601608171818281938124E063
:1018C00030E0C20ED31E0DC0F601808191819C01D3
:1018D000B901882777FD8095982F42E050E0C40E2B
:1018E000D51E012F0F7697FF08C0909580957095B3
:1018F00061957F4F8F4F9F4F00682AE030E0A10134
:101900000E94990DB82EB2183DC0953721F41F7E64
:101910002AE030E01CC0197F9F3661F0903720F438
:10192000983509F0A9C00FC0903739F0983709F001
:10193000A3C004C028E030E00AC0106114FD1460A8
:1019400020E130E004C014FD166020E132E017FF12
:1019500008C0F601608171818281938144E050E08A
:1019600008C0F60180819181BC0180E090E042E0F6
:1019700050E0C40ED51EA1010E94990DB82EB218D8
:10198000012F0F7706FF09C00E7FBA1430F404FF51
:1019900006C002FD04C00F7E02C01B2D01C01A2D1F
:1019A00004FF0CC0FE01EB0DF11D8081803311F4AA
:1019B000097E08C01F5F02FF05C003C0802F867824
:1019C00009F01F5FE02E03FD14C000FF0FC01515C6
:1019D00010F0AB2C0BC0AB2CA50CA11A152D06C01A
:1019E000B30180E290E00E946D0D1F5F1515C0F3FA
:1019F00004C0151510F4511A01C05524E4FE10C09E
:101A0000B30180E390E00E946D0DE2FE1EC0E1FE96
:101A100003C088E590E002C088E790E0B3010CC005
:101A20008E2D867891F0E1FE02C08BE201C080E24B
:101A300007FD8DE2B30190E00E946D0D06C0B30179
:101A400080E390E00E946D0DAA94BA14C0F3BA949A
:101A5000F101EB0DF11D8081B30190E00E946D0D4D
:101A6000BB2039F0F4CFB30180E290E00E946D0D0D
:101A70005A945520C1F74CCEF301868197812B965D
:101A80000FB6F894DEBF0FBECDBFDF91CF911F918F
:101A90000F91FF90EF90DF90CF90BF90AF909F900D
:101AA0008F907F906F905F903F902F900895FC01F2
:101AB0000590615070400110D8F7809590958E0F79
:101AC0009F1F0895FC016150704001900110D8F7EC
:101AD000809590958E0F9F1F08950F931F93CF931E
:101AE000DF938C01EB018B8181FF1BC082FF0DC056
:101AF0002E813F818C819D812817390764F4E8810C
:101B0000F9810193F983E88306C0E885F985802F80
:101B10001995892B31F48E819F8101969F838E8345
:101B200002C00FEF1FEFC801DF91CF911F910F91FE
:101B30000895FA01AA27283051F1203181F1E89463
:101B40006F936E7F6E5F7F4F8F4F9F4FAF4FB1E0B0
:101B50003ED0B4E03CD0670F781F891F9A1FA11DAB
:101B6000680F791F8A1F911DA11D6A0F711D811DAC
:101B7000911DA11D20D009F468943F912AE0269F71
:101B800011243019305D3193DEF6CF010895462FD0
:101B90004770405D4193B3E00FD0C9F7F6CF462FB1
:101BA0004F70405D4A3318F0495D31FD405241931A
:101BB00002D0A9F7EACFB4E0A695979587957795D7
:101BC0006795BA95C9F700976105710508959B015E
:101BD000AC010A2E06945795479537952795BA95E7
:101BE000C9F7620F731F841F951FA01D08951092DF
:101BF000E6051092E5058FE990E09093EA05809361
:101C0000E9051092E8051092E7058FE490E09093C3
:101C1000EC058093EB0587ED95E09093B4058093F8
:101C2000B3050895ECEBF4E08FEF9FE79183808399
:101C3000359684E0E43EF807B9F708959C01E091F9
:101C4000B305F091B405868597852817390714F4F4
:101C500021E008C0828993898217930714F422E057
:101C600001C020E0848995898617970714F42460C1
:101C700006C080899189681779070CF42860822F43
:101C800090E008952F923F924F925F926F927F92D1
:101C90008F929F92AF92BF92CF92DF92EF92FF927C
:101CA0000F931F93CF93DF93CDB7DEB72C970FB66B
:101CB000F894DEBF0FBECDBF5C013B015E834D8358
:101CC00038872F832091BA033091BB03C901865A0C
:101CD0009F4F68E671E00E9409740AEE10E0FC0173
:101CE000E00FF11F6491862F992787FD9095A92F0A
:101CF000B92F89839A83AB83BC83C90168E671E0FD
:101D00000E940974080F191FF8012490332427FC3E
:101D10003094432C532CCC24B7FCC094DC2C882466
:101D200077FC8094982C69817A818B819C81A601B3
:101D300095010E94D6737B018C01C201B101A401FF
:101D400093010E94D673E61AF70A080B190B20912B
:101D50003C0230913D0240913E0250913F02C80149
:101D6000B7010E94D67369877A878B879C87C201E7
:101D7000B101A60195010E94D6737B018C01698196
:101D80007A818B819C81A40193010E94D673E60E17
:101D9000F71E081F191F2091400230914102409107
:101DA000420250914302C801B7010E94D6732091AC
:101DB000B6033091B7034B855C85240F351FAD8189
:101DC000BE812D933C932091B8033091B903280F25
:101DD000391FEF81F885318320832C960FB6F89454
:101DE000DEBF0FBECDBFDF91CF911F910F91FF904E
:101DF000EF90DF90CF90BF90AF909F908F907F90AB
:101E00006F905F904F903F902F9008952F923F9248
:101E10004F925F926F927F928F929F92AF92BF92FA
:101E2000CF92DF92EF92FF920F931F93CF93DF93A6
:101E3000CDB7DEB72E970FB6F894DEBF0FBECDBF7D
:101E40005C013B011A013A8729874090B305509005
:101E5000B405F20124813581C901865A9F4F68E695
:101E600071E00E9409740AEE10E0FC01E00FF11F1E
:101E70006491862F992787FD9095A92FB92F8D837F
:101E80009E83AF83B887C90168E671E00E94097438
:101E9000080F191FF8016491862F992787FD9095E7
:101EA000A92FB92F89839A83AB83BC83D2018D91EB
:101EB0009C91A81AB90ACC24B7FCC094DC2CF2017E
:101EC00082819381681A790A882477FC8094982CFF
:101ED0006D817E818F819885A60195010E94D673C0
:101EE0007B018C0169817A818B819C81A4019301A2
:101EF0000E94D673E61AF70A080B190BF201228525
:101F00003385442737FD4095542FC801B7010E94FF
:101F1000D6736B877C878D879E8769817A818B8159
:101F20009C81A60195010E94D6737B018C016D8175
:101F30007E818F819885A40193010E94D673E60E5D
:101F4000F71E081F191FF20124853585442737FD28
:101F50004095542FC801B7010E94D673F20126891B
:101F600037894D855E85240F351FD1012D933C9314
:101F7000208D318D281B390BE985FA85318320832B
:101F80002E960FB6F894DEBF0FBECDBFDF91CF9176
:101F90001F910F91FF90EF90DF90CF90BF90AF9087
:101FA0009F908F907F906F905F904F903F902F9079
:101FB0000895109295041092940410928D06109238
:101FC0008E0610928F06109290061092B404109212
:101FD000B5041092B6041092B70408958091BF031F
:101FE0002091B8048823B9F081E090E09093E60551
:101FF0008093E505222311F08AE090E09093E805B4
:102000008093E7058EE990E09093EA058093E905D7
:102010008EE490E016C081E090E09093E605809316
:10202000E505222311F08AE090E09093E805809383
:10203000E70588E890E09093EA058093E90580E45D
:1020400090E09093EC058093EB058091E9059091E9
:10205000EA05019662E070E00E9409747093EE0553
:102060006093ED058091EB059091EC052091E705DB
:102070003091E805820F931F62E070E00E940974BE
:102080007093F0056093EF051092DC051092DB056C
:1020900087ED95E09093B4058093B3058FEF0E9490
:1020A00050380E942D2A80910605882319F082E07D
:1020B0000E94A91B0E94373A089581E08093080688
:1020C000809306051092BF038093B8041092BE035C
:1020D000109295041092940410928D0610928E0620
:1020E00010928F06109290061092B4041092B504CC
:1020F0001092B6041092B70482E3809310060E94F7
:10210000EC548091BA049091BB049D7F9093BB04E2
:102110008093BA041092D8051092D7051092DA0570
:102120001092D90580E091E09093E2058093E1055B
:102130009093E4058093E3051092360710923707D9
:1021400010923807109239070E94EE0F08950F93EE
:102150001F93CF93DF930091EC041091ED0480E086
:102160000E94BF38C0E0D0E01BC030E080E496E0C1
:10217000AC01249FC001259F900D349F900D112428
:102180000E946930E091B305F091B40524892F5F76
:1021900042894F5F60896150868581500E94832902
:1021A0002C2F2196809128078217F8F6C8010E94EB
:1021B0006930DF91CF911F910F9108950E94F92FFF
:1021C0008091B60580950E945038E091B305F0915A
:1021D000B40524894289608986850E94D01F809138
:1021E000B60580950E94503808952F923F924F92E5
:1021F0005F926F927F928F929F92AF92BF92CF9297
:10220000DF92EF92FF920F931F93CF93DF93CDB79F
:10221000DEB72A970FB6F894DEBF0FBECDBF4C01D4
:102220007A8769875E834D8338872F830E941E0ECD
:102230008B836F8178858D819E810E941E0E8A839B
:102240002090B3053090B4054424552466247724A7
:1022500019827BC08A812B81822319F080E090E073
:1022600084C08D819E81881999095C01CC24B7FCBA
:10227000C094DC2C8F819885E985FA858E1B9F0B95
:102280007C010027F7FC0095102FFB81FF2319F438
:102290002A812C8302C03B813C83EC81E3FF04C094
:1022A000F1016088718824C0E0FF04C0F101468418
:1022B000578405C0E1FF17C0F10142885388B2017D
:1022C00068197909882777FD8095982FA8019701CB
:1022D0000E94D673A60195010E943E7469847A8497
:1022E000620E731E19C0E2FF17C0F1016488758881
:1022F000B30129853A85621B730B882777FD80958A
:10230000982FA60195010E94D673A80197010E94FB
:102310003E742401420E531E3C818B81381749F4D0
:10232000B301C2010E941E0E8B8342017A86698628
:1023300009C0B301C2010E941E0E8A835E824D82D3
:1023400078866F8299819F5F99838A81EB818E2B3A
:1023500021F0F981F43009F07DCF2F814D8169851D
:10236000882D0E943D2781E090E02A960FB6F894D0
:10237000DEBF0FBECDBFDF91CF911F910F91FF90B8
:10238000EF90DF90CF90BF90AF909F908F907F9015
:102390006F905F904F903F902F900895AF92BF92B3
:1023A000CF92DF92EF92FF920F931F935C017B011C
:1023B0008A0169019B010E94F5109601A801B701ED
:1023C000C8010E94F5109601A501B601C8010E943E
:1023D000F5109701A501B601C5010E94F5101F91E6
:1023E0000F91FF90EF90DF90CF90BF90AF90089546
:1023F0008F929F92AF92BF92CF92DF92EF92FF9215
:102400000F931F93CF93DF93CDB7DEB724970FB60B
:10241000F894DEBF0FBECDBF2CEBC22E24E0D22E2F
:102420009FEFE92E9FE7F92E0FEF1FE783E0882E3D
:10243000912C8C0E9D1E5E010894A11CB11C4FC0F6
:10244000F601628173819401A5010E94060FFFEFDE
:10245000EF16FFE7FF06F9F02B813C8149815A8195
:10246000B801C7010E94F5102B813C8149815A8136
:102470004F5F5F4FB801C70101960E94F5102B8195
:102480003C812F5F3F4F49815A810F5F1F4FB80139
:10249000C7010E94F5102B813C8189819A810396A6
:1024A000B901635070402D5F3F4FAC0106970E9409
:1024B000CE116B817C8189819A81F60144810596D8
:1024C0000E942454E980FA800B811C8185E090E011
:1024D000C80ED91E99EEC91694E0D90641F0F6014E
:1024E00080819181FFE78F3F9F0709F0A9CF249654
:1024F0000FB6F894DEBF0FBECDBFDF91CF911F9115
:102500000F91FF90EF90DF90CF90BF90AF909F9092
:102510008F9008952F923F924F925F926F927F9289
:102520008F929F92AF92BF92CF92DF92EF92FF92E3
:102530000F931F93CF93DF93CDB7DEB72A970FB6D4
:10254000F894DEBF0FBECDBF2C016B013A014901EB
:102550005801FA86E9868C0177E0272E312C2C0E63
:102560003D1E65E0E62EF12CEC0EFD1E1CC09E010A
:102570002D5F3F4FAE014F5F5F4FB601C8010E9414
:10258000060F9101A701B401C8010E94060F2F8117
:1025900038854D815E816B817C8189819A810E9421
:1025A000F5100A0D1B1D601671060CF7860153E02D
:1025B000E52EF12CEC0EFD1E1E010894211C311C91
:1025C00047E0A42EB12CAC0EBD1E35E0C32ED12C9D
:1025D000CC0EDD1E1AC09701A101B801C2010E94F4
:1025E000060F9501A601B801C3010E94060F2F81B5
:1025F00038854D815E816B817C8189819A810E94C1
:10260000F51089859A85080F191F801691061CF709
:102610002A960FB6F894DEBF0FBECDBFDF91CF91E3
:102620001F910F91FF90EF90DF90CF90BF90AF90F0
:102630009F908F907F906F905F904F903F902F90E2
:1026400008956F927F928F929F92AF92BF92CF9296
:10265000DF92FF920F931F93CF93DF93CDB7DEB737
:1026600024970FB6F894DEBF0FBECDBF8C01AA240D
:10267000BB24CC24DD24FF2463E0662E712C6C0E79
:102680007D1E4E010894811C911C36C0992787FD40
:1026900090959A838983F8016181772767FD70950A
:1026A0007C836B839B0153E0220F331F5A95E1F724
:1026B000660F771F620F731FFC01B3E0EE0FFF1F61
:1026C000BA95E1F79301A401880F991F8E0F9F1F00
:1026D0000E94060FF394F1E0FF1641F02B813C813C
:1026E00049815A81B601C5010E94F5100E5F1F4F46
:1026F000A980BA80CB80DC80F80180818F3731F6E9
:1027000024960FB6F894DEBF0FBECDBFDF91CF91F8
:102710001F910F91FF90DF90CF90BF90AF909F904F
:102720008F907F906F900895AF92BF92CF92DF927B
:10273000EF92FF920F931F9320918A0530918B05A2
:102740002930310548F40E94D3588091B80491E0B3
:1027500089278093B80428C040910B0550910C053F
:102760008091E5059091E6054817590714F180918D
:10277000E9059091EA0584179507DCF08091E7055B
:102780009091E80528173907A4F08091EB05909106
:10279000EC05821793076CF00E94D3588091BF0319
:1027A00091E089278093BF030E94EE0F88E590E0B7
:1027B00059C10E94BC438091BF03882309F076C0B1
:1027C0008091B804882349F081E793E00E94B61B0A
:1027D000AC0160E080E00E94603A88E693E00E94ED
:1027E000B61BAC0164E480E00E94BB41E09010069F
:1027F000FF2400E010E085E693E00E94B61B23E092
:102800002F9321E02F9323E630E040E050E05F93E8
:102810004F933F932F9341E0A42EB12CC12CD12C88
:102820009C0148E168E182E90E94643C60931006E3
:102830001091BE0383E693E00E94B61B01E0212FB6
:10284000AC0168E48CE80E94AE3E8093BE03109118
:10285000060581E693E00E94B61B02E0212FAC0141
:102860006EE38CE80E94AE3E809306058FE593E010
:102870000E94B61BE0910505F0E0EE0FFF1FEE0F82
:10288000FF1F2091C203E20FF11DEE0FFF1F2FEF7C
:10289000AC0160E080EA8E1B0E943E408DB79EB77F
:1028A00006960FB6F8949EBF0FBE8DBF8091A1040F
:1028B000882311F00E94A7101092A1040E945C3A94
:1028C0008A3151F18B3138F4883101F1893108F5C1
:1028D0008230B9F40AC0883411F1833519F08B3194
:1028E00081F411C093E5D92E1CC00E942D2A80913D
:1028F0000605882319F082E00E94A91B81E08093DD
:10290000A104DD240EC08CE4D82E0BC005E5D02E2A
:1029100008C014E4D12E05C0B2E5DB2E02C0A8E445
:10292000DA2EE0903607F0903707009138071091C3
:1029300039070E945244E61AF70A080B190B99EC62
:10294000E916F1040105110508F488C00E945244FB
:102950006093360770933707809338079093390751
:102960008091BE03882329F01092DC051092DB05CC
:102970001EC080919404909195049093DC058093FF
:10298000DB0597FF06C088599E4F9093DC05809326
:10299000DB058091DB059091DC0521E0883692070C
:1029A00034F0885691409093DC058093DB0580914C
:1029B0008D0690918E06A0918F06B0919006892F7A
:1029C0009A2FAB2FBB27A7FDBA959093D80580937C
:1029D000D7058091B4049091B504A091B604B0914C
:1029E000B704892F9A2FAB2FBB27A7FDBA959093D9
:1029F000DA058093D9058091100624E1829FC001F9
:102A000011249093E2058093E1059093E40580936F
:102A1000E30580910605882311F00E94392A0E945F
:102A2000DE108AE292E00E9421137CE0E72EF12C76
:102A30000CE010E020E630E040E650E060EA7FEF96
:102A400080EA9FEF0E948A1261E081E00E94A85311
:102A500061E082E00E94BA530E94F8118D2D9927FF
:102A600087FD90951F910F91FF90EF90DF90CF9091
:102A7000BF90AF900895EF92FF920F931F93CF9363
:102A8000DF93CDB7DEB728970FB6F894DEBF0FBE41
:102A9000CDBF7A0189019E012D5F3F4FAE014F5F8F
:102AA0005F4F0E94060F9E01295F3F4FAE014B5FB3
:102AB0005F4FB801C7010E94060F2F8138854D81F5
:102AC0005E816B817C8189819A810E94F5102896B4
:102AD0000FB6F894DEBF0FBECDBFDF91CF911F912F
:102AE0000F91FF90EF9008956F927F928F929F9237
:102AF000AF92BF92CF92DF92EF92FF920F931F930C
:102B0000CF93DF93CDB7DEB724970FB6F894DEBF2F
:102B10000FBECDBF8C01AA24BB24CC24DD24EE241F
:102B2000FF2453E0652E712C6C0E7D1E4E0108941F
:102B3000811C911C2CC0992787FD90959A838983CD
:102B4000F8016181772767FD70957C836B83930122
:102B5000A4010E94420E4E2D405D6B817C818981D3
:102B60009A8105960E942454EE2041F02B813C81ED
:102B700049815A81B601C5010E94F5100E5F1F4FB1
:102B8000A980BA80CB80DC800894E11CF11CF8019C
:102B900080818F3781F624960FB6F894DEBF0FBE82
:102BA000CDBFDF91CF911F910F91FF90EF90DF90FC
:102BB000CF90BF90AF909F908F907F906F9008952F
:102BC0002F923F924F925F926F927F928F929F923D
:102BD000AF92BF92CF92DF92EF92FF920F931F932B
:102BE000CF93DF93CDB7DEB72A970FB6F894DEBF49
:102BF0000FBECDBF2C016B013A0149015801FA8685
:102C0000E9868C01A7E02A2E312C2C0E3D1EF5E022
:102C1000EF2EF12CEC0EFD1E1CC09E012D5F3F4FD0
:102C2000AE014F5F5F4FB601C8010E94420E910195
:102C3000A701B401C8010E94420E2F8138854D8141
:102C40005E816B817C8189819A810E94F5100A0DD9
:102C50001B1D601671060CF78601E3E0EE2EF12CC9
:102C6000EC0EFD1E1E010894211C311C77E0A72EDE
:102C7000B12CAC0EBD1E65E0C62ED12CCC0EDD1ED7
:102C80001AC09701A101B801C2010E94420E95012C
:102C9000A601B801C3010E94420E2F8138854D81E3
:102CA0005E816B817C8189819A810E94F510898582
:102CB0009A85080F191F801691061CF72A960FB6E1
:102CC000F894DEBF0FBECDBFDF91CF911F910F9162
:102CD000FF90EF90DF90CF90BF90AF909F908F903C
:102CE0007F906F905F904F903F902F900895EF925C
:102CF000FF920F931F93CF93DF938C019B01E09082
:102D00000305CB01865A9F4F68E671E00E94097463
:102D1000CAEED0E08C0F9D1FFC014491F0908E050F
:102D2000C90168E671E00E940974C80FD91FFE014D
:102D30008491992787FD9095809F9001819F300D08
:102D4000909F300D1124220F232F221F330B2F0DA4
:102D5000311D842F992787FD9095809FA001819F29
:102D6000500D909F500D1124440F452F441F550BBB
:102D70004E0D511D6F2D8E2D0E943D27DF91CF915D
:102D80001F910F91FF90EF900895AF92BF92CF9255
:102D9000DF92FF920F931F93CF93DF93F82E162F9E
:102DA000042F8093030560938E05C1E0D0E0C22E0E
:102DB000DD24A42EBB2412C0CA9DC001CB9D900D62
:102DC000DA9D900D1124B6010E940974AB0120EC2C
:102DD00030E0612F8F2D0E94C4252196CC16DD0690
:102DE0005CF7402F4F0D6F2D601B812F0E944220FA
:102DF000202F210F101B4F2D612F8F2D0E943D275B
:102E0000DF91CF911F910F91FF90DF90CF90BF90F6
:102E1000AF900895282F44E168E280E50E94C5162E
:102E200008954F925F926F927F928F929F92AF928E
:102E3000BF92CF92DF92EF92FF920F93CF93DF93E7
:102E4000CDB7DEB722970FB6F894DEBF0FBECDBF69
:102E50000E945D10ECEBF4E08FEF9FE7918380839D
:102E6000359624E0E43EF207B9F781E48093C0048C
:102E70001092BD041092BC041092BF041092BE04C4
:102E800082E48093C50482E390E09093C20480932F
:102E9000C10489E190E09093C4048093C30483E467
:102EA0008093CA041092C7041092C60480E590E093
:102EB0009093C9048093C80484E48093CF0480EB8A
:102EC0009FEF9093CC048093CB048EE190E090939D
:102ED000CE048093CD046624772492E5492E93E0B6
:102EE000592E0E949413082F662011F4772039F090
:102EF0008091B804882319F081E0809308068091BE
:102F00000806882351F160E080E00E94311C809126
:102F10009404909195049A838983E090D905F09068
:102F2000DA05C090D705D090D805C2010E94B61B23
:102F3000E981FA81FF93EF93FF92EF92DF92CF92B4
:102F40009F938F930E94480B2DB73EB7285F3F4F4A
:102F50000FB6F8943EBF0FBE2DBF0C3471F00D3488
:102F60002CF4043471F0083431F50FC0033509F145
:102F7000053529F00235F9F406C06A941CC0739433
:102F80001AC07A9418C0639416C0109295041092D7
:102F9000940410928D0610928E0610928F06109255
:102FA00090061092B4041092B5041092B6041092D8
:102FB000B70466247724262D332727FD309580918A
:102FC000940490919504280F391F30939504209311
:102FD000940481E02836380734F028563140309385
:102FE000950420939404809194049091950497FF04
:102FF00006C088599E4F9093950480939404872C23
:10300000992487FC9094A92CB92CC0909404D0905A
:103010009504C60168E671E00E940974FC01E6515E
:10302000FF4FE4916E2F772767FD7095872F972FBD
:10303000A50194010E94D67320918D0630918E06D1
:1030400040918F0650919006260F371F481F591F39
:1030500020938D0630938E0640938F0650939006F2
:10306000C601865A9F4F68E671E00E940974FC0110
:10307000E651FF4FE4916E2F772767FD7095872FFC
:10308000972FA50194010E94D6732091B40430912A
:10309000B5044091B6045091B704260F371F481F5E
:1030A000591F2093B4043093B5044093B604509351
:1030B000B7040E945C3A8F3F09F013CF0E94D358A7
:1030C0000E94F70D0E94EC540E942D2A0E944D256B
:1030D0008FEF0E94503822960FB6F894DEBF0FBED5
:1030E000CDBFDF91CF910F91FF90EF90DF90CF9008
:1030F000BF90AF909F908F907F906F905F904F9018
:10310000089582B3869586958095817090E00895A4
:10311000459A00000000000080E0079B04C0823355
:1031200011F08F5FFACF459808951F931FEF12B9E2
:1031300011B8469A479A0E948818469811B947983C
:103140001F9108950F931F93182F062F0E94951813
:10315000479A12B9459A0000000000004598479828
:1031600002B9459A00000000000045981F910F9198
:103170000895FF920F931F9390EA699F8001112495
:10318000080F111D93E0169507959A95E1F7809128
:10319000EC049091ED04080F191FA2984698FF24A3
:1031A000FA94F1B8602F8AE00E94A218012F11272B
:1031B000602F8BE00E94A218A29AF2B811B8469A2A
:1031C0001F910F91FF900895EF92FF920F931F931D
:1031D000E42E8695869586950091EC041091ED0479
:1031E000080F111D66956695669584E1689FB0018C
:1031F0001124060F171FA2984698FF24FA94F1B8DD
:10320000602F8AE00E94A218012F1127602F8BE007
:103210000E94A2186E2D8CE00E94A218A29AF2B809
:1032200011B8469A1F910F91FF90EF900895EF9279
:10323000FF920F931F93E42E90EA699F800111245F
:10324000080F111D43E0169507954A95E1F7809107
:10325000EC049091ED04080F191FA2984698FF24E2
:10326000FA94F1B8602F8AE00E94A218012F11276A
:10327000602F8BE00E94A2180E949518479A8CE05C
:1032800082B9459A00000000000045984798E2B8CE
:10329000459A0000000000004598A29AF2B811B8C3
:1032A000469A1F910F91FF90EF900895FF920F9310
:1032B0001F9390EA699F80011124080F111D63E09C
:1032C000169507956A95E1F78091EC049091ED04CD
:1032D000080F191FA2984698FF24FA94F1B8602F9E
:1032E0008AE00E94A218012F1127602F8BE00E9414
:1032F000A2180E949518479A8DE082B9459A00005D
:10330000000000004598F2B811B8469A0E9488184B
:103310004798459A0000000000004598479A0E948F
:1033200088184798459A00000000000080B1459831
:10333000A29AF2B811B8469A90E01F910F91FF90AF
:1033400008950F931F930091EC041091ED04909356
:10335000ED048093EC0460E080E00E945619109325
:10336000ED040093EC0490E01F910F9108950F93EA
:103370001F93462F0091EC041091ED049093ED04FF
:103380008093EC0460E080E00E9417191093ED0434
:103390000093EC041F910F9108958DE692E09093B5
:1033A0003307809332078FEF9FEF9093BB04809396
:1033B000BA040895EF92FF920F931F937C018B0143
:1033C0000E94B719012F1127602FC70101960E9493
:1033D000B7191F910F91FF90EF900895CF92DF9250
:1033E000EF92FF920F931F936C017A018B01642F70
:1033F0000E94B7199927812F702F6F2DC601019652
:103400000E94B719B80188279927C60102960E9421
:10341000B719E12EFF24002711276E2DC601039650
:103420000E94B7191F910F91FF90EF90DF90CF90FE
:103430000895EF92FF920F931F937C0101960E94D3
:10344000A119082F10E0102F0027C7010E94A11911
:1034500090E0802B912B1F910F91FF90EF9008959A
:10346000CF92DF92EF92FF920F931F936C0103961E
:103470000E94A119E82EFF2400E010E0102F0F2D6C
:10348000FE2CEE24C60102960E94A11990E0A0E055
:10349000B0E0E82AF92A0A2B1B2B102F0F2DFE2C47
:1034A000EE24C60101960E94A11990E0A0E0B0E0D0
:1034B000E82AF92A0A2B1B2B102F0F2DFE2CEE24A5
:1034C000C6010E94A11990E0A0E0B0E0E82AF92A24
:1034D0000A2B1B2BC801B7011F910F91FF90EF9092
:1034E000DF90CF90089597FF06C0DB01BF770E9461
:1034F000A074802D0AC096FF03C0FB01849105C013
:1035000095FF05C0CB010E94A11990E00895FB0131
:10351000808190E0089597FF06C0DB01BF770E948D
:10352000AD74CF01089596FF04C0FB01859194917D
:10353000089595FF04C0CB010E94191A0895FB015C
:10354000808191810895AF92BF92CF92DF92EF92E6
:10355000FF920F931F93CF93DF93EA01A22E6A018C
:10356000BB2411C07B018C010894E11CF11C011DDE
:10357000111D0E94731A882351F0F60181936F0187
:10358000B394C801B701BA1469F77B018C01CB0D64
:10359000D11D1882C801B701DF91CF911F910F9102
:1035A000FF90EF90DF90CF90BF90AF9008956F9213
:1035B0007F928F929F92AF92BF92CF92DF92EF92C3
:1035C000FF920F931F93CF93DF935B016C013A013E
:1035D0004901E9010EC07B018C010894E11CF11C3A
:1035E000011D111D0E94731AF30181933F01C8014F
:1035F000B7012197FFEFCF3FDF0769F7B40180E004
:1036000090E06A0D7B1D8C1D9D1DDF91CF911F9158
:103610000F91FF90EF90DF90CF90BF90AF909F9071
:103620008F907F906F900895DC01CB01B7FF06C0AB
:10363000DC01BF77042E0E94B2740895B5FF04C068
:10364000642F0E94B7190895B6FD02C0FC014083A3
:103650000895DC01CB01B7FF06C0DC01BF770A018A
:103660000E94BE740895B5FF04C0BA010E94DA1921
:103670000895B6FD03C0FC01518340830895BF92B5
:10368000CF92DF92EF92FF920F931F93CF93DF932E
:10369000B22EEA0100E010C019916B017C01089480
:1036A000C11CD11CE11CF11C412F0E94141B1123D1
:1036B00039F00F5FC701B6010B1571F76B017C0183
:1036C000C701B601DF91CF911F910F91FF90EF904D
:1036D000DF90CF90BF9008956F927F928F929F92CC
:1036E000AF92BF92CF92DF92EF92FF920F931F9310
:1036F000CF93DF935B016C013A014901E9010EC0F0
:10370000F30141913F017B018C010894E11CF11C04
:10371000011D111D0E94141BC801B7012197FFEF65
:10372000CF3FDF0769F7B40180E090E06A0D7B1DB1
:103730008C1D9D1DDF91CF911F910F91FF90EF90F8
:10374000DF90CF90BF90AF909F908F907F906F90C1
:103750000895853010F084E003C0882309F481E0E7
:103760008150809328078F5F90E008950F931F93F7
:1037700006EC13E040E550E0BC01C8010E94AF6DCB
:10378000C8011F910F910895CF93DF93CDB7DEB796
:1037900024970FB6F894DEBF0FBECDBFDC01CB017E
:1037A00029833A834B835C83B7FF09C0DC01BF7771
:1037B00084E0FE013196182E0E94C37414C0B5FF38
:1037C00007C049815A816B817C810E94EE190BC030
:1037D000B6FD09C0FC0189819A81AB81BC818083DF
:1037E0009183A283B38324960FB6F894DEBF0FBEF5
:1037F000CDBFDF91CF910895CF93DF93CDB7DEB7E3
:1038000024970FB6F894DEBF0FBECDBF97FF0DC053
:10381000DB01BF7784E0FE013196182E0E94A87468
:1038200069817A818B819C8113C096FF06C0FB0160
:1038300065917591859194910BC095FF04C0CB0162
:103840000E94301A05C0FB016081718182819381E1
:1038500024960FB6F894DEBF0FBECDBFDF91CF9197
:103860000895982F809300056093B5058091C1035A
:10387000882329F070E0892F90E00E94C8370895CE
:103880001F931091B6058091BD030E945038812F7F
:103890000E941D381F9108952F923F924F925F9280
:1038A0006F927F928F929F92AF92BF92CF92DF9250
:1038B000EF92FF920F931F93CF93DF93CDB7DEB7B5
:1038C0006E970FB6F894DEBF0FBECDBF782EB62E22
:1038D000C42ED22E902EAE2C8091C103882349F0A5
:1038E000FF2410E030E050E070E0872D90E00E946F
:1038F000FC30DB1418F48D2DDB2CB82EC71418F413
:103900008C2DC72C782E2FE9291508F430C34C2DA7
:10391000403A08F04FE9692D70E0842F90E0871954
:103920009109860F971F803A910528F04156481B50
:10393000471508F41CC3292D269526952695922F08
:10394000A22FBB27A7FDB095BA83A983F7E06F2EFE
:103950006920872D8770681AB4E0B61524F4E8EF63
:103960006E0E9F5F09C0222339F0FCEF6F1624F41E
:1039700038E0630E922F9150D3945D2D5B195C83D8
:10398000DA94BA1428F0BB82EA2C81E08D8391C2CC
:10399000EA2CEA94AC81EA0EDB82BFEFBD8389C2D8
:1039A000282F30E087FF1DC085FDBCC020E030E03F
:1039B0000DC0842F90E0AA85BB85A80FB91FAE501B
:1039C000BA4F8E509A4FFC0180818C93122F442D58
:1039D000421B2F5F3F4F8C859D852817390749F77C
:1039E000A2C0C90183709070892BE9F125FD9AC0AE
:1039F00021FD0AC05091B605472D20E030E06E81D0
:103A00007F81685F7F4F26C0E0FEF4CF5091B605FE
:103A10005095472D20E030E06E817F81685F7F4FB9
:103A200008C0AA85BB85A10FB11DAE50BA4F5C93EB
:103A3000485F122F2F5F3F4F842F90E06817790760
:103A400084F771C0AA85BB85A10FB11DAE50BA4FD6
:103A50005C93485F122F2F5F3F4F842F90E06817D1
:103A6000790784F760C000EA9B81909F8001112450
:103A7000070D111DE3E016950795EA95E1F7809192
:103A8000EC049091ED04080F191FA2984698FF24AA
:103A9000FA94F1B8602F8AE00E94A218012F112732
:103AA000602F8BE00E94A2180E949518479A8DE023
:103AB00082B9459A0000000000004598F2B811B89C
:103AC000469A0E9488184798459A00000000000016
:103AD0004598072D1C8E1B8E12C0479A0E9488188D
:103AE0004798459A00000000000080B1AA85BB8578
:103AF000A10FB11DAE50BA4F8C934598085F1B8D36
:103B0000AB8DBC8D1196BC8FAB8F802F90E0E8857C
:103B1000F985E817F9070CF7A29A8FEF82B911B867
:103B2000469A01C010E0A09119076A2FA5FD41C077
:103B3000462D16148CF01FC05B2FF9010AC091812D
:103B4000990F9183808187FF02C0916091835150CA
:103B5000319757FFF4CF0CC0B12FB1502B2F332723
:103B600027FD309589819A81280F391F2F503A4FB0
:103B7000415010F71EC0662099F41BC0ED8DFE8DDC
:103B8000908196959083818180FF02C09068908398
:103B90002F5F8D8D9E8D01969E8F8D8F211771F7D2
:103BA0004F5F413031F0EE85FF85FE8FED8F20E0D5
:103BB000F5CF61FF03C08A2F8F7D05C0862F8178E6
:103BC00021F08A2F80620E94BF38852C288939898C
:103BD0004A895B892417350709F04AC0A88DB98D39
:103BE0001C91F1018081182B80911907282F30E05A
:103BF000C9018C719070892B49F46E2D892D0E941A
:103C0000561981231095D6019C9109C022FF0AC044
:103C10006E2D892D0E9456191095F6019081192359
:103C2000182B19C023FF0CC06E2D892D0E94561928
:103C3000912F9095D6012C919223192B18230BC00C
:103C400024FF09C06E2D892D0E9456191095F6018A
:103C50009081192318278091190786FF03C0D60188
:103C60001C9321C1412F6E2D892D0E9417191BC154
:103C7000EC89FD89EF2B11F4F92C3BC06E2D892DB9
:103C80000E945619482F80911907682F70E0CB01C8
:103C90008C719070892B21F4D1018C91482304C040
:103CA00062FF08C0D1018C918095F6019081892333
:103CB000482B15C063FF0AC0D1018C91982F9095B5
:103CC000F60120819223982B492309C064FF07C085
:103CD000D1018C918095F60190818923482766FF58
:103CE00003C0D6014C9304C06E2D892D0E94171974
:103CF000FA8CEE89FF89379709F445C06E2D852D22
:103D00000E945619482F80911907682F70E0CB0147
:103D10008C719070892B29F4A88DB98D8C914823D2
:103D200005C062FF09C0A88DB98D8C918095F50101
:103D300090818923482B17C063FF0BC0A88DB98DD4
:103D40008C91982F9095F50120819223982B4923EF
:103D50000AC064FF08C0A88DB98D8C918095F501CB
:103D600090818923482766FF03C0D5014C9304C086
:103D70006E2D852D0E94171968EF862E8520BFE9CC
:103D8000B81508F490C0F81408F08DC08091190798
:103D9000282F30E0C9018C719070892B09F045C043
:103DA00026FD81C000EAE09E800111240F0D111D47
:103DB00053E0169507955A95E1F78091EC049091A0
:103DC000ED04080F191FA29846988FEF81B9602F54
:103DD0008AE00E94A218012F1127602F8BE00E9419
:103DE000A2180E949518479A8CE082B9459A000063
:103DF0000000000045980E949518EF2DE695E69585
:103E0000E695F0E0EE50FA4F808182B9459A0000C5
:103E1000000000004598E8E0FE0EF81460F3A29A56
:103E20008FEF82B911B8469A3EC06E2D8F2D0E9439
:103E30005619482F80911907282F82FF0AC0EF2DAD
:103E4000E695E695E695F0E0EE50FA4F8081482B36
:103E500017C083FF0AC0EF2DE695E695E695F0E0E2
:103E6000EE50FA4F808148230BC084FF09C0EF2D2C
:103E7000E695E695E695F0E0EE50FA4F808148270A
:103E800026FF09C0EF2DE695E695E695F0E0EE50A9
:103E9000FA4F408304C06E2D8F2D0E941719F8E051
:103EA000FF0EF81410F22B813D81230F2B83E30EBC
:103EB00053C0A42FB0E0BF83AE831196B987A88703
:103EC000E92FFF27E7FDF095FB87EA87CD0133E077
:103ED000959587953A95E1F7482E4394842D90E087
:103EE0004A9401969D878C87A981BA81AE50BA4FBA
:103EF000BF87AE87592C5718540E852D90E0FB01D3
:103F0000E87FF98BE88BAC01487F5B8B4A8B67704D
:103F100070707D8B6C8B877090709F8B8E8B852DD6
:103F2000869586958695A82EBB2482EF95E0A80EEF
:103F3000B91EAE89BF89AC5ABD4FB98FA88FB92DB4
:103F4000B87FB85FBA8FC22EDD24C80ED91E1B0100
:103F5000ECE4F2E02E0E3F1EFC81F150FC838091D8
:103F60001907FF3F09F01CCD8F7D0E94BF386E9668
:103F70000FB6F894DEBF0FBECDBFDF91CF911F917A
:103F80000F91FF90EF90DF90CF90BF90AF909F90F8
:103F90008F907F906F905F904F903F902F900895FB
:103FA000AF92BF92CF92DF92EF92FF920F931F9347
:103FB000C82EF62EB42ED22EA090C103AA2031F026
:103FC00030E050E070E090E00E94E33480918D0595
:103FD0008823F9F41092C103DF1418F48D2DDF2C1F
:103FE000F82EBC1418F48B2DBC2CC82E1091190778
:103FF000812F81600E94BF38EF2C0C2D2D2D4B2D71
:104000006F2D8C2D0E944C1C812F0E94BF38A092D6
:10401000C1031F910F91FF90EF90DF90CF90BF9061
:10402000AF900895CF92DF92EF92FF920F931F937C
:10403000E82ED42EC22EF02E0111FA940F2D060F69
:10404000202F4D2D8E2D0E94D01F1C2D1F192C2D81
:104050004D2D612F8E2D0E94D01F4F2D4E0D212FE3
:10406000602F8E2D0E94D01F4D2D4F19212F602FB4
:104070008D2D0E94D01F1F910F91FF90EF90DF9028
:10408000CF900895BF92CF92DF92EF92FF920F935D
:104090001F93C82EF62ED42E461710F4D62EF42ECB
:1040A000B090C103BB2041F04C2D50E06D2D70E06D
:1040B0008F2D90E00E94093680918D058823A9F408
:1040C0001092C10310911907812F81600E94BF389F
:1040D000EC2C0F2D2C2D4D2D6C2D8F2D0E944C1C5A
:1040E000812F0E94BF38B092C1031F910F91FF90A2
:1040F000EF90DF90CF90BF9008956F927F928F9254
:104100009F92AF92BF92CF92DF92EF92FF920F9366
:104110001F93CF93DF93962ED42E3901082F10E0F2
:1041200078010894E11CF11CE80121970E945619BE
:10413000077010700C5B1D4FF8019081982319F0E7
:104140000FEF10E002C000E010E0CD2CDD240C15D4
:104150001D0509F04BC080916C02C81BD109D7FF27
:1041600003C0C0E0D0E014C0692D8C2F0E94561906
:10417000FE01E770F070EC5BFD4F9081982319F021
:104180008FEF90E002C080E090E08017910719F374
:1041900080916C02A82EBB2480916C02E80EF11C69
:1041A000F1EAEF16F10424F0A0EAEA2EF12C14C093
:1041B000692D8E2D0E945619F701E770F070EC5BA7
:1041C000FD4F9081982319F08FEF90E002C080E0BE
:1041D00090E08017910701F3CA0DDB1D80916C02FE
:1041E000E81AF10803C02197D7FD1CC0692D8C2F58
:1041F0000E945619FE01E770F070EC5BFD4F908154
:10420000982319F08FEF90E002C080E090E08C15C9
:104210009D0549F707C00894E11CF11C81EAE816E6
:10422000F104A4F4692D8E2D0E945619F701E77050
:10423000F070EC5BFD4F9081982319F08FEF90E0C8
:1042400002C080E090E08C159D0529F7219687013A
:10425000015010407301E90CF11C862C03C0E60CE0
:10426000F71C980CA02E402F6C2F892D0E94422005
:10427000E0E5EE16F10418F080E090E096C0BE2C68
:104280006E2D8C2F0E945619FE01E770F070EC5BCA
:10429000FD4F9081982319F08FEF90E002C080E0ED
:1042A00090E08C159D05C9F02197D7FD14C06B2DAA
:1042B0008C2F0E945619FE01E770F070EC5BFD4FE9
:1042C0009081982319F08FEF90E002C080E090E099
:1042D0008C159D0549F7219618C02196C017D10766
:1042E000A4F46B2D8C2F0E945619FE01E770F0701C
:1042F000EC5BFD4F9081982319F08FEF90E002C0A6
:1043000080E090E08C159D0541F36B2D8A2D0E9475
:104310005619F801E770F070EC5BFD4F908198231F
:1043200019F08FEF90E002C080E090E08C159D05C1
:10433000D9F4015010400C171D078CF16B2D802F04
:104340000E945619F801E770F070EC5BFD4F908108
:10435000982319F08FEF90E002C080E090E08C1578
:104360009D0509F07CCFE5CF0F5F1F4F003A110587
:10437000A4F46B2D802F0E945619F801E770F0709D
:10438000EC5BFD4F9081982319F08FEF90E002C015
:1043900080E090E08C159D0539F7015010400C1716
:1043A0001D070CF05CCF81E090E0DF91CF911F9171
:1043B0000F91FF90EF90DF90CF90BF90AF909F90C4
:1043C0008F907F906F900895EF92FF920F931F93BD
:1043D000082F162FF42EE090C103EE2041F00E942A
:1043E000A33080918D05882369F51092C103612F58
:1043F000802F0E945619E02FF0E0E770F070EC5B20
:10440000FD4F9081982319F02FEF30E002C020E09B
:1044100030E08F2D90E02817390719F480E090E004
:1044200013C02FEF3FEF4F2D612F802F0E947D2073
:104430001F5F21E030E04F2D612F802F0E947D20F3
:10444000E092C10381E090E01F910F91FF90EF9007
:104450000895EF92FF920F931F93F82E8091C1035E
:10446000882321F08F2D90E00E94812F1091190751
:1044700080E00E94BF38EE2400E02FE44FE96F2D6A
:1044800080E00E944C1C81E00E94BF380E94401CCA
:1044900060E56F19E62E2FE44FE980E00E944C1C86
:1044A0000E94401C812F0E94BF381F910F91FF90E6
:1044B000EF9008952F923F924F925F926F927F926A
:1044C0008F929F92AF92BF92CF92DF92EF92FF9224
:1044D0000F931F93CF93DF93CDB7DEB724970FB61B
:1044E000F894DEBF0FBECDBFC82ED62E142F20905D
:1044F000C103222039F0462F50E0682F70E0812F51
:104500000E9465371092C1038091B805882331F06D
:10451000412F6D2D8C2D0E94E41849C12C2D30E0C7
:104520003A832983C90187709070892B61F4809147
:104530000505823040F4809119078E7121F4809135
:10454000960480FF0FC0812F90E003E0880F991F31
:104550000A95E1F79C838B836624772417E0412E2C
:10456000512C31C0E12EFF24B3E0EE0CFF1CBA95B4
:10457000E1F700E010E06D2D600F8091960481FF5F
:1045800005C0E7E0F0E0E01BF10B01C0F801EE0D23
:10459000FF1DE558FB4F449182FF05C0E42FF0E07A
:1045A000E558FC4F44919091BD038091B605981752
:1045B00008F040958C2D0E9417190F5F1F4F08308F
:1045C0001105C9F6DFC08091960490E080FF2FC0EE
:1045D000BB2420E030E0BC0162707070AC0144701C
:1045E00050706115710529F0E7E0F0E0E21BF30B74
:1045F00001C0F9018B819C81E80FF91FE558FB4F41
:1046000094914115510511F0F20101C0F301EC5BE9
:10461000FD4F8081982329F0F901EC5BFD4F8081EB
:10462000B82A2F5F3F4F28303105A9F0DACF81FF3C
:1046300002C0F20101C0F3012B813C81E20FF31FA4
:10464000E558FB4FE49182FD02C0BE2E04C0F0E0AD
:10465000E558FC4FB4909091BD038091B605981732
:1046600008F0B0948824992469C0812F8B2109F423
:104670008CC04115510591F06115710511F4902F11
:1046800001C0932DA981BA81A20FB11DA770B0708E
:10469000AC5BBD4F8C91982309F477C0A22FA695EF
:1046A000A695A695B0E0AE50BA4FE22FF0E0E770C5
:1046B000F070EC5BFD4F80819C91892B8C932F5F78
:1046C000203A18F43F5F3A1580F2110F11F030E0F4
:1046D000FACF0894811C911C8E2D806A452BA9F07D
:1046E0000E94BF3840910505440F440F440F4150CC
:1046F000EF2C0C2D20E060E080E00E944C1C8091AB
:1047000019078F750E94BF3819C00E94BF382091C9
:104710000505422F440F440F440F4150EF2C0C2D40
:10472000215060E080E00E944C1C809119078F7539
:104730000E94BF38D0900505DF0C19C0F82CFD0C85
:10474000A09005058A1490F4E09019074E2D50E0D2
:10475000427050700091B605302E30942C2D30E010
:1047600011E06F2D70E061707070ADCFDF2C089498
:10477000611C711C08944108510838E063167104EB
:1047800009F021CF2092C10312C0A22FA695A695B1
:10479000A695B0E0AE50BA4FE22FF0E0E770F070AF
:1047A000EC5BFD4F808180959C91892387CF249677
:1047B0000FB6F894DEBF0FBECDBFDF91CF911F9132
:1047C0000F91FF90EF90DF90CF90BF90AF909F90B0
:1047D0008F907F906F905F904F903F902F900895B3
:1047E0000F931F93CF93DF93082F162FEA012BC04F
:1047F000612F802F0E945A228091960490E09C01A4
:104800002071307083FF10C080910505232B29F0A3
:10481000880F880F880F181B04C0880F880F880F17
:10482000180F103580F012C080910505232B29F058
:10483000880F880F880F081B04C0880F880F880F07
:10484000080F003A18F44991442391F6DF91CF9173
:104850001F910F910895EF92FF920F931F93CF93A3
:10486000DF93082F162F7A01C0E0D0E001C0219617
:10487000F701EC0FF11D4491442359F1612F802F72
:104880000E945A228091960490E09C012071307021
:1048900083FF10C080910505232B29F0880F880F16
:1048A000880F181B04C0880F880F880F180F103549
:1048B000F0F20FC080910505232B29F0880F880F97
:1048C000880F081B04C0880F880F880F080F003A54
:1048D00070F2DF91CF911F910F91FF90EF900895AB
:1048E000482F2091BA043091BB0420FF09C08730C3
:1048F00039F460ED77E088EC90E00E940C444FC002
:1049000021FF16C04830A1F44091000580910505B3
:10491000282F30E093E0220F331F9A95E1F7842F80
:1049200090E08217930754F0421B4093000537C074
:1049300022FF07C04C3029F41092B50510920005F3
:104940002EC023FF05C04A3019F4109200050CC098
:1049500024FF02C04D3091F325FF02C04930A9F079
:1049600026FF0DC04B3059F480910505880F880F44
:10497000880F9091B505890F8093B50510C060919F
:10498000B505809100050E945A2280910505880F87
:10499000880F880F90910005890F80930005809102
:1049A0000505482F50E083E0440F551F8A95E1F735
:1049B0002091000530E080EA90E0841B950B82177F
:1049C00093073CF4109200058091B505840F809305
:1049D000B5056091B505262F30E080E590E0841B99
:1049E000950B821793076CF48091BA0487FF07C078
:1049F000641B6093B505842F0E94292202C0109287
:104A0000B50580E090E00895FF920F931F93CF9338
:104A1000DF93F82E8091C103882319F08F2D0E9417
:104A2000103080918D05882391F50091EC04109150
:104A3000ED04A29846988FEF81B9602F8AE00E941A
:104A4000A218012F1127602F8BE00E94A2180E944C
:104A50009518479A8CE082B9459A00000000000042
:104A600045984798C0E4D6E008C00E949518F2B86F
:104A7000459A000000000000459821978FEFCF3F36
:104A8000D80799F7A29A8FEF82B911B8469ADF91A9
:104A9000CF911F910F91FF90089560E080E00E94F8
:104AA000311C8091BD030E94042508950F931F932C
:104AB000182F062F803A08F064C0603508F061C0F6
:104AC0008091C103882329F070E0812F90E00E943B
:104AD00010378091B805882339F04091B605602FD2
:104AE000812F0E94E4184DC0602F812F0E9456191B
:104AF000482F80911907282F30E0C9018C719070E0
:104B0000892B39F1E12FF0E0E770F070EC5BFD4F9D
:104B1000E081842F8E2323FF03C08823B9F004C0D3
:104B200022FF07C0882381F48091B605882361F4B1
:104B30000DC024FF22C09091B605882319F0992357
:104B400019F004C0992311F04E2B17C0E0954E23A5
:104B500014C08091B605E12FF0E0882339F0E770AA
:104B6000F070EC5BFD4F8081482B07C0E770F07060
:104B7000EC5BFD4F808180954823602F812F0E9440
:104B800017191F910F9108952F923F924F925F92A4
:104B90006F927F928F929F92AF92BF92CF92DF924D
:104BA000EF92FF920F931F93CF93DF93CDB7DEB7B2
:104BB00060970FB6F894DEBF0FBECDBF8D876E87AE
:104BC000E42E69012091C1032983222369F050E07A
:104BD00070E0960190E00E94FE3280918D0588235E
:104BE00009F032C11092C103FF2400E010E0B601C9
:104BF000882777FD8095982FA80197010E94D6738A
:104C00005B016C01C801B7010E94D673DC01CB01C6
:104C1000880F991FAA1FBB1F8E839F83A887B98700
:104C2000A601950104E055954795379527950A9576
:104C3000D1F7CA01B9010E94D673DC01CB0117E09C
:104C4000B595A795979587951A95D1F78A839B83F4
:104C5000AC83BD8380E490E0A0E0B0E0A80EB91E74
:104C6000CA1EDB1EA7E0D594C794B794A794AA9553
:104C7000D1F7D601C501B595A79597958795EE858E
:104C8000E80FEC873D85232F30E0220F331F3B8751
:104C90002A879E85892F90E0880F991F988B8F8790
:104CA000EE80FF800885198516950795F794E7949F
:104CB000C601B501A80197010E94D67322243324AE
:104CC0002101261A370A480A590A6A807B808C809B
:104CD0009D80969487947794679464015301AE18ED
:104CE000BF08C00AD10AAA0CBB1CCC1CDD1C16953F
:104CF0000795F794E794AE0CBF1CC01ED11E0A8521
:104D0000AD850A1B1A2F44C08091190790E083706B
:104D10009070EF84BC85EB1A892B59F0412F602FDE
:104D20008B2F0E944220412F602F8E2D0E94422007
:104D300010C06C85812F0E9456256E2D812F0E94F8
:104D400056256C85802F0E9456256E2D802F0E943F
:104D500056258A819B81AC81BD81680E791E8A1E91
:104D60009B1EA60CB71CC81CD91CD7FC0FC08E817B
:104D70009F81A885B985280E391E4A1E5B1EA20C8C
:104D8000B31CC41CD51C9C8591509C871F5F01508F
:104D9000D201C101860D971DA81DB91DB7FDB4CF65
:104DA0000F85AC850A1B48C08091190790E083707D
:104DB0009070EA84E11A892B59F0412F6E2D8C8571
:104DC0000E944220412F6E2D802F0E94422010C051
:104DD0006C85812F0E945625602F812F0E945625B9
:104DE0006C858E2D0E945625602F8E2D0E94562593
:104DF0001A141B041C041D046CF08A819B81AC8175
:104E0000BD81680E791E8A1E9B1EA60CB71CC81C8D
:104E1000D91C1F5F0F5F9C85992399F091509C8747
:104E20008E819F81A885B985280E391E4A1E5B1E7A
:104E3000A20CB31CC41CD51C9C85AE859A1708F027
:104E4000B3CFB981B093C10360960FB6F894DEBFBB
:104E50000FBECDBFDF91CF911F910F91FF90EF90CB
:104E6000DF90CF90BF90AF909F908F907F906F908A
:104E70005F904F903F902F9008957F928F929F92D6
:104E8000AF92BF92CF92DF92EF92FF920F931F9358
:104E9000CF93DF93C82ED62EA42EB22E7090C103CE
:104EA000772031F030E050E070E090E00E947D36F5
:104EB00080918D05882309F050C01092C103EA2C1F
:104EC000FF24EC18F108F7FC03C08824839406C083
:104ED000F094E194F108F39488248A940B2D10E067
:104EE0000D19110917FD03C09924939405C010955D
:104EF00001951F4F99249A940E151F05B4F4000FC5
:104F0000111FE801CE19DF096D2D8C2D0E94562549
:104F1000CA1409F1D7FD05C0CE19DF09CE19DF0982
:104F2000D90CC00FD11FC80CEFCFEE0CFF1CE7014E
:104F3000C01BD10B6D2D8C2D0E945625DB1459F012
:104F4000D7FD05C0C01BD10BC01BD10BC80CCE0DAB
:104F5000DF1DD90CEFCF7092C103DF91CF911F916C
:104F60000F91FF90EF90DF90CF90BF90AF909F9008
:104F70008F907F9008953F924F925F926F927F92B1
:104F80008F929F92AF92BF92CF92DF92EF92FF9259
:104F90000F931F93CF93DF93482E562EA42EE90133
:104FA0006801BE2C3090C103332069F0FF2450E02B
:104FB00070E090E00E94913380918D05882309F084
:104FC00031C11092C103C65ADF4F0AE5602E712C21
:104FD0006C0C7D1C6C167D0618F4C3013E01EC01BF
:104FE00021E02B1508F413C18A2C9924CE0168E620
:104FF00071E00E94F573FC01E651FF4FE4918E2FA2
:10500000992787FD9095889D6001899DD00C989D7A
:10501000D00C112440E450E0C40ED51ECC0CCD2C95
:10502000CC1CDD08CE01865A9F4F68E671E00E94D5
:10503000F573FC01E651FF4FE4918E2F992787FD10
:1050400090959C01289DC001299D900D389D900D43
:105050001124805C9F4F880F892F881F990B20ECAB
:1050600030E0AC01429FC001439F900D529F900DD4
:105070001124A92EBB24652D6A0D842D8C0D0E9450
:10508000562550C0CE0168E671E00E94F573FC0120
:10509000E651FF4FE4918E2F992787FD9095889DCB
:1050A0007001899DF00C989DF00C112480E490E033
:1050B000E80EF91EEE0CEF2CEE1CFF08CE01865A0E
:1050C0009F4F68E671E00E94F573FC01E651FF4FC7
:1050D000E4918E2F992787FD90959C01289DC00112
:1050E000299D900D389D900D1124805C9F4F880F55
:1050F000892F881F990B20EC30E0829F8001839FCD
:10510000100D929F100D1124012F1127252D200F16
:10511000442D4E0D652D6A0D842D8C0D0E943D276A
:105120005801670121966C167D0608F0ABCF78C058
:10513000CE0168E671E00E94F573FC01E651FF4F75
:10514000D490CE01865A9F4F68E671E00E94F573B5
:10515000FC01E651FF4FE4914E2F552747FD509536
:10516000409FC001419F900D509F900D1124805C85
:105170009F4F880F892F881F990B20EC30E0829F6A
:10518000B001839F700D929F700D11244E9DC00140
:105190004F9D900D5E9D900D1124805C9F4F880F58
:1051A000892F881F990BAC01429FC001439F900D2E
:1051B000529F900D1124892F9927252D280FED2D11
:1051C000FF27E7FDF095EE9DC001EF9D900DFE9D40
:1051D000900D1124805C9F4F880F892F881F990B99
:1051E000442D480F672F7727650DE09FC001E19F91
:1051F000900DF09F900D1124805C9F4F880F892F98
:10520000881F990B840D0E943D27219605C00A2D09
:1052100010E07801EB0CF11C6C167D0608F088CFCD
:105220003092C103DF91CF911F910F91FF90EF90CA
:10523000DF90CF90BF90AF909F908F907F906F90B6
:105240005F904F903F900895DF92EF92FF920F93FF
:105250001F93182FF62E042FE22ED090C103DD20CD
:1052600069F030E050E070E090E00E9450348091AE
:105270008D05882309F041C01092C103402F612F92
:105280008F2D0E944220402F612F8E2D0E944220A0
:10529000402F612F8E2D81500E9442202E2D402FB5
:1052A0006F2D802F0E943D272E2D412F6F2D812F96
:1052B0000E943D27802F81502E2D482F6F2D0E9458
:1052C0003D276F2D6F5F812F8F5F0E9456250E94B3
:1052D000401C6F2D812F0E9456256E2D812F0E941C
:1052E00056256F2D802F0E9456256E2D802F0E94EF
:1052F00056250E94401CD092C1031F910F91FF9030
:10530000EF90DF900895DF92EF92FF920F931F933B
:10531000F82EE62E142F022F8091190780FF04C06B
:105320008F2D0E94D01F29C0D090C103DD2069F0CD
:1053300030E050E070E08F2D90E00E947635809153
:105340008D058823D1F41092C103412F6F2D8E2D2E
:105350000E944220412F6F2D802F0E944220202F3B
:10536000412F6E2D812F0E943D27202F4F2D6E2D16
:105370008F2D0E943D27D092C1031F910F91FF9066
:10538000EF90DF9008950F931F93813011F402E3A3
:1053900001C008E387B1886F87B99A9A449864E698
:1053A00070E080E090E00E942647449A4598A29AD7
:1053B0001FEF12B911B8469A469811B9479AA298A8
:1053C000469811B9602F80E00E94A21867E781E03B
:1053D0000E94A21863E182E00E94A2186FE983E0B4
:1053E0000E94A21867E084E00E94A218A29A12B953
:1053F00011B8469A60E080E00E94B9181F910F91A1
:105400000895FF920F931F938C018091C10388230D
:1054100019F0C8010E94353084E190E09801289F7E
:105420008001299F100D389F100D1124A2984698D5
:10543000FF24FA94F1B8602F88E00E94A218012F8F
:105440001127602F89E00E94A218A29AF2B811B821
:10545000469A1F910F91FF90089580E090E00E947E
:10546000012A80E090E00E94693081E00E94A91B3F
:1054700008959091950680E5989FC00111240E949F
:10548000012A8091950621E082278093950690E07D
:1054900020E436E0AC01429FC001439F900D529F33
:1054A000900D11240E946930089581E00E94C32963
:1054B00081E00E94943880E090E00E94693080E0B2
:1054C00090E00E94012A8FEF0E94503880E00E94F5
:1054D0001D3880E00E9404250895EF920F93EE247A
:1054E00001E02EE448E060EC72E180E090E00E9490
:1054F00055502EE448E060EC72E180E090E00E94BC
:105500008D4F8BE792E00E94E66D68EE73E080E0DD
:1055100090E00E94264785E892E00E94514E85E87F
:1055200092E00E94AA4B68EE73E080E090E00E9457
:10553000264789E992E00E94514E8EEA92E00E944D
:10554000AA4B68EE73E080E090E00E9426478091CD
:105550000205882329F00E94CA4B90E00E94DF6D6B
:105560008091D305882329F00E94774E90E00E9415
:10557000DF6D0E94D358EBCF0E944D250E94BF657E
:105580000E9411170895EF92FF920F931F93CF93EC
:10559000DF93F82ECFEFDFEF20E030E040E050E087
:1055A0004BBFF9018791C8278C2F82958C27082E35
:1055B000869586958025082E8695802587700C2EE9
:1055C000CD2F869507948795D02DC827069487956B
:1055D000D025C8272F5F3F4F4F4F5F4F203080E0CF
:1055E000380784E0480780E0580709F0D9CF9FEFDB
:1055F000CF3FD90711F4C4E3D2E168EF7FE080E048
:1056000090E80E948B1A8C018DEB9CE00E94B61BE7
:10561000DF93CF939F938F930E94480B8BEA9CE07C
:105620000E94B61B1F930F939F938F930E94480B6A
:105630008DB79EB708960FB6F8949EBF0FBE8DBF6C
:105640009FEF0F3F1907A1F4AE0168EF7FE080E004
:1056500090E80E94291B8AE99CE00E94B61B9F9358
:105660008F930E94480B0F900F90F0FE2BC00FC03D
:105670000C171D0789F48CE89CE00E94B61B9F93D1
:105680008F930E94480B0F900F90F0FE1BC068EEA6
:1056900073E080E090E014C08BE79CE00E94B61BB2
:1056A0009F938F930E94480B0F900F90F1FCFFCFB8
:1056B0000E94CD580E94D35860ED77E080E090E0E2
:1056C0000E94264780E090E0DF91CF911F910F91DB
:1056D000FF90EF9008952F923F924F925F926F92BA
:1056E0007F928F929F92AF92BF92CF92DF92EF9272
:1056F000FF920F931F93CF93DF93CDB7DEB76597DC
:105700000FB6F894DEBF0FBECDBF082F882309F473
:105710003DC087FD16C00E944D2560E080E00E94DC
:10572000311C84E19DE00E94B61B202F30E03F93A6
:105730002F939F938F930E94480B0F900F900F9081
:105740000F9023EC32E083E48093C3028BE48093D8
:10575000C40280E58093C50284E58093C60200936D
:10576000C70200950093C802E0E0F0E06AEF7FE036
:10577000CB01DF01019724F001900E94B274FACFAF
:1057800086E0DB01F901182E0E94C37486E043EC29
:10579000E42E42E0F42EAAEFBFE0F701182E0E949B
:1057A000A8748091C302833409F0F0C08091C402D0
:1057B0008B3409F0EBC08091C502803509F0E6C05A
:1057C0008091C602843509F0E1C08091C8029091B1
:1057D000C70289278F3F19F082E090E0D9C00E946C
:1057E000373A6E010894C11CD11C3BED232E3CE0DE
:1057F000332E22EC822E22E0922E95ED492E9CE053
:10580000592E8FEC682E8CE0782E57010E94BC43F5
:105810000091C70210E08EEF9CE00E94B61B1F9320
:105820000F939F938F93DF92CF920E94196EA601E0
:1058300060E080E00E94603A81EF9CE00E94B61B2D
:1058400021E0AC0168E180E00E943E408DB79EB748
:1058500006960FB6F8949EBF0FBE8DBF8091C7020B
:1058600087FD1DC080EE9CE00E94B61B22E0AC01CB
:1058700068E280E00E943E40C1010E94B61BAC017C
:10588000809105058295880F807E81959091C20355
:10589000990F891B23E662E481560E943E401092D4
:1058A000A1040E945C3A813021F0823009F066C088
:1058B00052C0EE2401E02EE448E060E875E280E0AA
:1058C00090E00E945550EE24FF24C7018F70907025
:1058D000892BC9F4C4010E94514EC2010E94B61B1B
:1058E000FF92EF929F938F93DF92CF920E94196E57
:1058F000C6010E943D4EADB7BEB716960FB6F894DE
:10590000BEBF0FBEADBFD7010E94A074002DC30162
:105910000E94B61B10E01F930F939F938F93DF920B
:10592000CF920E94196EC6010E943D4E0894E11C60
:10593000F11CEDB7FEB736960FB6F894FEBF0FBE5A
:10594000EDBFF0E0EF16F0E1FF0609F0BECFC401B5
:105950000E94514E13C01092C8021092C7021092BA
:10596000C6021092C5021092C4021092C30286E0D1
:10597000AAEFBFE0F501182E0E94C3740E945C3AA2
:10598000833609F043CF83E090E002C081E090E0ED
:1059900065960FB6F894DEBF0FBECDBFDF91CF91F5
:1059A0001F910F91FF90EF90DF90CF90BF90AF903D
:1059B0009F908F907F906F905F904F903F902F902F
:1059C00008951F93182F682F85E00E94EC6C112317
:1059D00011F46FEF01C06AE081E00E94EC6C1F914E
:1059E00008952F923F924F925F926F927F928F9283
:1059F0009F92AF92BF92DF92EF92FF920F931F930D
:105A0000CF93DF93982FAFE1B0E00E94A074F02C09
:105A1000AEE1B0E00E94A074802D8E3429F086346F
:105A200011F4DD2403C091E0DD24D394ACE1B0E0B7
:105A30000E94A074802D8E3419F4EE24E39404C0E7
:105A4000863409F091E0EE24ADE1B0E00E94A0744C
:105A5000102D812F81508E3F10F491E01FEF81E0D7
:105A600080933A07992309F4A5C00E94373AB8E415
:105A70002B2EBDE03B2EA1E44A2EADE05A2EF2E3E0
:105A80006F2EFDE07F2EE8E28E2EEDE09E2E76E278
:105A9000A72E7DE0B72EC1E7D7E40E94BC4382E584
:105AA0009DE00E94B61BAC0160E080E00E94603A7D
:105AB000C1010E94B61B01E02F2DAC0160E180E224
:105AC0000E94AE3EF82EC2010E94B61B02E02D2DB0
:105AD000AC0160E280E20E94AE3ED82EC3010E947B
