:100000000C9434110C9455110C9455110C945511F9
:100010000C9455110C9455110C9455110C945511C8
:100020000C9455110C9455110C9455110C945511B8
:100030000C9455110C9455110C9455110C945511A8
:100040000C9455110C9455110C9455110C94551198
:100050000C9455110C9479580C9455110C9455111D
:100060000C9455110C9425610C9455110C94A55BBE
:100070000C9455110C9455110C9455110C94551168
:100080000C9455110C9455110C9455110C94551158
:100090000C947D5E0C9455110C94145C0C945511C9
:1000A0000C9455110C9455110C9455110C94551138
:1000B0000C9455110C9455110C9455110C94551128
:1000C0000C9455110C9455110C94551105A84CCD58
:1000D000B2D44EB93836A9020C50B9918688083C82
:1000E000A6AAAA2ABE000000803FFD3202320234D6
:1000F000023501350135013500340032003200305F
:10010000002E002E012E012E0130023202FD3E0291
:100110003E024002420142014201420040003E00D4
:100120003E003C003B003B013B013B013C023E02E8
:10013000FD6236FE593AFE583BFE5A3BFE6841FED0
:100140005941FE5341FE5242FE4D49FE4850FE4A7F
:1001500047FE4B41FE4A41FE4B3BFE4B3AFE4831C7
:10016000FE1D31FE1D2EFE1138FE1B34FE004AFE20
:100170000D3BFE053EFE1D29FE1D1BFE231BFE2919
:1001800011FE3104FE2E13FE2D1BFE421BFE4012FB
:10019000FE3E03FE4610FE4C1BFE531BFE5331FE7B
:1001A0004D31FE4F37FE5837FE6236FD5440544005
:1001B00055405540553F553F553E553D543D543DA6
:1001C000523D523E523F523F524052405440FD53E6
:1001D0003F533F543F543F543F543F543E543E538B
:1001E0003E533E533E533E533F533F533F533F5383
:1001F0003FFD2223FE232323232322232124212402
:1002000021242025202620262027202720282128B9
:100210002128212922292329232924282526262685
:100220002625262526252625262427232723282379
:100230002822282229222A222A222B222C232D235B
:100240002D242E252E262E262E272E282E292D290A
:100250002D2A2C2A2B2A2AFE292A292A282B282C27
:10026000282C282C272C272D262D262D252D252CF6
:10027000242C242C242B242B242A242A242A242909
:100280002429242924292428242824282528252809
:1002900026272627272727272727272728272926EE
:1002A0002A262A262A252A242A232A232A222A21E0
:1002B00029202920281F271E261E261E251E241F12
:1002C00023202320222022222223FD2E2CFE2E2733
:1002D000FE3027302731273227332733273328337F
:1002E0002833293329332A332B332C332C322C3126
:1002F0002C302CFE2E2CFE2E2CFD2C2EFE2F2E2FE5
:100300002E302E312E322E322E322E332D332D33EF
:100310002D342D342C352C352C352B352A352935DB
:1003200029352935283527352734273426332633F0
:10033000263326322532253225312531253025FE3A
:100340002E25FE2E1FFE2C1FFE2C2EFD38263826B5
:10035000382439233A223A223B203C203E203E20BA
:10036000402041204322432244234425442644265E
:100370004428442A422B422B412C402D3E2D3E2D19
:100380003D2D3D2D3C2C3C2C3B2C3B2C3A2B3A2B31
:100390003A2B392A39293929382838273826FE387E
:1003A00026FD362636263627372837293729372A95
:1003B000382B392C392C392D3A2D3B2E3B2E3C2E07
:1003C0003D2E3E2E3E2E3F2E402E412E412E422DC2
:1003D000432D432C432C442B452A452945294628A7
:1003E00046274626462646254624452345234522BC
:1003F0004422442144214320421F411F411F401FEA
:100400003F1E3E1E3E1E3C1E3A1F39213921372217
:1004100036243626FD4A1FFE491FFE492CFE462C77
:10042000FE462EFE4D2EFE4D2CFE4A2CFE4A1FFF90
:10043000546F7563682073637265656E20746F20F6
:10044000657869740043616C6962726174696F6E8A
:1004500020636F6D706C6574650043616C696272D6
:100460006174696F6E2043414E43454C45440043DF
:10047000414C3A25346C642C252D346C6400414485
:10048000433A25346C642C252D346C640043414E72
:1004900043454C002020205468656E20746F7563BE
:1004A000682027582700202020546F756368206536
:1004B00061636820272B2700546F756368204361B0
:1004C0006C6962726174696F6E0058002B002B00BA
:1004D000FD33363336373C3A3A3B3B3B3B3C3C32D0
:1004E0003F3F4B3F4B404C3D403C3C3C3C3C3B3E0B
:1004F0003B3F3B3F3B443B48344C324C324C325008
:100500002F4F2D4F2D4F2D4E2B4E2B4E2B4C2B4B1B
:100510002F492C492C482A4D2B4C284C284B254739
:1005200029462946293B2B2E2B3114311432113AFE
:10053000003900390037013200300330032D0A2D15
:10054000172B192B19270C17080A150A1505190A54
:10055000000900FE04000400000105200829082904
:100560000829062906280628042502140115011564
:1005700000150129042C042C062E082C082C082C0C
:100580001D2327263336FD413841383F383E383D5C
:1005900038FE4036403640374137413741374237E1
:1005A0004336433543354335423441344134403496
:1005B0003F353F353F353F363F364036FE3D373DD0
:1005C000373D373D373D373D373D353E334133418C
:1005D000334333453345354535453643384138FD9A
:1005E0000E23FE25232523262326232622FE261737
:1005F0002617261626162516FE2116211628182738
:10060000221B211B211C1D1C191C16FE1A161A1652
:100610001A191A1D1B21FE1721FE151BFE1321FEA0
:100620000F210F210F1D0F190F16FE0E160E160E9D
:10063000160E160E17FE0E220E220E230E230E236A
:10064000FE0E23FD1816FE181AFE1516FE1816FECD
:100650001816FD1516FE121AFE1216FE1516FE15B8
:1006600016FD1E1FFE1E171E172518231F1E1FFF17
:1006700000020407090B0D0F121416181A1D1F2172
:10068000232527292B2E30323436383A3C3E404140
:10069000434547494B4C4E5052535557585A5B5D52
:1006A0005E60616364656768696B6C6D6E6F7071C5
:1006B000727374757677777879797A7B7B7C7C7DB9
:1006C0007D7D7E7E7E7F7F7F7F7F7F7F7F7F7F7F41
:1006D0007E7E7E7D7D7D7C7C7B7B7A797978777769
:1006E000767574737271706F6E6D6C6B6968676527
:1006F000646361605E5D5B5A5857555352504E4C6F
:100700004B4947454341403E3C3A38363432302E1F
:100710002B29272523211F1D1A181614120F0D0B24
:100720000907040200FEFCF9F7F5F3F1EEECEAE844
:10073000E6E3E1DFDDDBD9D7D5D2D0CECCCAC8C65F
:10074000C4C2C1BFBDBBB9B7B5B4B2B0AEADABA941
:10075000A8A6A5A3A2A09F9D9C9B999897959493CA
:100760009291908F8E8D8C8B8A89898887878685D8
:100770008584848383838282828181818181818156
:100780008181818182828283838384848585868737
:10079000878889898A8B8C8D8E8F9091929394957E
:1007A0009798999B9C9D9FA0A2A3A5A6A8A9ABAD35
:1007B000AEB0B2B4B5B7B9BBBDBFC1C2C4C6C8CA7A
:1007C000CCCED0D2D5D7D9DBDDDFE1E3E6E8EAEC69
:1007D000EEF1F3F5F7F9FCFE000306090C10131611
:1007E000191C1F2225282B2E313336393C3F41441A
:1007F00047494C4E515355585A5C5E606264666876
:100800006A6B6D6F70717374757678797A7A7B7CA8
:100810007D7D7E7E7E7F7F7F7F7F7F7F7E7E7E7DF4
:100820007D7C7B7A7A79787675747371706F6D6B75
:100830006A68666462605E5C5A585553514E4C4912
:100840004744413F3C393633312E2B2825221F1C8B
:10085000191613100C09060300FDFAF7F4F0EDEA7F
:10086000E7E4E1DEDBD8D5D2CFCDCAC7C4C1BFBC77
:10087000B9B7B4B2AFADABA8A6A4A2A09E9C9A98FB
:1008800096959391908F8D8C8B8A888786868584A8
:10089000838382828281818181818181828282833C
:1008A000838485868687888A8B8C8D8F909193959B
:1008B00096989A9C9EA0A2A4A6A8ABADAFB2B4B7DE
:1008C000B9BCBFC1C4C7CACDCFD2D5D8DBDEE1E445
:1008D000E7EAEDF0F4F7FAFD2534642025346420CE
:1008E0004825336400580050004E005A4D001B1834
:1008F000191A2053204800204D61702044656D6F07
:1009000000008040C020A060E0109050D030B07057
:10091000F0088848C828A868E8189858D838B878DF
:10092000F8048444C424A464E4149454D434B47403
:10093000F40C8C4CCC2CAC6CEC1C9C5CDC3CBC7C7F
:10094000FC028242C222A262E2129252D232B272FD
:10095000F20A8A4ACA2AAA6AEA1A9A5ADA3ABA7A7F
:10096000FA068646C626A666E6169656D636B676A3
:10097000F60E8E4ECE2EAE6EEE1E9E5EDE3EBE7E1F
:10098000FE018141C121A161E1119151D131B171CA
:10099000F1098949C929A969E9199959D939B9794F
:1009A000F9058545C525A565E5159555D535B57573
:1009B000F50D8D4DCD2DAD6DED1D9D5DDD3DBD7DEF
:1009C000FD038343C323A363E3139353D333B3736D
:1009D000F30B8B4BCB2BAB6BEB1B9B5BDB3BBB7BEF
:1009E000FB078747C727A767E7179757D737B77713
:1009F000F70F8F4FCF2FAF6FEF1F9F5FDF3FBF7F8F
:100A0000FF00000000000000007E81A581BD9981EB
:100A10007E7EFFDBFFC3E7FF7E367F7F7F3E1C08C5
:100A200000081C3E7F3E1C08001C3E1C7F7F3E1CB5
:100A30003E08081C3E7F3E1C3E0000183C3C18004F
:100A400000FFFFE7C3C3E7FFFF003C664242663C8E
:100A500000FFC399BDBD99C3FFF0E0F0BE3333334F
:100A60001E3C6666663C187E18FCCCFC0C0C0E0F17
:100A700007FEC6FEC6C6E66703995A3CE7E73C5A3E
:100A80009901071F7F1F07010040707C7F7C704029
:100A900000183C7E18187E3C18666666666600661E
:100AA00000FEDBDBDED8D8D8007CC61C36361C3313
:100AB0001E000000007E7E7E00183C7E187E3C18E2
:100AC000FF183C7E1818181800181818187E3C18C3
:100AD000000018307F30180000000C067F060C0064
:100AE0000000000303037F0000002466FF6624006B
:100AF0000000183C7EFFFF000000FFFF7E3C180056
:100B00000000000000000000000C1E1E1E0C000C67
:100B100000363636000000000036367F367F363627
:100B2000000C3E031E301F0C00006333180C66637C
:100B3000001C361C6E3B336E0006060300000000EE
:100B400000180C0606060C1800060C1818180C06DF
:100B50000000663CFF3C660000000C0C3F0C0C00E3
:100B60000000000000000C0C060000003F00000028
:100B70000000000000000C0C006030180C0603019F
:100B8000003E63737B6F673E000C0E0C0C0C0C3F39
:100B9000001E33301C06333F001E33301C30331E22
:100BA00000383C36337F3078003F031F3030331E2F
:100BB000001C06031F33331E003F3330180C0C0C8F
:100BC000001E33331E33331E001E33333E30180EE7
:100BD00000000C0C00000C0C00000C0C00000C0CB5
:100BE00006180C0603060C180000003F00003F002A
:100BF00000060C1830180C06001E3330180C000CC0
:100C0000003E637B7B7B031E000C1E33333F33337C
:100C1000003F66663E66663F003C66030303663C33
:100C2000001F36666666361F007E06061E06067EB6
:100C3000007E06061E060606003C66030373667CFD
:100C4000003333333F333333001E0C0C0C0C0C1EBB
:100C5000007830303033331E006766361E366667E4
:100C6000000606060606067E0063777F7F6B6363D9
:100C70000063676F7B736363001C36636363361CBA
:100C8000003F66663E06060F001E3333333B1E38B8
:100C9000003F66663E366667001E33070E38331E19
:100CA000003F0C0C0C0C0C0C003333333333333F4C
:100CB0000033333333331E0C006363636B7F77631E
:100CC000006363361C1C3663003333331E0C0C1E6A
:100CD000007F6030180C067F001E06060606061E02
:100CE0000003060C18306040001E18181818181E53
:100CF00000081C3663000000000000000000000037
:100D0000FF0C0C18000000000000001E303E336E87
:100D1000000706063E66663B0000001E3303331ED6
:100D2000003830303E33336E0000001E333F031E68
:100D3000001C36060F06060F0000006E33333E30EF
:100D40001F0706366E666667000C000E0C0C0C1E44
:100D500000300030303033331E070666361E3667EB
:100D6000000E0C0C0C0C0C1E000000337F7F6B631C
:100D70000000001F333333330000001E3333331EB3
:100D80000000003B66663E060F00006E33333E30C7
:100D90007800003B6E66060F0000003E031E301F09
:100DA00000080C3E0C0C2C18000000333333336E5B
:100DB0000000003333331E0C000000636B7F7F366E
:100DC00000000063361C36630000003333333E30CE
:100DD0001F00003F190C263F00380C0C070C0C3884
:100DE000001818180018181800070C0C380C0C07FD
:100DF000006E3B00000000000000081C3663637FAB
:100E0000003E6303633E30603E0033003333336E95
:100E10000038001E333F031E007E813C607C66DC90
:100E20000033001E303E336E0007001E303E336E2E
:100E3000000C0C1E303E336E0000003E63031E307B
:100E40001C7E813C667E063C0033001E333F031E41
:100E50000007001E333F031E0033000E0C0C0C1E57
:100E6000003E411C1818183C0007000E0C0C0C1E0C
:100E70000063083E637F6363000C0C001E333F3346
:100E80000038003F061E063F000000FE30FE33FE25
:100E9000007C36337F333373001E21001E33331E34
:100EA000000033001E33331E000007001E33331EC4
:100EB000001E21003333336E000007003333336EDE
:100EC0000000330033333E301FC3183C66663C18C5
:100ED000003300333333331E0018187E03037E18AB
:100EE000181C36260F06673F0033331E0C3F0C3F9D
:100EF0000C1F33335F63F363C370D8183C18181B9F
:100F00000E38001E303E336E001C000E0C0C0C1E02
:100F1000000038001E33331E000038003333336EB8
:100F200000001F001D333333003F0033373F3B3396
:100F3000003C36367C007E00001C36361C003E002D
:100F400000180018180C663C000000003F03030066
:100F5000000000003F3030000063331B6CD643219B
:100F6000F0C36333DBECB6F3C0180018183C3C1830
:100F70000000CC663366CC0000003366CC663300DC
:100F8000004411441144114411AA55AA55AA55AA66
:100F900055DB6FDBF6DB7EEBB7181818181818183E
:100FA00018181818181F18181818181F181F1818AC
:100FB000186C6C6C6C6F6C6C6C000000007F6C6C5F
:100FC0006C00001F181F1818186C6C6F606F6C6C29
:100FD0006C6C6C6C6C6C6C6C6C00007F606F6C6C1F
:100FE0006C6C6C6F607F0000006C6C6C6C7F000040
:100FF0000018181F181F000000000000001F18181C
:101000001818181818F800000018181818FF000011
:101010000000000000FF18181818181818F8181801
:101020001800000000FF00000018181818FF18181A
:10103000181818F818F81818186C6C6C6CEC6C6CA4
:101040006C6C6CEC0CFC0000000000FC0CEC6C6C9C
:101050006C6C6CEF00FF0000000000FF00EF6C6C98
:101060006C6C6CEC0CEC6C6C6C0000FF00FF000016
:10107000006C6CEF00EF6C6C6C1818FF00FF000048
:10108000006C6C6C6CFF0000000000FF00FF181883
:101090001800000000FF6C6C6C6C6C6C6CFC000049
:1010A000001818F818F80000000000F818F81818D0
:1010B0001800000000FC6C6C6C6C6C6C6CFF6C6C51
:1010C0006C1818FF18FF181818181818181F0000A7
:1010D0000000000000F8181818FFFFFFFFFFFFFFD7
:1010E000FF00000000FFFFFFFF0F0F0F0F0F0F0F9C
:1010F0000FF0F0F0F0F0F0F0F0FFFFFFFF00000065
:101100000000006E3B133B6E00001E331F331F03B5
:1011100003003F33030303030000007F36363636F7
:10112000003F33060C06333F0000007E1B1B1B0EE6
:101130000000666666663E0603006E3B18181818C7
:10114000003F0C1E33331E0C3F1C36637F63361C7E
:10115000001C36636336367700380C183E33331E76
:101160000000007EDBDB7E000060307EDBDB7E0685
:10117000031C06031F03061C001E333333333333B3
:1011800000007E007E007E000018187E1818007E89
:1011900000060C180C06003F00180C060C18003F47
:1011A0000070D8D8181818181818181818181B1BF9
:1011B0000E1818007E00181800006E3B006E3B00F1
:1011C000001C36361C00000000000000181800004B
:1011D000000000000018000000F030303037363CCE
:1011E000381A363636360000000E190C061F00007D
:1011F0000000003C3C3C3C0000007E424242427EFB
:10120000000A434845434B53554D204552524F52D7
:101210000A000A434845434B53554D204F4B0A00A3
:101220000A434845434B53554D2053415645440AC4
:1012300000434845434B53554D2073623A253034A3
:10124000580A00434845434B53554D2069733A258E
:101250003034580A00202530325800253034583AAE
:10126000004558495400434C4541522043484543AA
:101270004B504F494E540044554D5020746F2043FD
:101280004F4D3000436865636B506F696E74204446
:10129000756D703A20253032580044554D50494EF6
:1012A000472052414D3A20253032580058005365AE
:1012B0007420636C6F636B00496E76657274206294
:1012C0007574746F6E73004265657065720042617B
:1012D000636B6C69676874004D6973632053657450
:1012E0007570204D656E7500312E30380053657471
:1012F00075700020005800200058005800200000A1
:101300001F1D1F1E1F1E1F1F1E1F1E1F2564206D59
:10131000736563732F6872002B2F2D206D736563C7
:10132000732F687220002564256325642563256476
:1013300000444154453A204D4D2F44442F59593FC4
:101340000054494D453A2048483A4D4D3A53533F91
:101350000058002041444A5553542000253032643F
:101360002F253032642F2530326400253032643A24
:10137000253032643A253032640053657420546954
:101380006D65204D656E75000003020500030501C3
:10139000040602044441544120426974733F0042F0
:1013A00061756420726174653F00580054494D4571
:1013B0004F5554005254530043545300464C4F571A
:1013C0002043544C00584D49540052435600584F46
:1013D0004E2F584F4646004556454E004F44440058
:1013E0005061726974793A200053544F503A202565
:1013F0006400444154413A202564004261756420F0
:10140000726174653A2025366C6400434F4D256443
:10141000205365747570204D656E7500FF0190D086
:10142000E1E6018697D7E62224B5C44A0190C301BC
:10143000E1E6018697D7E602A0B1C0E203E304B774
:10144000E405A705959706E610D0E1109120A1B01C
:10145000C123D0D126A730B336B740C146C7E55522
:10146000E555DF0190C301B401C1C30183A5C302E7
:10147000A4C202C203B0C103C31094C111B313B11B
:1014800014B421A630BC03B6E303B0E303E312C5F2
:1014900012D2D41294C1C513B5D313B1D314D4212D
:1014A000D421C121A5D222C424C225C530BE03C780
:1014B00003D3D40384B704B104D411A0B111C4116F
:1014C000C113B51395B314C115C517D317C720B0F1
:1014D000C120A7D421B0B721D422B223C525C3C5CA
:1014E00026BE03C703B0E3E503E30385C1C504B12A
:1014F000E404E412C512D2D4129413B5D321E52129
:10150000C121A5D222C424C225C527E327C730BFE5
:1015100023B4C3C423B2C323C323A4B3C424B5C414
:1015200024C432BD00E0E70087E701909201E102A8
:10153000A0A1029203B0E304B7E405A705959706BE
:101540009706E626A730B136B740E240C146C7E568
:1015500050E150D2E255E555D7EE03A1C1E3E403D3
:1015600084A6C6EC00E0E70087E723B4C3C423B237
:10157000C323C323A4B3C424B5C424C432BD049379
:10158000B3C4C6048697B7C633E0E240E811A0C0F2
:10159000D1D31193A4C4D316D634BF0695A506871C
:1015A00097A620E0E220A622EA0594A4058696A547
:1015B00020E0E620A522E246D5E546C7D7EE00A208
:1015C0000393B5D3E306A413B1D330B135B642E0EB
:1015D00044EE00B30086B301A301919502A402A2D8
:1015E000A403B304A204A405A3059D23D623D0D647
:1015F00023D332D432D232B4D233D533D134D441DE
:10160000D141C5DD12B0D215B7D530BF10941650F8
:10161000D45E0190E0E6018293B330BE0697B7C670
:1016200011A2B2C3C411A0C0D113A21394A5B5C610
:1016300035CC14B6D4D614D41496B4D615A6C4D5C5
:1016400015A4C6D515D516D624A634B644CE12B0E8
:10165000D214B6D417D730BE12B0D230BE14B6D41E
:1016600030BE03D331D335DB03A503A103DB0285F1
:10167000DD03A503A103E341E345EB04B1E404E486
:1016800013D3D41394B2D422C422C2C422A4C2312C
:10169000BC02B5E202E212B4D2D31293D322C42226
:1016A000A4C2C424C432BDFF11A0B1B311B311B19F
:1016B0001193A4B312B213B113B320A42E1092400D
:1016C000CA02D204D4109640CE0293B3C40291C190
:1016D00005B5C420A125AE01919201829206D145A3
:1016E000D5D645C6DE04A2B2D4E3048596C6D5E6B7
:1016F00011A211A0B0C132C154DD0291109912B0F3
:101700001294BE10B2B416BC03E311D515D130BE8D
:1017100003C321AD17A625AE03CB25AE05D8019096
:10172000C0D1D5018596C6D505D911A0A616BE0192
:1017300090B0C1C205A3B3C20586CE0190B0C1C2AC
:101740000596B6C523B3C4C533CA03B0C0C6038467
:10175000DC00C00082B2C3C50596B6CD02A0B002BF
:101760008596B6C503B3C4CD00C0C2008124C2248F
:10177000AE0190B0C1C2018293B3C4C50493048585
:1017800096B6C533CA0190B0C1C4018293C316A6F0
:10179000CC21A225AE17A621A225AE03B603B8021E
:1017A000C205CD10C316CB0190B0C1C224C224A57E
:1017B0002F0190C0D1D4018596B632B4DC02A0C20C
:1017C000C6028604CC00B0C1C20086B6C503B3C44D
:1017D000C533CA02A0C0D10284A6C6DD00A0C2C41F
:1017E0000086A6CC10D01096D613BB10D01096133E
:1017F000BB02A0C0D10284A6D644D4DE008603C3B7
:1018000040CE10B016B620AE048596B6C530D04096
:10181000CD008603A3C5C623C140C91096DE00B320
:10182000E0E6008633BC00D5008650DE02A0B0D2D0
:10183000D40284A6B6DC10C0D1D2109613C3DA014C
:1018400090B0C1C5018596B6C524DF10C0D1D210B5
:101850009613C3D233D5DE0190B0C1018293B3C4D5
:10186000C50596B6CD00C020AE008596B6C540CD64
:101870000084A6C440CC0086B3E632B360EE00819B
:10188000D606D150D90082A4C216B624A640CA10EA
:10189000D0D115D11596DE10B01096BE00EE10B066
:1018A000B616BE03B0EB07EF20A1BA0596B6C5D6B3
:1018B0000594C412B2C3CD0695A6C6D5109513C320
:1018C000D4DD0392B2C3038596B6CD0493C30485D9
:1018D00096B6C5D640CD0392B2C3C4038596B6046E
:1018E000CC03A306A611A0B0C1119E0392B2C3D22D
:1018F000038495C507B7C643CE109614B2C2D3DE93
:1019000012A2A616B628058697B7C64042CE1096F4
:1019100014B4D634DA10A0A616BE028604A2B3C24E
:10192000D3D633BD028604A2B2C3CE0392B2C3C5DE
:10193000038596B6CD0293A2C2D3D407A7139715F9
:10194000C5DC0392B2C3D2038495C537D743CF0217
:1019500093A2B2C306A6139E0394B4C50392C20613
:10196000B6CD12C220A5B6CD028596B6C5D642CD5B
:101970000284A6C442CC028596B4D6E533B462EDA7
:1019800002A4B4D606A434DA028495C507B7C642C9
:10199000CE02C206C206CE0393A4A5B6C613A221E8
:1019A000B0C021AA30B234BE0090A1A2B3C3069643
:1019B000A524B324AD0190A0B1C1D804B1E4E604DC
:1019C00086EE0190C0D1018394C4D327C7D634DEFC
:1019D00001038596B6C5D64143CD0392B2C3C40375
:1019E0008596B604C430C80190D0E115A6C6D5E6E8
:1019F00015A4D422C2D3DD0596B6C5D60594C4106D
:101A000012B2C3C54800900596B6C5D60594C41257
:101A1000B2C3CD0596B6C5D60594C412B2C3C520CF
:101A2000B0B120A1B90392C2D3038495C50797BD75
:101A30000190D0E113A2C2D3D41395A6C614DC0042
:101A40000392B2C3C4038596B604C44800A00392AF
:101A5000B2C3C4038596B604CC0012A2A616B6483B
:101A60000190C0D122B2B626CE00A012A2A616BE08
:101A70000003A1C3C6038604C4480493B3C4C604C8
:101A80008605C520B0B120A1B912C21296C614B401
:101A900020C815A4E41596E622E242CE02A0E00298
:101AA0008603D330B6EE0190B0C10493B3C4C5042D
:101AB0008596B6CD010493B3C4C5048596B6C549D1
:101AC00001A10493B3C4C5048596B6CD0190B0C1FD
:101AD000038596B6C5D643CD01A1038596B6C5D676
:101AE00043CD01038495C507B7C64143CE0013B16A
:101AF000D3D41394B6D46800028596B6C54042CDBF
:101B00000392D2038495D530BF03A306C6D511A096
:101B1000B0C1C2119E0081A3C104C406C61223A78E
:101B20003240C900B0C1C2008703B3C254F463E6B7
:101B3000F7FF0697A7B623C331C0D0E131BE0596A3
:101B4000B6C5D60594C412B2C3C520C812A2A61643
:101B5000B620C80493B3C4C5048596B6C521C9038D
:101B60008596B6C5D621C143CD0190A0B1C1D003A1
:101B7000860493B3C4CE00C002C6028642CE11A032
:101B8000C0C31192A3D315DD11A0B0C1C21192A39D
:101B9000B3C215CD15A6C6D515B33032BB03C303EA
:101BA0008D03C3CD008205D034C3D3E446E446C7D9
:101BB000EF008205D044E2E744C5ED13A2B3B513AC
:101BC000B513B31395A6B514B415B315B52022AE4D
:101BD00003A503A143E543E901A305A341E345EBC5
:101BE0000103050720222426414345476062646EB5
:101BF00001E7F60190F603C7F403B0F405A7F20578
:101C0000D0F207F80191A2B2C3D3E4F40393A4B4D1
:101C1000C5D5E6F60595A6B6C7D7E60797A611A0DF
:101C2000B0C1D1E2F213A215A432C134C336C551FA
:101C3000E0F053E255EC30BF04B430BF02B204B45C
:101C400030BF04B430B760EF04E4E734BF02B2B78A
:101C500004BC02B204B4B730B260EF30B760EF0238
:101C6000E2E704B4BF02B204E430B260EC04E43052
:101C7000B460EC02B204B430BC04B4BF30B4FC04B1
:101C8000F430BC04F434BF30B734FC04FC04F4304A
:101C9000BF30B732F234FC30B760E764FC30B4F4E4
:101CA00060E2FA32F232B764F464EF02B204F43064
:101CB000B260E2FA02F204B4B764F464EF30B760E1
:101CC000E2F264F464EF02F204FC02B204B4B7304E
:101CD000B260E2F264F464EF02F204F440CA04F485
:101CE00030B460EC02F204F434BF04F434B764EFAF
:101CF00030B4F460EC30B4F432FA32F232B734FC7F
:101D000034F434B764EF04F430B760EF02F204F453
:101D100030BF04B430BC34F434BF00F0F70087F7B0
:101D200001F102F203F304F405F506F6109720A77B
:101D300030B740C750D760EF04F4F70487F705F5D4
:101D400006F6149724A734B744C754D764EF00B0FD
:101D5000B70087B701B102B203B304B405B506B644
:101D6000109720AF40F0F740C7F741F142F243F33C
:101D700044F445F546F650D760EF00F0F30083F3E6
:101D800001F102F2109320A330B340C350D360EBB3
:101D90000392A2B3C3D2038596A6B5C5D633BD02BE
:101DA00091B1C2028703B3C405B5C433CA01C1C22D
:101DB000018E02D2129642CE00C0C10081A305A3BB
:101DC0000586C645CE0392D2038596A6B532BD07D9
:101DD000A5C5D41194A551DC0291A1B2D2E132BEC5
:101DE0000392B2C3C4038495B5C410B017B720AF33
:101DF00002A0B0D2D40284A6B6D403DB02A0B0D233
:101E0000D302839496069644D344C6DE0493C30457
:101E10008596B6C531C2C531C0D80392A2B3C2D22D
:101E2000E3E4038495A5B4C5D5E433BC0291D1E2C3
:101E3000E4028495D5E406E802A0B00284A6B603C5
:101E4000BB0190B0C1C6018E11D113D315DD12D2E2
:101E500016D630BC06C610B214BA06C612B412B8F2
:101E600031C0D0E1E231BF058697A7B630BE13D3AB
:101E700030B135BE0291A1B2C2D10594A4B5C5DC82
:101E800011A0B0C1C21192A3B3CA33BC3C15B7C7ED
:101E900040E040CF0091A0B0C1C4119C0190A0B11E
:101EA00004B104BC22C422C2C522A5C323C523C3D6
:101EB00024C224C425C532BD01D1D60186DE1C143E
:101EC0001D142C1463148614AE14E214101524157A
:101ED0005A1564157E158D159B15A915BE15D215BD
:101EE000EB1504160C1612161C1632164E16581642
:101EF0005D16621668166E1671167B169116A71679
:101F0000A816BD16C116C916D716E516FA16FE167E
:101F1000031708171017141718171A171C171E176E
:101F20002A172F173B174A1751175C176817711795
:101F30008517911795179B179F17A317A717B11709
:101F4000BD17C517D317DC17E417EB17F117FC17EC
:101F50000218081811181B181E1826182C183618E5
:101F60003F184B18571865186918701876187E189E
:101F700085188F1897189C189E18A318A618A818CB
:101F8000AB18B718C218CB18D618E118EB18F91807
:101F9000001906190E1915191A1924192B193519B2
:101FA00042194F1958196219681970197619801950
:101FB000881991199719A419A819B519BB19C2192B
:101FC000D019DA19E719F719051A131A251A301A50
:101FD0003F1A4C1A591A601A691A701A7A1A891A11
:101FE000921A9C1AA61AB41AC01ACC1AD81AE21A53
:101FF000ED1AF71A001B091B151B231B321B3E1B76
:102000004C1B531B5F1B691B761B7E1B881B941B81
:102010009D1BA11BA41BB11BBB1BD01BD81BE01B12
:10202000F01B041C361C381C3C1C421C481C4D1C5C
:10203000521C5B1C5F1C651C6D1C731C791C7C1C7A
:102040007F1C831C871C8B1C8D1C911C971C9D1C4A
:10205000A31CAB1CB41CBD1CC61CCA1CD81CDE1C9B
:10206000E41CEA1CF01CF51CFA1C001D061D0C1DCE
:10207000121D161D1A1D381D4E1D641D7A1D901D42
:102080009F1DAD1DB21DB81DC51DCF1DD81DE01D66
:10209000F01DFC1D0C1E1A1E2C1E381E411E481E53
:1020A0004E1E541E5A1E601E671E6E1E741E801E1B
:1020B0008A1E8C1E8D1E941E9C1EA41EB81E252DCD
:1020C0003136730025313673005800434C520044BA
:1020D000454C0020F1200048455800464958002E44
:1020E000303000302E3D2F00313233780034353619
:1020F0002B003738392D00302E3D2000313233206F
:10210000003435362000373839200044454300304C
:10211000203D2F0031323378003435362B204445B2
:1021200046003738392D204142430030203D0031F0
:1021300032330034353620444546003738392041A3
:1021400042430021402324255E262A2F2E007E278D
:10215000225C3C3E7B7D5B5D0021402324255E2686
:102160002A2F2E005A584356424E4D2B2D3D005AD1
:10217000584356424E4D2C2E2F005A584356424E2D
:102180004D2B2D3D004153444647484A4B4C3B00A4
:102190004153444647484A4B4C3A00415344464712
:1021A000484A4B4C3B0051574552545955494F50A2
:1021B0000051574552545955494F500051574552B7
:1021C000545955494F500031323334353637383948
:1021D000300031323334353637383930003132332C
:1021E0003435363738393000534800214023242510
:1021F0005E262A2F2E007368007E27225C3C3E7BE1
:102200007D5B5D0020200043520042530045530097
:102210005A584356424E4D2B2D3D005A5843564274
:102220004E4D2C2E2F004153444647484A4B4C3BC1
:10223000004153444647484A4B4C3A005157455297
:10224000545955494F500051574552545955494FCB
:10225000500031323334353637383930003132338B
:10226000343536373839300011241FBECFEFD1E274
:10227000DEBFCDBF00E00CBF13E0A0E0B2E0E8E5B8
:10228000FDEF00E00BBF02C007900D92AC36B10726
:10229000D9F717E0ACE6B3E001C01D92AD34B10749
:1022A000E1F70E94A0130C94A5130C940000CF92A8
:1022B000DF92EF92FF920F931F936B018A017901D6
:1022C000AA2797FDA095BA2FBC01CD0128E130E0E7
:1022D00040E050E00E94AE7D24E09595879577958B
:1022E00067952A95D1F7F801718360838EE490E0B9
:1022F0008C199D09F701918380831F910F91FF90A5
:10230000EF90DF90CF9008954F925F926F927F92FF
:102310008F929F92AF92BF92CF92DF92EF92FF92F5
:102320000F931F93CF93DF93CDB7DEB724970FB6EC
:10233000F894DEBF0FBECDBF0E94F11F8FEF0E9449
:10234000644A80E00E94314A0E94F9158824992449
:1023500033E0432E512C4C0E5D1E3E010894611C4F
:10236000711C81E00E942B15882309F0D0C1F40173
:10237000E651FF4F0894811C911CA4908EEFA81683
:1023800041F08A1508F4BDC19DEFA91609F0ABC054
:1023900075C094012F5F3F4FEAEEF0E08E0E9F1E56
:1023A000F401849149010894811C911C26513F4FEE
:1023B000F9019491692F70E09201A30190E00E94CD
:1023C000571169817A81882777FD8095982F0E941F
:1023D000357B5B016C0160935D0470935E048093B8
:1023E0005F04909360046B817C81882777FD8095E2
:1023F000982F0E94357B609353047093540480930C
:102400005504909356040E94027B7B018C01C60107
:10241000B5010E94027BDC01CB016091CC0670917A
:10242000CD069701AC018091C3059091C4050E942F
:10243000341D60915D0470915E0480915F04909101
:1024400060040E94027B6093C3057093C40580936F
:10245000C5059093C6056091530470915404809112
:102460005504909156040E94027B6093CC067093B1
:10247000CD068093CE069093CF0673CF94012F5F45
:102480003F4F8AEE90E0880E991EF4018491490135
:102490000894811C911C26513F4FF9019491692F9A
:1024A00070E09201A30190E00E94571189819A8106
:1024B000AA2797FDA095BA2F8093C3059093C405D2
:1024C000A093C505B093C6058B819C81AA2797FD73
:1024D000A095BA2F8093CC069093CD06A093CE06FC
:1024E000B093CF063ECF84010F5F1F4F8AEE90E07E
:1024F000880E991EF401649170E09201A3018A2D67
:1025000090E00E94571169817A81882777FD809534
:10251000982F0E94357B60933B0570933C05809318
:102520003D0590933E056B817C81882777FD8095E2
:10253000982F0E94357B60934806709349068093DC
:102540004A0690934B0698012F5F3F4F06511F4F4D
:10255000F801849149010894811C911C26513F4F38
:10256000F9012491622F70E09201A30190E00E9492
:10257000571169817A81882777FD8095982F0E946D
:10258000357B60935D0470935E0480935F04909349
:1025900060046B817C81882777FD8095982F0E944D
:1025A000357B609353047093540480935504909347
:1025B000560494012F5F3F4F8AEE90E0880E991EDB
:1025C000F401849149010894811C911C26513F4FCC
:1025D000F9012491622F70E09201A30190E00E9422
:1025E000571169817A81882777FD8095982F0E94FD
:1025F000357B60934B0570934C0580934D0590930C
:102600004E056B817C81882777FD8095982F0E94ED
:10261000357B6093E4067093E5068093E60690931D
:10262000E70674010894E11CF11C8AEE90E0880E24
:10263000991EF4018491F701E651FF4FE4916E2F4A
:1026400070E09201A30190E00E94571169817A81A4
:10265000882777FD8095982F0E94357B60939D0495
:1026600070939E0480939F049093A0046B817C815F
:10267000882777FD8095982F0E94357B60934605CB
:1026800070934705809348059093490560913B05F9
:1026900070913C0580913D0590913E050E94027B22
:1026A0004B01609148067091490680914A069091CD
:1026B0004B060E94027B8B0160E170E080E090E0BD
:1026C0000E94D11916C00E948D1A2091CC0630911B
:1026D000CD064091C3055091C405B801C4010E94C4
:1026E000341D8090C3059090C4050091CC061091D4
:1026F000CD068091DF06882331F747010894811CBD
:10270000911CFFEFAF1609F02CCE0E94F3150E942A
:10271000F91524960FB6F894DEBF0FBECDBFDF913A
:10272000CF911F910F91FF90EF90DF90CF90BF90CE
:10273000AF909F908F907F906F905F904F90089593
:102740000E94C4400E948411FFCFF8940C94AB7E89
:10275000982F1092CF03882309F498E080B78068FF
:1027600080BF8091CF03806480937C0090689093B9
:10277000BA0408958091CF03823029F48091DE0657
:102780008230B1F408C08091CF03833021F480916E
:10279000DE06833069F4E091CF03F0E080917800A9
:1027A00090917900EE0FFF1FE059FA4F91838083DB
:1027B0008091CF038F5F8093CF032091CF0330E0D0
:1027C0008091BA0490E08F7090702817390714F048
:1027D0001092CF038091CF03806480937C0080911E
:1027E000CF038430E9F48091DE06833061F482E027
:1027F0008093DE0682988A9A3998419A839A8B9AB6
:10280000389A40980DC0823059F483E08093DE06F8
:1028100083988B9A3898409A829A8A9A399A4198E2
:1028200086EC80937A000895FC014FB7F894EE0F80
:10283000FF1FE059FA4F808191812FEF3FEF3183E5
:1028400020834FBF089528E730E030931D02209386
:102850001C0228EC30E030931F0220931E022EEF62
:1028600030E1309321022093200228EA36E13093B0
:1028700023022093220290E008950F931F93CF9399
:10288000DF9382E08093DE06A0E1B0E00E944E7EFE
:10289000BF01A2E1B0E00E944E7EAF01A4E1B0E032
:1028A0000E944E7E9F01A6E1B0E00E944E7E8F0105
:1028B000A8E1B0E00E944E7EEF01CB0101978E5F50
:1028C0009F4FD8F088E790E090931D0280931C0200
:1028D00088EC90E090931F0280931E028EEF90E1AF
:1028E000909321028093200288EA96E1909323023C
:1028F0008093220281E090E097C0CA0101978E5F29
:102900009F4FD8F088E790E090931D0280931C02BF
:1029100088EC90E090931F0280931E028EEF90E16E
:10292000909321028093200288EA96E190932302FB
:102930008093220282E090E077C0C90101978E5F08
:102940009F4FD8F088E790E090931D0280931C027F
:1029500088EC90E090931F0280931E028EEF90E12E
:10296000909321028093200288EA96E190932302BB
:102970008093220283E090E057C0C80101978E5FE8
:102980009F4FD8F088E790E090931D0280931C023F
:1029900088EC90E090931F0280931E028EEF90E1EE
:1029A000909321028093200288EA96E1909323027B
:1029B0008093220284E090E037C0CA01860F971FFF
:1029C000820F931F800F911F8C179D07D9F088E706
:1029D00090E090931D0280931C0288EC90E090930D
:1029E0001F0280931E028EEF90E19093210280934C
:1029F000200288EA96E1909323028093220285E0E8
:102A000090E012C070931D0260931C0250931F024D
:102A100040931E0230932102209320021093230240
:102A20000093220280E090E0DF91CF911F910F91FF
:102A300008958FB7F8942FEF3FEF309377052093E9
:102A400076052091760530917705309375052093B2
:102A500074058FBF08954F925F926F927F928F920D
:102A60009F92AF92BF92CF92DF92EF92FF920F931D
:102A70001F93CF93DF93282F8091430582FF17C0C8
:102A80008091430580FF11C080918105909182055E
:102A90009093C2048093C1048091480490914904AA
:102AA000909341058093400588C010924305822F82
:102AB0008150823308F025E08FEF9FEF909341051E
:102AC000809340059093C2048093C10440902002FB
:102AD0005090210260901C0270901D028090220292
:102AE00090902302A0901E02B0901F0200E010E020
:102AF000EE24FF24C0E0D0E0C22EDD2446C08FB714
:102B0000F8942FEF3FEF30937705209376052091CF
:102B100076053091770530937505209374058FBF46
:102B20008FB7F8942091740530917505E091760582
:102B3000F09177058FBF37FDF3CFF7FDF1CF55E06B
:102B4000220F331F5A95E1F7C90184199509B30182
:102B50000E94CD7D9B0177FD33C0603A710584F5FD
:102B600045E0EE0FFF1F4A95E1F7CF01881999095B
:102B7000B5010E94CD7D77FD23C06035710504F558
:102B8000020F131FE60EF71E2196CC15DD0509F086
:102B9000B6CF209711F4C1E0D0E0C801BE010E9479
:102BA000E17D7093C2046093C104C701BE010E941D
:102BB000E17D709341056093400581E090E002C0A3
:102BC00080E090E0DF91CF911F910F91FF90EF9007
:102BD000DF90CF90BF90AF909F908F907F906F903D
:102BE0005F904F90089581E00E942B158823D9F3C0
:102BF000089581E00E942B158823D9F70895ECE110
:102C0000F2E080911E0290911F0220911C023091EF
:102C10001D02820F931F2091200230912102820F0A
:102C2000931F2091220230912302820F931F9093D1
:102C30002502809324028AE0A0E1B0E0182E0E94D1
:102C4000647E80E090E00895AF92BF92CF92DF92D1
:102C5000EF92FF920F931F938C01892B21F10E9419
:102C600066565801CC24DD247B018C01EA0CFB1C48
:102C70000C1D1D1DE616F7060807190768F40E94CB
:102C800072568601750108C081E00E942B158823C9
:102C900019F481E090E009C00E9466566E157F0528
:102CA0008007910788F380E090E01F910F91FF90DB
:102CB000EF90DF90CF90BF90AF900895AF92BF920A
:102CC000CF92DF92EF92FF920F931F938C01892B8B
:102CD00021F10E9466565801CC24DD247B018C0131
:102CE000EA0CFB1C0C1D1D1DE616F706080719074C
:102CF00068F40E9472568601750108C081E00E9446
:102D00002B15882319F081E090E009C00E946656D7
:102D10006E157F058007910788F380E090E01F9192
:102D20000F91FF90EF90DF90CF90BF90AF900895FC
:102D30002F923F924F925F926F927F928F929F92CB
:102D4000AF92BF92CF92DF92EF92FF920F931F93B9
:102D5000CF93DF93CDB7DEB768970FB6F894DEBF99
:102D60000FBECDBF882339F40E943D14882319F487
:102D700080E090E0B7C20E94473788E790E09093E8
:102D80001D0280931C0288EC90E090931F028093B8
:102D90001E028EEF90E1909321028093200288EA38
:102DA00096E190932302809322024EEC54E066E079
:102DB00086E00E9425364CEC54E062E482E90E94F1
:102DC00025364AEC54E064E28CE40E94253648EB58
:102DD00054E060E088E10E94253646EA54E068E06D
:102DE00088E10E94253644E954E060E188E10E94D0
:102DF00025364DE854E066E484E00E9425362FE451
:102E000048E364E480E00E941E3B09C01D861E86E4
:102E10001F86188A19861A861B861C860BC01D867B
:102E20001E861F86188A19861A861B861C866624AB
:102E3000772443011D821E821F82188619821A82FE
:102E40001B821C822224332421018FB7F894209105
:102E50007405309175055901CC24B7FCC094DC2C65
:102E6000209176053091770579010027F7FC0095D0
:102E7000102F8FBF24E6A216B104C104D1042CF395
:102E800031EEA31633E0B30630E0C30630E0D306DC
:102E9000E4F684E6E816F10401051105B4F291EEBA
:102EA000E91693E0F90690E0090790E019076CF63F
:102EB0008FB7F8942FEF3FEF309377052093760587
:102EC0002091760530917705309375052093740530
:102ED0008FBF68E380E00E942B2E8EE794E00E9473
:102EE000B02D1F930F93FF92EF92DF92CF92BF927C
:102EF000AF929F938F930E940875ADB7BEB71A9695
:102F00000FB6F894BEBF0FBEADBFB0E9AB16B1E0CF
:102F1000BB06B0E0CB06B0E0DB060CF045C0EFEE40
:102F2000EE16E2E0FE06E0E00E07E0E01E0724F009
:102F30000E943D1411E089C1FDE2EF16F1E0FF06A9
:102F4000F0E00F07F0E01F070CF07FCF55E0AA0C70
:102F5000BB1CCC1CDD1C5A95D1F78D859E85AF8599
:102F6000B8898A0D9B1DAC1DBD1D8D879E87AF87BF
:102F7000B88B45E0EE0CFF1C001F111F4A95D1F7DE
:102F800089859A85AB85BC858E0D9F1DA01FB11FBD
:102F900089879A87AB87BC870894611C711C811C48
:102FA000911C6CE271E040C099E5A91692E0B90667
:102FB00090E0C90690E0D906E4F1AEEEEA16A2E090
:102FC000FA06A0E00A07A0E01A070CF43ECF35E0AD
:102FD000AA0CBB1CCC1CDD1C3A95D1F78D819E81BF
:102FE000AF81B8858A0D9B1DAC1DBD1D8D839E8351
:102FF000AF83B88725E0EE0CFF1C001F111F2A9538
:10300000D1F789819A81AB81BC818E0D9F1DA01F54
:10301000B11F89839A83AB83BC830894211C311C24
:10302000411C511C68EC70E084E190E00E94205645
:103030000CCF9CE2E91691E0F90690E0090790E0D8
:1030400019070CF402CFADEBEA16A2E0FA06A0E0F5
:103050000A07A0E01A070CF0F8CE6AEF70E082E3EE
:1030600090E00E942056611471048104910409F4D7
:10307000CDCE2114310441045104A1F41D861E86D5
:103080001F86188A19861A861B861C866624772452
:1030900043011D821E821F82188619821A821B829A
:1030A0001C82D3CE6D857E858F859889A40193017E
:1030B0000E94167E298B3A8B4B8B5C8B69857A85B7
:1030C0008B859C85A40193010E94167E2D8B3E8BDF
:1030D0004F8B588F6D817E818F819885A2019101E0
:1030E0000E94167E39014A0189899A89AB89BC8977
:1030F000681A790A8A0A9B0A69817A818B819C8184
:10310000A20191010E94167E19012A018D899E89D2
:10311000AF89B88D281A390A4A0A5B0A68E380E049
:103120000E942B2E8201710195E015950795F79469
:10313000E7949A95D1F76401530185E0D594C7943B
:10314000B794A7948A95D1F78FE694E00E94B02DAA
:103150001F930F93FF92EF92DF92CF92BF92AF92A5
:103160009F938F930E940875ADB7BEB71A960FB69E
:10317000F894BEBF0FBEADBFB0E06B16B6E47B06E1
:10318000B0E08B06B0E09B060CF449CEE1E06E1691
:10319000EEE67E06E0E08E06E0E09E060CF03FCE16
:1031A000F0E82F16FEE33F06F0E04F06F0E05F0682
:1031B0000CF435CE21E0221624E6320620E0420649
:1031C00020E052060CF02BCEC401B3012CE830E015
:1031D00040E050E00E94167E890130931D0220934A
:1031E0001C02C201B1012CE330E040E050E00E943B
:1031F000167EB90130931F0220931E02C801B3E06E
:10320000880F991FBA95E1F7000F111F080F191FBA
:1032100089899A89801B910B9093210280932002C7
:10322000C901F3E0880F991FFA95E1F7660F771F40
:10323000680F791F8D899E89861B970B90932302B7
:10324000809322020E94FF1510E00E94F9150E944F
:103250004737112319F04AE554E002C045E454E031
:1032600060E080E00E94253640E354E060E180E0C9
:103270000E94253668E380E00E942B2E8091200278
:103280009091210220911C0230911D029F938F93F7
:103290003F932F9380E092E09F938F930E94087555
:1032A000809122029091230220911E0230911F02F0
:1032B0009F938F933F932F938EE092E09F938F93F2
:1032C0000E9408750E94F3150E94F9150E94473765
:1032D000812F90E0ADB7BEB71C960FB6F894BEBF75
:1032E0000FBEADBF68960FB6F894DEBF0FBECDBF60
:1032F000DF91CF911F910F91FF90EF90DF90CF90D2
:10330000BF90AF909F908F907F906F905F904F9005
:103310003F902F900895EF92FF920F931F93E090AC
:10332000D806F090D9060091DA061091DB0620E06D
:1033300030E040E85FE3C801B7010E94697C882360
:1033400019F41092DF0628C02091660430916704BA
:103350004091680450916904C801B7010E949A7BAA
:103360006093D8067093D9068093DA069093DB06B3
:1033700020E030E040E85FE30E946D7C181664F4C2
:1033800080E090E0A0E8BFE38093D8069093D90650
:10339000A093DA06B093DB061F910F91FF90EF9098
:1033A0000895CF93DF93CDB7DEB724970FB6F89487
:1033B000DEBF0FBECDBF69837A838B839C8380E0A1
:1033C00090E0A0E0B0E08093D8069093D906A09357
:1033D000DA06B093DB068091D006882369F08981F4
:1033E0009A81AB81BC818093660490936704A0931B
:1033F0006804B093690416C069817A818B819C81CD
:103400000E94357B9B01AC0160E070E080E89FE3A7
:103410000E94017C60936604709367048093680443
:103420009093690485E08093DF0624960FB6F894A4
:10343000DEBF0FBECDBFDF91CF910895AF92BF9297
:10344000CF92DF92EF92FF920F931F930F2EF0E037
:10345000AF2EF0E0BF2EF0E0CF2EF0E0DF2EF02D0B
:10346000A0923B05B0923C05C0923D05D0923E052E
:10347000A0924806B0924906C0924A06D0924B06E6
:103480000F2EF0E0EF2EF0E0FF2EF8E40F2FF2E425
:103490001F2FF02DE0925D04F0925E0400935F0414
:1034A00010936004E0925304F09254040093550486
:1034B0001093560420E030E048EC52E420934B0592
:1034C00030934C0540934D0550934E05E092E40631
:1034D000F092E5060093E6061093E70620E030E060
:1034E00046E153E420939D0430939E0440939F044F
:1034F0005093A004A0924605B0924705C09248059B
:10350000D09249050E94D1191F910F91FF90EF9021
:10351000DF90CF90BF90AF9008952F923F924F923F
:103520005F926F927F928F929F92AF92BF92CF9253
:10353000DF92EF92FF920F931F93CF93DF93CDB75C
:10354000DEB724970FB6F894DEBF0FBECDBFE09074
:10355000D806F090D9060091DA061091DB06A80192
:103560009701C801B7010E94FF7C5B016C01A801B3
:1035700097010E94FF7C1B012C019B01AC0160E0C4
:1035800070E080E89FE30E94997B3B014C01A80119
:103590009701C601B5010E94997B20E030E040E42C
:1035A00050E40E94FF7C9B01AC01C401B3010E9466
:1035B0009A7B69837A838B839C83A2019101C801E2
:1035C000B7010E949A7B7B018C0120E030E040E053
:1035D00050ECC601B5010E94FF7C9B01AC01C80103
:1035E000B7010E949A7B20E030E040E450E40E9462
:1035F000FF7C3B014C01A2019101C601B5010E9473
:10360000997B20E030E040E450E40E94FF7C5B01C5
:103610006C0120913B0530913C0540913D05509156
:103620003E0569817A818B819C810E94FF7C7B01B0
:103630008C0120915D0430915E0440915F045091B3
:103640006004C401B3010E94FF7C9B01AC01C8016E
:10365000B7010E949A7B7B018C0120914B05309130
:103660004C0540914D0550914E05C601B5010E9493
:10367000FF7C9B01AC01C801B7010E949A7B7B01D2
:103680008C0120919D0430919E0440919F045091A3
:10369000A004C201B1010E94FF7C9B01AC01C801E2
:1036A000B7010E949A7B0E94027B6093C3057093CE
:1036B000C4058093C5059093C605209148063091B6
:1036C000490640914A0650914B0669817A818B8167
:1036D0009C810E94FF7C7B018C01209153043091DE
:1036E00054044091550450915604C401B3010E9402
:1036F000FF7C9B01AC01C801B7010E949A7B7B0152
:103700008C012091E4063091E5064091E606509147
:10371000E706C601B5010E94FF7C9B01AC01C80110
:10372000B7010E949A7B7B018C0120914605309164
:1037300047054091480550914905C201B1010E94D9
:10374000FF7C9B01AC01C801B7010E949A7B0E94DB
:10375000027B6093CC067093CD068093CE06909347
:10376000CF060E948B1924960FB6F894DEBF0FBEC9
:10377000CDBFDF91CF911F910F91FF90EF90DF9020
:10378000CF90BF90AF909F908F907F906F905F9001
:103790004F903F902F900895CF93DF93CDB7DEB732
:1037A00024970FB6F894DEBF0FBECDBF69837A832E
:1037B0008B839C8380E090E0A0E0B0E08093D8060B
:1037C0009093D906A093DA06B093DB068091D006D9
:1037D000882369F089819A81AB81BC8180936604DA
:1037E00090936704A0936804B093690416C069813C
:1037F0007A818B819C810E94357B9B01AC0160E0CA
:1038000070E080E89FE30E94017C609366047093FF
:103810006704809368049093690482E08093DF06D4
:1038200020913B0530913C0540913D0550913E056E
:1038300060915D0470915E0480915F0490916004DA
:103840000E94997B6093E8067093E9068093EA06EC
:103850009093EB06209148063091490640914A0624
:1038600050914B066091530470915404809155041B
:10387000909156040E94997B6093EC067093ED063C
:103880008093EE069093EF0624960FB6F894DEBF71
:103890000FBECDBFDF91CF910895EF92FF920F93AE
:1038A0001F93E090D806F090D9060091DA061091A7
:1038B000DB062091E8063091E9064091EA06509136
:1038C000EB06C801B7010E94FF7C20913B053091B7
:1038D0003C0540913D0550913E050E949A7B0E9417
:1038E000027B6093C3057093C4058093C5059093D4
:1038F000C6052091EC063091ED064091EE06509100
:10390000EF06C801B7010E94FF7C20914806309164
:10391000490640914A0650914B060E949A7B0E94AC
:10392000027B6093CC067093CD068093CE06909375
:10393000CF060E948B191F910F91FF90EF90089571
:10394000CF93DF93CDB7DEB724970FB6F894DEBFE1
:103950000FBECDBF69837A838B839C838091D00611
:10396000882369F089819A81AB81BC818093660448
:1039700090936704A0936804B093690416C06981AA
:103980007A818B819C810E94357B9B01AC0160E038
:1039900070E080E89FE30E94017C6093660470936E
:1039A0006704809368049093690480E090E0A0E04D
:1039B000B0E08093D8069093D906A093DA06B0932E
:1039C000DB0683E08093DF062091C8053091C905AE
:1039D0004091CA055091CB05609183057091840593
:1039E00080918505909186050E94997B6093E806F9
:1039F0007093E9068093EA069093EB0624960FB63F
:103A0000F894DEBF0FBECDBFDF91CF910895CF9266
:103A1000DF92EF92FF920F931F936B018A0179015E
:103A2000AA2797FDA095BA2FBC01CD012EE130E069
:103A300040E050E00E94AE7D24E095958795779513
:103A400067952A95D1F7F801718360838EE490E041
:103A50008C199D09F701918380831F910F91FF902D
:103A6000EF90DF90CF900895AF92BF92CF92DF9208
:103A7000EF92FF920F931F935C016B018A01790112
:103A80000E94EF220F5F1F4F9701A801B601C501E9
:103A900001960E94EF221F910F91FF90EF90DF900F
:103AA000CF90BF90AF9008954F925F926F927F92A8
:103AB0008F929F92AF92BF92CF92DF92EF92FF923E
:103AC0000F931F93CF93DF93CDB7DEB724970FB635
:103AD000F894DEBF0FBECDBF0E94F11F8FEF0E9492
:103AE000644A80E00E94314A0E94F9158824992492
:103AF00033E0432E512C4C0E5D1E3E010894611C98
:103B0000711C81E00E942B15882309F0CEC1F401BD
:103B1000E053FB4F0894811C911CA4908EEFA816D3
:103B200041F08A1508F4BDC19DEFA91609F0ABC09C
:103B300075C094012F5F3F4FE0EDF4E08E0E9F1EA5
:103B4000F401849149010894811C911C20533B4F3E
:103B5000F9019491692F70E09201A30190E00E9415
:103B6000071D69817A81882777FD8095982F0E94AB
:103B7000357B5B016C0160935D0470935E04809300
:103B80005F04909360046B817C81882777FD80952A
:103B9000982F0E94357B6093530470935404809354
:103BA0005504909356040E94027B7B018C01C60150
:103BB000B5010E94027BDC01CB016091CC067091C3
:103BC000CD069701AC018091C3059091C4050E9478
:103BD000341D60915D0470915E0480915F0490914A
:103BE00060040E94027B6093C3057093C4058093B8
:103BF000C5059093C605609153047091540480915B
:103C00005504909156040E94027B6093CC067093F9
:103C1000CD068093CE069093CF0673CF94012F5F8D
:103C20003F4F80ED94E0880E991EF4018491490184
:103C30000894811C911C20533B4FF9019491692FEA
:103C400070E09201A30190E00E94071D89819A8192
:103C5000AA2797FDA095BA2F8093C3059093C4051A
:103C6000A093C505B093C6058B819C81AA2797FDBB
:103C7000A095BA2F8093CC069093CD06A093CE0644
:103C8000B093CF063ECF84010F5F1F4F80ED94E0CD
:103C9000880E991EF401649170E09201A3018A2DAF
:103CA00090E00E94071D69817A81882777FD8095C1
:103CB000982F0E94357B60933B0570933C05809361
:103CC0003D0590933E056B817C81882777FD80952B
:103CD000982F0E94357B6093480670934906809325
:103CE0004A0690934B0698012F5F3F4F00531B4F9E
:103CF000F801849149010894811C911C20533B4F89
:103D0000F9012491622F70E09201A30190E00E94DA
:103D1000071D69817A81882777FD8095982F0E94F9
:103D2000357B60935D0470935E0480935F04909391
:103D300060046B817C81882777FD8095982F0E9495
:103D4000357B60935304709354048093550490938F
:103D5000560494012F5F3F4F80ED94E0880E991E2A
:103D6000F401849149010894811C911C20533B4F1C
:103D7000F9012491622F70E09201A30190E00E946A
:103D8000071D69817A81882777FD8095982F0E9489
:103D9000357B60934B0570934C0580934D05909354
:103DA0004E056B817C81882777FD8095982F0E9436
:103DB000357B6093E4067093E5068093E606909366
:103DC000E70674010894E11CF11C80ED94E0880E74
:103DD000991EF4018491F701E053FB4FE4916E2F9B
:103DE00070E09201A30190E00E94071D69817A8131
:103DF000882777FD8095982F0E94357B60939D04DE
:103E000070939E0480939F049093A0046B817C81A7
:103E1000882777FD8095982F0E94357B6093460513
:103E200070934705809348059093490560913B0541
:103E300070913C0580913D0590913E050E94027B6A
:103E40004B01609148067091490680914A06909115
:103E50004B060E94027B8B0160E170E080E090E005
:103E60000E94D11916C00E948D1A2091CC06309163
:103E7000CD064091C3055091C405B801C4010E940C
:103E8000341D8090C3059090C4050091CC0610911C
:103E9000CD068091DF06882331F747010894811C05
:103EA000911CFFEFAF1609F02CCE24960FB6F894B4
:103EB000DEBF0FBECDBFDF91CF911F910F91FF905D
:103EC000EF90DF90CF90BF90AF909F908F907F90BA
:103ED0006F905F904F900895AF92BF92CF92DF9214
:103EE000EF92FF920F931F93A0905804B090590443
:103EF000C0905A04D0905B042091E8063091E90606
:103F00004091EA065091EB066091D8067091D9066F
:103F10008091DA069091DB060E94FF7C2091C80513
:103F20003091C9054091CA055091CB050E949A7BFA
:103F30007B018C010E94FE7B9B01AC01C601B50197
:103F40000E94FF7C20913B0530913C0540913D054E
:103F500050913E050E949A7B0E94027B6093C305AC
:103F60007093C4058093C5059093C605C801B70139
:103F70000E94627D9B01AC01C601B5010E94FF7CDD
:103F8000209148063091490640914A0650914B06CF
:103F90000E949A7B0E94027B6093CC067093CD06B0
:103FA0008093CE069093CF060E948B191F910F919C
:103FB000FF90EF90DF90CF90BF90AF9008958091E9
:103FC000DF06833041F0853021F0823031F40E94E9
:103FD0004D1C0E948D1A0E946C1F8091DF0690E09C
:103FE000089510929D0510929C058FE990E09093A2
:103FF000A1058093A00510929F0510929E058FE465
:1040000090E09093A3058093A2058EE895E09093AD
:104010006B0580936A050895E2E7F4E08FEF9FE770
:1040200091838083359684E0EA39F807B9F70895DB
:104030009C01E0916A05F0916B05868597852817AC
:10404000390714F421E008C0828993898217930705
:1040500014F422E001C020E084899589861797072F
:1040600014F4246006C080899189681779070CF4DC
:104070002860822F90E008952F923F924F925F9296
:104080006F927F928F929F92AF92BF92CF92DF9268
:10409000EF92FF920F931F93CF93DF93CDB7DEB7CD
:1040A0002C970FB6F894DEBF0FBECDBF5C013B016D
:1040B0005E834D8338872F83209170033091710385
:1040C000C901865A9F4F68E671E00E94E17D00E7D2
:1040D00016E0FC01E00FF11F6491862F992787FD00
:1040E0009095A92FB92F89839A83AB83BC83C9018B
:1040F00068E671E00E94E17D080F191FF801249025
:10410000332427FC3094432C532CCC24B7FCC0948C
:10411000DC2C882477FC8094982C69817A818B81AF
:104120009C81A60195010E94AE7D7B018C01C2019C
:10413000B101A40193010E94AE7DE61AF70A080BB3
:10414000190B209138023091390240913A02509176
:104150003B02C801B7010E94AE7D69877A878B87D1
:104160009C87C201B101A60195010E94AE7D7B0131
:104170008C0169817A818B819C81A40193010E94C9
:10418000AE7DE60EF71E081F191F20913C023091EC
:104190003D0240913E0250913F02C801B7010E948A
:1041A000AE7D20916C0330916D034B855C85240FAF
:1041B000351FAD81BE812D933C9320916E033091CC
:1041C0006F03280F391FEF81F885318320832C96E8
:1041D0000FB6F894DEBF0FBECDBFDF91CF911F9118
:1041E0000F91FF90EF90DF90CF90BF90AF909F9096
:1041F0008F907F906F905F904F903F902F90089599
:104200002F923F924F925F926F927F928F929F92E6
:10421000AF92BF92CF92DF92EF92FF920F931F93D4
:10422000CF93DF93CDB7DEB72E970FB6F894DEBFEE
:104230000FBECDBF5C013B011A013A872987409030
:104240006A0550906B05F20124813581C901865AB7
:104250009F4F68E671E00E94E17D00E716E0FC01F7
:10426000E00FF11F6491862F992787FD9095A92F64
:10427000B92F8D839E83AF83B887C90168E671E04B
:104280000E94E17D080F191FF8016491862F99277C
:1042900087FD9095A92FB92F89839A83AB83BC831F
:1042A000D2018D919C91A81AB90ACC24B7FCC09474
:1042B000DC2CF20182819381681A790A882477FCC8
:1042C0008094982C6D817E818F819885A6019501BF
:1042D0000E94AE7D7B018C0169817A818B819C81FA
:1042E000A40193010E94AE7DE61AF70A080B190B90
:1042F000F20122853385442737FD4095542FC801AC
:10430000B7010E94AE7D6B877C878D879E87698110
:104310007A818B819C81A60195010E94AE7D7B01F3
:104320008C016D817E818F819885A40193010E940B
:10433000AE7DE60EF71E081F191FF2012485358594
:10434000442737FD4095542FC801B7010E94AE7D28
:10435000F201268937894D855E85240F351FD101ED
:104360002D933C93208D318D281B390BE985FA85DF
:10437000318320832E960FB6F894DEBF0FBECDBFDB
:10438000DF91CF911F910F91FF90EF90DF90CF9031
:10439000BF90AF909F908F907F906F905F904F9065
:1043A0003F902F90089510924B0410924A0410925F
:1043B0004406109245061092460610924706109247
:1043C0006A0410926B0410926C0410926D040895AC
:1043D0008091750320916E048823B9F081E090E00C
:1043E00090939D0580939C05222311F08AE090E034
:1043F00090939F0580939E058EE990E09093A10590
:104400008093A0058EE490E016C081E090E0909348
:104410009D0580939C05222311F08AE090E0909303
:104420009F0580939E0588E890E09093A105809376
:10443000A00580E490E09093A3058093A20580916D
:10444000A0059091A105019662E070E00E94E17DD7
:104450007093A5056093A4058091A2059091A30592
:1044600020919E0530919F05820F931F62E070E0BE
:104470000E94E17D7093A7056093A60510929305B5
:10448000109292058EE895E090936B0580936A05F3
:104490008FEF0E94644A0E94273C8091BC048823CD
:1044A00019F082E00E94A32D0E944B4C089581E0F8
:1044B0008093BF058093BC041092750380936E04B3
:1044C0001092740310924B0410924A041092440606
:1044D00010924506109246061092470610926A0402
:1044E00010926B0410926C0410926D0482E380931E
:1044F000C7050E947E6680917004909171049D7F33
:10450000909371048093700410928F0510928E0521
:10451000109291051092900580E091E0909399059A
:104520008093980590939B0580939A051092F006CE
:104530001092F1061092F2061092F3060E94E82102
:1045400008950F931F93CF93DF930091A2041091CE
:10455000A30480E00E94D34AC0E0D0E01BC030E05A
:1045600080E496E0AC01249FC001259F900D349F0C
:10457000900D11240E947D42E0916A05F0916B0537
:1045800024892F5F42894F5F608961508685815001
:104590000E947D3B2C2F21968091E0068217F8F631
:1045A000C8010E947D42DF91CF911F910F91089524
:1045B0000E940D4280916D0580950E94644AE091B1
:1045C0006A05F0916B0524894289608986850E947D
:1045D000CA3180916D0580950E94644A08952F929A
:1045E0003F924F925F926F927F928F929F92AF9283
:1045F000BF92CF92DF92EF92FF920F931F93CF93D0
:10460000DF93CDB7DEB72A970FB6F894DEBF0FBEA3
:10461000CDBF4C017A8769875E834D8338872F83AE
:104620000E9418208B836F8178858D819E810E94E6
:1046300018208A8320906A0530906B054424552405
:104640006624772419827BC08A812B81822319F00A
:1046500080E090E084C08D819E81881999095C0179
:10466000CC24B7FCC094DC2C8F819885E985FA8531
:104670008E1B9F0B7C010027F7FC0095102FFB8100
:10468000FF2319F42A812C8302C03B813C83EC81F7
:10469000E3FF04C0F1016088718824C0E0FF04C01A
:1046A000F1014684578405C0E1FF17C0F10142883B
:1046B0005388B20168197909882777FD8095982F6A
:1046C000A80197010E94AE7DA60195010E94167E69
:1046D00069847A84620E731E19C0E2FF17C0F1016B
:1046E00064887588B30129853A85621B730B882716
:1046F00077FD8095982FA60195010E94AE7DA801B7
:1047000097010E94167E2401420E531E3C818B812C
:10471000381749F4B301C2010E9418208B8342016B
:104720007A86698609C0B301C2010E9418208A8373
:104730005E824D8278866F8299819F5F99838A819C
:10474000EB818E2B21F0F981F43009F07DCF2F81A0
:104750004D816985882D0E94373981E090E02A9645
:104760000FB6F894DEBF0FBECDBFDF91CF911F9182
:104770000F91FF90EF90DF90CF90BF90AF909F9000
:104780008F907F906F905F904F903F902F90089503
:10479000AF92BF92CF92DF92EF92FF920F931F934F
:1047A0005C017B018A0169019B010E94EF22960155
:1047B000A801B701C8010E94EF229601A501B60128
:1047C000C8010E94EF229701A501B601C5010E9410
:1047D000EF221F910F91FF90EF90DF90CF90BF904D
:1047E000AF9008958F929F92AF92BF92CF92DF9237
:1047F000EF92FF920F931F93CF93DF93CDB7DEB766
:1048000024970FB6F894DEBF0FBECDBF22E7C22EAD
:1048100024E0D22E9FEFE92E9FE7F92E0FEF1FE73E
:1048200083E0882E912C8C0E9D1E5E010894A11CA5
:10483000B11C4FC0F601628173819401A5010E94F1
:104840000021FFEFEF16FFE7FF06F9F02B813C8117
:1048500049815A81B801C7010E94EF222B813C8116
:1048600049815A814F5F5F4FB801C70101960E948D
:10487000EF222B813C812F5F3F4F49815A810F5F8F
:104880001F4FB801C7010E94EF222B813C81898113
:104890009A810396B901635070402D5F3F4FAC0180
:1048A00006970E94C8236B817C8189819A81F601D9
:1048B000448105960E949866E980FA800B811C81EC
:1048C00085E090E0C80ED91E9FE9C91694E0D9068C
:1048D00041F0F60180819181FFE78F3F9F0709F04A
:1048E000A9CF24960FB6F894DEBF0FBECDBFDF91DF
:1048F000CF911F910F91FF90EF90DF90CF90BF90DD
:10490000AF909F908F9008952F923F924F925F9219
:104910006F927F928F929F92AF92BF92CF92DF92CF
:10492000EF92FF920F931F93CF93DF93CDB7DEB734
:104930002A970FB6F894DEBF0FBECDBF2C016B01D6
:104940003A0149015801FA86E9868C0177E0272E61
:10495000312C2C0E3D1E65E0E62EF12CEC0EFD1EDA
:104960001CC09E012D5F3F4FAE014F5F5F4FB601F0
:10497000C8010E9400219101A701B401C8010E9451
:1049800000212F8138854D815E816B817C818981F9
:104990009A810E94EF220A0D1B1D601671060CF70A
:1049A000860153E0E52EF12CEC0EFD1E1E0108944D
:1049B000211C311C47E0A42EB12CAC0EBD1E35E0ED
:1049C000C32ED12CCC0EDD1E1AC09701A101B80157
:1049D000C2010E9400219501A601B801C3010E94F5
:1049E00000212F8138854D815E816B817C81898199
:1049F0009A810E94EF2289859A85080F191F8016D7
:104A000091061CF72A960FB6F894DEBF0FBECDBFF5
:104A1000DF91CF911F910F91FF90EF90DF90CF909A
:104A2000BF90AF909F908F907F906F905F904F90CE
:104A30003F902F9008956F927F928F929F92AF92A6
:104A4000BF92CF92DF92FF920F931F93CF93DF938A
:104A5000CDB7DEB724970FB6F894DEBF0FBECDBF3B
:104A60008C01CC24DD24FF24AA24BB2463E0662E21
:104A7000712C6C0E7D1E4E010894811C911C36C059
:104A8000992787FD90959A838983F801618177271B
:104A900067FD70957C836B839B0153E0220F331F6E
:104AA0005A95E1F7660F771F620F731FFC01B3E0A1
:104AB000EE0FFF1FBA95E1F79301A401880F991F2C
:104AC0008E0F9F1F0E940021F394F1E0FF1641F02A
:104AD0002B813C8149815A81B601C5010E94EF2298
:104AE0000E5F1F4FA980BA80CB80DC80F8018081E7
:104AF0008F3731F624960FB6F894DEBF0FBECDBFC8
:104B0000DF91CF911F910F91FF90DF90CF90BF90D9
:104B1000AF909F908F907F906F900895AF92BF92CB
:104B2000CF92DF92EF92FF920F931F932091400557
:104B3000309141052930310548F40E94F9158091E2
:104B40006E0491E0892780936E0428C04091C104CF
:104B50005091C20480919C0590919D05481759077A
:104B600014F18091A0059091A10584179507DCF0C0
:104B700080919E0590919F0528173907A4F0809198
:104B8000A2059091A305821793076CF00E94F91576
:104B90008091750391E08927809375030E94E82135
:104BA00088E590E059C10E94D05580917503882313
:104BB00009F076C080916E04882349F087EF98E071
:104BC0000E94B02DAC0160E080E00E94744C8EEE3B
:104BD00098E00E94B02DAC0164E480E00E94CF53C5
:104BE000E090C705FF2400E010E08BEE98E00E9403
:104BF000B02D23E02F9321E02F9323E630E040E017
:104C000050E05F934F933F932F9341E0A42EB12C3C
:104C1000C12CD12C9C0148E168E182E90E94784EC8
:104C20006093C7051091740389EE98E00E94B02D3F
:104C300001E0212FAC0168E48CE80E94C25080930F
:104C400074031091BC0487EE98E00E94B02D02E03E
:104C5000212FAC016EE38CE80E94C2508093BC040B
:104C600085EE98E00E94B02DE091BB04F0E0EE0FDD
:104C7000FF1FEE0FFF1F20917803E20FF11DEE0FD3
:104C8000FF1F2FEFAC0160E080EA8E1B0E945252A2
:104C90008DB79EB706960FB6F8949EBF0FBE8DBF18
:104CA00080915704882311F00E94A122109257048A
:104CB0000E94704C8A3151F18B3138F4883101F106
:104CC000893108F58230B9F40AC0883411F183358E
:104CD00019F08B3181F411C093E5D92E1CC00E94CC
:104CE000273C8091BC04882319F082E00E94A32D08
:104CF00081E080935704DD240EC08CE4D82E0BC0D5
:104D000005E5D02E08C014E4D12E05C0B2E5DB2E97
:104D100002C0A8E4DA2EE090F006F090F1060091CF
:104D2000F2061091F3060E946656E61AF70A080B7F
:104D3000190B99ECE916F1040105110508F488C076
:104D40000E9466566093F0067093F1068093F20617
:104D50009093F30680917403882329F010929305B1
:104D6000109292051EC080914A0490914B0490933A
:104D700093058093920597FF06C088599E4F9093A4
:104D8000930580939205809192059091930521E07F
:104D90008836920734F0885691409093930580931B
:104DA00092058091440690914506A0914606B091E7
:104DB0004706892F9A2FAB2FBB27A7FDBA95909353
:104DC0008F0580938E0580916A0490916B04A09169
:104DD0006C04B0916D04892F9A2FAB2FBB27A7FDD0
:104DE000BA9590939105809390058091C70524E131
:104DF000829FC00111249093990580939805909308
:104E00009B0580939A058091BC04882311F00E9431
:104E1000333C0E94D82286E292E00E941B257CE06F
:104E2000E72EF12C0CE010E020E630E040E650E008
:104E300060EA7FEF80EA9FEF0E94842461E081E0D6
:104E40000E94E56761E082E00E94D4670E94F2233D
:104E50008D2D992787FD90951F910F91FF90EF90D1
:104E6000DF90CF90BF90AF900895EF92FF920F9395
:104E70001F93CF93DF93CDB7DEB728970FB6F89483
:104E8000DEBF0FBECDBF7A0189019E012D5F3F4F6E
:104E9000AE014F5F5F4F0E9400219E01295F3F4F8F
:104EA000AE014B5F5F4FB801C7010E9400212F8107
:104EB00038854D815E816B817C8189819A810E94D8
:104EC000EF2228960FB6F894DEBF0FBECDBFDF915C
:104ED000CF911F910F91FF90EF9008956F927F9265
:104EE0008F929F92AF92BF92CF92DF92EF92FF92FA
:104EF0000F931F93CF93DF93CDB7DEB724970FB6F1
:104F0000F894DEBF0FBECDBF8C01AA24BB24CC24F5
:104F1000DD24EE24FF2453E0652E712C6C0E7D1EE3
:104F20004E010894811C911C2CC0992787FD9095F7
:104F30009A838983F8016181772767FD70957C8367
:104F40006B839301A4010E943C204E2D405D6B8138
:104F50007C8189819A8105960E949866EE2041F0B5
:104F60002B813C8149815A81B601C5010E94EF2203
:104F70000E5F1F4FA980BA80CB80DC800894E11CB3
:104F8000F11CF80180818F3781F624960FB6F894D2
:104F9000DEBF0FBECDBFDF91CF911F910F91FF906C
:104FA000EF90DF90CF90BF90AF909F908F907F90C9
:104FB0006F9008952F923F924F925F926F927F92DF
:104FC0008F929F92AF92BF92CF92DF92EF92FF9219
:104FD0000F931F93CF93DF93CDB7DEB72A970FB60A
:104FE000F894DEBF0FBECDBF2C016B013A01490121
:104FF0005801FA86E9868C01A7E02A2E312C2C0E66
:105000003D1EF5E0EF2EF12CEC0EFD1E1CC09E01A6
:105010002D5F3F4FAE014F5F5F4FB601C8010E9449
:105020003C209101A701B401C8010E943C202F81BE
:1050300038854D815E816B817C8189819A810E9456
:10504000EF220A0D1B1D601671060CF78601E3E0C6
:10505000EE2EF12CEC0EFD1E1E010894211C311CBD
:1050600077E0A72EB12CAC0EBD1E65E0C62ED12C6C
:10507000CC0EDD1E1AC09701A101B801C2010E9429
:105080003C209501A601B801C3010E943C202F815C
:1050900038854D815E816B817C8189819A810E94F6
:1050A000EF2289859A85080F191F801691061CF733
:1050B0002A960FB6F894DEBF0FBECDBFDF91CF9119
:1050C0001F910F91FF90EF90DF90CF90BF90AF9026
:1050D0009F908F907F906F905F904F903F902F9018
:1050E0000895EF92FF920F931F93CF93DF938C015C
:1050F0009B01E090B904CB01865A9F4F68E671E0AE
:105100000E94E17DC0E7D6E08C0F9D1FFC01449119
:10511000F0904505C90168E671E00E94E17DC80F85
:10512000D91FFE018491992787FD9095809F90015A
:10513000819F300D909F300D1124220F232F221FAD
:10514000330B2F0D311D842F992787FD9095809F5C
:10515000A001819F500D909F500D1124440F452FA9
:10516000441F550B4E0D511D6F2D8E2D0E9437394A
:10517000DF91CF911F910F91FF90EF900895AF9223
:10518000BF92CF92DF92FF920F931F93CF93DF9343
:10519000F82E162F042F8093B90460934505C1E0C3
:1051A000D0E0C22EDD24A42EBB2412C0CA9DC001B3
:1051B000CB9D900DDA9D900D1124B6010E94E17DEA
:1051C000AB0120EC30E0612F8F2D0E94BE3721967D
:1051D000CC16DD065CF7402F4F0D6F2D601B812F25
:1051E0000E943C32202F210F101B4F2D612F8F2D3D
:1051F0000E943739DF91CF911F910F91FF90DF907F
:10520000CF90BF90AF900895282F44E168E280E5E9
:105210000E94BF2808954F925F926F927F928F9263
:105220009F92AF92BF92CF92DF92EF92FF920F9335
:10523000CF93DF93CDB7DEB722970FB6F894DEBFDA
:105240000FBECDBF0E945722E2E7F4E08FEF9FE749
:1052500091838083359624E0EA39F207B9F781E437
:105260008093760410927304109272041092750465
:105270001092740482E480937B0482E390E0909324
:1052800078048093770489E190E090937A04809386
:10529000790483E48093800410927D0410927C044E
:1052A00080E590E090937F0480937E0484E4809373
:1052B000850480EB9FEF90938204809381048EE1BC
:1052C00090E090938404809383046624772498ED7F
:1052D000492E98E0592E0E948E25082F662011F441
:1052E000772039F080916E04882319F081E0809353
:1052F000BF058091BF05882351F160E080E00E94E6
:105300002B2E80914A0490914B049A838983E090DC
:105310009005F0909105C0908E05D0908F05C20148
:105320000E94B02DE981FA81FF93EF93FF92EF92F3
:10533000DF92CF929F938F930E9408752DB73EB74F
:10534000285F3F4F0FB6F8943EBF0FBE2DBF0C3401
:1053500071F00D342CF4043471F0083431F50FC0C1
:10536000033509F1053529F00235F9F406C06A94D0
:105370001CC073941AC07A9418C0639416C010921B
:105380004B0410924A041092440610924506109263
:1053900046061092470610926A0410926B0410920F
:1053A0006C0410926D0466247724262D332727FD84
:1053B000309580914A0490914B04280F391F309307
:1053C0004B0420934A0481E02836380734F02856ED
:1053D000314030934B0420934A0480914A049091C9
:1053E0004B0497FF06C088599E4F90934B048093BF
:1053F0004A04872C992487FC9094A92CB92CC0903E
:105400004A04D0904B04C60168E671E00E94E17D39
:10541000FC01E059F94FE4916E2F772767FD7095F5
:10542000872F972FA50194010E94AE7D20914406FD
:10543000309145064091460650914706260F371F8A
:10544000481F591F20934406309345064093460653
:1054500050934706C601865A9F4F68E671E00E9446
:10546000E17DFC01E059F94FE4916E2F772767FD4C
:105470007095872F972FA50194010E94AE7D2091F2
:105480006A0430916B0440916C0450916D04260FB6
:10549000371F481F591F20936A0430936B044093B1
:1054A0006C0450936D040E94704C8F3F09F013CF31
:1054B0000E94F9150E94F11F0E947E660E94273CFF
:1054C0000E9447378FEF0E94644A22960FB6F894E5
:1054D000DEBF0FBECDBFDF91CF910F91FF90EF9058
:1054E000DF90CF90BF90AF909F908F907F906F9004
:1054F0005F904F90089582B38695869580958170D0
:1055000090E00895459A00000000000080E0079BAD
:1055100004C0823311F08F5FFACF459808951F932E
:105520001FEF12B911B8469A479A0E94822A4698EC
:1055300011B947981F9108950F931F93182F062FA5
:105540000E948F2A479A12B9459A00000000000075
:105550004598479802B9459A000000000000459818
:105560001F910F910895FF920F931F9390EA699FE7
:1055700080011124080F111D93E0169507959A9547
:10558000E1F78091A2049091A304080F191FA2983B
:105590004698FF24FA94F1B8602F8AE00E949C2A72
:1055A000012F1127602F8BE00E949C2AA29AF2B84B
:1055B00011B8469A1F910F91FF900895EF92FF92B4
:1055C0000F931F93E42E8695869586950091A204ED
:1055D0001091A304080F111D66956695669584E1E8
:1055E000689FB0011124060F171FA2984698FF2448
:1055F000FA94F1B8602F8AE00E949C2A012F1127AB
:10560000602F8BE00E949C2A6E2D8CE00E949C2AC9
:10561000A29AF2B811B8469A1F910F91FF90EF909D
:105620000895EF92FF920F931F93E42E90EA699FE3
:1056300080011124080F111D43E0169507954A9526
:10564000E1F78091A2049091A304080F191FA2987A
:105650004698FF24FA94F1B8602F8AE00E949C2AB1
:10566000012F1127602F8BE00E949C2A0E948F2A15
:10567000479A8CE082B9459A0000000000004598E6
:105680004798E2B8459A0000000000004598A29AA9
:10569000F2B811B8469A1F910F91FF90EF900895BC
:1056A000FF920F931F9390EA699F80011124080FC6
:1056B000111D63E0169507956A95E1F78091A204A4
:1056C0009091A304080F191FA2984698FF24FA94FA
:1056D000F1B8602F8AE00E949C2A012F1127602FC9
:1056E0008BE00E949C2A0E948F2A479A8DE082B903
:1056F000459A0000000000004598F2B811B8469A9B
:105700000E94822A4798459A0000000000004598B0
:10571000479A0E94822A4798459A0000000000009C
:1057200080B14598A29AF2B811B8469A90E01F91BC
:105730000F91FF9008950F931F930091A204109171
:10574000A3049093A3048093A20460E080E00E94ED
:10575000502B1093A3040093A20490E01F910F918B
:1057600008950F931F93462F0091A2041091A30454
:105770009093A3048093A20460E080E00E94112B28
:105780001093A3040093A2041F910F91089589E63A
:1057900092E090934A07809349078FEF9FEF909391
:1057A0007104809370040895EF92FF920F931F93FA
:1057B0007C018B010E94B12B012F1127602FC701A3
:1057C00001960E94B12B1F910F91FF90EF900895C9
:1057D000CF92DF92EF92FF920F931F936C017A01A9
:1057E0008B01642F0E94B12B9927812F702F6F2D71
:1057F000C60101960E94B12BB80188279927C601DE
:1058000002960E94B12BE12EFF24002711276E2D56
:10581000C60103960E94B12B1F910F91FF90EF904C
:10582000DF90CF900895EF92FF920F931F937C012A
:1058300001960E949B2B082F10E0102F0027C70114
:105840000E949B2B90E0802B912B1F910F91FF903A
:10585000EF900895CF92DF92EF92FF920F931F93F4
:105860006C0103960E949B2BE82EFF2400E010E0C1
:10587000102F0F2DFE2CEE24C60102960E949B2BAA
:1058800090E0A0E0B0E0E82AF92A0A2B1B2B102FA9
:105890000F2DFE2CEE24C60101960E949B2B90E05A
:1058A000A0E0B0E0E82AF92A0A2B1B2B102F0F2DBD
:1058B000FE2CEE24C6010E949B2B90E0A0E0B0E0FD
:1058C000E82AF92A0A2B1B2BC801B7011F910F9157
:1058D000FF90EF90DF90CF90089597FF06C0DB0117
:1058E000BF770E94417E802D0AC096FF03C0FB0156
:1058F000849105C095FF05C0CB010E949B2B90E0D1
:105900000895FB01808190E0089597FF06C0DB01B8
:10591000BF770E944E7ECF01089596FF04C0FB0121
:1059200085919491089595FF04C0CB010E94132C9A
:105930000895FB01808191810895AF92BF92CF922B
:10594000DF92EF92FF920F931F93CF93DF93EA01C1
:10595000A22E6A01BB2411C07B018C010894E11CBA
:10596000F11C011D111D0E946D2C882351F0F601C0
:1059700081936F01B394C801B701BA1469F77B0131
:105980008C01CB0DD11D1882C801B701DF91CF91D9
:105990001F910F91FF90EF90DF90CF90BF90AF904D
:1059A00008956F927F928F929F92AF92BF92CF9203
:1059B000DF92EF92FF920F931F93CF93DF935B01E0
:1059C0006C013A014901E9010EC07B018C01089488
:1059D000E11CF11C011D111D0E946D2CF30181932E
:1059E0003F01C801B7012197FFEFCF3FDF0769F7FC
:1059F000B40180E090E06A0D7B1D8C1D9D1DDF9140
:105A0000CF911F910F91FF90EF90DF90CF90BF90BB
:105A1000AF909F908F907F906F900895DC01CB01A5
:105A2000B7FF06C0DC01BF77042E0E94537E0895A5
:105A3000B5FF04C0642F0E94B12B0895B6FD02C0CB
:105A4000FC0140830895DC01CB01B7FF06C0DC01F7
:105A5000BF770A010E945F7E0895B5FF04C0BA01B6
:105A60000E94D42B0895B6FD03C0FC0151834083EE
:105A70000895BF92CF92DF92EF92FF920F931F9300
:105A8000CF93DF93B22EEA0100E010C019916B01B1
:105A90007C010894C11CD11CE11CF11C412F0E9407
:105AA0000E2D112339F00F5FC701B6010B1571F7E9
:105AB0006B017C01C701B601DF91CF911F910F915E
:105AC000FF90EF90DF90CF90BF9008956F927F92FC
:105AD0008F929F92AF92BF92CF92DF92EF92FF92FE
