:100000000C94C00A0C94E10A0C94E10A0C94E10AE5
:100010000C94E10A0C94E10A0C94E10A0C94E10AB4
:100020000C94E10A0C94E10A0C94E10A0C94E10AA4
:100030000C94E10A0C94E10A0C94E10A0C94E10A94
:100040000C94E10A0C94E10A0C94E10A0C94E10A84
:100050000C94E10A0C94184C0C94E10A0C94E10AFB
:100060000C94E10A0C94BB540C94E10A0C943B4FA1
:100070000C94E10A0C94E10A0C94E10A0C94E10A54
:100080000C94E10A0C94E10A0C94E10A0C94E10A44
:100090000C9413520C94E10A0C94AA4F0C94E10AAC
:1000A0000C94E10A0C94E10A0C94E10A0C94E10A24
:1000B0000C94E10A0C94E10A0C94E10A0C94E10A14
:1000C0000C94E10A0C94E10A0C94E10A05A84CCDC9
:1000D000B2D44EB93836A9020C50B9918688083C82
:1000E000A6AAAA2ABE000000803F546F756368204C
:1000F00073637265656E20746F2065786974004360
:10010000616C6962726174696F6E20636F6D706C8F
:100110006574650043616C6962726174696F6E2019
:1001200043414E43454C45440043414C3A25346CD1
:10013000642C252D346C64004144433A25346C64AE
:100140002C252D346C640043414E43454C00202047
:10015000205468656E20746F7563682027582700E7
:10016000202020546F756368206561636820272B09
:100170002700546F7563682043616C696272617413
:10018000696F6E0058002B002B0000020407090B5A
:100190000D0F121416181A1D1F21232527292B2E87
:1001A00030323436383A3C3E4041434547494B4C67
:1001B0004E5052535557585A5B5D5E60616364659B
:1001C0006768696B6C6D6E6F70717273747576773A
:1001D000777879797A7B7B7C7C7D7D7D7E7E7E7F66
:1001E0007F7F7F7F7F7F7F7F7F7F7E7E7E7D7D7D28
:1001F0007C7C7B7B7A79797877777675747372718A
:10020000706F6E6D6C6B69686765646361605E5D7D
:100210005B5A5857555352504E4C4B4947454341F2
:10022000403E3C3A38363432302E2B2927252321C4
:100230001F1D1A181614120F0D0B0907040200FED9
:10024000FCF9F7F5F3F1EEECEAE8E6E3E1DFDDDBFC
:10025000D9D7D5D2D0CECCCAC8C6C4C2C1BFBDBB07
:10026000B9B7B5B4B2B0AEADABA9A8A6A5A3A2A0CC
:100270009F9D9C9B9998979594939291908F8E8D2A
:100280008C8B8A8989888787868585848483838304
:100290008282828181818181818181818181828249
:1002A00082838383848485858687878889898A8BEE
:1002B0008C8D8E8F9091929394959798999B9C9DFD
:1002C0009FA0A2A3A5A6A8A9ABADAEB0B2B4B5B786
:1002D000B9BBBDBFC1C2C4C6C8CACCCED0D2D5D7A7
:1002E000D9DBDDDFE1E3E6E8EAECEEF1F3F5F7F97F
:1002F000FCFE000306090C101316191C1F222528EA
:100300002B2E313336393C3F414447494C4E5153F3
:1003100055585A5C5E60626466686A6B6D6F707196
:100320007374757678797A7A7B7C7D7D7E7E7E7F2C
:100330007F7F7F7F7F7F7E7E7E7D7D7C7B7A7A79EB
:10034000787675747371706F6D6B6A6866646260DD
:100350005E5C5A585553514E4C494744413F3C39D5
:100360003633312E2B2825221F1C191613100C0989
:10037000060300FDFAF7F4F0EDEAE7E4E1DEDBD88E
:10038000D5D2CFCDCAC7C4C1BFBCB9B7B4B2AFAD67
:10039000ABA8A6A4A2A09E9C9A9896959391908FA4
:1003A0008D8C8B8A888786868584838382828281EE
:1003B000818181818181828282838384858686870F
:1003C000888A8B8C8D8F9091939596989A9C9EA0FD
:1003D000A2A4A6A8ABADAFB2B4B7B9BCBFC1C4C7E5
:1003E000CACDCFD2D5D8DBDEE1E4E7EAEDF0F4F711
:1003F000FAFD2534642025346420482533640058F0
:100400000050004E005A4D001B18191A2053204866
:1004100000204D61702044656D6F00008040C02059
:10042000A060E0109050D030B070F0088848C82824
:10043000A868E8189858D838B878F8048444C424D0
:10044000A464E4149454D434B474F40C8C4CCC2CC4
:10045000AC6CEC1C9C5CDC3CBC7CFC028242C2228E
:10046000A262E2129252D232B272F20A8A4ACA2AC4
:10047000AA6AEA1A9A5ADA3ABA7AFA068646C62670
:10048000A666E6169656D636B676F60E8E4ECE2E64
:10049000AE6EEE1E9E5EDE3EBE7EFE018141C1213D
:1004A000A161E1119151D131B171F1098949C92994
:1004B000A969E9199959D939B979F9058545C52540
:1004C000A565E5159555D535B575F50D8D4DCD2D34
:1004D000AD6DED1D9D5DDD3DBD7DFD038343C323FE
:1004E000A363E3139353D333B373F30B8B4BCB2B34
:1004F000AB6BEB1B9B5BDB3BBB7BFB078747C727E0
:10050000A767E7179757D737B777F70F8F4FCF2FD3
:10051000AF6FEF1F9F5FDF3FBF7FFF000000000056
:100520000000007E81A581BD99817E7EFFDBFFC337
:10053000E7FF7E367F7F7F3E1C0800081C3E7F3E23
:100540001C08001C3E1C7F7F3E1C3E08081C3E7F92
:100550003E1C3E0000183C3C180000FFFFE7C3C3F0
:10056000E7FFFF003C664242663C00FFC399BDBD09
:1005700099C3FFF0E0F0BE3333331E3C6666663C41
:10058000187E18FCCCFC0C0C0E0F07FEC6FEC6C66F
:10059000E66703995A3CE7E73C5A9901071F7F1F1A
:1005A00007010040707C7F7C704000183C7E18186A
:1005B0007E3C186666666666006600FEDBDBDED89B
:1005C000D8D8007CC61C36361C331E000000007EC6
:1005D0007E7E00183C7E187E3C18FF183C7E181862
:1005E000181800181818187E3C18000018307F30B2
:1005F000180000000C067F060C0000000003030337
:100600007F0000002466FF6624000000183C7EFF87
:10061000FF000000FFFF7E3C18000000000000000B
:100620000000000C1E1E1E0C000C003636360000AA
:1006300000000036367F367F3636000C3E031E3013
:100640001F0C00006333180C6663001C361C6E3BE5
:10065000336E000606030000000000180C060606B4
:100660000C1800060C1818180C060000663CFF3C1D
:10067000660000000C0C3F0C0C00000000000000A5
:100680000C0C060000003F0000000000000000000D
:100690000C0C006030180C060301003E63737B6F86
:1006A000673E000C0E0C0C0C0C3F001E33301C0679
:1006B000333F001E33301C30331E00383C36337F4E
:1006C0003078003F031F3030331E001C06031F33F9
:1006D000331E003F3330180C0C0C001E33331E3316
:1006E000331E001E33333E30180E00000C0C000089
:1006F0000C0C00000C0C00000C0C06180C06030679
:100700000C180000003F00003F0000060C183018D5
:100710000C06001E3330180C000C003E637B7B7B04
:10072000031E000C1E33333F3333003F66663E66C4
:10073000663F003C66030303663C001F3666666640
:10074000361F007E06061E06067E007E06061E0674
:100750000606003C66030373667C003333333F3385
:100760003333001E0C0C0C0C0C1E00783030303370
:10077000331E006766361E366667000606060606E6
:10078000067E0063777F7F6B63630063676F7B73B5
:100790006363001C36636363361C003F66663E0677
:1007A000060F001E3333333B1E38003F66663E366D
:1007B0006667001E33070E38331E003F0C0C0C0C0E
:1007C0000C0C003333333333333F003333333333A1
:1007D0001E0C006363636B7F7763006363361C1CCE
:1007E0003663003333331E0C0C1E007F6030180C50
:1007F000067F001E06060606061E0003060C1830BD
:100800006040001E18181818181E00081C366300D7
:1008100000000000000000000000FF0C0C180000A9
:1008200000000000001E303E336E000706063E66E4
:10083000663B0000001E3303331E003830303E3369
:10084000336E0000001E333F031E001C36060F06E9
:10085000060F0000006E33333E301F0706366E660B
:100860006667000C000E0C0C0C1E0030003030309F
:1008700033331E070666361E3667000E0C0C0C0C52
:100880000C1E000000337F7F6B630000001F3333BA
:1008900033330000001E3333331E0000003B666616
:1008A0003E060F00006E33333E307800003B6E662C
:1008B000060F0000003E031E301F00080C3E0C0C0B
:1008C0002C18000000333333336E00000033333311
:1008D0001E0C000000636B7F7F3600000063361C37
:1008E00036630000003333333E301F00003F190CE5
:1008F000263F00380C0C070C0C380018181800188C
:10090000181800070C0C380C0C07006E3B00000098
:1009100000000000081C3663637F003E6303633EF3
:1009200030603E0033003333336E0038001E333FF7
:10093000031E007E813C607C66DC0033001E303E7E
:10094000336E0007001E303E336E000C0C1E303E2E
:10095000336E0000003E63031E301C7E813C667EC9
:10096000063C0033001E333F031E0007001E333FCA
:10097000031E0033000E0C0C0C1E003E411C181808
:10098000183C0007000E0C0C0C1E0063083E637F31
:100990006363000C0C001E333F330038003F061E1B
:1009A000063F000000FE30FE33FE007C36337F330E
:1009B0003373001E21001E33331E000033001E332C
:1009C000331E000007001E33331E001E2100333388
:1009D000336E000007003333336E000033003333CF
:1009E0003E301FC3183C66663C1800330033333377
:1009F000331E0018187E03037E18181C36260F06B7
:100A0000673F0033331E0C3F0C3F0C1F33335F63D3
:100A1000F363C370D8183C18181B0E38001E303E04
:100A2000336E001C000E0C0C0C1E000038001E3330
:100A3000331E000038003333336E00001F001D33B7
:100A40003333003F0033373F3B33003C36367C00C6
:100A50007E00001C36361C003E0000180018180CE2
:100A6000663C000000003F030300000000003F3030
:100A700030000063331B6CD64321F0C36333DBECDF
:100A8000B6F3C0180018183C3C180000CC6633665A
:100A9000CC0000003366CC6633000044114411449E
:100AA000114411AA55AA55AA55AA55DB6FDBF6DBEE
:100AB0007EEBB71818181818181818181818181FD7
:100AC00018181818181F181F1818186C6C6C6C6FF1
:100AD0006C6C6C000000007F6C6C6C00001F181FB9
:100AE0001818186C6C6F606F6C6C6C6C6C6C6C6C48
:100AF0006C6C6C00007F606F6C6C6C6C6C6F607FFA
:100B00000000006C6C6C6C7F00000018181F181F30
:100B1000000000000000001F18181818181818F816
:100B200000000018181818FF00000000000000FF67
:100B300018181818181818F818181800000000FFCE
:100B400000000018181818FF1818181818F818F8C6
:100B50001818186C6C6C6CEC6C6C6C6C6CEC0CFCA1
:100B60000000000000FC0CEC6C6C6C6C6CEF00FF87
:100B70000000000000FF00EF6C6C6C6C6CEC0CEC87
:100B80006C6C6C0000FF00FF0000006C6CEF00EF6D
:100B90006C6C6C1818FF00FF0000006C6C6C6CFF34
:100BA0000000000000FF00FF18181800000000FF00
:100BB0006C6C6C6C6C6C6CFC0000001818F818F80D
:100BC0000000000000F818F818181800000000FCD9
:100BD0006C6C6C6C6C6C6CFF6C6C6C1818FF18FF98
:100BE000181818181818181F00000000000000F846
:100BF000181818FFFFFFFFFFFFFFFF00000000FFB6
:100C0000FFFFFF0F0F0F0F0F0F0F0FF0F0F0F0F0BF
:100C1000F0F0F0FFFFFFFF0000000000006E3B134C
:100C20003B6E00001E331F331F0303003F330303DB
:100C300003030000007F36363636003F33060C06CD
:100C4000333F0000007E1B1B1B0E000066666666BD
:100C50003E0603006E3B18181818003F0C1E333375
:100C60001E0C3F1C36637F63361C001C36636336E4
:100C7000367700380C183E33331E0000007EDBDB75
:100C80007E000060307EDBDB7E06031C06031F0354
:100C9000061C001E33333333333300007E007E00E6
:100CA0007E000018187E1818007E00060C180C062E
:100CB000003F00180C060C18003F0070D8D8181818
:100CC00018181818181818181B1B0E1818007E0072
:100CD000181800006E3B006E3B00001C36361C00EE
:100CE00000000000000018180000000000000018BC
:100CF000000000F030303037363C381A36363636A1
:100D00000000000E190C061F00000000003C3C3CD7
:100D10003C0000007E424242427E000A4348454376
:100D20004B53554D204552524F520A000A434845F5
:100D3000434B53554D204F4B0A000A434845434B04
:100D400053554D2053415645440A00434845434BB3
:100D500053554D2073623A253034580A00434845B4
:100D6000434B53554D2069733A253034580A0020BF
:100D70002530325800253034583A0045584954003F
:100D8000434C45415220434845434B504F494E54F4
:100D90000044554D5020746F20434F4D3000436840
:100DA00065636B506F696E742044756D703A2025D1
:100DB0003032580044554D50494E472052414D3A2B
:100DC000202530325800580053657420636C6F63DF
:100DD0006B00496E7665727420627574746F6E7301
:100DE00000426565706572004261636B6C6967689B
:100DF00074004D697363205365747570204D656E82
:100E00007500312E30320053657475700020005823
:100E1000002000580058002000001F1D1F1E1F1E2C
:100E20001F1F1E1F1E1F2564206D736563732F68AF
:100E300072002B2F2D206D736563732F6872200055
:100E40002564256325642563256400444154453A9F
:100E5000204D4D2F44442F59593F0054494D453A98
:100E60002048483A4D4D3A53533F005800204144E2
:100E70004A5553542000253032642F253032642FD8
:100E80002530326400253032643A253032643A2508
:100E9000303264005365742054696D65204D656E71
:100EA0007500000302050003050104060204444125
:100EB000544120426974733F00426175642072613D
:100EC00074653F00580054494D454F5554005254E5
:100ED000530043545300464C4F572043544C005842
:100EE0004D49540052435600584F4E2F584F4646D6
:100EF000004556454E004F44440050617269747974
:100F00003A200053544F503A202564004441544144
:100F10003A202564004261756420726174653A204C
:100F200025366C6400434F4D2564205365747570FD
:100F3000204D656E75000500F800AF00FF00FF0052
:100F4000FF001E00F2004F00FF00FF00FF00FF0047
:100F5000FF00FF00FF00FF00FF0041003900B80064
:100F6000BF00FF00FF00FF00FF00FF00FF00FF00C9
:100F7000FF00FF00FF00FF00FF00FF00FF001E005A
:100F8000FF00FF00FF00FF00FF002E00DC00FF005D
:100F9000FF00FF00FF000E00DA00FF00FF00FF006F
:100FA000FF000C00F200AF005700FF00FF005700E9
:100FB000FE00DF00FF00FF00FF00DA00FF00FF007F
:100FC000FF00FF00FF005700FF00FF00FF00FF00D1
:100FD000FF008A00FF00FF00FF00FF00FF002A0063
:100FE000FF00FF00FF00FF00FF00830014009B00D4
:100FF0008F00FF00FF003100BF00AC00FF00FF00CA
:10100000FF00310047008A00CF00FF00FF00010011
:101010004900BA00F5007F00FF00B60051006700EC
:10102000FF00FF00FF00200056009B00AF00FF0004
:10103000FF0021005800B9007500FF00FF0002000A
:10104000AF00FF00FF00FF00FF0063001400690015
:10105000B8006F00FF008B00940013005D007F005C
:10106000FF001E00FD00BF00FF00FF00FF001E008C
:10107000FD00AF00FF00FF00FF002500CF00FF00D4
:10108000FF00FF00FF005700F8009F00FF00FF0077
:10109000FF000700AF00FF00FF00FF00FF00BD00E2
:1010A00074001300FF00FF00FF009B00830014008A
:1010B0007D005E00D500A5001700CF005700FF009F
:1010C000FF00A00014006900BA000F0056004100A4
:1010D0003800B900FF00FF00FF000A00B90041001E
:1010E0000F00FF00FF002000AC00F5006F00FF00C4
:1010F000FF002000AF005600FF00FF00FF0041008E
:101100003800B9007600FF00FF000A00F200CF00AF
:101110007500FF00FF000200FA00CF001B00FF0077
:10112000FF002900B800FF00FF00FF00FF000A00D9
:10113000F2005C00FF00FF00FF000A00CF00FF008C
:10114000FF00FF00FF00A000E200CF00FF00FF0053
:10115000FF00A000C200FF00FF00FF00FF00310001
:101160004900B8003F00FF00FF00A0001400650028
:10117000FF00FF00FF00DC00F80031004900B8006C
:10118000FF00A00014006500CF00FF00FF00410039
:101190003900B800FF00FF00FF000200F100BF00AF
:1011A000FF00FF00FF000800B9002F00FF00FF0054
:1011B000FF000B002F00FF00FF00FF00FF000A00F0
:1011C0006C002F00FF00FF00FF000C00F200AF00DA
:1011D000FF00FF00FF000E002B00FF00FF00FF00DC
:1011E000FF000200AC00FF00FF00FF00FF00210035
:1011F000BC00FF00FF00FF00FF000C00FF00FF002D
:10120000FF00FF00FF000100BA00FF00FF00FF0029
:10121000FF0051007F00FF00FF00FF00FF00AC0057
:10122000FF00FF00FF00FF00FF000E00FF00FF00B7
:10123000FF00FF00FF00252D313673002531367386
:10124000005800434C520044454C0020F120004817
:10125000455800464958002E303000302E3D2F00B2
:1012600031323378003435362B003738392D0030A1
:101270002E3D2000313233200034353620003738FF
:101280003920004445430030203D2F00313233786F
:10129000003435362B20444546003738392D20415F
:1012A00042430030203D0031323300343536204493
:1012B0004546003738392041424300FD3336333646
:1012C000373C3A3A3B3B3B3B3C3C323F3F4B3F4B4E
:1012D000404C3D403C3C3C3C3C3B3E3B3F3B3F3B31
:1012E000443B48344C324C324C32502F4F2D4F2D12
:1012F0004F2D4E2B4E2B4E2B4C2B4B2F492C492C2C
:10130000482A4D2B4C284C284B254729462946294D
:101310003B2B2E2B3114311432113A003900390095
:1013200037013200300330032D0A2D172B192B19EA
:10133000270C17080A150A1505190A000900FE04EA
:1013400000040000010520082908290829062906AB
:101350002806280425021401150115001501290489
:101360002C042C062E082C082C082C1D2327263391
:1013700036FD413841383F383E383D38FE40364032
:10138000364037413741374137423743364335439B
:1013900035433542344134413440343F353F353FA5
:1013A000353F363F364036FE3D373D373D373D37DA
:1013B0003D373D373D353E3341334133433345338C
:1013C00045354535453643384138FD0E23FE252346
:1013D0002523262326232622FE2617261726162611
:1013E000162516FE21162116281827221B211B213F
:1013F0001C1D1C191C16FE1A161A161A191A1D1B6A
:1014000021FE1721FE151BFE1321FE0F210F210FB8
:101410001D0F190F16FE0E160E160E160E160E17AF
:10142000FE0E220E220E230E230E23FE0E23FD1887
:1014300016FE181AFE1516FE1816FE1816FD1516BD
:10144000FE121AFE1216FE1516FE1516FD1E1FFEC2
:101450001E171E172518231F1E1FFF21402324259A
:101460005E262A2F2E007E27225C3C3E7B7D5B5D24
:101470000021402324255E262A2F2E005A58435649
:10148000424E4D2B2D3D005A584356424E4D2C2E68
:101490002F005A584356424E4D2B2D3D0041534488
:1014A0004647484A4B4C3B004153444647484A4B09
:1014B0004C3A004153444647484A4B4C3B00515735
:1014C0004552545955494F5000515745525459555A
:1014D000494F500051574552545955494F500031CA
:1014E00032333435363738393000313233343536EB
:1014F0003738393000313233343536373839300007
:1015000053480021402324255E262A2F2E0073688D
:10151000007E27225C3C3E7B7D5B5D0020200043FB
:1015200052004253004553005A584356424E4D2BE9
:101530002D3D005A584356424E4D2C2E2F004153FC
:10154000444647484A4B4C3B004153444647484A6F
:101550004B4C3A0051574552545955494F50005140
:10156000574552545955494F50003132333435366E
:101570003738393000313233343536373839300086
:1015800011241FBECFEFD1E2DEBFCDBF00E00CBF04
:1015900013E0A0E0B2E0E6E3F9EE00E00BBF02C02A
:1015A00007900D92A63AB107D9F717E0A6EAB3E083
:1015B00001C01D92AE37B107E1F70E94E30A0C9417
:1015C000100B0C940000CF93DF93CDB7DEB70E94D1
:1015D000FE332FE44FE960E080E00E94312F62E2A9
:1015E0008EE10E94DF2180E092E09F938F930E9422
:1015F000130B0F900F9068EE73E082E390E00E946F
:10160000BA490E940D100E9413100E94FB2A8CE020
:1016100092E09F938F930E94130B0F900F90FFCF38
:10162000F8940C949A74A2E0B0E0E9E1FBE00C9429
:101630003074FE01389661917191FA83E983AF01AC
:1016400080912207909123070E942A0BE2E02296C4
:101650000C944C742F923F925F926F927F928F9274
:101660009F92AF92BF92CF92DF92EF92FF920F9331
:101670001F93CF93DF93CDB7DEB72B970FB6F894B8
:10168000DEBF0FBECDBF3C014B016A01FC011782DA
:101690001682838181FD03C08FEF9FEFBBC11E01C6
:1016A0000894211C311CF3013381F40133FD859131
:1016B00033FF81914F01882309F4A9C1853239F4A0
:1016C00033FD859133FF81914F01853229F4B301B8
:1016D00090E00E94380DE7CF982FAA2410E05524FF
:1016E0001032B0F49B3269F09C3228F4903251F001
:1016F000933271F40BC09D3239F0903349F411608C
:101700002AC01260146027C0186025C0106123C071
:1017100017FD2AC0292F20532A3088F416FF07C04E
:101720008AE0A89EC0011124A22EA80E14C08AE04F
:10173000589EC0011124522E580E10620CC09E32C9
:1017400021F416FD64C1106406C09C3611F41068C3
:1017500002C0983649F4F40133FD959133FF91911D
:101760004F01992309F0BCCF892F8554833018F09D
:101770008052833038F424E030E0C20ED31E8FE371
:1017800089830FC0933631F0933781F0933509F098
:1017900056C020C0F6018081898322E030E0C20E6D
:1017A000D31E710181E0A82EB12C12C0F601E08099
:1017B000F18016FD03C06FEF7FEF02C06A2D70E06D
:1017C00022E030E0C20ED31EC7010E942D0D5C0145
:1017D0001F7713C0F601E080F18016FD03C06FEFA4
:1017E0007FEF02C06A2D70E022E030E0C20ED31E0F
:1017F000C7010E94220D5C01106813FF07C01BC0C7
:10180000B30180E290E00E94380D5A94852D90E05B
:10181000A816B906A8F30FC0F70117FD859117FFA9
:1018200081917F01B30190E00E94380D51105A94CC
:101830000894A108B108A114B10471F7E5C0943669
:1018400011F0993669F517FF0AC0F60160817181C0
:101850008281938124E030E0C20ED31E0DC0F601D8
:10186000808191819C01B901882777FD8095982F0F
:1018700042E050E0C40ED51E012F0F7697FF08C03E
:1018800090958095709561957F4F8F4F9F4F006821
:101890002AE030E0A1010E94640DB82EB2183DC0CC
:1018A000953721F41F7E2AE030E01CC0197F9F3657
:1018B00061F0903720F4983509F0A9C00FC0903737
:1018C00039F0983709F0A3C004C028E030E00AC01E
:1018D000106114FD146020E130E004C014FD1660B6
:1018E00020E132E017FF08C0F6016081718182813A
:1018F000938144E050E008C0F60180819181BC01F1
:1019000080E090E042E050E0C40ED51EA1010E94AC
:10191000640DB82EB218012F0F7706FF09C00E7F95
:10192000BA1430F404FF06C002FD04C00F7E02C0EA
:101930001B2D01C01A2D04FF0CC0FE01EB0DF11D83
:101940008081803311F4097E08C01F5F02FF05C04B
:1019500003C0802F867809F01F5FE02E03FD14C0BE
:1019600000FF0FC0151510F0AB2C0BC0AB2CA50C55
:10197000A11A152D06C0B30180E290E00E94380D37
:101980001F5F1515C0F304C0151510F4511A01C0DE
:101990005524E4FE10C0B30180E390E00E94380DAE
:1019A000E2FE1EC0E1FE03C088E590E002C088E7C9
:1019B00090E0B3010CC08E2D867891F0E1FE02C05C
:1019C0008BE201C080E207FD8DE2B30190E00E944E
:1019D000380D06C0B30180E390E00E94380DAA9450
:1019E000BA14C0F3BA94F101EB0DF11D8081B3017B
:1019F00090E00E94380DBB2039F0F4CFB30180E2B3
:101A000090E00E94380D5A945520C1F74CCEF30156
:101A1000868197812B960FB6F894DEBF0FBECDBF9F
:101A2000DF91CF911F910F91FF90EF90DF90CF90BA
:101A3000BF90AF909F908F907F906F905F903F90FE
:101A40002F900895FC010590615070400110D8F767
:101A5000809590958E0F9F1F0895FC0161507040F6
:101A600001900110D8F7809590958E0F9F1F0895D3
:101A70000F931F93CF93DF938C01EB018B8181FF39
:101A80001BC082FF0DC02E813F818C819D81281754
:101A9000390764F4E881F9810193F983E88306C08A
:101AA000E885F985802F1995892B31F48E819F81E6
:101AB00001969F838E8302C00FEF1FEFC801DF9155
:101AC000CF911F910F910895FA01AA27283051F163
:101AD000203181F1E8946F936E7F6E5F7F4F8F4F5F
:101AE0009F4FAF4FB1E03ED0B4E03CD0670F781FBE
:101AF000891F9A1FA11D680F791F8A1F911DA11DA3
:101B00006A0F711D811D911DA11D20D009F46894DB
:101B10003F912AE0269F11243019305D3193DEF683
:101B2000CF010895462F4770405D4193B3E00FD039
:101B3000C9F7F6CF462F4F70405D4A3318F0495D24
:101B400031FD4052419302D0A9F7EACFB4E0A69507
:101B50009795879577956795BA95C9F70097610529
:101B6000710508959B01AC010A2E0694579547957F
:101B700037952795BA95C9F7620F731F841F951F74
:101B8000A01D0895982F10920904882309F498E065
:101B900080B7806880BF80910904806480937C0056
:101BA00090689093F404089580910904823029F498
:101BB000809116078230B1F408C080910904833007
:101BC00021F480911607833069F4E0910904F0E074
:101BD0008091780090917900EE0FFF1FE755FA4F42
:101BE00091838083809109048F5F80930904209101
:101BF000090430E08091F40490E08F709070281711
:101C0000390714F0109209048091090480648093CC
:101C10007C00809109048430E9F4809116078330B8
:101C200061F482E08093160782988A9A3998419AE3
:101C3000839A8B9A389A40980DC0823059F483E089
:101C40008093160783988B9A3898409A829A8A9A3A
:101C5000399A419886EC80937A000895FC014FB739
:101C6000F894EE0FFF1FE755FA4F808191812FEF17
:101C70003FEF318320834FBF089528E730E0309352
:101C80003A022093390228EC30E030933C02209352
:101C90003B022EEF30E130933E0220933D0228EAD2
:101CA00036E13093400220933F0290E008950F9375
:101CB0001F93CF93DF9382E080931607A0E1B0E0FB
:101CC0000E947474BF01A2E1B0E00E947474AF017D
:101CD000A4E1B0E00E9474749F01A6E1B0E00E940C
:101CE00074748F01A8E1B0E00E947474EF01CB011D
:101CF00001978E5F9F4FD8F088E790E090933A026B
:101D00008093390288EC90E090933C0280933B02F0
:101D10008EEF90E190933E0280933D0288EA96E137
:101D20009093400280933F0281E090E097C0CA0107
:101D300001978E5F9F4FD8F088E790E090933A022A
:101D40008093390288EC90E090933C0280933B02B0
:101D50008EEF90E190933E0280933D0288EA96E1F7
:101D60009093400280933F0282E090E077C0C901E7
:101D700001978E5F9F4FD8F088E790E090933A02EA
:101D80008093390288EC90E090933C0280933B0270
:101D90008EEF90E190933E0280933D0288EA96E1B7
:101DA0009093400280933F0283E090E057C0C801C7
:101DB00001978E5F9F4FD8F088E790E090933A02AA
:101DC0008093390288EC90E090933C0280933B0230
:101DD0008EEF90E190933E0280933D0288EA96E177
:101DE0009093400280933F0284E090E037C0CA01A4
:101DF000860F971F820F931F800F911F8C179D07CF
:101E0000D9F088E790E090933A028093390288EC09
:101E100090E090933C0280933B028EEF90E1909390
:101E20003E0280933D0288EA96E1909340028093BF
:101E30003F0285E090E012C070933A02609339024D
:101E400050933C0240933B0230933E0220933D026C
:101E50001093400200933F0280E090E0DF91CF9129
:101E60001F910F9108958FB7F8942FEF3FEF3093A4
:101E7000B0052093AF052091AF053091B0053093A8
:101E8000AE052093AD058FBF08954F925F926F927C
:101E90007F928F929F92AF92BF92CF92DF92EF92FA
:101EA000FF920F931F93CF93DF93282F80917C0590
:101EB00082FF17C080917C0580FF11C08091BA0518
:101EC0009091BB059093FC048093FB048091820465
:101ED0009091830490937B0580937A0588C010923B
:101EE0007C05822F8150823308F025E08FEF9FEF31
:101EF00090937B0580937A059093FC048093FB0478
:101F000040903D0250903E026090390270903A023B
:101F100080903F0290904002A0903B02B0903C0223
:101F200000E010E0EE24FF24C0E0D0E0C22EDD246B
:101F300046C08FB7F8942FEF3FEF3093B005209352
:101F4000AF052091AF053091B0053093AE052093D9
:101F5000AD058FBF8FB7F8942091AD053091AE05D8
:101F6000E091AF05F091B0058FBF37FDF3CFF7FDDE
:101F7000F1CF55E0220F331F5A95E1F7C9018419BB
:101F80009509B3010E94BC739B0177FD33C0603A91
:101F9000710584F545E0EE0FFF1F4A95E1F7CF018B
:101FA00088199909B5010E94BC7377FD23C060357B
:101FB000710504F5020F131FE60EF71E2196CC15CE
:101FC000DD0509F0B6CF209711F4C1E0D0E0C801DB
:101FD000BE010E94D0737093FC046093FB04C701A0
:101FE000BE010E94D07370937B0560937A0581E0F7
:101FF00090E002C080E090E0DF91CF911F910F91BF
:10200000FF90EF90DF90CF90BF90AF909F908F9018
:102010007F906F905F904F90089581E00E94450FF0
:102020008823D9F3089581E00E94450F8823D9F7CA
:102030000895E9E3F2E080913B0290913C02209107
:10204000390230913A02820F931F20913D02309164
:102050003E02820F931F20913F0230914002820F77
:10206000931F90934202809341028AE0A0E1B0E086
:10207000182E0E948A7480E090E00895AF92BF927B
:10208000CF92DF92EF92FF920F931F938C01892BD7
:1020900021F10E94004A5801CC24DD247B018C01EF
:1020A000EA0CFB1C0C1D1D1DE616F7060807190798
:1020B00068F40E940C4A8601750108C081E00E9404
:1020C000450F882319F481E090E009C00E94004A7E
:1020D0006E157F058007910788F380E090E01F91DF
:1020E0000F91FF90EF90DF90CF90BF90AF90089549
:1020F000AF92BF92CF92DF92EF92FF920F931F9316
:102100008C01892B21F10E94004A5801CC24DD2446
:102110007B018C01EA0CFB1C0C1D1D1DE616F7064D
:102120000807190768F40E940C4A8601750108C067
:1021300081E00E94450F882319F081E090E009C0FA
:102140000E94004A6E157F058007910788F380E0A2
:1021500090E01F910F91FF90EF90DF90CF90BF9094
:10216000AF9008952F923F924F925F926F927F921D
:102170008F929F92AF92BF92CF92DF92EF92FF9297
:102180000F931F93CF93DF93CDB7DEB768970FB64A
:10219000F894DEBF0FBECDBF882339F40E94570EDE
:1021A000882319F480E090E0B7C20E94FB2A88E7F8
:1021B00090E090933A028093390288EC90E09093FB
:1021C0003C0280933B028EEF90E190933E0280931D
:1021D0003D0288EA96E19093400280933F0248E8EE
:1021E00051E066E086E00E94D92946E851E062E4C9
:1021F00082E90E94D92944E851E064E28CE40E941B
:10220000D92942E751E060E088E10E94D92940E6FF
:1022100051E068E088E10E94D9294EE451E060E194
:1022200088E10E94D92947E451E066E484E00E94F5
:10223000D9292FE448E364E480E00E94D22E09C04B
:102240001D861E861F86188A19861A861B861C867E
:102250000BC01D861E861F86188A19861A861B8645
:102260001C866624772443011D821E821F821886E5
:1022700019821A821B821C822224332421018FB7E7
:10228000F8942091AD053091AE055901CC24B7FCEE
:10229000C094DC2C2091AF053091B0057901002766
:1022A000F7FC0095102F8FBF24E6A216B104C104DD
:1022B000D1042CF331EEA31633E0B30630E0C306AD
:1022C00030E0D306E4F684E6E816F10401051105D2
:1022D000B4F291EEE91693E0F90690E0090790E078
:1022E00019076CF68FB7F8942FEF3FEF3093B005D6
:1022F0002093AF052091AF053091B0053093AE0526
:102300002093AD058FBF68E380E00E94DF2188E362
:1023100091E00E9464211F930F93FF92EF92DF924E
:10232000CF92BF92AF929F938F930E94130BADB742
:10233000BEB71A960FB6F894BEBF0FBEADBFB0E9D8
:10234000AB16B1E0BB06B0E0CB06B0E0DB060CF0AC
:1023500045C0EFEEEE16E2E0FE06E0E00E07E0E03C
:102360001E0724F00E94570E11E089C1FDE2EF160E
:10237000F1E0FF06F0E00F07F0E01F070CF07FCF61
:1023800055E0AA0CBB1CCC1CDD1C5A95D1F78D85E1
:102390009E85AF85B8898A0D9B1DAC1DBD1D8D879F
:1023A0009E87AF87B88B45E0EE0CFF1C001F111F06
:1023B0004A95D1F789859A85AB85BC858E0D9F1D81
:1023C000A01FB11F89879A87AB87BC870894611CBF
:1023D000711C811C911C6CE271E040C099E5A9164A
:1023E00092E0B90690E0C90690E0D906E4F1AEEEBD
:1023F000EA16A2E0FA06A0E00A07A0E01A070CF429
:102400003ECF35E0AA0CBB1CCC1CDD1C3A95D1F7A5
:102410008D819E81AF81B8858A0D9B1DAC1DBD1D30
:102420008D839E83AF83B88725E0EE0CFF1C001FD1
:10243000111F2A95D1F789819A81AB81BC818E0DBC
:102440009F1DA01FB11F89839A83AB83BC8308940F
:10245000211C311C411C511C68EC70E084E190E0AF
:102460000E94BA490CCF9CE2E91691E0F90690E08F
:10247000090790E019070CF402CFADEBEA16A2E0D1
:10248000FA06A0E00A07A0E01A070CF0F8CE6AEFFF
:1024900070E082E390E00E94BA4961147104810403
:1024A000910409F4CDCE2114310441045104A1F466
:1024B0001D861E861F86188A19861A861B861C860C
:1024C0006624772443011D821E821F82188619828A
:1024D0001A821B821C82D3CE6D857E858F8598895A
:1024E000A40193010E940574298B3A8B4B8B5C8B62
:1024F00069857A858B859C85A40193010E9405746A
:102500002D8B3E8B4F8B588F6D817E818F8198856F
:10251000A20191010E94057439014A0189899A89B1
:10252000AB89BC89681A790A8A0A9B0A69817A810F
:102530008B819C81A20191010E94057419012A01DD
:102540008D899E89AF89B88D281A390A4A0A5B0A93
:1025500068E380E00E94DF218201710195E015951A
:102560000795F794E7949A95D1F76401530185E0B4
:10257000D594C794B794A7948A95D1F789E291E04E
:102580000E9464211F930F93FF92EF92DF92CF92EC
:10259000BF92AF929F938F930E94130BADB7BEB7BC
:1025A0001A960FB6F894BEBF0FBEADBFB0E06B1663
:1025B000B6E47B06B0E08B06B0E09B060CF449CE97
:1025C000E1E06E16EEE67E06E0E08E06E0E09E06B6
:1025D0000CF03FCEF0E82F16FEE33F06F0E04F068A
:1025E000F0E05F060CF435CE21E0221624E6320638
:1025F00020E0420620E052060CF02BCEC401B301CD
:102600002CE830E040E050E00E94057489013093EE
:102610003A0220933902C201B1012CE330E040E0DC
:1026200050E00E940574B90130933C0220933B02B4
:10263000C801B3E0880F991FBA95E1F7000F111F89
:10264000080F191F89899A89801B910B90933E026C
:1026500080933D02C901F3E0880F991FFA95E1F7D5
:10266000660F771F680F791F8D899E89861B970BD0
:102670009093400280933F020E94191010E00E9444
:1026800013100E94FB2A112319F044E151E002C00B
:102690004FEF50E060E080E00E94D9294AEE50E020
:1026A00060E180E00E94D92968E380E00E94DF2198
:1026B00080913D0290913E022091390230913A0280
:1026C0009F938F933F932F938DE192E09F938F93EE
:1026D0000E94130B80913F029091400220913B0297
:1026E00030913C029F938F933F932F938BE292E024
:1026F0009F938F930E94130B0E940D100E94131042
:102700000E94FB2A812F90E0ADB7BEB71C960FB692
:10271000F894BEBF0FBEADBF68960FB6F894DEBF8B
:102720000FBECDBFDF91CF911F910F91FF90EF9022
:10273000DF90CF90BF90AF909F908F907F906F90E1
:102740005F904F903F902F9008951092D605109271
:10275000D5058FE990E09093DA058093D905109222
:10276000D8051092D7058FE490E09093DC05809314
:10277000DB0587EC95E09093A4058093A30508956D
:10278000ECEAF4E08FEF9FE791838083359684E055
:10279000E43DF807B9F708959C01E091A305F09195
:1027A000A405868597852817390714F421E008C009
:1027B000828993898217930714F422E001C020E0F4
:1027C000848995898617970714F4246006C0808948
:1027D0009189681779070CF42860822F90E008959A
:1027E0002F923F924F925F926F927F928F929F9221
:1027F000AF92BF92CF92DF92EF92FF920F931F930F
:10280000CF93DF93CDB7DEB72C970FB6F894DEBF2A
:102810000FBECDBF5C013B015E834D8338872F83A4
:102820002091AA033091AB03C901865A9F4F68E6F5
:1028300071E00E94D0730AE811E0FC01E00FF11F83
:102840006491862F992787FD9095A92FB92F8983A9
:102850009A83AB83BC83C90168E671E00E94D073A0
:10286000080F191FF8012490332427FC3094432CBF
:10287000532CCC24B7FCC094DC2C882477FC8094A7
:10288000982C69817A818B819C81A60195010E9497
:102890009D737B018C01C201B101A40193010E94CF
:1028A0009D73E61AF70A080B190B20915502309117
:1028B00056024091570250915802C801B7010E9438
:1028C0009D7369877A878B879C87C201B101A601B6
:1028D00095010E949D737B018C0169817A818B81B6
:1028E0009C81A40193010E949D73E60EF71E081FB0
:1028F000191F2091590230915A0240915B02509168
:102900005C02C801B7010E949D732091A60330911B
:10291000A7034B855C85240F351FAD81BE812D93A8
:102920003C932091A8033091A903280F391FEF8110
:10293000F885318320832C960FB6F894DEBF0FBE46
:10294000CDBFDF91CF911F910F91FF90EF90DF905E
:10295000CF90BF90AF909F908F907F906F905F903F
:102960004F903F902F9008952F923F924F925F92F9
:102970006F927F928F929F92AF92BF92CF92DF928F
:10298000EF92FF920F931F93CF93DF93CDB7DEB7F4
:102990002E970FB6F894DEBF0FBECDBF5C013B0192
:1029A0001A013A8729874090A3055090A405F201A7
:1029B00024813581C901865A9F4F68E671E00E94E3
:1029C000D0730AE811E0FC01E00FF11F6491862F3B
:1029D000992787FD9095A92FB92F8D839E83AF836B
:1029E000B887C90168E671E00E94D073080F191F0B
:1029F000F8016491862F992787FD9095A92FB92F0B
:102A000089839A83AB83BC83D2018D919C91A81A50
:102A1000B90ACC24B7FCC094DC2CF20182819381EA
:102A2000681A790A882477FC8094982C6D817E81BD
:102A30008F819885A60195010E949D737B018C0171
:102A400069817A818B819C81A40193010E949D738D
:102A5000E61AF70A080B190BF20122853385442781
:102A600037FD4095542FC801B7010E949D736B87B5
:102A70007C878D879E8769817A818B819C81A60165
:102A800095010E949D737B018C016D817E818F81F8
:102A90009885A40193010E949D73E60EF71E081FFE
:102AA000191FF20124853585442737FD4095542FA1
:102AB000C801B7010E949D73F201268937894D85AF
:102AC0005E85240F351FD1012D933C93208D318DD0
:102AD000281B390BE985FA85318320832E960FB6A2
:102AE000F894DEBF0FBECDBFDF91CF911F910F9144
:102AF000FF90EF90DF90CF90BF90AF909F908F901E
:102B00007F906F905F904F903F902F90089510921C
:102B100085041092840410927D0610927E06109215
:102B20007F06109280061092A4041092A5041092C1
:102B3000A6041092A70408958091AF032091A804E1
:102B40008823B9F081E090E09093D6058093D50575
:102B5000222311F08AE090E09093D8058093D70566
:102B60008EE990E09093DA058093D9058EE490E0A9
:102B700016C081E090E09093D6058093D50522237E
:102B800011F08AE090E09093D8058093D70588E80B
:102B900090E09093DA058093D90580E490E09093DB
:102BA000DC058093DB058091D9059091DA050196CB
:102BB00062E070E00E94D0737093DE056093DD05E3
:102BC0008091DB059091DC052091D7053091D805E7
:102BD000820F931F62E070E00E94D0737093E00553
:102BE0006093DF051092CC051092CB0587EC95E041
:102BF0009093A4058093A3058FEF0E94FE3D0E9451
:102C0000DB2F8091F604882319F082E00E9457217F
:102C10000E94E53F089581E08093F8058093F604D3
:102C20001092AF038093A8041092AE031092850413
:102C30001092840410927D0610927E0610927F06F8
:102C4000109280061092A4041092A5041092A6047B
:102C50001092A70482E3809300060E94965A809106
:102C6000AA049091AB049D7F9093AB048093AA0437
:102C70001092C8051092C7051092CA051092C90596
:102C800080E091E09093D2058093D1059093D40594
:102C90008093D305109226071092270710922807D9
:102CA000109229070E949C1508950F931F93CF93AC
:102CB000DF930091DC041091DD0480E00E946D3E02
:102CC000C0E0D0E01BC030E080E496E0AC01249F7F
:102CD000C001259F900D349F900D11240E9417363E
:102CE000E091A305F091A40524892F5F42894F5FED
:102CF00060896150868581500E94312F2C2F21964A
:102D0000809118078217F8F6C8010E941736DF91E4
:102D1000CF911F910F9108950E94A7358091A6052C
:102D200080950E94FE3DE091A305F091A4052489C1
:102D30004289608986850E947E258091A6058095BE
:102D40000E94FE3D08952F923F924F925F926F92A4
:102D50007F928F929F92AF92BF92CF92DF92EF922B
:102D6000FF920F931F93CF93DF93CDB7DEB72A97D0
:102D70000FB6F894DEBF0FBECDBF4C017A876987CE
:102D80005E834D8338872F830E94CC138B836F81A2
:102D900078858D819E810E94CC138A832090A30523
:102DA0003090A405442455246624772419827BC0DE
:102DB0008A812B81822319F080E090E084C08D818C
:102DC0009E81881999095C01CC24B7FCC094DC2C45
:102DD0008F819885E985FA858E1B9F0B7C010027E2
:102DE000F7FC0095102FFB81FF2319F42A812C8317
:102DF00002C03B813C83EC81E3FF04C0F1016088A9
:102E0000718824C0E0FF04C0F1014684578405C0E6
:102E1000E1FF17C0F10142885388B20168197909AE
:102E2000882777FD8095982FA80197010E949D73B0
:102E3000A60195010E94057469847A84620E731E4E
:102E400019C0E2FF17C0F10164887588B3012985B4
:102E50003A85621B730B882777FD8095982FA60112
:102E600095010E949D73A80197010E940574240199
:102E7000420E531E3C818B81381749F4B301C201C5
:102E80000E94CC138B8342017A86698609C0B30104
:102E9000C2010E94CC138A835E824D8278866F8243
:102EA00099819F5F99838A81EB818E2B21F0F98133
:102EB000F43009F07DCF2F814D816985882D0E94E6
:102EC000EB2C81E090E02A960FB6F894DEBF0FBE9F
:102ED000CDBFDF91CF911F910F91FF90EF90DF90C9
:102EE000CF90BF90AF909F908F907F906F905F90AA
:102EF0004F903F902F900895AF92BF92CF92DF9264
:102F0000EF92FF920F931F935C017B018A0169018D
:102F10009B010E94A3169601A801B701C8010E9457
:102F2000A3169601A501B601C8010E94A316970138
:102F3000A501B601C5010E94A3161F910F91FF9034
:102F4000EF90DF90CF90BF90AF9008958F929F92B7
:102F5000AF92BF92CF92DF92EF92FF920F931F93A7
:102F6000CF93DF93CDB7DEB724970FB6F894DEBFCB
:102F70000FBECDBF2CEAC22E24E0D22E9FEFE92E49
:102F80009FE7F92E0FEF1FE783E0882E912C8C0E20
:102F90009D1E5E010894A11CB11C4FC0F601628108
:102FA00073819401A5010E94B414FFEFEF16FFE7AF
:102FB000FF06F9F02B813C8149815A81B801C70194
:102FC0000E94A3162B813C8149815A814F5F5F4F3C
:102FD000B801C70101960E94A3162B813C812F5F87
:102FE0003F4F49815A810F5F1F4FB801C7010E94AF
:102FF000A3162B813C8189819A810396B901635084
:1030000070402D5F3F4FAC0106970E947C176B818B
:103010007C8189819A81F601448105960E94CE596E
:10302000E980FA800B811C8185E090E0C80ED91EF2
:1030300099EDC91694E0D90641F0F601808191819D
:10304000FFE78F3F9F0709F0A9CF24960FB6F894AA
:10305000DEBF0FBECDBFDF91CF911F910F91FF90CB
:10306000EF90DF90CF90BF90AF909F908F9008959A
:103070002F923F924F925F926F927F928F929F9288
:10308000AF92BF92CF92DF92EF92FF920F931F9376
:10309000CF93DF93CDB7DEB72A970FB6F894DEBF94
:1030A0000FBECDBF2C016B013A0149015801FA86D0
:1030B000E9868C0177E0272E312C2C0E3D1E65E031
:1030C000E62EF12CEC0EFD1E1CC09E012D5F3F4F25
:1030D000AE014F5F5F4FB601C8010E94B414910169
:1030E000A701B401C8010E94B4142F8138854D8115
:1030F0005E816B817C8189819A810E94A3160A0D71
:103100001B1D601671060CF7860153E0E52EF12CAD
:10311000EC0EFD1E1E010894211C311C47E0A42E5C
:10312000B12CAC0EBD1E35E0C32ED12CCC0EDD1E55
:103130001AC09701A101B801C2010E94B4149501FF
:10314000A601B801C3010E94B4142F8138854D81B6
:103150005E816B817C8189819A810E94A316898519
:103160009A85080F191F801691061CF72A960FB62C
:10317000F894DEBF0FBECDBFDF91CF911F910F91AD
:10318000FF90EF90DF90CF90BF90AF909F908F9087
:103190007F906F905F904F903F902F9008956F9227
:1031A0007F928F929F92AF92BF92CF92DF92FF92C7
:1031B0000F931F93CF93DF93CDB7DEB724970FB64E
:1031C000F894DEBF0FBECDBF8C01AA24BB24CC2453
:1031D000DD24FF2463E0662E712C6C0E7D1E4E01F3
:1031E0000894811C911C36C0992787FD90959A837D
:1031F0008983F8016181772767FD70957C836B83F4
:103200009B0153E0220F331F5A95E1F7660F771F9A
:10321000620F731FFC01B3E0EE0FFF1FBA95E1F7D9
:103220009301A401880F991F8E0F9F1F0E94B41451
:10323000F394F1E0FF1641F02B813C8149815A81E2
:10324000B601C5010E94A3160E5F1F4FA980BA8068
:10325000CB80DC80F80180818F3731F624960FB661
:10326000F894DEBF0FBECDBFDF91CF911F910F91BC
:10327000FF90DF90CF90BF90AF909F908F907F9006
:103280006F900895AF92BF92CF92DF92EF92FF922C
:103290000F931F9320917A0530917B0529303105DA
:1032A00048F40E9413108091A80491E0892780932C
:1032B000A80428C04091FB045091FC048091D505DE
:1032C0009091D6054817590714F18091D90590912E
:1032D000DA0584179507DCF08091D7059091D80521
:1032E00028173907A4F08091DB059091DC0582173F
:1032F00093076CF00E9413108091AF0391E089272F
:103300008093AF030E949C1588E590E059C10E940C
:103310006A498091AF03882309F076C08091A804A0
:10332000882349F081E194E00E946421AC0160E0CF
:1033300080E00E940E4088E094E00E946421AC018D
:1033400064E480E00E946947E0900006FF2400E00A
:1033500010E085E094E00E94642123E02F9321E0B7
:103360002F9323E630E040E050E05F934F933F938C
:103370002F9341E0A42EB12CC12CD12C9C0148E10B
:1033800068E182E90E941242609300061091AE0348
:1033900083E094E00E94642101E0212FAC0168E405
:1033A0008CE80E945C448093AE031091F60481E0A7
:1033B00094E00E94642102E0212FAC016EE38CE8CE
:1033C0000E945C448093F6048FEF93E00E94642196
:1033D000E091F504F0E0EE0FFF1FEE0FFF1F2091CC
:1033E000B203E20FF11DEE0FFF1F2FEFAC0160E003
:1033F00080EA8E1B0E94EC458DB79EB706960FB6ED
:10340000F8949EBF0FBE8DBF80919104882311F068
:103410000E945516109291040E940A408A3151F17F
:103420008B3138F4883101F1893108F58230B9F4F3
:103430000AC0883411F1833519F08B3181F411C041
:1034400093E5D92E1CC00E94DB2F8091F6048823BF
:1034500019F082E00E94572181E080939104DD24DD
:103460000EC08CE4D82E0BC005E5D02E08C014E4A5
:10347000D12E05C0B2E5DB2E02C0A8E4DA2EE09022
:103480002607F090270700912807109129070E942E
:10349000004AE61AF70A080B190B99ECE916F10431
:1034A0000105110508F488C00E94004A60932607B0
:1034B0007093270780932807909329078091AE0384
:1034C000882329F01092CC051092CB051EC0809164
:1034D0008404909185049093CC058093CB0597FF4D
:1034E00006C088599E4F9093CC058093CB05809160
:1034F000CB059091CC0521E08836920734F08856B0
:1035000091409093CC058093CB0580917D0690915E
:103510007E06A0917F06B0918006892F9A2FAB2F4F
:10352000BB27A7FDBA959093C8058093C7058091E6
:10353000A4049091A504A091A604B091A704892F9A
:103540009A2FAB2FBB27A7FDBA959093CA058093FE
:10355000C9058091000624E1829FC0011124909347
:10356000D2058093D1059093D4058093D3058091A3
:10357000F604882311F00E94E72F0E948C1683E442
:1035800092E00E94CF187CE0E72EF12C0CE010E0D6
:1035900020E630E040E650E060EA7FEF80EA9FEF0F
:1035A0000E94381861E081E00E94525961E082E097
:1035B0000E9464590E94A6178D2D992787FD90952A
:1035C0001F910F91FF90EF90DF90CF90BF90AF9041
:1035D0000895EF92FF920F931F93CF93DF93CDB790
:1035E000DEB728970FB6F894DEBF0FBECDBF7A01C5
:1035F00089019E012D5F3F4FAE014F5F5F4F0E94DB
:10360000B4149E01295F3F4FAE014B5F5F4FB8017D
:10361000C7010E94B4142F8138854D815E816B8172
:103620007C8189819A810E94A31628960FB6F8940E
:10363000DEBF0FBECDBFDF91CF911F910F91FF90E5
:10364000EF9008956F927F928F929F92AF92BF9268
:10365000CF92DF92EF92FF920F931F93CF93DF935E
:10366000CDB7DEB724970FB6F894DEBF0FBECDBF3F
:103670008C01AA24BB24CC24DD24EE24FF2453E0B7
:10368000652E712C6C0E7D1E4E010894811C911CC0
:103690002CC0992787FD90959A838983F8016181D1
:1036A000772767FD70957C836B839301A4010E944B
:1036B000F0134E2D405D6B817C8189819A81059646
:1036C0000E94CE59EE2041F02B813C8149815A81E4
:1036D000B601C5010E94A3160E5F1F4FA980BA80D4
:1036E000CB80DC800894E11CF11CF80180818F37CD
:1036F00081F624960FB6F894DEBF0FBECDBFDF91E2
:10370000CF911F910F91FF90EF90DF90CF90BF90DE
:10371000AF909F908F907F906F9008952F923F92DF
:103720004F925F926F927F928F929F92AF92BF92D1
:10373000CF92DF92EF92FF920F931F93CF93DF937D
:10374000CDB7DEB72A970FB6F894DEBF0FBECDBF58
:103750002C016B013A0149015801FA86E9868C0176
:10376000A7E02A2E312C2C0E3D1EF5E0EF2EF12C79
:10377000EC0EFD1E1CC09E012D5F3F4FAE014F5F42
:103780005F4FB601C8010E94F0139101A701B40177
:10379000C8010E94F0132F8138854D815E816B81B5
:1037A0007C8189819A810E94A3160A0D1B1D6016D7
:1037B00071060CF78601E3E0EE2EF12CEC0EFD1EF7
:1037C0001E010894211C311C77E0A72EB12CAC0EF1
:1037D000BD1E65E0C62ED12CCC0EDD1E1AC0970191
:1037E000A101B801C2010E94F0139501A601B80120
:1037F000C3010E94F0132F8138854D815E816B815A
:103800007C8189819A810E94A31689859A85080FF7
:10381000191F801691061CF72A960FB6F894DEBF82
:103820000FBECDBFDF91CF911F910F91FF90EF9011
:10383000DF90CF90BF90AF909F908F907F906F90D0
:103840005F904F903F902F900895EF92FF920F93CB
:103850001F93CF93DF938C019B01E090F304CB0186
:10386000865A9F4F68E671E00E94D073CAE8D1E0A3
:103870008C0F9D1FFC014491F0907E05C90168E604
:1038800071E00E94D073C80FD91FFE01849199275F
:1038900087FD9095809F9001819F300D909F300D06
:1038A0001124220F232F221F330B2F0D311D842FA4
:1038B000992787FD9095809FA001819F500D909F33
:1038C000500D1124440F452F441F550B4E0D511D13
:1038D0006F2D8E2D0E94EB2CDF91CF911F910F91B8
:1038E000FF90EF900895AF92BF92CF92DF92FF9238
:1038F0000F931F93CF93DF93F82E162F042F8093EF
:10390000F30460937E05C1E0D0E0C22EDD24A42E36
:10391000BB2412C0CA9DC001CB9D900DDA9D900DB5
:103920001124B6010E94D073AB0120EC30E0612F6E
:103930008F2D0E94722B2196CC16DD065CF7402F4E
:103940004F0D6F2D601B812F0E94F025202F210F1E
:10395000101B4F2D612F8F2D0E94EB2CDF91CF91EB
:103960001F910F91FF90DF90CF90BF90AF9008957F
:10397000282F44E168E280E50E94731C08954F926D
:103980005F926F927F928F929F92AF92BF92CF92EF
:10399000DF92EF92FF920F93CF93DF93CDB7DEB715
:1039A00022970FB6F894DEBF0FBECDBF0E940B1654
:1039B000ECEAF4E08FEF9FE791838083359624E073
:1039C000E43DF207B9F781E48093B0041092AD04AE
:1039D0001092AC041092AF041092AE0482E4809373
:1039E000B50482E390E09093B2048093B10489E13E
:1039F00090E09093B4048093B30483E48093BA047A
:103A00001092B7041092B60480E590E09093B90448
:103A10008093B80484E48093BF0480EB9FEF90937D
:103A2000BC048093BB048EE190E09093BE0480932D
:103A3000BD046624772492EF492E93E0592E0E940C
:103A40004219082F662011F4772039F08091A804DC
:103A5000882319F081E08093F8058091F805882388
:103A600051F160E080E00E94DF2180918404909118
:103A700085049A838983E090C905F090CA05C090B7
:103A8000C705D090C805C2010E946421E981FA816E
:103A9000FF93EF93FF92EF92DF92CF929F938F93DA
:103AA0000E94130B2DB73EB7285F3F4F0FB6F89417
:103AB0003EBF0FBE2DBF0C3471F00D342CF4043416
:103AC00071F0083431F50FC0033509F1053529F0DF
:103AD0000235F9F406C06A941CC073941AC07A9433
:103AE00018C0639416C0109285041092840410923A
:103AF0007D0610927E0610927F061092800610922C
:103B0000A4041092A5041092A6041092A70466249F
:103B10007724262D332727FD3095809184049091BA
:103B20008504280F391F309385042093840481E095
:103B30002836380734F028563140309385042093D6
:103B40008404809184049091850497FF06C088596D
:103B50009E4F9093850480938404872C992487FC3E
:103B60009094A92CB92CC0908404D0908504C601EF
:103B700068E671E00E94D073FC01E657FE4FE491C5
:103B80006E2F772767FD7095872F972FA5019401DA
:103B90000E949D7320917D0630917E0640917F06A4
:103BA00050918006260F371F481F591F20937D060E
:103BB00030937E0640937F0650938006C601865A56
:103BC0009F4F68E671E00E94D073FC01E657FE4FFC
:103BD000E4916E2F772767FD7095872F972FA501AA
:103BE00094010E949D732091A4043091A5044091FA
:103BF000A6045091A704260F371F481F591F209372
:103C0000A4043093A5044093A6045093A7040E94F3
:103C10000A408F3F09F013CF0E9413100E94A51392
:103C20000E94965A0E94DB2F0E94FB2A8FEF0E946F
:103C3000FE3D22960FB6F894DEBF0FBECDBFDF91DA
:103C4000CF910F91FF90EF90DF90CF90BF90AF900A
:103C50009F908F907F906F905F904F90089582B368
:103C6000869586958095817090E00895459A00002C
:103C70000000000080E0079B04C0823311F08F5FDA
:103C8000FACF459808951F931FEF12B911B8469ABD
:103C9000479A0E94361E469811B947981F91089579
:103CA0000F931F93182F062F0E94431E479A12B995
:103CB000459A0000000000004598479802B9459ACF
:103CC00000000000000045981F910F910895FF9299
:103CD0000F931F9390EA699F80011124080F111D13
:103CE00093E0169507959A95E1F78091DC04909101
:103CF000DD04080F191FA2984698FF24FA94F1B822
:103D0000602F8AE00E94501E012F1127602F8BE048
:103D10000E94501EA29AF2B811B8469A1F910F91B4
:103D2000FF900895EF92FF920F931F93E42E8695D4
:103D3000869586950091DC041091DD04080F111D15
:103D400066956695669584E1689FB0011124060F1B
:103D5000171FA2984698FF24FA94F1B8602F8AE0C2
:103D60000E94501E012F1127602F8BE00E94501ED1
:103D70006E2D8CE00E94501EA29AF2B811B8469A9D
:103D80001F910F91FF90EF900895EF92FF920F9384
:103D90001F93E42E90EA699F80011124080F111DE2
:103DA00043E0169507954A95E1F78091DC049091E0
:103DB000DD04080F191FA2984698FF24FA94F1B861
:103DC000602F8AE00E94501E012F1127602F8BE088
:103DD0000E94501E0E94431E479A8CE082B9459A69
:103DE00000000000000045984798E2B8459A00009E
:103DF000000000004598A29AF2B811B8469A1F91A7
:103E00000F91FF90EF900895FF920F931F9390EA08
:103E1000699F80011124080F111D63E01695079515
:103E20006A95E1F78091DC049091DD04080F191F79
:103E3000A2984698FF24FA94F1B8602F8AE00E9475
:103E4000501E012F1127602F8BE00E94501E0E94F0
:103E5000431E479A8DE082B9459A00000000000099
:103E60004598F2B811B8469A0E94361E4798459A6E
:103E70000000000000004598479A0E94361E4798AF
:103E8000459A00000000000080B14598A29AF2B85F
:103E900011B8469A90E01F910F91FF9008950F93EB
:103EA0001F930091DC041091DD049093DD04809356
:103EB000DC0460E080E00E94041F1093DD040093A6
:103EC000DC0490E01F910F9108950F931F93462FEC
:103ED0000091DC041091DD049093DD048093DC04F8
:103EE00060E080E00E94C51E1093DD040093DC04B6
:103EF0001F910F91089586E892E090932307809395
:103F000022078FEF9FEF9093AB048093AA0408954C
:103F1000EF92FF920F931F937C018B010E94651F0C
:103F2000012F1127602FC70101960E94651F1F9165
:103F30000F91FF90EF900895CF92DF92EF92FF9252
:103F40000F931F936C017A018B01642F0E94651FF0
:103F50009927812F702F6F2DC60101960E94651F32
:103F6000B80188279927C60102960E94651FE12E95
:103F7000FF24002711276E2DC60103960E94651F9E
:103F80001F910F91FF90EF90DF90CF900895EF92E7
:103F9000FF920F931F937C0101960E944F1F082FE1
:103FA00010E0102F0027C7010E944F1F90E0802BC8
:103FB000912B1F910F91FF90EF900895CF92DF9278
:103FC000EF92FF920F931F936C0103960E944F1F75
:103FD000E82EFF2400E010E0102F0F2DFE2CEE2421
:103FE000C60102960E944F1F90E0A0E0B0E0E82AD0
:103FF000F92A0A2B1B2B102F0F2DFE2CEE24C601A5
:1040000001960E944F1F90E0A0E0B0E0E82AF92A54
:104010000A2B1B2B102F0F2DFE2CEE24C6010E9405
:104020004F1F90E0A0E0B0E0E82AF92A0A2B1B2BF2
:10403000C801B7011F910F91FF90EF90DF90CF90D3
:10404000089597FF06C0DB01BF770E946774802D3B
:104050000AC096FF03C0FB01849105C095FF05C00F
:10406000CB010E944F1F90E00895FB01808190E0FA
:10407000089597FF06C0DB01BF770E947474CF01DB
:10408000089596FF04C0FB0185919491089595FFD2
:1040900004C0CB010E94C71F0895FB01808191815C
:1040A0000895AF92BF92CF92DF92EF92FF920F935B
:1040B0001F93CF93DF93EA01A22E6A01BB2411C0A4
:1040C0007B018C010894E11CF11C011D111D0E9453
:1040D0002120882351F0F60181936F01B394C80128
:1040E000B701BA1469F77B018C01CB0DD11D188281
:1040F000C801B701DF91CF911F910F91FF90EF9011
:10410000DF90CF90BF90AF9008956F927F928F9283
:104110009F92AF92BF92CF92DF92EF92FF920F9356
:104120001F93CF93DF935B016C013A014901E901D1
:104130000EC07B018C010894E11CF11C011D111DB6
:104140000E942120F30181933F01C801B70121970B
:10415000FFEFCF3FDF0769F7B40180E090E06A0D21
:104160007B1D8C1D9D1DDF91CF911F910F91FF90A5
:10417000EF90DF90CF90BF90AF909F908F907F9007
:104180006F900895DC01CB01B7FF06C0DC01BF775B
:10419000042E0E9479740895B5FF04C0642F0E9414
:1041A000651F0895B6FD02C0FC0140830895DC013F
:1041B000CB01B7FF06C0DC01BF770A010E948574FE
:1041C0000895B5FF04C0BA010E94881F0895B6FD86
:1041D00003C0FC01518340830895BF92CF92DF92C8
:1041E000EF92FF920F931F93CF93DF93B22EEA01CA
:1041F00000E010C019916B017C010894C11CD11C16
:10420000E11CF11C412F0E94C220112339F00F5FE5
:10421000C701B6010B1571F76B017C01C701B6012F
:10422000DF91CF911F910F91FF90EF90DF90CF9092
:10423000BF9008956F927F928F929F92AF92BF929C
:10424000CF92DF92EF92FF920F931F93CF93DF9362
:104250005B016C013A014901E9010EC0F301419192
:104260003F017B018C010894E11CF11C011D111D13
:104270000E94C220C801B7012197FFEFCF3FDF079F
:1042800069F7B40180E090E06A0D7B1D8C1D9D1DD7
:10429000DF91CF911F910F91FF90EF90DF90CF9022
:1042A000BF90AF909F908F907F906F9008958530D2
:1042B00010F084E003C0882309F481E081508093EA
:1042C00018078F5F90E008950F931F9306EB13E09C
:1042D00040E550E0BC01C8010E94766DC8011F9105
:1042E0000F910895CF93DF93CDB7DEB724970FB624
:1042F000F894DEBF0FBECDBFDC01CB0129833A832A
:104300004B835C83B7FF09C0DC01BF7784E0FE010B
:104310003196182E0E948A7414C0B5FF07C04981D7
:104320005A816B817C810E949C1F0BC0B6FD09C025
:10433000FC0189819A81AB81BC8180839183A283B6
:10434000B38324960FB6F894DEBF0FBECDBFDF91C6
:10435000CF910895CF93DF93CDB7DEB724970FB6F3
:10436000F894DEBF0FBECDBF97FF0DC0DB01BF7756
:1043700084E0FE013196182E0E946F7469817A8163
:104380008B819C8113C096FF06C0FB0165917591DE
:10439000859194910BC095FF04C0CB010E94DE1F54
:1043A00005C0FB01608171818281938124960FB6E3
:1043B000F894DEBF0FBECDBFDF91CF910895982F47
:1043C0008093F0046093A5058091B103882329F0C0
:1043D00070E0892F90E00E94763D08951F93109120
:1043E000A6058091AD030E94FE3D812F0E94CB3D2A
:1043F0001F9108952F923F924F925F926F927F92FA
:104400008F929F92AF92BF92CF92DF92EF92FF92E4
:104410000F931F93CF93DF93CDB7DEB76E970FB691
:10442000F894DEBF0FBECDBF782EB62EC42ED22E8E
:10443000902EAE2C8091B103882349F0FF2410E028
:1044400030E050E070E0872D90E00E94AA36DB1447
:1044500018F48D2DDB2CB82EC71418F48C2DC72C16
:10446000782E2FE9291508F430C34C2D403A08F076
:104470004FE9692D70E0842F90E087199109860F2C
:10448000971F803A910528F04156481B471508F4BC
:104490001CC3292D269526952695922FA22FBB2742
:1044A000A7FDB095BA83A983F7E06F2E6920872D09
:1044B0008770681AB4E0B61524F4E8EF6E0E9F5FBB
:1044C00009C0222339F0FCEF6F1624F438E0630EA4
:1044D000922F9150D3945D2D5B195C83DA94BA14BA
:1044E00028F0BB82EA2C81E08D8391C2EA2CEA9409
:1044F000AC81EA0EDB82BFEFBD8389C2282F30E09A
:1045000087FF1DC085FDBCC020E030E00DC0842FBA
:1045100090E0AA85BB85A80FB91FAE51BA4F8E5146
:104520009A4FFC0180818C93122F442D421B2F5FE8
:104530003F4F8C859D852817390749F7A2C0C901CF
:1045400083709070892BE9F125FD9AC021FD0AC086
:104550005091A605472D20E030E06E817F81685F95
:104560007F4F26C0E0FEF4CF5091A6055095472D11
:1045700020E030E06E817F81685F7F4F08C0AA85B0
:10458000BB85A10FB11DAE51BA4F5C93485F122F8E
:104590002F5F3F4F842F90E06817790784F771C031
:1045A000AA85BB85A10FB11DAE51BA4F5C93485F80
:1045B000122F2F5F3F4F842F90E06817790784F701
:1045C00060C000EA9B81909F80011124070D111D9E
:1045D000E3E016950795EA95E1F78091DC04909168
:1045E000DD04080F191FA2984698FF24FA94F1B829
:1045F000602F8AE00E94501E012F1127602F8BE050
:104600000E94501E0E94431E479A8DE082B9459A2F
:104610000000000000004598F2B811B8469A0E94C8
:10462000361E4798459A0000000000004598072D67
:104630001C8E1B8E12C0479A0E94361E4798459AC0
:1046400000000000000080B1AA85BB85A10FB11D4C
:10465000AE51BA4F8C934598085F1B8DAB8DBC8DC6
:104660001196BC8FAB8F802F90E0E885F985E81715
:10467000F9070CF7A29A8FEF82B911B8469A01C0D8
:1046800010E0A09109076A2FA5FD41C0462D161420
:104690008CF01FC05B2FF9010AC09181990F9183A3
:1046A000808187FF02C0916091835150319757FFFD
:1046B000F4CF0CC0B12FB1502B2F332727FD3095ED
:1046C00089819A81280F391F2F513A4F415010F795
:1046D0001EC0662099F41BC0ED8DFE8D90819695CD
:1046E0009083818180FF02C0906890832F5F8D8DC1
:1046F0009E8D01969E8F8D8F211771F74F5F4130F0
:1047000031F0EE85FF85FE8FED8F20E0F5CF61FF64
:1047100003C08A2F8F7D05C0862F817821F08A2FD4
:1047200080620E946D3E852C288939894A895B897F
:104730002417350709F04AC0A88DB98D1C91F101E5
:104740008081182B80910907282F30E0C9018C71D6
:104750009070892B49F46E2D892D0E94041F8123AE
:104760001095D6019C9109C022FF0AC06E2D892D9B
:104770000E94041F1095F60190811923182B19C06F
:1047800023FF0CC06E2D892D0E94041F912F909540
:10479000D6012C919223192B18230BC024FF09C09A
:1047A0006E2D892D0E94041F1095F601908119230A
:1047B00018278091090786FF03C0D6011C9321C1E9
:1047C000412F6E2D892D0E94C51E1BC1EC89FD89CC
:1047D000EF2B11F4F92C3BC06E2D892D0E94041F84
:1047E000482F80910907682F70E0CB018C71907081
:1047F000892B21F4D1018C91482304C062FF08C0A9
:10480000D1018C918095F60190818923482B15C0A8
:1048100063FF0AC0D1018C91982F9095F6012081F9
:104820009223982B492309C064FF07C0D1018C91C2
:104830008095F60190818923482766FF03C0D60141
:104840004C9304C06E2D892D0E94C51EFA8CEE89F2
:10485000FF89379709F445C06E2D852D0E94041FEE
:10486000482F80910907682F70E0CB018C71907000
:10487000892B29F4A88DB98D8C91482305C062FF3E
:1048800009C0A88DB98D8C918095F50190818923FF
:10489000482B17C063FF0BC0A88DB98D8C91982F42
:1048A0009095F50120819223982B49230AC064FF3B
:1048B00008C0A88DB98D8C918095F50190818923D0
:1048C000482766FF03C0D5014C9304C06E2D852D8B
:1048D0000E94C51E68EF862E8520BFE9B81508F432
:1048E00090C0F81408F08DC080910907282F30E09F
:1048F000C9018C719070892B09F045C026FD81C0DB
:1049000000EAE09E800111240F0D111D53E0169561
:1049100007955A95E1F78091DC049091DD04080F2A
:10492000191FA29846988FEF81B9602F8AE00E94E4
:10493000501E012F1127602F8BE00E94501E0E94F5
:10494000431E479A8CE082B9459A0000000000009F
:1049500045980E94431EEF2DE695E695E695F0E01A
:10496000EE51FA4F808182B9459A000000000000A4
:104970004598E8E0FE0EF81460F3A29A8FEF82B932
:1049800011B8469A3EC06E2D8F2D0E94041F482FED
:1049900080910907282F82FF0AC0EF2DE695E69542
:1049A000E695F0E0EE51FA4F8081482B17C083FF67
:1049B0000AC0EF2DE695E695E695F0E0EE51FA4F48
:1049C000808148230BC084FF09C0EF2DE695E69552
:1049D000E695F0E0EE51FA4F8081482726FF09C0A6
:1049E000EF2DE695E695E695F0E0EE51FA4F40831F
:1049F00004C06E2D8F2D0E94C51EF8E0FF0EF81426
:104A000010F22B813D81230F2B83E30E53C0A42F83
:104A1000B0E0BF83AE831196B987A887E92FFF273F
:104A2000E7FDF095FB87EA87CD0133E09595879503
:104A30003A95E1F7482E4394842D90E04A940196EC
:104A40009D878C87A981BA81AE51BA4FBF87AE8747
:104A5000592C5718540E852D90E0FB01E87FF98BF7
:104A6000E88BAC01487F5B8B4A8B677070707D8BE5
:104A70006C8B877090709F8B8E8B852D869586951D
:104A80008695A82EBB2482EE95E0A80EB91EAE89AD
:104A9000BF89A359BD4FB98FA88FB92DB87FB85F13
:104AA000BA8FC22EDD24C80ED91E1B01E5E6F2E046
:104AB0002E0E3F1EFC81F150FC8380910907FF3FC1
:104AC00009F01CCD8F7D0E946D3E6E960FB6F89456
:104AD000DEBF0FBECDBFDF91CF911F910F91FF9031
:104AE000EF90DF90CF90BF90AF909F908F907F908E
:104AF0006F905F904F903F902F900895AF92BF922C
:104B0000CF92DF92EF92FF920F931F93C82EF62E53
:104B1000B42ED22EA090B103AA2031F030E050E0A4
:104B200070E090E00E94913A80917D058823F9F42D
:104B30001092B103DF1418F48D2DDF2CF82EBC1465
:104B400018F48B2DBC2CC82E10910907812F816081
:104B50000E946D3EEF2C0C2D2D2D4B2D6F2D8C2D8D
:104B60000E94FA21812F0E946D3EA092B1031F91F5
:104B70000F91FF90EF90DF90CF90BF90AF9008958E
:104B8000CF92DF92EF92FF920F931F93E82ED42ED5
:104B9000C22EF02E0111FA940F2D060F202F4D2D4D
:104BA0008E2D0E947E251C2D1F192C2D4D2D612F21
:104BB0008E2D0E947E254F2D4E0D212F602F8E2D84
:104BC0000E947E254D2D4F19212F602F8D2D0E9483
:104BD0007E251F910F91FF90EF90DF90CF90089569
:104BE000BF92CF92DF92EF92FF920F931F93C82E46
:104BF000F62ED42E461710F4D62EF42EB090B10314
:104C0000BB2041F04C2D50E06D2D70E08F2D90E0D9
:104C10000E94B73B80917D058823A9F41092B103CF
:104C200010910907812F81600E946D3EEC2C0F2DA1
:104C30002C2D4D2D6C2D8F2D0E94FA21812F0E943D
:104C40006D3EB092B1031F910F91FF90EF90DF90F6
:104C5000CF90BF9008956F927F928F929F92AF9264
:104C6000BF92CF92DF92EF92FF920F931F93CF9359
:104C7000DF93962ED42E3901082F10E07801089486
:104C8000E11CF11CE80121970E94041F07701070BD
:104C9000035A1D4FF8019081982319F00FEF10E08F
:104CA00002C000E010E0CD2CDD240C151D0509F03C
:104CB0004BC080918502C81BD109D7FF03C0C0E05B
:104CC000D0E014C0692D8C2F0E94041FFE01E770F4
:104CD000F070E35AFD4F9081982319F08FEF90E028
:104CE00002C080E090E08017910719F3809185025F
:104CF000A82EBB2480918502E80EF11CF1EAEF1684
:104D0000F10424F0A0EAEA2EF12C14C0692D8E2DB6
:104D10000E94041FF701E770F070E35AFD4F908185
:104D2000982319F08FEF90E002C080E090E08017A8
:104D3000910701F3CA0DDB1D80918502E81AF10885
:104D400003C02197D7FD1CC0692D8C2F0E94041F22
:104D5000FE01E770F070E35AFD4F9081982319F03F
:104D60008FEF90E002C080E090E08C159D0549F740
:104D700007C00894E11CF11C81EAE816F104A4F4D0
:104D8000692D8E2D0E94041FF701E770F070E35A21
:104D9000FD4F9081982319F08FEF90E002C080E0E2
:104DA00090E08C159D0529F7219687010150104050
:104DB0007301E90CF11C862C03C0E60CF71C980C5F
:104DC000A02E402F6C2F892D0E94F025E0E5EE16D5
:104DD000F10418F080E090E096C0BE2C6E2D8C2F70
:104DE0000E94041FFE01E770F070E35AFD4F9081AE
:104DF000982319F08FEF90E002C080E090E08C15CE
:104E00009D05C9F02197D7FD14C06B2D8C2F0E94F2
:104E1000041FFE01E770F070E35AFD4F9081982364
:104E200019F08FEF90E002C080E090E08C159D05B6
:104E300049F7219618C02196C017D107A4F46B2D0D
:104E40008C2F0E94041FFE01E770F070E35AFD4FA3
:104E50009081982319F08FEF90E002C080E090E0FD
:104E60008C159D0541F36B2D8A2D0E94041FF801BE
:104E7000E770F070E35AFD4F9081982319F08FEF9F
:104E800090E002C080E090E08C159D05D9F40150BF
:104E900010400C171D078CF16B2D802F0E94041FF2
:104EA000F801E770F070E35AFD4F9081982319F0F4
:104EB0008FEF90E002C080E090E08C159D0509F036
:104EC0007CCFE5CF0F5F1F4F003A1105A4F46B2D87
:104ED000802F0E94041FF801E770F070E35AFD4F25
:104EE0009081982319F08FEF90E002C080E090E06D
:104EF0008C159D0539F7015010400C171D070CF05B
:104F00005CCF81E090E0DF91CF911F910F91FF90F6
:104F1000EF90DF90CF90BF90AF909F908F907F9059
:104F20006F900895EF92FF920F931F93082F162F03
:104F3000F42EE090B103EE2041F00E9451368091B2
:104F40007D05882369F51092B103612F802F0E949F
:104F5000041FE02FF0E0E770F070E35AFD4F9081FE
:104F6000982319F02FEF30E002C020E030E08F2DC1
:104F700090E02817390719F480E090E013C02FEF74
:104F80003FEF4F2D612F802F0E942B261F5F21E0C6
:104F900030E04F2D612F802F0E942B26E092B1032D
:104FA00081E090E01F910F91FF90EF900895EF92B4
:104FB000FF920F931F93F82E8091B103882321F065
:104FC0008F2D90E00E942F351091090780E00E94FC
:104FD0006D3EEE2400E02FE44FE96F2D80E00E944B
:104FE000FA2181E00E946D3E0E94EE2160E56F197A
:104FF000E62E2FE44FE980E00E94FA210E94EE2184
:10500000812F0E946D3E1F910F91FF90EF900895A8
:105010002F923F924F925F926F927F928F929F92C8
:10502000AF92BF92CF92DF92EF92FF920F931F93B6
:10503000CF93DF93CDB7DEB724970FB6F894DEBFDA
:105040000FBECDBFC82ED62E142F2090B103222024
:1050500039F0462F50E0682F70E0812F0E94133DF9
:105060001092B1038091A805882331F0412F6D2D56
:105070008C2D0E94921E49C12C2D30E03A83298349
:10508000C90187709070892B61F48091F50482309A
:1050900040F4809109078E7121F48091860480FF8D
:1050A0000FC0812F90E003E0880F991F0A95E1F768
:1050B0009C838B836624772417E0412E512C31C0CA
:1050C000E12EFF24B3E0EE0CFF1CBA95E1F700E0FF
:1050D00010E06D2D600F8091860481FF05C0E7E030
:1050E000F0E0E01BF10B01C0F801EE0DFF1DE55EE5
:1050F000FA4F449182FF05C0E42FF0E0E55EFB4FDC
:1051000044919091AD038091A605981708F04095C1
:105110008C2D0E94C51E0F5F1F4F08301105C9F668
:10512000DFC08091860490E080FF2FC0BB2420E088
:1051300030E0BC0162707070AC0144705070611559
:10514000710529F0E7E0F0E0E21BF30B01C0F90183
:105150008B819C81E80FF91FE55EFA4F9491411510
:10516000510511F0F20101C0F301E35AFD4F8081B6
:10517000982329F0F901E35AFD4F8081B82A2F5F67
:105180003F4F28303105A9F0DACF81FF02C0F2018C
:1051900001C0F3012B813C81E20FF31FE55EFA4F62
:1051A000E49182FD02C0BE2E04C0F0E0E55EFB4F3C
:1051B000B4909091AD038091A605981708F0B09433
:1051C0008824992469C0812F8B2109F48CC0411552
:1051D000510591F06115710511F4902F01C0932DC7
:1051E000A981BA81A20FB11DA770B070A35ABD4F9B
:1051F0008C91982309F477C0A22FA695A695A69521
:10520000B0E0AE51BA4FE22FF0E0E770F070E35A31
:10521000FD4F80819C91892B8C932F5F203A18F44D
:105220003F5F3A1580F2110F11F030E0FACF089489
:10523000811C911C8E2D806A452BA9F00E946D3E29
:105240004091F504440F440F440F4150EF2C0C2DB6
:1052500020E060E080E00E94FA21809109078F75CC
:105260000E946D3E19C00E946D3E2091F504422FB0
:10527000440F440F440F4150EF2C0C2D215060E09F
:1052800080E00E94FA21809109078F750E946D3E8F
:10529000D090F504DF0C19C0F82CFD0CA090F5049B
:1052A0008A1490F4E09009074E2D50E0427050703F
:1052B0000091A605302E30942C2D30E011E06F2D9A
:1052C00070E061707070ADCFDF2C0894611C711CB0
:1052D00008944108510838E06316710409F021CFA1
:1052E0002092B10312C0A22FA695A695A695B0E074
:1052F000AE51BA4FE22FF0E0E770F070E35AFD4F85
:10530000808180959C91892387CF24960FB6F8944D
:10531000DEBF0FBECDBFDF91CF911F910F91FF90E8
:10532000EF90DF90CF90BF90AF909F908F907F9045
:105330006F905F904F903F902F9008950F931F9321
:10534000CF93DF93082F162FEA012BC0612F802FF8
:105350000E9408288091860490E09C0120713070A2
:1053600083FF10C08091F504232B29F0880F880F4C
:10537000880F181B04C0880F880F880F180F10356E
:1053800080F012C08091F504232B29F0880F880F3C
:10539000880F081B04C0880F880F880F080F003A79
:1053A00018F44991442391F6DF91CF911F910F9109
:1053B0000895EF92FF920F931F93CF93DF93082FDF
:1053C000162F7A01C0E0D0E001C02196F701EC0F62
:1053D000F11D4491442359F1612F802F0E94082828
:1053E0008091860490E09C012071307083FF10C092
:1053F0008091F504232B29F0880F880F880F181B44
:1054000004C0880F880F880F180F1035F0F20FC0F6
:105410008091F504232B29F0880F880F880F081B33
:1054200004C0880F880F880F080F003A70F2DF91D0
:10543000CF911F910F91FF90EF900895482F2091E9
:10544000AA043091AB0420FF09C0873039F460ED25
:1054500077E088EC90E00E94BA494FC021FF16C067
:105460004830A1F44091F0048091F504282F30E0F9
:1054700093E0220F331F9A95E1F7842F90E0821773
:10548000930754F0421B4093F00437C022FF07C03B
:105490004C3029F41092A5051092F0042EC023FF81
:1054A00005C04A3019F41092F0040CC024FF02C069
:1054B0004D3091F325FF02C04930A9F026FF0DC001
:1054C0004B3059F48091F504880F880F880F909124
:1054D000A505890F8093A50510C06091A505809151
:1054E000F0040E9408288091F504880F880F880F27
:1054F0009091F004890F8093F0048091F504482F77
:1055000050E083E0440F551F8A95E1F72091F004A5
:1055100030E080EA90E0841B950B821793073CF4FF
:105520001092F0048091A505840F8093A5056091E9
:10553000A505262F30E080E590E0841B950B8217AF
:1055400093076CF48091AA0487FF07C0641B6093E3
:10555000A505842F0E94D72702C01092A50580E0E0
:1055600090E00895FF920F931F93CF93DF93F82E4F
:105570008091B103882319F08F2D0E94BE35809150
:105580007D05882391F50091DC041091DD04A2983B
:1055900046988FEF81B9602F8AE00E94501E012F3C
:1055A0001127602F8BE00E94501E0E94431E479AD5
:1055B0008CE082B9459A00000000000045984798A9
:1055C000C0E4D6E008C00E94431EF2B8459A00002D
:1055D00000000000459821978FEFCF3FD80799F73B
:1055E000A29A8FEF82B911B8469ADF91CF911F919D
:1055F0000F91FF90089560E080E00E94DF2180918C
:10560000AD030E94B22A08950F931F93182F062FFF
:10561000803A08F064C0603508F061C08091B10341
:10562000882329F070E0812F90E00E94BE3C809199
:10563000A805882339F04091A605602F812F0E948C
:10564000921E4DC0602F812F0E94041F482F809111
:105650000907282F30E0C9018C719070892B39F12E
:10566000E12FF0E0E770F070E35AFD4FE081842F06
:105670008E2323FF03C08823B9F004C022FF07C094
:10568000882381F48091A605882361F40DC024FF4E
:1056900022C09091A605882319F0992319F004C01F
:1056A000992311F04E2B17C0E0954E2314C0809122
:1056B000A605E12FF0E0882339F0E770F070E35A97
:1056C000FD4F8081482B07C0E770F070E35AFD4F13
:1056D000808180954823602F812F0E94C51E1F91D5
:1056E0000F9108952F923F924F925F926F927F9207
:1056F0008F929F92AF92BF92CF92DF92EF92FF92E2
:105700000F931F93CF93DF93CDB7DEB760970FB69C
:10571000F894DEBF0FBECDBF8D876E87E42E690182
:105720002091B1032983222369F050E070E09601B3
:1057300090E00E94AC3880917D05882309F032C149
:105740001092B103FF2400E010E0B601882777FD36
:105750008095982FA80197010E949D735B016C01B1
:10576000C801B7010E949D73DC01CB01880F991F0E
:10577000AA1FBB1F8E839F83A887B987A6019501A7
:1057800004E055954795379527950A95D1F7CA01B5
:10579000B9010E949D73DC01CB0117E0B595A79577
:1057A000979587951A95D1F78A839B83AC83BD83A0
:1057B00080E490E0A0E0B0E0A80EB91ECA1EDB1E97
:1057C000A7E0D594C794B794A794AA95D1F7D6012A
:1057D000C501B595A79597958795EE85E80FEC8758
:1057E0003D85232F30E0220F331F3B872A879E857C
:1057F000892F90E0880F991F988B8F87EE80FF800C
:105800000885198516950795F794E794C601B501A3
:10581000A80197010E949D73222433242101261A96
:10582000370A480A590A6A807B808C809D8096944A
:1058300087947794679464015301AE18BF08C00A37
:10584000D10AAA0CBB1CCC1CDD1C16950795F7943D
:10585000E794AE0CBF1CC01ED11E0A85AD850A1B85
:105860001A2F44C08091090790E083709070EF84F4
:10587000BC85EB1A892B59F0412F602F8B2F0E948A
:10588000F025412F602F8E2D0E94F02510C06C85D1
:10589000812F0E94042B6E2D812F0E94042B6C857A
:1058A000802F0E94042B6E2D802F0E94042B8A8152
:1058B0009B81AC81BD81680E791E8A1E9B1EA60C41
:1058C000B71CC81CD91CD7FC0FC08E819F81A8852E
:1058D000B985280E391E4A1E5B1EA20CB31CC41CBF
:1058E000D51C9C8591509C871F5F0150D201C1013E
:1058F000860D971DA81DB91DB7FDB4CF0F85AC85CA
:105900000A1B48C08091090790E083709070EA8478
:10591000E11A892B59F0412F6E2D8C850E94F025BC
:10592000412F6E2D802F0E94F02510C06C85812F95
:105930000E94042B602F812F0E94042B6C858E2DDA
:105940000E94042B602F8E2D0E94042B1A141B041E
:105950001C041D046CF08A819B81AC81BD81680EA2
:10596000791E8A1E9B1EA60CB71CC81CD91C1F5F63
:105970000F5F9C85992399F091509C878E819F8120
:10598000A885B985280E391E4A1E5B1EA20CB31CC1
:10599000C41CD51C9C85AE859A1708F0B3CFB9817D
:1059A000B093B10360960FB6F894DEBF0FBECDBFC3
:1059B000DF91CF911F910F91FF90EF90DF90CF90EB
:1059C000BF90AF909F908F907F906F905F904F901F
:1059D0003F902F9008957F928F929F92AF92BF92A7
:1059E000CF92DF92EF92FF920F931F93CF93DF93AB
:1059F000C82ED62EA42EB22E7090B103772031F08F
:105A000030E050E070E090E00E942B3C80917D05FA
:105A1000882309F050C01092B103EA2CFF24EC183F
:105A2000F108F7FC03C08824839406C0F094E19445
:105A3000F108F39488248A940B2D10E00D191109B4
:105A400017FD03C09924939405C0109501951F4F2D
:105A500099249A940E151F05B4F4000F111FE80144
:105A6000CE19DF096D2D8C2D0E94042BCA1409F16B
:105A7000D7FD05C0CE19DF09CE19DF09D90CC00F3B
:105A8000D11FC80CEFCFEE0CFF1CE701C01BD10BE0
:105A90006D2D8C2D0E94042BDB1459F0D7FD05C011
:105AA000C01BD10BC01BD10BC80CCE0DDF1DD90CF8
:105AB000EFCF7092B103DF91CF911F910F91FF90C3
:105AC000EF90DF90CF90BF90AF909F908F907F909E
:105AD00008953F924F925F926F927F928F929F9222
