:020000023000CC
:10F800000D9466FC0D9487FC0D9487FC0D9487FC89
:10F810000D9487FC0D9487FC0D9487FC0D9487FC58
:10F820000D9487FC0D9487FC0D9487FC0D9487FC48
:10F830000D9487FC0D9487FC0D9487FC0D9487FC38
:10F840000D9487FC0D9487FC0D9487FC0D9487FC28
:10F850000D9487FC0D9487FC0D9487FC0D9487FC18
:10F860000D9487FC0D9487FC0D9487FC0D9487FC08
:10F870000D9487FC0D9487FC0D9487FC0D9487FCF8
:10F880000D9487FC0D9487FC0D9487FC0D9487FCE8
:10F890000D9487FC0D9487FC0D9487FC0D9487FCD8
:10F8A0000D9487FC0D9487FC0D9487FC0D9487FCC8
:10F8B0000D9487FC0D9487FC0D9487FC0D9487FCB8
:10F8C0000D9487FC0D9487FC0D9487FC11241FBEBA
:10F8D000CFEFD1E2DEBFCDBF01E00CBF12E0A0E070
:10F8E000B2E0E6EFFCEF03E00BBF02C007900D9221
:10F8F000A030B107D9F713E0A0E0B2E001C01D923B
:10F90000A530B107E1F70F94F5FC0D947AFE0D9444
:10F9100089FC089572985E98A3985F9883FD729A07
:10F9200082FD5E9A81FD5F9A80FDA39A0895282F3B
:10F9300030E080910102909102022827392740E0AF
:10F94000C9019695879520FF05C021E030EA282758
:10F95000392701C09C014F5F483091F73093020274
:10F960002093010208951F93282F9091000299235C
:10F9700029F48091C0008823D4F705C08091C80085
:10F980008823ACF703C01091C60002C01091CE00CE
:10F99000222319F0812F0F9497FC812F90E01F9163
:10F9A00008950F931F93182F0F94B3FC082F812FE6
:10F9B0000F94B3FC90E0982F8827800F911D1F9122
:10F9C0000F910895982F80910002882339F4809137
:10F9D000C00085FFFCCF9093C60008958091C800B9
:10F9E00085FFFCCF9093CE0008958F929F92AF92A7
:10F9F000BF92CF92DF92EF92FF920F931F93CF931C
:10FA0000DF936A9A579A569A9B9A89E0E1E0F0E070
:10FA1000809357009490E0E0F0E080935700C4900A
:10FA2000E3E0F0E0809357008490E2E0F0E0809320
:10FA30005700B49020E12093C4001092C50092E0DA
:10FA40009093C00088E18093C100999AA198209377
:10FA5000CC001092CD009093C8008093C900559AB5
:10FA60005D9810E1D12EC0E0D0E08D2D0F948AFC7E
:10FA7000B0E9EB2EB0EDFB2EB3E00B2F112D25C01E
:10FA800080910002882319F48091C00002C0809107
:10FA9000C80087FF14C080E00F94B3FCE09100021F
:10FAA000803549F4F0E0ED5FFC4F80818F5F80830B
:10FAB000823028F01BC0F0E0ED5FFC4F1082809197
:10FAC000000291E08927809300020894E108F10880
:10FAD00001091109E114F1040105110589F6D69413
:10FAE0002196C530D10509F4EAC0BFCF99E08CEC6E
:10FAF000E1E0F0E0082E90935700E8958FE00F9436
:10FB00008AFC84E20F94E2FC84E60F94E2FC80E03D
:10FB10000F94E2FC81E00F94E2FC80E40F94E2FC9D
:10FB20008C2D0F94E2FC892D0F94E2FC8B2D0F9409
:10FB3000E2FC882D0F94E2FCAA24A3E08A2EA2E026
:10FB40009A2E8FEF9FEF909302028093010281E043
:10FB50000F94D1FC6C018FEFC8168FEFD80609F413
:10FB60009BC08C2D0F948AFCC601A0E0B0E09F776B
:10FB7000A070B070EE24F82E092F1A2F80E00F9499
:10FB8000B3FCB82EE7E58E1721F0F2E58F1709F0E8
:10FB900083C0C0E0D0E081E00F94B3FCFE01ED5FD4
:10FBA000FD4F808387E5B81671F4C038D10559F44C
:10FBB000D7FC09C083E0F70100935B0080935700F6
:10FBC000E895AA24A3942196E1E0C030DE0719F756
:10FBD00080E00F94D1FC2091010230910202821743
:10FBE000930709F055C0F7E5BF1609F036C0D7FEF8
:10FBF0000FC0F40197018191D901082E0F946EFE78
:10FC00002F5F3F4F83E0E330F80709F43FC0F3CFA5
:10FC1000D401B801A701FD01818190E0982F8827C8
:10FC200031E02C91820F911D0C01FA0160935B0071
:10FC300030935700E895112412964E5F5F4F6F4F37
:10FC40007F4FF3E0A330BF0731F785E0F701009362
:10FC50005B0080935700E89519C0E401A801970163
:10FC60009881D7FE05C0D9010F9466FE802D03C090
:10FC70004BBFF9018791981759F421962F5F3F4F99
:10FC80004F4F5F4F83E0C330D80751F781E401C085
:10FC90008EE40F94E2FC55CF07B600FCFDCF88E060
:10FCA0000F948AFCAA2059F08FEFA8EFBFE0082E2E
:10FCB0000F946EFEA9EFBFE0082E0F946EFE81E157
:10FCC00080935700E8950C940000F9CFF999FECF86
:10FCD000B2BDA1BDF89A119600B40895F999FECF6E
:10FCE000B2BDA1BD00BC11960FB6F894FA9AF99A6C
:06FCF0000FBE0895FFCFD6
:040000033000F800D1
:00000001FF
