:100000000C94FB0C0C941C0D0C941C0D0C941C0DEE
:100010000C941C0D0C941C0D0C941C0D0C941C0DBC
:100020000C941C0D0C941C0D0C941C0D0C941C0DAC
:100030000C941C0D0C941C0D0C941C0D0C941C0D9C
:100040000C941C0D0C941C0D0C941C0D0C941C0D8C
:100050000C941C0D0C949B0F0C941C0D0C941C0DFB
:100060000C941C0D0C94ED690C941C0D0C946D6497
:100070000C941C0D0C941C0D0C941C0D0C941C0D5C
:100080000C941C0D0C941C0D0C941C0D0C941C0D4C
:100090000C9445670C941C0D0C94DC640C941C0DA2
:1000A0000C941C0D0C941C0D0C941C0D0C941C0D2C
:1000B0000C941C0D0C941C0D0C941C0D0C941C0D1C
:1000C0000C941C0D0C941C0D0C941C0D05A84CCD0F
:1000D000B2D44EB93836A9020C50B9918688083C82
:1000E000A6AAAA2ABE000000803F001F1D1F1E1FD7
:1000F0001E1F1F1E1F1E1F2564206D736563732F37
:100100006872002B2F2D206D736563732F6872202A
:100110000025642563256425632564004441544516
:100120003A204D4D2F44442F59593F0054494D45D5
:100130003A2048483A4D4D3A53533F005800204129
:10014000444A5553542000253032642F2530326400
:100150002F2530326400253032643A253032643A3B
:1001600025303264005365742054696D65204D65F7
:100170006E75000003020500030501040602040574
:1001800000F800AF00FF00FF00FF001E00F2004F6C
:1001900000FF00FF00FF00FF00FF00FF00FF00FF67
:1001A00000FF0041003900B800BF00FF00FF00FF62
:1001B00000FF00FF00FF00FF00FF00FF00FF00FF47
:1001C00000FF00FF00FF001E00FF00FF00FF00FF18
:1001D00000FF002E00DC00FF00FF00FF00FF000E0C
:1001E00000DA00FF00FF00FF00FF000C00F200AF8C
:1001F000005700FF00FF005700FE00DF00FF00FF78
:1002000000FF00DA00FF00FF00FF00FF00FF0057C3
:1002100000FF00FF00FF00FF00FF008A00FF00FF5B
:1002200000FF00FF00FF002A00FF00FF00FF00FFAB
:1002300000FF00830014009B008F00FF00FF0031CF
:1002400000BF00AC00FF00FF00FF00310047008A44
:1002500000CF00FF00FF0001004900BA00F5007F59
:1002600000FF00B60051006700FF00FF00FF002004
:100270000056009B00AF00FF00FF0021005800B9AE
:10028000007500FF00FF000200AF00FF00FF00FF4D
:1002900000FF00630014006900B8006F00FF008BCE
:1002A00000940013005D007F00FF001E00FD00BFF2
:1002B00000FF00FF00FF001E00FD00AF00FF00FF79
:1002C00000FF002500CF00FF00FF00FF00FF0057E8
:1002D00000F8009F00FF00FF00FF000700AF00FFD5
:1002E00000FF00FF00FF00BD0074001300FF00FFCF
:1002F00000FF009B00830014007D005E00D500A578
:10030000001700CF005700FF00FF00A00014006995
:1003100000BA000F00560041003800B900FF00FF8E
:1003200000FF000A00B90041000F00FF00FF00209D
:1003300000AC00F5006F00FF00FF002000AF00568A
:1003400000FF00FF00FF0041003800B9007600FF09
:1003500000FF000A00F200CF007500FF00FF00025E
:1003600000FA00CF001B00FF00FF002900B800FFCB
:1003700000FF00FF00FF000A00F2005C00FF00FF2A
:1003800000FF000A00CF00FF00FF00FF00FF00A0F9
:1003900000E200CF00FF00FF00FF00A000C200FF4E
:1003A00000FF00FF00FF0031004900B8003F00FFE0
:1003B00000FF00A00014006500FF00FF00FF00DC4C
:1003C00000F80031004900B800FF00A000140065EB
:1003D00000CF00FF00FF0041003900B800FF00FF20
:1003E00000FF000200F100BF00FF00FF00FF000857
:1003F00000B9002F00FF00FF00FF000B002F00FFDF
:1004000000FF00FF00FF000A006C002F00FF00FF4C
:1004100000FF000C00F200AF00FF00FF00FF000E25
:10042000002B00FF00FF00FF00FF000200AC00FFF8
:1004300000FF00FF00FF002100BC00FF00FF00FFE5
:1004400000FF000C00FF00FF00FF00FF00FF0001A5
:1004500000BA00FF00FF00FF00FF0051007F00FF17
:1004600000FF00FF00FF00AC00FF00FF00FF00FFE7
:1004700000FF000E00FF00FF00FF00FF00FF004C28
:1004800043442055415254312044656D6F20230070
:100490005245434549564544204348415220313A4C
:1004A000004C43442055415254302044656D6F2028
:1004B0002300524543454956454420434841522074
:1004C0003A006F75746772616262652E2020202089
:1004D00020202020202000616E6420746865206D3B
:1004E0006F6D652072617468732020007765726596
:1004F0002074686520626F726F676F7665732C2059
:100500000074686520776162653A2020416C6C2038
:100510006D696D7379006779726520616E6420671B
:10052000696D626C6520696E2020007468652073B7
:100530006C6974687920746F7665732064696400EF
:100540002754776173206272696C6C69672C206133
:100550006E642020002D2D2D2D2D2D2D2D2D2D2D9A
:100560002D2D2D2D2D2D2D2D2D007C2020202020DA
:1005700041434854554E472120202020207C002D07
:100580002D2D2D2D2D2D2D2D2D2D2D2D2D2D2D2D9B
:100590002D2D2D002D44414E4745522D2D00524FFB
:1005A00042494E534F4E2D002D2D57494C4C2D2D69
:1005B0002D002D44414E4745522D2D002D002D007C
:1005C0002D002D00427562626C652048656164658E
:1005D00064204E696E6E7921004A004A004A004A42
:1005E00000257300253032643A253032643A2530D4
:1005F00032640025730025730025730025642025CF
:1006000073202530326400008040C020A060E010DC
:100610009050D030B070F0088848C828A868E81812
:100620009858D838B878F8048444C424A464E414EE
:100630009454D434B474F40C8C4CCC2CAC6CEC1CB2
:100640009C5CDC3CBC7CFC028242C222A262E212C4
:100650009252D232B272F20A8A4ACA2AAA6AEA1AB2
:100660009A5ADA3ABA7AFA068646C626A666E6168E
:100670009656D636B676F60E8E4ECE2EAE6EEE1E52
:100680009E5EDE3EBE7EFE018141C121A161E1117F
:100690009151D131B171F1098949C929A969E91982
:1006A0009959D939B979F9058545C525A565E5155E
:1006B0009555D535B575F50D8D4DCD2DAD6DED1D22
:1006C0009D5DDD3DBD7DFD038343C323A363E31334
:1006D0009353D333B373F30B8B4BCB2BAB6BEB1B22
:1006E0009B5BDB3BBB7BFB078747C727A767E717FE
:1006F0009757D737B777F70F8F4FCF2FAF6FEF1FC2
:100700009F5FDF3FBF7FFF00000000000000007E12
:1007100081A581BD99817E7EFFDBFFC3E7FF7E3629
:100720007F7F7F3E1C0800081C3E7F3E1C08001C8B
:100730003E1C7F7F3E1C3E08081C3E7F3E1C3E0048
:1007400000183C3C180000FFFFE7C3C3E7FFFF00B1
:100750003C664242663C00FFC399BDBD99C3FFF0B1
:10076000E0F0BE3333331E3C6666663C187E18FCF0
:10077000CCFC0C0C0E0F07FEC6FEC6C6E66703993E
:100780005A3CE7E73C5A9901071F7F1F07010040C9
:10079000707C7F7C704000183C7E18187E3C186688
:1007A00066666666006600FEDBDBDED8D8D8007CB5
:1007B000C61C36361C331E000000007E7E7E0018EC
:1007C0003C7E187E3C18FF183C7E1818181800183C
:1007D0001818187E3C18000018307F3018000000F0
:1007E0000C067F060C000000000303037F000000DE
:1007F0002466FF6624000000183C7EFFFF00000016
:10080000FFFF7E3C18000000000000000000000C0C
:100810001E1E1E0C000C003636360000000000368E
:10082000367F367F3636000C3E031E301F0C00002C
:100830006333180C6663001C361C6E3B336E000677
:1008400006030000000000180C0606060C1800063F
:100850000C1818180C060000663CFF3C66000000EF
:100860000C0C3F0C0C000000000000000C0C0600FB
:1008700000003F0000000000000000000C0C0060C1
:1008800030180C060301003E63737B6F673E000C5B
:100890000E0C0C0C0C3F001E33301C06333F001EA8
:1008A00033301C30331E00383C36337F3078003F05
:1008B000031F3030331E001C06031F33331E003F5E
:1008C0003330180C0C0C001E33331E33331E001E45
:1008D00033333E30180E00000C0C00000C0C0000EE
:1008E0000C0C00000C0C06180C0603060C1800007B
:1008F000003F00003F0000060C1830180C06001ED8
:100900003330180C000C003E637B7B7B031E000C15
:100910001E33333F3333003F66663E66663F003C1E
:1009200066030303663C001F36666666361F007E5C
:1009300006061E06067E007E06061E060606003C0D
:1009400066030373667C003333333F333333001E57
:100950000C0C0C0C0C1E007830303033331E00674A
:1009600066361E366667000606060606067E0063C5
:10097000777F7F6B63630063676F7B736363001CC8
:1009800036636363361C003F66663E06060F001E34
:100990003333333B1E38003F66663E366667001EC3
:1009A00033070E38331E003F0C0C0C0C0C0C0033BC
:1009B00033333333333F0033333333331E0C00636D
:1009C00063636B7F7763006363361C1C366300339D
:1009D00033331E0C0C1E007F6030180C067F001E87
:1009E00006060606061E0003060C18306040001EB0
:1009F00018181818181E00081C36630000000000A4
:100A0000000000000000FF0C0C18000000000000B7
:100A1000001E303E336E000706063E66663B000051
:100A2000001E3303331E003830303E33336E000077
:100A3000001E333F031E001C36060F06060F000083
:100A4000006E33333E301F0706366E666667000C55
:100A5000000E0C0C0C1E00300030303033331E07FB
:100A60000666361E3667000E0C0C0C0C0C1E0000C1
:100A700000337F7F6B630000001F3333333300008C
:100A8000001E3333331E0000003B66663E060F0037
:100A9000006E33333E307800003B6E66060F000078
:100AA000003E031E301F00080C3E0C0C2C180000EA
:100AB00000333333336E0000003333331E0C000039
:100AC00000636B7F7F3600000063361C36630000D6
:100AD000003333333E301F00003F190C263F0038EF
:100AE0000C0C070C0C380018181800181818000700
:100AF0000C0C380C0C07006E3B00000000000000DE
:100B0000081C3663637F003E6303633E30603E0033
:100B100033003333336E0038001E333F031E007E34
:100B2000813C607C66DC0033001E303E336E000783
:100B3000001E303E336E000C0C1E303E336E000043
:100B4000003E63031E301C7E813C667E063C003303
:100B5000001E333F031E0007001E333F031E0033F9
:100B6000000E0C0C0C1E003E411C1818183C00070F
:100B7000000E0C0C0C1E0063083E637F6363000CC8
:100B80000C001E333F330038003F061E063F0000B6
:100B900000FE30FE33FE007C36337F333373001E9D
:100BA00021001E33331E000033001E33331E0000AD
:100BB00007001E33331E001E21003333336E000046
:100BC00007003333336E0000330033333E301FC32E
:100BD000183C66663C18003300333333331E00186C
:100BE000187E03037E18181C36260F06673F003355
:100BF000331E0C3F0C3F0C1F33335F63F363C37032
:100C0000D8183C18181B0E38001E303E336E001CDE
:100C1000000E0C0C0C1E000038001E33331E0000AA
:100C200038003333336E00001F001D333333003F71
:100C30000033373F3B33003C36367C007E00001CDF
:100C400036361C003E0000180018180C663C0000E8
:100C500000003F030300000000003F30300000634D
:100C6000331B6CD64321F0C36333DBECB6F3C018FF
:100C70000018183C3C180000CC663366CC0000001D
:100C80003366CC663300004411441144114411AA68
:100C900055AA55AA55AA55DB6FDBF6DB7EEBB718D4
:100CA00018181818181818181818181F18181818BD
:100CB000181F181F1818186C6C6C6C6F6C6C6C001B
:100CC0000000007F6C6C6C00001F181F1818186C57
:100CD0006C6F606F6C6C6C6C6C6C6C6C6C6C6C00C6
:100CE000007F606F6C6C6C6C6C6F607F0000006CE0
:100CF0006C6C6C7F00000018181F181F00000000AB
:100D00000000001F18181818181818F8000000180C
:100D1000181818FF00000000000000FF181818182D
:100D2000181818F818181800000000FF0000001824
:100D3000181818FF1818181818F818F81818186C38
:100D40006C6C6CEC6C6C6C6C6CEC0CFC0000000063
:100D500000FC0CEC6C6C6C6C6CEF00FF0000000095
:100D600000FF00EF6C6C6C6C6CEC0CEC6C6C6C0051
:100D700000FF00FF0000006C6CEF00EF6C6C6C1863
:100D800018FF00FF0000006C6C6C6CFF000000009E
:100D900000FF00FF18181800000000FF6C6C6C6C5E
:100DA0006C6C6CFC0000001818F818F800000000CB
:100DB00000F818F818181800000000FC6C6C6C6C37
:100DC0006C6C6CFF6C6C6C1818FF18FF18181818F6
:100DD0001818181F00000000000000F8181818FF6D
:100DE000FFFFFFFFFFFFFF00000000FFFFFFFF0FFF
:100DF0000F0F0F0F0F0F0FF0F0F0F0F0F0F0F0FF0B
:100E0000FFFFFF0000000000006E3B133B6E000080
:100E10001E331F331F0303003F330303030300008C
:100E2000007F36363636003F33060C06333F00006F
:100E3000007E1B1B1B0E0000666666663E060300F6
:100E40006E3B18181818003F0C1E33331E0C3F1C45
:100E500036637F63361C001C366363363677003892
:100E60000C183E33331E0000007EDBDB7E0000608A
:100E7000307EDBDB7E06031C06031F03061C001E00
:100E800033333333333300007E007E007E0000189E
:100E9000187E1818007E00060C180C06003F00187B
:100EA0000C060C18003F0070D8D81818181818181D
:100EB000181818181B1B0E1818007E0018180000B0
:100EC0006E3B006E3B00001C36361C00000000002C
:100ED000000018180000000000000018000000F0DA
:100EE00030303037363C381A363636360000000E91
:100EF000190C061F00000000003C3C3C3C000000B8
:100F00007E424242427E0000020407090B0D0F128E
:100F10001416181A1D1F21232527292B2E30323491
:100F200036383A3C3E4041434547494B4C4E50527F
:100F3000535557585A5B5D5E6061636465676869C5
:100F40006B6C6D6E6F70717273747576777778797C
:100F5000797A7B7B7C7C7D7D7D7E7E7E7F7F7F7FC3
:100F60007F7F7F7F7F7F7F7E7E7E7D7D7D7C7C7BA4
:100F70007B7A7979787777767574737271706F6E22
:100F80006D6C6B69686765646361605E5D5B5A5830
:100F900057555352504E4C4B4947454341403E3CB8
:100FA0003A38363432302E2B29272523211F1D1A9B
:100FB000181614120F0D0B0907040200FEFCF9F7B6
:100FC000F5F3F1EEECEAE8E6E3E1DFDDDBD9D7D5D6
:100FD000D2D0CECCCAC8C6C4C2C1BFBDBBB9B7B5DA
:100FE000B4B2B0AEADABA9A8A6A5A3A2A09F9D9C8C
:100FF0009B9998979594939291908F8E8D8C8B8AD4
:101000008989888787868585848483838382828291
:1010100081818181818181818181818282828383B9
:1010200083848485858687878889898A8B8C8D8E41
:101030008F9091929394959798999B9C9D9FA0A235
:10104000A3A5A6A8A9ABADAEB0B2B4B5B7B9BBBDA8
:10105000BFC1C2C4C6C8CACCCED0D2D5D7D9DBDDB9
:10106000DFE1E3E6E8EAECEEF1F3F5F7F9FCFE0088
:101070000306090C101316191C1F2225282B2E31CC
:101080003336393C3F414447494C4E515355585AE9
:101090005C5E60626466686A6B6D6F7071737475B4
:1010A0007678797A7A7B7C7D7D7E7E7E7F7F7F7F7E
:1010B0007F7F7F7E7E7E7D7D7C7B7A7A7978767578
:1010C000747371706F6D6B6A68666462605E5C5A9F
:1010D000585553514E4C494744413F3C39363331C2
:1010E0002E2B2825221F1C191613100C090603008D
:1010F000FDFAF7F4F0EDEAE7E4E1DEDBD8D5D2CF94
:10110000CDCAC7C4C1BFBCB9B7B4B2AFADABA8A656
:10111000A4A2A09E9C9A9896959391908F8D8C8B6B
:101120008A88878686858483838282828181818181
:1011300081818182828283838485868687888A8B67
:101140008C8D8F9091939596989A9C9EA0A2A4A620
:10115000A8ABADAFB2B4B7B9BCBFC1C4C7CACDCFDD
:10116000D2D5D8DBDEE1E4E7EAEDF0F4F7FAFD25CD
:10117000346420253464204825336400580050002E
:101180004E005A4D001B18191A2053204800204DBC
:1011900061702044656D6F00546F61644374726CBC
:1011A000734469616700546F616420412F430054A8
:1011B0006F61642048756D69646966696572005481
:1011C0006F61642048656174657200544F4144004A
:1011D0004C45443320496E74656E20004C454432C2
:1011E00020496E74656E20004C454420434F4E5498
:1011F000524F4C00426565704672710042656570E1
:101200002000534F554E4420434F4E54524F4C00F4
:101210005468726573686F6C64204E656172005427
:1012200068726573686F6C6420466172004761691B
:101230006E00534F4E415220434F4E54524F4C007C
:101240004B74656D70004D6F64650050574D204DB7
:101250006178004B64004B69004B7000557064610D
:101260007465203130307468730050574D205269D6
:10127000676874204D6F746F720050574D204C6535
:101280006674204D6F746F720050574D2044697220
:10129000656374004D4F544F5220434F4E54524F8C
:1012A0004C005B585D20457869740A0A005B525D0A
:1012B000205265616420454550524F4D205B575D7B
:1012C00020577269746520454550524F4D0A005BA6
:1012D0002B2F2D5D206368616E676520766172201B
:1012E0004F5220656E74657220646967697473205B
:1012F000666F6C6C6F776564206279205B456E74F5
:1013000065725D0A005B475D204E65787420477208
:101310006F757020205B3C5D5B3E5D207072657672
:10132000206E657874207661720A000C56617269CD
:1013300061626C6520456469746F7220204D656739
:1013400061446F6E6B657920434F4D2564200A0020
:10135000566172204564697420506F727425640070
:101360005645204578697400457869742E20546884
:10137000616E6B20596F7520666F72207573696E90
:1013800067204D656761646F6E6B65792056617289
:101390006961626C6520456469746F720A002D0092
:1013A0002B004720AEAF20202320575200566172F9
:1013B0006961626C6520456469746F72005800460B
:1013C000696E69736865640A0A000A57726974690C
:1013D0006E6720454550524F4D2E2E2E000A526505
:1013E0006164696E6720454550524F4D2E2E2E0088
:1013F00057726974696E6720454550524F4D0052CF
:10140000656164696E6720454550524F4D000A0082
:10141000FD33363336373C3A3A3B3B3B3B3C3C3280
:101420003F3F4B3F4B404C3D403C3C3C3C3C3B3EBB
:101430003B3F3B3F3B443B48344C324C324C3250B8
:101440002F4F2D4F2D4F2D4E2B4E2B4E2B4C2B4BCC
:101450002F492C492C482A4D2B4C284C284B2547EA
:1014600029462946293B2B2E2B3114311432113AAF
:10147000003900390037013200300330032D0A2DC6
:10148000172B192B19270C17080A150A1505190A05
:10149000000900FE040004000001052008290829B5
:1014A0000829062906280628042502140115011515
:1014B00000150129042C042C062E082C082C082CBD
:1014C0001D2327263336FD413841383F383E383D0D
:1014D00038FE403640364037413741374137423792
:1014E0004336433543354335423441344134403447
:1014F0003F353F353F353F363F364036FE3D373D81
:10150000373D373D373D373D373D353E334133413C
:10151000334333453345354535453643384138FD4A
:101520000E23FE25232523262326232622FE2617E7
:101530002617261626162516FE21162116281827E8
:10154000221B211B211C1D1C191C16FE1A161A1603
:101550001A191A1D1B21FE1721FE151BFE1321FE51
:101560000F210F210F1D0F190F16FE0E160E160E4E
:10157000160E160E17FE0E220E220E230E230E231B
:10158000FE0E23FD1816FE181AFE1516FE1816FE7E
:101590001816FD1516FE121AFE1216FE1516FE1569
:1015A00016FD1E1FFE1E171E172518231F1E1FFFC8
:1015B00058004152452042454C4F4E4720544F2041
:1015C000555300414C4C20594F55522042415345F0
:1015D0002020200057686F277320796F7572206470
:1015E000616464793F0047756D627900446F6E6B8A
:1015F000756C61746F720025346C7500580043542B
:10160000524C004B4244200043414C43004C454463
:101610002034004C45442033004C45442032004CDB
:101620004544203100436F6E74726F6C0058002087
:10163000490020440020460053706B722F4C4544F3
:101640002054657374002000580020005800580092
:1016500020002534643A253464002534642C253474
:1016600064002534646F253464004300230058006F
:10167000546F7563682073637265656E20746F20A4
:10168000657869740043616C6962726174696F6E38
:1016900020636F6D706C6574650043616C69627284
:1016A0006174696F6E2043414E43454C454400438D
:1016B000414C3A25346C642C252D346C6400414433
:1016C000433A25346C642C252D346C640043414E20
:1016D00043454C002020205468656E20746F75636C
:1016E000682027582700202020546F7563682065E4
:1016F00061636820272B2700546F7563682043615E
:101700006C6962726174696F6E0058002B002B0067
:101710004441544120426974733F00426175642022
:10172000726174653F00580054494D454F5554004F
:101730005254530043545300464C4F572043544C8B
:1017400000584D49540052435600584F4E2F584FA1
:101750004646004556454E004F444400506172696C
:1017600074793A200053544F503A20256400444184
:1017700054413A20256400426175642072617465A9
:101780003A2025366C6400434F4D25642053657420
:101790007570204D656E750020253032580025305B
:1017A00034583A004558495400434C45415220436F
:1017B0004845434B504F494E540044554D502074BA
:1017C0006F20434F4D3000436865636B506F696E07
:1017D000742044756D703A20253032580044554DC0
:1017E00050494E472052414D3A202530325800583A
:1017F0000053657420636C6F636B00496E7665728D
:101800007420627574746F6E7300426565706572E2
:10181000004261636B6C69676874004D6973632093
:101820005365747570204D656E75005365747570E1
:10183000004D65676120446F6E6B65790A5465726F
:101840006D696E616C2044656D6F0A002140232430
:10185000255E262A2F2E007E27225C3C3E7B7D5B68
:101860005D0021402324255E262A2F2E005A58434E
:1018700056424E4D2B2D3D005A584356424E4D2C4C
:101880002E2F005A584356424E4D2B2D3D004153AA
:10189000444647484A4B4C3B004153444647484A1C
:1018A0004B4C3A004153444647484A4B4C3B00514D
:1018B000574552545955494F500051574552545964
:1018C00055494F500051574552545955494F5000B2
:1018D00031323334353637383930003132333435FC
:1018E00036373839300031323334353637383930DD
:1018F0000053480021402324255E262A2F2E007302
:1019000068007E27225C3C3E7B7D5B5D00202000E2
:101910004352004253004553005A584356424E4DDD
:101920002B2D3D005A584356424E4D2C2E2F004130
:1019300053444647484A4B4C3B0041534446474872
:101940004A4B4C3A0051574552545955494F500053
:1019500051574552545955494F500031323334355F
:10196000363738393000313233343536373839305C
:1019700000252D3136730025313673005800434C55
:10198000520044454C0020F120004845580046498B
:1019900058002E303000302E3D2F00313233780089
:1019A0003435362B003738392D00302E3D200031AC
:1019B0003233200034353620003738392000444592
:1019C000430030203D2F0031323378003435362B40
:1019D00020444546003738392D204142430030200D
:1019E0003D00313233003435362044454600373827
:1019F00039204142430011241FBECFEFD1E2DEBFA8
:101A0000CDBF00E00CBF14E0A0E0B2E0E0EDF3E2F7
:101A100001E00BBF02C007900D92A23CB107D9F7BD
:101A200018E0A2ECB4E001C01D92A83BB107E1F7B9
:101A30000E943D720C9411880C9400009FB7F8949A
:101A40001092B60082E084BD85B5826085BD87ECCA
:101A500087BDEEE6F0E080818260808380818E7FAA
:101A6000808310922E0510922D059FBF08952C9B08
:101A700002C02C9808952C9A08959C018091E90544
:101A80008823F9F46115710539F0CB01805F984D19
:101A9000660F771F0E946091C90153E0880F991F5C
:101AA0005A95E1F7220F331F820F931F2FB7F89437
:101AB0009093ED058093EC0570937F0560937E0510
:101AC0002FBF08958091EC059091ED051816190629
:101AD000CCF308958091EC059091ED0520E030E085
:101AE0001816190614F421E030E0C90108952FB743
:101AF000F8946091A4057091A5058091A605909138
:101B0000A7052FBF08952FB7F8946091E105709154
:101B1000E2058091E3059091E4052FBF08958FB70A
:101B2000F8941092E1051092E2051092E3051092EC
:101B3000E4051092A4051092A5051092A605109236
:101B4000A7058FBF08958091E1059091E205A091CE
:101B5000E305B091E4054091F2055091F305482763
:101B600059278091670590916805982F8827482705
:101B70005927FA01E770F070EE0FFF1FEE56FA4F8B
:101B80008081918129E6842795278227282F229515
:101B90002827022E269526952025022E26952025DB
:101BA0002770082E892F269507942795902D822738
:101BB00006942795902582279093F3058093F2054C
:101BC0000895E1E8F0E09081987F982B9083089544
:101BD000E1E9F0E09081987F982B90830895E1E807
:101BE000F0E02081982F96959695990F990F990F6F
:101BF000277E922B9083E0E8F0E0908183709C7FB9
:101C0000982B90830895E1E9F0E02081982F969534
:101C10009695990F990F990F277E922B9083E0E963
:101C2000F0E0908183709C7F982B90830895542FCF
:101C300090918000482F4295440F440F407C937050
:101C4000492B262F30E02370307074E0220F331FB1
:101C50007A95E1F7422B252F30E023703070220F68
:101C6000331F220F331F422B409380008111259A8E
:101C70006111269A5111279A0895542F909190003E
:101C8000482F4295440F440F407C9370492B262FD8
:101C900030E023703070F4E0220F331FFA95E1F743
:101CA000422B252F30E023703070220F331F220F7C
:101CB000331F422B4093900081116B9A61116C9AF3
:101CC00051116D9A0895EFE6F0E0208190E0817067
:101CD0009070880F991F2170282B70E061707070D0
:101CE000660F771F660F771F262B50E041705070EC
:101CF000A3E0440F551FAA95E1F7242B20830895F4
:101D0000E1E7F0E0208190E081709070880F991FEA
:101D10002170282B70E061707070660F771F660F5E
:101D2000771F262B50E04170507063E0440F551F21
:101D30006A95E1F7242B20830895882321F0809170
:101D40006F00816003C080916F008E7F80936F0071
:101D50000895882321F080917100816003C08091F3
:101D600071008E7F809371000895882321F0809107
:101D70006F00806203C080916F008F7D80936F0041
:101D80000895882321F080917100806203C08091C2
:101D900071008F7D809371000895809181058F5F20
:101DA00080938105809181058C3308F469C010927D
:101DB0008105809182058F5F8093820580918205E5
:101DC0008C3308F45DC01092820520918905309112
:101DD0008A0580916E0590916F05821B930B9093FD
:101DE0006F0580936E05809183058F5F80938305D7
:101DF00080918305883108F443C010928305809157
:101E000088058F5F8093880580918805873010F062
:101E100010928805E0918505F0E0E651FF4F24918E
:101E200080918505823059F48091860590918705CF
:101E300083709070892B19F0922F915001C0922FCE
:101E4000809184058F5F8093840580918405981725
:101E5000B8F491E090938405809185058F5F80931D
:101E60008505809185058D3058F09093850580918A
:101E70008605909187050196909387058093860546
:101E80000895CF93DF93EA01633008F42197E62F9A
:101E9000F0E0EE58FE4FE4919E01280F311DCE0177
:101EA00064E070E00E946091260F371FCE0160E968
:101EB00071E00E946091260F371F2E0F311DCE0159
:101EC00064E670E00E946091C901861B970B67E091
:101ED00070E00E94609190E0DF91CF910895809131
:101EE000890590918A050197A0E3B0E00C010E945A
:101EF000D2900895A0E3B0E00E94C1903196F09393
:101F00008A05E09389058091890590918A05885E0C
:101F100093402CF010928A051092890508958091C3
:101F2000890590918A0589519C4F24F410928A0565
:101F30001092890508951F920F920FB60F921124E7
:101F40002F933F934F935F936F937F938F939F93C1
:101F5000AF93BF93EF93FF938091710587FF02C00A
:101F60000E94005D8091EC059091ED051816190610
:101F70007CF58091EC059091ED0501979093ED052E
:101F80008093EC058091EC059091ED0518161906EB
:101F9000E4F420917E0530917F0521153105C1F0D3
:101FA00080918D0590918E05019790938E05809379
:101FB0008D0580918D0590918E0597FF09C0309316
:101FC0008E0520938D052C9902C02C9A01C02C9867
:101FD00080916705909168050197909368058093BB
:101FE0006705181619060CF440C08AE090E090933B
:101FF0006805809367058091E1059091E205A091C5
:10200000E305B091E4050196A11DB11D8093E105A2
:102010009093E205A093E305B093E40580916E05EB
:1020200090916F05019790936F0580936E05181638
:102030001906DCF088EE93E090936F0580936E05AF
:102040008091A4059091A505A091A605B091A70542
:102050000196A11DB11D8093A4059093A505A093A1
:10206000A605B093A7050E94CD0EE0917405F091EE
:102070007505309709F019958091EB05882311F0CB
:102080000E944272FF91EF91BF91AF919F918F910A
:102090007F916F915F914F913F912F910F900FBE64
:1020A0000F901F901895EF92FF920F931F937B0153
:1020B0008C016115710581059105D9F12FB7F8944F
:1020C0008091E1059091E205A091E305B091E405CE
:1020D0002FBFB801A701480F591F6A1F7B1F481760
:1020E00059076A077B07A8F48FB7F8941092E105A7
:1020F0001092E2051092E3051092E4051092A405F7
:102100001092A5051092A6051092A7058FBFB801E1
:10211000A7012FB7F8948091E1059091E205A09175
:10212000E305B091E4052FBF84179507A607B7070D
:1021300080F31F910F91FF90EF9008952F923F929F
:102140004F925F926F927F928F929F92AF92BF92C7
:10215000CF92DF92EF92FF920F931F93CF93DF9373
:10216000CDB7DEB7A2970FB6F894DEBF0FBECDBFD6
:102170000E947A0F2FB7F8948091830590E09B839B
:102180008A838091820590E09D838C838091810574
:1021900090E09F838E838091840590E09987888763
:1021A0008091850590E09B878A8780918605909134
:1021B00087059D878C878090890590908A052FBF21
:1021C0000E94E7502EE0A22EB12CAC0EBD1E3E01A7
:1021D0000894611C711C92E0292E312C2C0E3D1E9E
:1021E00080E0482E82E0582E0E946C5A85E691E0ED
:1021F0000E943B22AC0160E080E00E9410510E8101
:102200001F81EC80FD80CA80DB8086E591E00E9422
:102210003B221F930F93FF92EF92DF92CF929F93F7
:102220008F93BF92AF920E94958821E0A50160E153
:1022300080E10E94EE568C859D8564E670E00E94E8
:1022400060918C01E884F984CA84DB8487E491E09E
:102250000E943B221F930F93FF92EF92DF92CF9247
:102260009F938F93BF92AF920E94958822E0A50121
:1022700060E280E10E94EE568EE391E00E943B22F4
:1022800023E0AC0160E380E10E94EE568CE391E034
:102290000E943B22E0917205F0E0EE0FFF1FEE0F6F
:1022A000FF1F2091D204E20FF11DEE0FFF1F2FEF51
:1022B000AC0160E080EA8E1B0E94EE561092300561
:1022C0000E940C512DB73EB72C5E3F4F0FB6F894CD
:1022D0003EBF0FBE2DBF823009F43CC0833009F4ED
:1022E00088C0813009F0BAC01E868CE291E00E945D
:1022F0003B2249E0B5010E94A67E86E090E08C0F6B
:102300009D1F9F938F937F926F9224E030E02C0F5C
:102310003D1F3F932F937F926F923F922F925F9238
:102320004F92BF92AF920E94BA888DB79EB70E9619
:102330000FB6F8949EBF0FBE8DBF8A819B814897D0
:10234000A4F68C819D81CC9784F68E819F81CC9759
:1023500064F684C01E868CE191E00E943B2249E035
:10236000B5010E94A67E81E191E00E943B222CE013
:1023700030E02C0F3D1F3F932F937F926F9228E008
:1023800030E02C0F3D1F3F932F937F926F922AE0F6
:1023900030E02C0F3D1F3F932F939F938F93BF925D
:1023A000AF920E94BA88EA85FB85CF0101972DB7CD
:1023B0003EB7225F3F4F0FB6F8943EBF0FBE2DBF12
:1023C0000C9748F6288539851216130624F6E6512F
:1023D000FF4F849190E0821793070CF4BCCF8C855B
:1023E0009D8584369105D4F58053984F9D878C87C1
:1023F00035C08114910479F483E091E00E943B227E
:102400009F938F93BF92AF920E9495880F900F90E9
:102410000F900F9014C087EF90E00E943B229F9294
:102420008F929F938F93BF92AF920E9495888DB7A2
:102430009EB706960FB6F8949EBF0FBE8DBF68E696
:10244000C5010E94C1834B0198EE891693E099065D
:102450009CF629E182162CEF920674F20E940C5130
:102460008F3F09F0C1CE1FB7F8948A81809383050E
:102470008C81809382058E818093810588858093ED
:1024800084056A85609385054C855D855093870535
:10249000409386050E94410F8093880590928A059B
:1024A000809289058FB7F8941092E1051092E205A9
:1024B0001092E3051092E4051092A4051092A50570
:1024C0001092A6051092A7058FBF1FBF0E943F5F05
:1024D0008091890590918A050197A0E3B0E00C01F5
:1024E0000E94D2900E94D22BA2960FB6F894DEBF23
:1024F0000FBECDBFDF91CF911F910F91FF90EF9055
:10250000DF90CF90BF90AF909F908F907F906F9013
:102510005F904F903F902F9008958093F4056093C3
:10252000FD0526E0629FB00111246093F60590E05E
:10253000880F991F880F991F8093F905089580933C
:10254000FF056093FE0508958093FC056093FB05ED
:1025500008958091FA058F5F8093FA0580FF18C077
:10256000E091F705F091F8053196F093F805E093C6
:10257000F7053197EE0FFF1FE158FE4FE491E0930E
:10258000F505E295EF708E2F992787FD90950895B8
:102590008091F505992787FD90958F70907008952B
:1025A00089E292E09093B5088093B4088FEF9FEF93
:1025B00090933D0580933C0508950F931F93CF930F
:1025C000DF93182F062F0E94C522C0E0D0E00DC077
:1025D0004091F9058091FC05480F4150410F612F52
:1025E000852F800F0E94C72621965C2F8C2F90E0AC
:1025F0002091FB054091F605240F312D311D8217E6
:10260000930734F30E94C522DF91CF911F910F9160
:1026100008954F925F926F927F928F929F92BF9296
:10262000CF92DF92EF92FF920F931F93CF93DF939E
:102630002C013B01042F80913C0590913D0591FFB9
:1026400003C0842D0E94DD1201320CF49AC0802F49
:10265000992787FD90950E94468E96E08902400159
:1026600011242AE33FEF820E931E630180C09092F3
:10267000F8058092F7051092FA050E94A9128F3092
:1026800009F47FC0082F61C00E94A9128F3059F44D
:102690000E94A912082F8F3009F45CC00E94A91271
:1026A0008F3009F457C0B82E10E0E090F405FF24F5
:1026B000E7FCF0946091FD05772767FD7095A82FE2
:1026C000B0E0FD01E65EFD4F8081992787FD909582
:1026D000869F9001879F300D969F300D11242C0D01
:1026E0003D1DA55FBD4F8C91992787FD90958E9DCF
:1026F000A0018F9D500D9E9D500D11244C0F5D1F0C
:10270000F801E65EFD4F8081992787FD9095FB01DA
:102710008E9FB0018F9F700D9E9F700D11246C0DC8
:102720007D1D055F1D4FF8018081992787FD9095DC
:10273000FC01EE9DC001EF9D900DFE9D900D1124BA
:102740008C0F9D1F0E94F0330B2D8091FA058D3068
:102750000CF49ACF21968091FF059201280F311D2C
:10276000C217D3070CF483CF0894C11CD11C8091ED
:10277000FE05F301E80FF11DCE16DF0614F4E201A9
:10278000EACFDF91CF911F910F91FF90EF90DF90F3
:10279000CF90BF909F908F907F906F905F904F9061
:1027A00008950E94F23061E081E00E948D1281E084
:1027B0008093FF058093FE0582E08093FC05809363
:1027C000FB0560E080E00E94B6220895EF92FF9240
:1027D0000F931F93CF93DF93082F162F7A018091C9
:1027E0003C0590913D0590FF17C080917205682FC0
:1027F0000E948D12809172058093FF058093FE05E3
:1028000090E09C01220F331F220F331F2093FC0501
:10281000880F991F8093FB05C0E0D0E001C021968E
:10282000F701EC0FF11D4491442349F1612F70E051
:10283000802F90E00E94091380912A0590E09C016E
:102840002071307083FF0EC08091FB059091F605DA
:10285000232B19F0181B191B02C0890F180F1035F4
:10286000F0F20DC08091FC059091F905232B19F031
:10287000081B091B02C0890F080F003A80F2DF9184
:10288000CF911F910F91FF90EF9008950F931F9399
:10289000CF93DF93082F162FEA0180913C0590918A
:1028A0003D0590FF41C080917205682F0E948D12F6
:1028B000809172058093FF058093FE0590E09C0156
:1028C000220F331F220F331F2093FC05880F991FFF
:1028D0008093FB0529C0612F70E0802F90E00E945B
:1028E000091380912A0590E09C012071307083FFCC
:1028F0000EC08091FB059091F605232B19F0181B53
:10290000191B02C0890F180F103570F010C080918C
:10291000FC059091F905232B19F0081B091B02C037
:10292000890F080F003A18F449914423A1F6DF916A
:10293000CF911F910F9108951F93182F80913C05FF
:1029400090913D0590FF17C080917205682F0E94FD
:102950008D12809172058093FF058093FE0590E0B3
:102960009C01220F331F220F331F2093FC05880F79
:10297000991F8093FB0580913C0590913D0580FF58
:1029800009C0173039F460ED77E088EC90E00E94E0
:102990003D0D59C081FF16C01830A1F440916D055E
:1029A0006091F9055091FC05242F30E0E52FE60FEA
:1029B000F12DF11D2E173F075CF0461B451B409380
:1029C0006D0541C082FF07C01C3029F410928F05AD
:1029D00010926D0538C083FF0CC01A3051F410926C
:1029E0006D058091F60590918F05890F9091FB05FB
:1029F00013C084FF02C01D3059F385FF02C0193097
:102A0000C1F086FF0DC01B3059F48091F9059091FB
:102A10008F05890F9091FC05890F80938F0513C056
:102A200060918F0570E080916D05412F90E00E94CC
:102A300009138091F90590916D05890F9091FC051E
:102A4000890F80936D0580916D0590E02091FC05C4
:102A500030E0309521953F4F4091F905241B310915
:102A600020563F4F2817390764F410926D05809166
:102A7000F60590918F05890F9091FB05890F809342
:102A80008F0540918F056091F6055091FB05242F2D
:102A900030E0852F90E0909581959F4F861B91099E
:102AA000805B9F4F8217930774F480913C0587FFEA
:102AB00008C0852F860F481B40938F050E94AE28C3
:102AC00002C010928F0580E090E01F910895CF9290
:102AD000DF92EF92FF921F93CF93DF93F82EC2EB1A
:102AE000D4E00DC00E945369182FCE010E943B22F2
:102AF0000E941969812F0E9432690E942669809183
:102B00000207882379F781EA94E00E943B220E9421
:102B10001969CF2CDD24EE24FF2442E050E0C701E8
:102B2000B6010E94B0680E942669C0E9D4E00DC0D9
:102B30000E94A666182FCE010E943B220E94726658
:102B4000812F0E948B660E947F6680918306882376
:102B500079F78FE794E00E943B220E94726642E080
:102B600050E0C701B6010E9409660E947F66DF91AE
:102B7000CF911F91FF90EF90DF90CF900895EF924B
:102B8000FF920F931F93CF93DF9300E010E0EE24AA
:102B9000FF2419C0402F6E2D8C2F0E94DF280F5F5D
:102BA0001F4F0F3F110519F010F000E010E02896BC
:102BB000C03AD10579F788E090E0E80EF91E90E57B
:102BC000E916F10419F0C0E0D0E0E4CFDF91CF9135
:102BD0001F910F91FF90EF9008950E94C5224FE73B
:102BE00055E060E080E00E94B02A4AE655E068E0E7
:102BF00080E00E94B02A45E555E060E180E00E9457
:102C0000B02A0E94C52240E455E068E180E00E94BD
:102C1000B02A4BE255E060E280E00E94B02A46E133
:102C200055E068E280E00E94B02A41E055E060E3B0
:102C300080E00E94B02A4CEE54E068E380E00E94FD
:102C4000B02A47ED54E060E480E00E94B02A42ECF4
:102C500054E068E480E00E94B02A0895FF920F9348
:102C60001F93CF93DF93F0909005809141030E94D2
:102C7000C77B2FE440E56FE480E00E94C22D0FE4A3
:102C800010E0C0E5D0E02FE44C2F602F80E00E94E0
:102C9000C22D0A5010402F978FEFC63FD80799F7E3
:102CA0002FE440E06AE180E00E94C22D8F2D0E9457
:102CB000C77BDF91CF911F910F91FF9008951F93D4
:102CC000CF93DF9310919005C0ECD0E09E014EE1D0
:102CD00067E383E50E94492CCE01969587959695EA
:102CE0008795C81BD90B2897CD30D10578F7812F50
:102CF0000E94C77BDF91CF911F910895AF92BF9241
:102D0000CF92DF92EF92FF920F931F93CF93DF93B7
:102D1000EC016B017A0180E10E94367C9701220F61
:102D2000331F2E0D3F1D220F331FC90188599E4F9F
:102D300068E671E00E9460918C01095F104FF80114
:102D40000491C901825F9E4F68E671E00E94609124
:102D5000FC01E95FF04FE491FAE2EF02C0011124B7
:102D6000880F892F881F990B20ECA22EB12C9C0173
:102D70002A9DC0012B9D900D3A9D900D112460E07D
:102D800071E00E9460919B01275D0F02A001112458
:102D9000440F452F441F550B405B69E280E50E94BC
:102DA000C22DCE14DF0409F440C09601220F331F58
:102DB0002C0D3D1D220F331FC90188599E4F68E617
:102DC00071E00E9460918C01095F104FF80104913D
:102DD000C901825F9E4F68E671E00E946091FC012C
:102DE000E95FF04FE491FAE2EF02C0011124880F8D
:102DF000892F881F990B9C012A9DC0012B9D900D46
:102E00003A9D900D112460E071E00E9460919B0159
:102E1000275D0F02A0011124440F452F441F550BBD
:102E2000405B69E280E50E94C22DCC15DD0509F406
:102E300051C09E0175E0220F331F7A95E1F7CC0F48
:102E4000DD1F2C1B3D0B2C543F4FC60162E070E090
:102E50000E946091260F371FC9018C549F4F68E66E
:102E600071E00E94609157E0E52E5FE0F52EE80EDC
:102E7000F91EF701E490C901865A9F4F68E671E098
:102E80000E946091FC01E95FF04FE49105E2E002ED
:102E9000C0011124880F892F881F990B9C012A9D3E
:102EA000C0012B9D900D3A9D900D112460E071E0C2
:102EB0000E9460919B01275D3E2D3002800111240C
:102EC000000F012F001F110B005B402F69E280E50E
:102ED0000E94C22D81E00E94367C20EC30E044E06C
:102EE00069E280E50E94492C80E00E94367CDF91F7
:102EF000CF911F910F91FF90EF90DF90CF90BF90F7
:102F0000AF9008950F931F93109190050091CE04F8
:102F10008AEA0E94C77B83E00E94367C20EC30E086
:102F200047E268E280E50E94492C80E00E94367CFE
:102F3000812F0E94C77B802F0E94947B1F910F914D
:102F40000895EF920F9306E02FE44FE960E080E0F0
:102F50000E9497262FE44FE960E080E00E94C22D96
:102F60002FE440E060E08FE90E94C22D81E00E94E2
:102F7000367C8FEF0E94C77B20EC30E042E368E2B2
:102F800080E50E94492C80E00E94C77B20EC30E065
:102F90004DE268E280E50E94492C8FEF0E94C77BDA
:102FA00020EC30E048E268E280E50E94492C80E0B5
:102FB0000E94C77B20EC30E043E268E280E50E949B
:102FC000492C8FEF0E94C77B20EC30E04EE168E295
:102FD00080E50E94492C80E00E94C77B20EC30E015
:102FE00049E168E280E50E94492C8FEF0E94C77B8F
:102FF00020EC30E044E168E280E50E94492C80E06A
:103000000E94C77B20EC30E04FE068E280E50E9440
:10301000492C8FEF0E94C77B20EC30E04AE068E249
:1030200080E50E94492C80E00E94C77B20EC30E0C4
:1030300045E068E280E50E94492C8FEF0E94C77B43
:1030400081E10E94367C8FEF0E94C77B80E00E9466
:10305000947B64E1E62E04E12CE34CE364E184E13B
:103060000E94D12280E00E94367C0F91EF9008955B
:103070001F93CF93DF938FEF0E94C77B80E00E9466
:10308000947B60E080E00E94B6220E943F5F109235
:10309000780510E0C7E3D2E040E060E070E0CE01E8
:1030A0000E94A67E8823C1F38B3181F08D3071F0B0
:1030B00090E00E945B88185F183928F060E080E09B
:1030C0000E94B62210E00E943F5FE6CF0E943F5F61
:1030D00010927805DF91CF911F910895FF920F9381
:1030E0001F930E94C52244EC55E068E480E00E94F2
:1030F000B02A0E94C52227E44FE967E480E00E94DD
:10310000C22D82E00E940B7C0091720510E083E0EA
:10311000000F111F8A95E1F742EC55E060E080E076
:103120000E94B02A6091720570E013E0660F771F6D
:103130001A95E1F740EC55E080E00E94B02A6091DA
:10314000720570E0B4E0660F771FBA95E1F74EEBB9
:1031500055E080E00E94B02A60917205A8E1FA2E45
:103160006F9DB00111244CEB55E080E00E94B02A25
:1031700042EB55E060E0802F0E94B02A609172051A
:1031800070E0F3E0660F771FFA95E1F748EA55E043
:10319000802F0E94B02A6091720570E0E4E0660F13
:1031A000771FEA95E1F74EE955E0802F0E94B02A9B
:1031B000609172056F9DB001112444E955E0802FA4
:1031C0000E94B02A81E00E940B7C1F910F91FF901A
:1031D00008958F929F92AF92BF92CF92DF92EF921B
:1031E000FF920F931F93CF93DF9390909005809061
:1031F000CE0482E00E940B7C80917205823018F42C
:1032000082E00E940B7CC0E0D0E08FEDA82E85E02C
:10321000B82E0DEDC02E05E0D02E1BEDE12E15E0F1
:10322000F12E09ED15E08C2F0E94617C8FEF0E943A
:10323000C77B80E00E94947B8091720520912A05D3
:10324000829FC0011124B3E0880F991FBA95E1F75E
:10325000A50160E0885F0E94B02A0E94C5226091AB
:10326000720570E0A3E0660F771FAA95E1F78091E1
:103270002A05869F802D1124A601885F0E94B02A0E
:103280000E94C5228091EA0582600E94367C8AEA0B
:103290000E94C77B6091720570E080912A0590E0E2
:1032A0009C01629FC001639F900D729F900D11243D
:1032B000F3E0880F991FFA95E1F7A701E4E0660FA4
:1032C000771FEA95E1F7885F0E94B02A85E50E94A2
:1032D000C77B2091720530E0B901660F771F620F3E
:1032E000731F43E0660F771F4A95E1F780912A0527
:1032F00090E0AC01249FC001259F900D349F900D5C
:10330000112423E0880F991F2A95E1F7A801885F0F
:103310000E94B02A8091EA058D7F0E94367C21961A
:10332000C830D10509F07FCF80E00E94617C892DF3
:103330000E94C77B882D0E94947B81E00E940B7CB9
:10334000DF91CF911F910F91FF90EF90DF90CF9081
:10335000BF90AF909F908F9008958FEF0E94C77B92
:1033600080E00E94947B26E446E46AE08AE00E94C2
:10337000083023E244E169E18AE00E9408302CE34E
:1033800046E462E38CE30E9408300E94C52222E2F8
:103390004AE06AE18AE00E94C22D2BE346E463E33F
:1033A00086E40E94C22D0E94C52284EF91E00E9413
:1033B000A45F0E943F5F4FEF68E288E20E946928A5
:1033C000089525E24DE365E283E10E94C22D27E3E3
:1033D0004BE165E28DE30E94C22D29E148E267E3FB
:1033E0008BE10E94C22D27E345E369E188E20E9458
:1033F000C22D25E243E167E385E30E94C22D4FEF32
:1034000068E288E20E94692808950F931F93CF9382
:10341000DF9300919005C0E0D0E04C2F4F5A61E55A
:103420008C2F0E94C72660E56C1B40E58C2F885DC1
:103430000E94C7262196C832D10579F7802F0E94B5
:10344000C77BDF91CF911F910F9108951F93CF9369
:10345000DF9310919005C0E0D0E0C0FF06C08C2F34
:10346000805B482F60E5865405C08C2F40E54C1BDF
:1034700060E5865F0E94C7262196C431D10569F7B1
:10348000812F0E94C77BDF91CF911F910895CF922A
:10349000DF92EF92FF920F931F93CF93DF9341E45C
:1034A00060E080E00E94DF2842E460E088E00E9463
:1034B000DF2843E468E080E00E94DF2844E468E01D
:1034C00088E00E94DF2827E04FE060E080E00E9473
:1034D000083028E0C22ED12CC8E1D0E0EC2C0C2F13
:1034E00027E04FE060E080E00E94D12201E50C1B64
:1034F00027E04FE060E080E00E94D122219688E042
:1035000090E0C80ED91EC132D10541F7F090900568
:10351000C0E0D0E03EC0D02E6E2D802F0E94DB1F79
:10352000F801E770F070E25EFC4F9081982311F093
:103530008FEF01C080E00E94C77B6C2D8D2D8057DE
:103540000E94DB2B0F5F1F4F0F30110521F72196D3
:10355000C031D105F1F48F2D0E94C77BC0E0D0E0CF
:103560001C2F6C2F80E00E94DB1F105C482F612F06
:1035700080E00E949C1F6C2F81E00E94DB1F482F7F
:10358000612F81E00E949C1F2196C031D10541F03E
:10359000E7CF00E010E0EC2E90E4C92ECC0EBBCFBC
:1035A000DF91CF911F910F91FF90EF90DF90CF901F
:1035B00008951F93109190052FE44FE960E080E09B
:1035C0000E9408308AEA0E94C77B8091EA058260E7
:1035D0000E94367C28E248E96EE088E70E94552682
:1035E0008FEF0E94C77B80E00E94367C25E448E98B
:1035F00068E288E70E945526812F0E94C77B0E94BF
:10360000E1190E942E160E94261A0E945F161F9131
:10361000089581E00E94715E20E030E0882311F07F
:1036200021E030E0C9010895CF93DF938091EA054E
:103630008E7F0E94367C20EC30E044E161E482E33E
:103640000E94492C2CE34CE360E088E20E940830A1
:103650008091EA0581600E94367C0E94C52220ECA0
:1036600030E043E161E482E30E94492C2CE34BE328
:1036700061E089E20E94552638C020EC30E040E14C
:1036800061E482E30E94492CC9E3D0E049E36BE2A4
:103690008C2F0E94C72664E170E080E090E00E94D9
:1036A000531081E00E94715E882329F52197C33071
:1036B000D10561F70E94C522C4E0D0E049E36BE286
:1036C0008C2F0E94C72664E170E080E090E00E94A9
:1036D000531081E00E94715E882319F00E94C52278
:1036E0000AC02196C933D10549F70E94C5220E941C
:1036F000091B882311F280E00E94367CDF91CF9174
:1037000008950E94091B8823E1F30E94091B882366
:10371000E1F78AE290E00895EF92FF920F931F93F2
:10372000CF93DF9380E00E94367C00E010E0EE242F
:10373000FF2464C0402F6E2D8C2F0E94DF280F5F66
:103740001F4F0F3F110519F010F000E010E0289610
:10375000C03AD10579F788E090E0E80EF91E90E5CF
:10376000E916F10409F04AC0C0E0D0E040E5E42EDB
:1037700000E02FE44FE960E08FE90E94D122EE24BF
:1037800001E02FE44EE960E080E00E94D12200E0F9
:103790002FE940E060E580E00E94D1220E94091BF1
:1037A000882321F42196C03AD10501F70E94091B14
:1037B000882311F00E94811BC0E0D0E030E5E32EA9
:1037C00000E02FE440E060E080E00E94D122EE249F
:1037D0002FE44FE960E081E00E94D1220FE92FE958
:1037E00040E060E580E00E94D1220E94091B88230E
:1037F00041F42196C03AD10521F0E0CFC0E0D0E0FD
:1038000099CFDF91CF911F910F91FF90EF90089585
:103810008F929F92AF92BF92CF92DF92EF92FF92E0
:103820000F931F93CF93DF930E94D22B66E0A62EB7
:1038300063E0B62EC0E0D0E057E0852E5FE0952E25
:10384000CE01865A9F4F68E671E00E9460919C010C
:10385000295F304FF9012491CE0168E671E00E94A2
:103860006091FC01E95FF04FE491D5010D911D914C
:103870005D01BFE2EB02C0011124880F892F881F70
:10388000990B30ECC32ED12CFC01EC9DC001ED9DB9
:10389000900DFC9D900D112460E071E00E946091FC
:1038A0006B5DF80101900020E9F73197E01BF10B07
:1038B000EE0FEE0F80E58E1BFFE22F029001112428
:1038C000220F232F221F330BA801820F0E94752A7B
:1038D0006E9621E0C836D20709F0B2CFE1E6FFE0EC
:1038E000E4913FE2E302E0011124CC0FCD2FCC1F85
:1038F000DD0BF40184918302C0011124880F892F0C
:10390000881F990B9C012C9DC0012D9D900D3C9D05
:10391000900D112460E071E00E9460915B01F1E084
:10392000CF2ED12CC601865A9F4F68E671E00E94C7
:103930006091FC01E95FF04FE4912FE2E202800127
:103940001124000F012F001F110BC60168E671E062
:103950000E946091FC01E95FF04FE491E202900166
:103960001124220F232F221F330B80EC90E0AC0197
:10397000249FC001259F900D349F900D112460E07D
:1039800071E00E9460917B01262F275D402F405BF4
:103990006A2D675DDE01A05B8A2F0E94C22D08940C
:1039A000C11CD11C5701E801B8E6CB16B1E0DB061B
:1039B00009F0B8CF2FE44FE960E080E00E940830C2
:1039C0000E943F5F63E6862E912C53E6A52EB12C14
:1039D00003E610E0CC2481E00E94715E882311F59B
:1039E0000E947A0F80918105C82FD0E0E090820577
:1039F000D0908305C017D10771F3CC2029F0A8011E
:103A0000B501C4010E947E16FF240D2D10E0AE0109
:103A1000B701C8010E947E16480157018E01CC24CF
:103A2000C394D9CF0E943F5F0E94D22BDF91CF91E8
:103A30001F910F91FF90EF90DF90CF90BF90AF90CC
:103A40009F908F9008952F923F924F925F926F9226
:103A50007F928F929F92AF92BF92CF92DF92EF921E
:103A6000FF920F931F93CF93DF93CDB7DEB7659788
:103A70000FB6F894DEBF0FBECDBF82E00E942E22AB
:103A80000E943F5F03E643E6642E4E010894811CCA
:103A9000911C34EE232E35E0332E21EE422E25E00C
:103AA000522E02C0072D6A2C81E00E94715E88238D
:103AB00009F015C10E947A0F70908405701609F400
:103AC000B4C07090840582E00E940B7CB0907205B7
:103AD000BB0CBB0CB194AA248CE3B80E0E94BE3080
:103AE0000E94D22B03E02FE44FE960E080E00E94C7
:103AF0009726809186059091870564E670E00E9484
:103B00004C916C01E0918505F0E0EE0FFF1FE3584A
:103B1000FD4FE080F1800091840510E08CEF95E08E
:103B20000E943B22DF92CF92FF92EF921F930F935E
:103B30009F938F939F928F920E949588F40101909A
:103B40000020E9F73197E819F9092091720583E01F
:103B5000EE0FFF1F8A95E1F730E0E29FE02D112480
:103B600000EAE02EF12CC7018E1B910962E070E0A3
:103B70000E946091CB01220F331F220F331F68E296
:103B8000621B0E94B62289EF95E00E943B229F9221
:103B90008F929F938F930E944488E0918805F0E074
:103BA000EE0FFF1FE053FD4F0081118186EF95E07E
:103BB0000E943B221F930F939F938F939F928F920C
:103BC0000E949588F40101900020E9F73197E819E7
:103BD000F909A3E0EE0FFF1FAA95E1F780917205A6
:103BE0008E9F802D1124E81AF108C70162E070E071
:103BF0000E946091CB016B2D0E94B62283EF95E06D
:103C00000E943B229F928F929F938F930E944488A1
:103C1000A3948DB79EB748960FB6F8949EBF0FBE7B
:103C20008DBF92E0A91609F059CFA0908105A61486
:103C300009F438CFA090810582E00E940B7C80912E
:103C40007205880F880FE4E1BE2EB81A0E94BE30BC
:103C5000C0908105DD24E0908205FF24009183055A
:103C600010E0C1010E943B22DF92CF92FF92EF92BF
:103C70001F930F939F938F939F928F920E9495888B
:103C8000F40101900020E9F73197E819F90973E090
:103C9000EE0FFF1F7A95E1F7209172052E9F202DE0
:103CA000112480EA90E0821B910962E070E00E949A
:103CB0006091CB016B2D0E94B622C2010E943B2273
:103CC0009F928F929F938F930E9444888DB79EB747
:103CD0000E960FB6F8949EBF0FBE8DBFE3CE0E9426
:103CE0003F5F0E94B2300E94D22B81E00E940B7C89
:103CF00065960FB6F894DEBF0FBECDBFDF91CF91B2
:103D00001F910F91FF90EF90DF90CF90BF90AF90F9
:103D10009F908F907F906F905F904F903F902F90EB
:103D200008950F931F93082F0E94D22B14E064C0B4
:103D3000812F0E9467150E94D22B103119F40E9426
:103D40008C1B4BC01F3019F40E94471A46C01E300E
:103D500019F40E94AD1941C01D3019F40E94051AD2
:103D60003CC01C3009F447C01B3019F40E94E9180C
:103D700034C01A3019F40E94D91A2FC0193019F41E
:103D80000E94231D2AC0183019F40E94081C25C067
:103D9000173019F40E94821720C0163019F40E94BF
:103DA0006E181BC0153019F40E94381822C0143048
:103DB00019F40E94A11711C0133019F40E94ED15D7
:103DC0000CC0123019F40E94BF1507C0113011F455
:103DD0008FEF01C080E00E94892B68EC169FB00134
:103DE00011248AEF90E00E943D0D80ED97E00E9443
:103DF000A45F0E943F5F1F5F113108F499CF002339
:103E000011F014E095CF1F910F91089582B386951C
:103E100086958095817090E00895459A0000000095
:103E2000000080E0079B04C0823311F08F5FFACF5F
:103E3000459808951F931FEF12B911B8469A479AF3
:103E40000E940D1F469811B947981F9108950F932E
:103E50001F93182F062F0E941A1F479A12B9459ACE
:103E60000000000000004598479802B9459A0000FC
:103E70000000000045981F910F910895FF920F9345
:103E80001F9390EA699F80011124080F111D93E090
:103E9000169507959A95E1F78091690590916A05C5
:103EA000080F191FA2984698FF24FA94F1B8602FC2
:103EB0008AE00E94271F012F1127602F8BE00E94AC
:103EC000271FA29AF2B811B8469A1F910F91FF903E
:103ED0000895EF92FF920F931F93E42E8695869597
:103EE00086950091690510916A05080F111D669568
:103EF0006695669584E1689FB0011124060F171F2F
:103F0000A2984698FF24FA94F1B8602F8AE00E94A4
:103F1000271F012F1127602F8BE00E94271F6E2D76
:103F20008CE00E94271FA29AF2B811B8469A1F91FE
:103F30000F91FF90EF900895EF92FF920F931F93D0
:103F4000E42E90EA699F80011124080F111D43E0BF
:103F5000169507954A95E1F78091690590916A0554
:103F6000080F191FA2984698FF24FA94F1B8602F01
:103F70008AE00E94271F012F1127602F8BE00E94EB
:103F8000271F0E941A1F479A8CE082B9459A0000A9
:103F90000000000045984798E2B8459A00000000EC
:103FA00000004598A29AF2B811B8469A1F910F9155
:103FB000FF90EF900895FF920F931F9390EA699FEF
:103FC00080011124080F111D63E0169507956A956D
:103FD000E1F78091690590916A05080F191FA29871
:103FE0004698FF24FA94F1B8602F8AE00E94271FB8
:103FF000012F1127602F8BE00E94271F0E941A1F9C
:10400000479A8DE082B9459A00000000000045986B
:10401000F2B811B8469A0E940D1F4798459A0000C1
:10402000000000004598479A0E940D1F4798459A46
:1040300000000000000080B14598A29AF2B811B8C3
:10404000469A90E01F910F91FF9008950F931F9350
:104050000091690510916A0590936A05809369053E
:1040600060E080E00E94DB1F10936A050093690501
:1040700090E01F910F9108950F931F93462F009189
:10408000690510916A0590936A058093690560E05F
:1040900080E00E949C1F10936A05009369051F91A0
:1040A0000F91089587E493E09093B5088093B40846
:1040B0008FEF9FEF90933D0580933C050895EF921D
:1040C000FF920F931F937C018B010E943C20012FD4
:1040D0001127602FC70101960E943C201F910F916C
:1040E000FF90EF900895CF92DF92EF92FF920F939F
:1040F0001F936C017A018B01642F0E943C20992749
:10410000812F702F6F2DC60101960E943C20B801AF
:1041100088279927C60102960E943C20E12EFF24A1
:10412000002711276E2DC60103960E943C201F9187
:104130000F91FF90EF90DF90CF900895EF92FF9254
:104140000F931F937C0101960E942620082F10E0F8
:10415000102F0027C7010E94262090E0802B912B72
:104160001F910F91FF90EF900895CF92DF92EF9201
:10417000FF920F931F936C0103960E942620E82E56
:10418000FF2400E010E0102F0F2DFE2CEE24C601BE
:1041900002960E94262090E0A0E0B0E0E82AF92AEA
:1041A0000A2B1B2B102F0F2DFE2CEE24C60101967F
:1041B0000E94262090E0A0E0B0E0E82AF92A0A2B2D
:1041C0001B2B102F0F2DFE2CEE24C6010E94262043
:1041D00090E0A0E0B0E0E82AF92A0A2B1B2BC801E6
:1041E000B7011F910F91FF90EF90DF90CF9008954E
:1041F00097FF06C0DB01BF770E94B490802D0AC0F4
:1042000096FF03C0FB01849105C095FF05C0CB015B
:104210000E94262090E00895FB01808190E008959F
:1042200097FF06C0DB01BF770E94C190CF010895C0
:1042300096FF04C0FB0185919491089595FF04C0F9
:10424000CB010E949E200895FB01808191810895F9
:10425000AF92BF92CF92DF92EF92FF920F931F9394
:10426000CF93DF93EA01A22E6A01BB2411C07B0128
:104270008C010894E11CF11C011D111D0E94F82005
:10428000882351F0F60181936F01B394C801B701FF
:10429000BA1469F77B018C01CB0DD11D1882C801BE
:1042A000B701DF91CF911F910F91FF90EF90DF90B9
:1042B000CF90BF90AF9008956F927F928F929F9210
:1042C000AF92BF92CF92DF92EF92FF920F931F9324
:1042D000CF93DF935B016C013A014901E9010EC004
:1042E0007B018C010894E11CF11C011D111D0E9431
:1042F000F820F30181933F01C801B7012197FFEF37
:10430000CF3FDF0769F7B40180E090E06A0D7B1DC5
:104310008C1D9D1DDF91CF911F910F91FF90EF900C
:10432000DF90CF90BF90AF909F908F907F906F90D5
:104330000895DC01CB01B7FF06C0DC01BF77042E76
:104340000E94C6900895B5FF04C0642F0E943C20CF
:104350000895B6FD02C0FC0140830895DC01CB0145
:10436000B7FF06C0DC01BF770A010E94D290089512
:10437000B5FF04C0BA010E945F200895B6FD03C0D6
:10438000FC01518340830895BF92CF92DF92EF9258
:10439000FF920F931F93CF93DF93B22EEA0100E0B9
:1043A00010C019916B017C010894C11CD11CE11C47
:1043B000F11C412F0E949921112339F00F5FC70191
:1043C000B6010B1571F76B017C01C701B601DF91D6
:1043D000CF911F910F91FF90EF90DF90CF90BF9002
:1043E00008956F927F928F929F92AF92BF92CF92D9
:1043F000DF92EF92FF920F931F93CF93DF935B01B6
:104400006C013A014901E9010EC0F30141913F01FC
:104410007B018C010894E11CF11C011D111D0E94FF
:104420009921C801B7012197FFEFCF3FDF0769F757
:10443000B40180E090E06A0D7B1D8C1D9D1DDF9115
:10444000CF911F910F91FF90EF90DF90CF90BF9091
:10445000AF909F908F907F906F900895853010F06F
:1044600084E003C0882309F481E081508093F10542
:104470008F5F90E008950F931F9304ED14E040E5E3
:1044800050E0BC01C8010E941488C8011F910F911F
:104490000895CF93DF93CDB7DEB724970FB6F89486
:1044A000DEBF0FBECDBFDC01CB0129833A834B8336
:1044B0005C83B7FF09C0DC01BF7784E0FE01319661
:1044C000182E0E94D79014C0B5FF07C049815A81A9
:1044D0006B817C810E9473200BC0B6FD09C0FC017A
:1044E00089819A81AB81BC8180839183A283B383CC
:1044F00024960FB6F894DEBF0FBECDBFDF91CF91EB
:104500000895CF93DF93CDB7DEB724970FB6F89415
:10451000DEBF0FBECDBF97FF0DC0DB01BF7784E0CC
:10452000FE013196182E0E94BC9069817A818B81A0
:104530009C8113C096FF06C0FB0165917591859122
:1045400094910BC095FF04C0CB010E94B52005C01B
:10455000FB01608171818281938124960FB6F8946A
:10456000DEBF0FBECDBFDF91CF910895982F80930E
:104570006D0560938F058091D104882329F070E048
:10458000892F90E00E943F7B08951F931091900522
:104590008091CE040E94C77B812F0E94947B1F9143
:1045A00008952F923F924F925F926F927F928F92D7
:1045B0009F92AF92BF92CF92DF92EF92FF920F93B2
:1045C0001F93CF93DF93CDB7DEB76E970FB6F894F6
:1045D000DEBF0FBECDBF782EB62EC42ED22E902EAB
:1045E000AE2C8091D104882349F0FF2410E030E004
:1045F00050E070E0872D90E00E947374DB1418F493
:104600008D2DDB2CB82EC71418F48C2DC72C782ECA
:104610002FE9291508F430C34C2D403A08F04FE932
:10462000692D70E0842F90E087199109860F971FFC
:10463000803A910528F04156481B471508F41CC3E1
:10464000292D269526952695922FA22FBB27A7FDCB
:10465000B095BA83A983F7E06F2E6920872D877004
:10466000681AB4E0B61524F4E8EF6E0E9F5F09C037
:10467000222339F0FCEF6F1624F438E0630E922FFA
:104680009150D3945D2D5B195C83DA94BA1428F0B1
:10469000BB82EA2C81E08D8391C2EA2CEA94AC8142
:1046A000EA0EDB82BFEFBD8389C2282F30E087FF8F
:1046B0001DC085FDBCC020E030E00DC0842F90E01F
:1046C000AA85BB85A80FB91FAE53BA4F8E539A4F18
:1046D000FC0180818C93122F442D421B2F5F3F4F92
:1046E0008C859D852817390749F7A2C0C9018370B9
:1046F0009070892BE9F125FD9AC021FD0AC05091E7
:104700009005472D20E030E06E817F81685F7F4F0C
:1047100026C0E0FEF4CF509190055095472D20E043
:1047200030E06E817F81685F7F4F08C0AA85BB85BE
:10473000A10FB11DAE53BA4F5C93485F122F2F5F8C
:104740003F4F842F90E06817790784F771C0AA85DE
:10475000BB85A10FB11DAE53BA4F5C93485F122FBA
:104760002F5F3F4F842F90E06817790784F760C070
:1047700000EA9B81909F80011124070D111DE3E049
:1047800016950795EA95E1F78091690590916A057C
:10479000080F191FA2984698FF24FA94F1B8602FC9
:1047A0008AE00E94271F012F1127602F8BE00E94B3
:1047B000271F0E941A1F479A8DE082B9459A000070
:1047C000000000004598F2B811B8469A0E940D1FEB
:1047D0004798459A0000000000004598072D1C8E60
:1047E0001B8E12C0479A0E940D1F4798459A0000E1
:1047F0000000000080B1AA85BB85A10FB11DAE539A
:10480000BA4F8C934598085F1B8DAB8DBC8D11966C
:10481000BC8FAB8F802F90E0E885F985E817F9070A
:104820000CF7A29A8FEF82B911B8469A01C010E036
:10483000A091EA056A2FA5FD41C0462D16148CF003
:104840001FC05B2FF9010AC09181990F918380816C
:1048500087FF02C0916091835150319757FFF4CF89
:104860000CC0B12FB1502B2F332727FD30958981F4
:104870009A81280F391F2F533A4F415010F71EC00D
:10488000662099F41BC0ED8DFE8D908196959083E6
:10489000818180FF02C0906890832F5F8D8D9E8DF7
:1048A00001969E8F8D8F211771F74F5F413031F048
:1048B000EE85FF85FE8FED8F20E0F5CF61FF03C011
:1048C0008A2F8F7D05C0862F817821F08A2F806204
:1048D0000E94367C852C288939894A895B8924176E
:1048E000350709F04AC0A88DB98D1C91F10180816E
:1048F000182B8091EA05282F30E0C9018C71907047
:10490000892B49F46E2D892D0E94DB1F8123109580
:10491000D6019C9109C022FF0AC06E2D892D0E94EC
:10492000DB1F1095F60190811923182B19C023FF66
:104930000CC06E2D892D0E94DB1F912F9095D60102
:104940002C919223192B18230BC024FF09C06E2D24
:10495000892D0E94DB1F1095F601908119231827DD
:104960008091EA0586FF03C0D6011C9321C1412F27
:104970006E2D892D0E949C1F1BC1EC89FD89EF2B98
:1049800011F4F92C3BC06E2D892D0E94DB1F482F9E
:104990008091EA05682F70E0CB018C719070892BB3
:1049A00021F4D1018C91482304C062FF08C0D101D9
:1049B0008C918095F60190818923482B15C063FF67
:1049C0000AC0D1018C91982F9095F60120819223F5
:1049D000982B492309C064FF07C0D1018C918095B1
:1049E000F60190818923482766FF03C0D6014C93C6
:1049F00004C06E2D892D0E949C1FFA8CEE89FF89C0
:104A0000379709F445C06E2D852D0E94DB1F482F76
:104A10008091EA05682F70E0CB018C719070892B32
:104A200029F4A88DB98D8C91482305C062FF09C077
:104A3000A88DB98D8C918095F50190818923482BA3
:104A400017C063FF0BC0A88DB98D8C91982F9095DE
:104A5000F50120819223982B49230AC064FF08C0E6
:104A6000A88DB98D8C918095F50190818923482777
:104A700066FF03C0D5014C9304C06E2D852D0E94A6
:104A80009C1F68EF862E8520BFE9B81508F490C0FA
:104A9000F81408F08DC08091EA05282F30E0C90194
:104AA0008C719070892B09F045C026FD81C000EA09
:104AB000E09E800111240F0D111D53E016950795FE
:104AC0005A95E1F78091690590916A05080F191FC1
:104AD000A29846988FEF81B9602F8AE00E94271F25
:104AE000012F1127602F8BE00E94271F0E941A1FA1
:104AF000479A8CE082B9459A000000000000459872
:104B00000E941A1FEF2DE695E695E695F0E0EE532C
:104B1000FA4F808182B9459A000000000000459854
:104B2000E8E0FE0EF81460F3A29A8FEF82B911B894
:104B3000469A3EC06E2D8F2D0E94DB1F482F80911C
:104B4000EA05282F82FF0AC0EF2DE695E695E69547
:104B5000F0E0EE53FA4F8081482B17C083FF0AC064
:104B6000EF2DE695E695E695F0E0EE53FA4F80815D
:104B700048230BC084FF09C0EF2DE695E695E69526
:104B8000F0E0EE53FA4F8081482726FF09C0EF2D51
:104B9000E695E695E695F0E0EE53FA4F408304C0C3
:104BA0006E2D8F2D0E949C1FF8E0FF0EF81410F25E
:104BB0002B813D81230F2B83E30E53C0A42FB0E044
:104BC000BF83AE831196B987A887E92FFF27E7FD3A
:104BD000F095FB87EA87CD0133E0959587953A9567
:104BE000E1F7482E4394842D90E04A9401969D87E6
:104BF0008C87A981BA81AE53BA4FBF87AE87592C33
:104C00005718540E852D90E0FB01E87FF98BE88B57
:104C1000AC01487F5B8B4A8B677070707D8B6C8BAF
:104C2000877090709F8B8E8B852D86958695869547
:104C3000A82EBB2482EC95E0A80EB91EAE89BF89D0
:104C4000A25DBC4FB98FA88FB92DB87FB85FBA8F5E
:104C5000C22EDD24C80ED91E1B01E6E2F3E02E0EA3
:104C60003F1EFC81F150FC838091EA05FF3F09F073
:104C70001CCD8F7D0E94367C6E960FB6F894DEBFF9
:104C80000FBECDBFDF91CF911F910F91FF90EF909D
:104C9000DF90CF90BF90AF909F908F907F906F905C
:104CA0005F904F903F902F900895AF92BF92CF9218
:104CB000DF92EF92FF920F931F93C82EF62EB42E21
:104CC000D22EA090D104AA2031F030E050E070E064
:104CD00090E00E945A7880917C058823F9F4109224
:104CE000D104DF1418F48D2DDF2CF82EBC1418F429
:104CF0008B2DBC2CC82E1091EA05812F81600E945B
:104D0000367CEF2C0C2D2D2D4B2D6F2D8C2D0E94D4
:104D1000D122812F0E94367CA092D1041F910F9145
:104D2000FF90EF90DF90CF90BF90AF900895CF921B
:104D3000DF92EF92FF920F931F93E82ED42EC22E94
:104D4000F02E0111FA940F2D060F202F4D2D8E2DD0
:104D50000E9455261C2D1F192C2D4D2D612F8E2D97
:104D60000E9455264F2D4E0D212F602F8E2D0E9413
:104D700055264D2D4F19212F602F8D2D0E94552620
:104D80001F910F91FF90EF90DF90CF900895BF9209
:104D9000CF92DF92EF92FF920F931F93C82EF62EC1
:104DA000D42E461710F4D62EF42EB090D104BB208A
:104DB00041F04C2D50E06D2D70E08F2D90E00E9461
:104DC000807980917C058823A9F41092D1041091F8
:104DD000EA05812F81600E94367CEC2C0F2D2C2D52
:104DE0004D2D6C2D8F2D0E94D122812F0E94367C5B
:104DF000B092D1041F910F91FF90EF90DF90CF9070
:104E0000BF9008956F927F928F929F92AF92BF92C0
:104E1000CF92DF92EF92FF920F931F93CF93DF9386
:104E2000962ED42E3901082F10E078010894E11C49
:104E3000F11CE80121970E94DB1F07701070025ED1
:104E40001C4FF8019081982319F00FEF10E002C079
:104E500000E010E0CD2CDD240C151D0509F04BC041
:104E600080914603C81BD109D7FF03C0C0E0D0E042
:104E700014C0692D8C2F0E94DB1FFE01E770F070BB
:104E8000E25EFC4F9081982319F08FEF90E002C012
:104E900080E090E08017910719F380914603A82ED7
:104EA000BB2480914603E80EF11CF1EAEF16F104F1
:104EB00024F0A0EAEA2EF12C14C0692D8E2D0E9458
:104EC000DB1FF701E770F070E25EFC4F90819823E2
:104ED00019F08FEF90E002C080E090E0801791071A
:104EE00001F3CA0DDB1D80914603E81AF10803C0E7
:104EF0002197D7FD1CC0692D8C2F0E94DB1FFE015E
:104F0000E770F070E25EFC4F9081982319F08FEF0C
:104F100090E002C080E090E08C159D0549F707C045
:104F20000894E11CF11C81EAE816F104A4F4692D4F
:104F30008E2D0E94DB1FF701E770F070E25EFC4FE0
:104F40009081982319F08FEF90E002C080E090E00C
:104F50008C159D0529F7219687010150104073019A
:104F6000E90CF11C862C03C0E60CF71C980CA02E53
:104F7000402F6C2F892D0E94C726E0E5EE16F10424
:104F800018F080E090E096C0BE2C6E2D8C2F0E9411
:104F9000DB1FFE01E770F070E25EFC4F908198230A
:104FA00019F08FEF90E002C080E090E08C159D0535
:104FB000C9F02197D7FD14C06B2D8C2F0E94DB1FE9
:104FC000FE01E770F070E25EFC4F9081982319F0CB
:104FD0008FEF90E002C080E090E08C159D0549F7CE
:104FE000219618C02196C017D107A4F46B2D8C2FE1
:104FF0000E94DB1FFE01E770F070E25EFC4F9081C3
:10500000982319F08FEF90E002C080E090E08C15BB
:105010009D0541F36B2D8A2D0E94DB1FF801E7707F
:10502000F070E25EFC4F9081982319F08FEF90E0D2
:1050300002C080E090E08C159D05D9F4015010402D
:105040000C171D078CF16B2D802F0E94DB1FF801C0
:10505000E770F070E25EFC4F9081982319F08FEFBB
:1050600090E002C080E090E08C159D0509F07CCFB7
:10507000E5CF0F5F1F4F003A1105A4F46B2D802F71
:105080000E94DB1FF801E770F070E25EFC4F908138
:10509000982319F08FEF90E002C080E090E08C152B
:1050A0009D0539F7015010400C171D070CF05CCF1F
:1050B00081E090E0DF91CF911F910F91FF90EF90F1
:1050C000DF90CF90BF90AF909F908F907F906F9028
:1050D0000895EF92FF920F931F93082F162FF42E2F
:1050E000E090D104EE2041F00E941A7480917C057A
:1050F000882369F51092D104612F802F0E94DB1F55
:10510000E02FF0E0E770F070E25EFC4F90819823B2
:1051100019F02FEF30E002C020E030E08F2D90E05A
:105120002817390719F480E090E013C02FEF3FEF04
:105130004F2D612F802F0E9402271F5F21E030E05A
:105140004F2D612F802F0E940227E092D10481E031
:1051500090E01F910F91FF90EF900895EF92FF92D2
:105160000F931F93F82E8091D104882321F08F2D67
:1051700090E00E94F8721091EA0580E00E94367C6F
:10518000EE2400E02FE44FE96F2D80E00E94D12251
:1051900081E00E94367C0E94C52260E56F19E62EF0
:1051A0002FE44FE980E00E94D1220E94C522812F86
:1051B0000E94367C1F910F91FF90EF9008952F92DF
:1051C0003F924F925F926F927F928F929F92AF9297
:1051D000BF92CF92DF92EF92FF920F931F93CF93E4
:1051E000DF93CDB7DEB724970FB6F894DEBF0FBEBE
:1051F000CDBFC82ED62E142F2090D104222039F0F6
:10520000462F50E0682F70E0812F0E94DC7A1092C8
:10521000D10480919105882331F0412F6D2D8C2D83
:105220000E94691F49C12C2D30E03A832983C901AE
:1052300087709070892B61F480917205823040F400
:105240008091EA058E7121F480912A0580FF0FC0BC
:10525000812F90E003E0880F991F0A95E1F79C8366
:105260008B836624772417E0412E512C31C0E12E28
:10527000FF24B3E0EE0CFF1CBA95E1F700E010E06C
:105280006D2D600F80912A0581FF05C0E7E0F0E0F9
:10529000E01BF10B01C0F801EE0DFF1DE95FF84FB7
:1052A000449182FF05C0E42FF0E0E95FF94F44919B
:1052B0009091CE0480919005981708F040958C2D20
:1052C0000E949C1F0F5F1F4F08301105C9F6DFC0F9
:1052D00080912A0590E080FF2FC0BB2420E030E0C1
:1052E000BC0162707070AC01447050706115710542
:1052F00029F0E7E0F0E0E21BF30B01C0F9018B813C
:105300009C81E80FF91FE95FF84F94914115510511
:1053100011F0F20101C0F301E25EFC4F808198239D
:1053200029F0F901E25EFC4F8081B82A2F5F3F4FE0
:1053300028303105A9F0DACF81FF02C0F20101C0A7
:10534000F3012B813C81E20FF31FE95FF84FE491F9
:1053500082FD02C0BE2E04C0F0E0E95FF94FB490B8
:105360009091CE0480919005981708F0B09488240D
:10537000992469C0812F8B2109F48CC041155105F6
:1053800091F06115710511F4902F01C0932DA98141
:10539000BA81A20FB11DA770B070A25EBC4F8C91F4
:1053A000982309F477C0A22FA695A695A695B0E0FC
:1053B000AE53BA4FE22FF0E0E770F070E25EFC4FC0
:1053C00080819C91892B8C932F5F203A18F43F5F4A
:1053D0003A1580F2110F11F030E0FACF0894811CD9
:1053E000911C8E2D806A452BA9F00E94367C40913D
:1053F0007205440F440F440F4150EF2C0C2D20E058
:1054000060E080E00E94D1228091EA058F750E94C1
:10541000367C19C00E94367C20917205422F440FC1
:10542000440F440F4150EF2C0C2D215060E080E0E0
:105430000E94D1228091EA058F750E94367CD0901F
:105440007205DF0C19C0F82CFD0CA09072058A14AF
:1054500090F4E090EA054E2D50E0427050700091BB
:105460009005302E30942C2D30E011E06F2D70E03F
:1054700061707070ADCFDF2C0894611C711C0894B2
:105480004108510838E06316710409F021CF2092D9
:10549000D10412C0A22FA695A695A695B0E0AE5352
:1054A000BA4FE22FF0E0E770F070E25EFC4F8081CF
:1054B00080959C91892387CF24960FB6F894DEBF00
:1054C0000FBECDBFDF91CF911F910F91FF90EF9055
:1054D000DF90CF90BF90AF909F908F907F906F9014
:1054E0005F904F903F902F9008950F931F93CF930D
:1054F000DF93082F162FEA012BC0612F802F0E9407
:10550000DF2880912A0590E09C012071307083FF94
:1055100010C080917205232B29F0880F880F880F07
:10552000181B04C0880F880F880F180F103580F0E3
:1055300012C080917205232B29F0880F880F880FE5
:10554000081B04C0880F880F880F080F003A18F452
:105550004991442391F6DF91CF911F910F910895C6
:10556000EF92FF920F931F93CF93DF93082F162F85
:105570007A01C0E0D0E001C02196F701EC0FF11DE7
:105580004491442359F1612F802F0E94DF2880919C
:105590002A0590E09C012071307083FF10C080913B
:1055A0007205232B29F0880F880F880F181B04C061
:1055B000880F880F880F180F1035F0F20FC08091F8
:1055C0007205232B29F0880F880F880F081B04C051
:1055D000880F880F880F080F003A70F2DF91CF9183
:1055E0001F910F91FF90EF900895482F20913C0557
:1055F00030913D0520FF09C0873039F460ED77E038
:1056000088EC90E00E943D0D4FC021FF16C048304D
:10561000A1F440916D0580917205282F30E093E050
:10562000220F331F9A95E1F7842F90E0821793079A
:1056300054F0421B40936D0537C022FF07C04C3029
:1056400029F410928F0510926D052EC023FF05C01E
:105650004A3019F410926D050CC024FF02C04D3081
:1056600091F325FF02C04930A9F026FF0DC04B3051
:1056700059F480917205880F880F880F90918F05DB
:10568000890F80938F0510C060918F0580916D0503
:105690000E94DF2880917205880F880F880F9091F3
:1056A0006D05890F80936D0580917205482F50E03C
:1056B00083E0440F551F8A95E1F720916D0530E096
:1056C00080EA90E0841B950B821793073CF41092BC
:1056D0006D0580918F05840F80938F0560918F05F4
:1056E000262F30E080E590E0841B950B821793070E
:1056F0006CF480913C0587FF07C0641B60938F05A5
:10570000842F0E94AE2802C010928F0580E090E0A6
:105710000895FF920F931F93CF93DF93F82E8091FC
:10572000D104882319F08F2D0E94877380917C0506
:10573000882391F50091690510916A05A298469811
:105740008FEF81B9602F8AE00E94271F012F112758
:10575000602F8BE00E94271F0E941A1F479A8CE03F
:1057600082B9459A00000000000045984798C0E4BF
:10577000D6E008C00E941A1FF2B8459A0000000047
:105780000000459821978FEFCF3FD80799F7A29A4D
:105790008FEF82B911B8469ADF91CF911F910F9187
:1057A000FF90089560E080E00E94B6228091CE04D0
:1057B0000E94892B08950F931F93182F062F803A6C
:1057C00008F064C0603508F061C08091D10488237E
:1057D00029F070E0812F90E00E94877A80919105F6
:1057E000882339F040919005602F812F0E94691F16
:1057F0004DC0602F812F0E94DB1F482F8091EA054A
:10580000282F30E0C9018C719070892B39F1E12F7C
:10581000F0E0E770F070E25EFC4FE081842F8E23B1
:1058200023FF03C08823B9F004C022FF07C08823E8
:1058300081F480919005882361F40DC024FF22C07B
:1058400090919005882319F0992319F004C09923A9
:1058500011F04E2B17C0E0954E2314C08091900597
:10586000E12FF0E0882339F0E770F070E25EFC4F42
:105870008081482B07C0E770F070E25EFC4F8081AA
:1058800080954823602F812F0E949C1F1F910F91AC
:1058900008952F923F924F925F926F927F928F92D4
:1058A0009F92AF92BF92CF92DF92EF92FF920F93AF
:1058B0001F93CF93DF93CDB7DEB760970FB6F89401
:1058C000DEBF0FBECDBF8D876E87E42E69012091AC
:1058D000D1042983222369F050E070E0960190E022
:1058E0000E94757680917C05882309F032C1109260
:1058F000D104FF2400E010E0B601882777FD8095F1
:10590000982FA80197010E942D915B016C01C8019D
:10591000B7010E942D91DC01CB01880F991FAA1FAE
:10592000BB1F8E839F83A887B987A601950104E0DA
:1059300055954795379527950A95D1F7CA01B9012D
:105940000E942D91DC01CB0117E0B595A7959795A5
:1059500087951A95D1F78A839B83AC83BD8380E4B6
:1059600090E0A0E0B0E0A80EB91ECA1EDB1EA7E0C2
:10597000D594C794B794A794AA95D1F7D601C50139
:10598000B595A79597958795EE85E80FEC873D85AA
:10599000232F30E0220F331F3B872A879E85892FD4
:1059A00090E0880F991F988B8F87EE80FF80088585
:1059B000198516950795F794E794C601B501A801D6
:1059C00097010E942D91222433242101261A370A9F
:1059D000480A590A6A807B808C809D8096948794BF
:1059E0007794679464015301AE18BF08C00AD10AC6
:1059F000AA0CBB1CCC1CDD1C16950795F794E794EC
:105A0000AE0CBF1CC01ED11E0A85AD850A1B1A2F05
:105A100044C08091EA0590E083709070EF84BC856B
:105A2000EB1A892B59F0412F602F8B2F0E94C7262C
:105A3000412F602F8E2D0E94C72610C06C85812FAC
:105A40000E94DB2B6E2D812F0E94DB2B6C85802F1B
:105A50000E94DB2B6E2D802F0E94DB2B8A819B8185
:105A6000AC81BD81680E791E8A1E9B1EA60CB71CD8
:105A7000C81CD91CD7FC0FC08E819F81A885B98511
:105A8000280E391E4A1E5B1EA20CB31CC41CD51C5A
:105A90009C8591509C871F5F0150D201C101860DEA
:105AA000971DA81DB91DB7FDB4CF0F85AC850A1B86
:105AB00048C08091EA0590E083709070EA84E11A12
:105AC000892B59F0412F6E2D8C850E94C726412FBE
:105AD0006E2D802F0E94C72610C06C85812F0E94DA
