:100000000C94F7110C9418120C9418120C941812EA
:100010000C9418120C9418120C9418120C941812B8
:100020000C9418120C9418120C9418120C941812A8
:100030000C9418120C9418120C9418120C94181298
:100040000C9418120C9418120C9418120C94181288
:100050000C9418120C9492140C9418120C941812FC
:100060000C9418120C944C710C9418120C94CC6BC8
:100070000C9418120C9418120C9418120C94181258
:100080000C9418120C9418120C9418120C94181248
:100090000C94A46E0C9418120C943B6C0C941812D3
:1000A0000C9418120C9418120C9418120C94181228
:1000B0000C9418120C9418120C9418120C94181218
:1000C0000C9418120C9418120C94181205A84CCD0C
:1000D000B2D44EB93836A9020C50B9918688083C82
:1000E000A6AAAA2ABE000000803F001F1D1F1E1FD7
:1000F0001E1F1F1E1F1E1F2564206D736563732F37
:100100006872002B2F2D206D736563732F6872202A
:100110000025642563256425632564004441544516
:100120003A204D4D2F44442F59593F0054494D45D5
:100130003A2048483A4D4D3A53533F005800204129
:10014000444A5553542000253032642F2530326400
:100150002F2530326400253032643A253032643A3B
:1001600025303264005365742054696D65204D65F7
:100170006E7500000302050003050104060204FF7A
:100180000190D0E1E6018697D7E62224B5C44A0162
:1001900090C301E1E6018697D7E602A0B1C0E20371
:1001A000E304B7E405A705959706E610D0E11091A2
:1001B00020A1B0C123D0D126A730B336B740C14665
:1001C000C7E555E555DF0190C301B401C1C3018303
:1001D000A5C302A4C202C203B0C103C31094C111DB
:1001E000B313B114B421A630BC03B6E303B0E303E8
:1001F000E312C512D2D41294C1C513B5D313B1D32F
:1002000014D421D421C121A5D222C424C225C530B1
:10021000BE03C703D3D40384B704B104D411A0B17F
:1002200011C411C113B51395B314C115C517D31754
:10023000C720B0C120A7D421B0B721D422B223C592
:1002400025C3C526BE03C703B0E3E503E30385C1A9
:10025000C504B1E404E412C512D2D4129413B5D388
:1002600021E521C121A5D222C424C225C527E32727
:10027000C730BF23B4C3C423B2C323C323A4B3C4AE
:1002800024B5C424C432BD00E0E70087E7019092A2
:1002900001E102A0A1029203B0E304B7E405A705BF
:1002A0009597069706E626A730B136B740E240C1DB
:1002B00046C7E550E150D2E255E555D7EE03A1C15E
:1002C000E3E40384A6C6EC00E0E70087E723B4C3B9
:1002D000C423B2C323C323A4B3C424B5C424C432E7
:1002E000BD0493B3C4C6048697B7C633E0E240E8C2
:1002F00011A0C0D1D31193A4C4D316D634BF069590
:10030000A5068797A620E0E220A622EA0594A40588
:100310008696A520E0E620A522E246D5E546C7D789
:10032000EE00A20393B5D3E306A413B1D330B135E5
:10033000B642E044EE00B30086B301A301919502FA
:10034000A402A2A403B304A204A405A3059D23D67A
:1003500023D0D623D332D432D232B4D233D533D110
:1003600034D441D141C5DD12B0D215B7D530BF105C
:10037000941650D45E0190E0E6018293B330BE063D
:1003800097B7C611A2B2C3C411A0C0D113A21394CF
:10039000A5B5C635CC14B6D4D614D41496B4D61597
:1003A000A6C4D515A4C6D515D516D624A634B644EC
:1003B000CE12B0D214B6D417D730BE12B0D230BEDF
:1003C00014B6D430BE03D331D335DB03A503A10368
:1003D000DB0285DD03A503A103E341E345EB04B1A3
:1003E000E404E413D3D41394B2D422C422C2C422AA
:1003F000A4C231BC02B5E202E212B4D2D31293D34A
:1004000022C422A4C2C424C432BDFF11A0B1B311BE
:10041000B311B11193A4B312B213B113B320A42E2C
:10042000109240CA02D204D4109640CE0293B3C4B4
:100430000291C105B5C420A125AE0191920182921D
:1004400006D145D5D645C6DE04A2B2D4E3048596CE
:10045000C6D5E611A211A0B0C132C154DD0291107F
:100460009912B01294BE10B2B416BC03E311D515A4
:10047000D130BE03C321AD17A625AE03CB25AE05F3
:10048000D80190C0D1D5018596C6D505D911A0A6B1
:1004900016BE0190B0C1C205A3B3C20586CE0190BD
:1004A000B0C1C20596B6C523B3C4C533CA03B0C034
:1004B000C60384DC00C00082B2C3C50596B6CD0277
:1004C000A0B0028596B6C503B3C4CD00C0C20081FA
:1004D00024C224AE0190B0C1C2018293B3C4C5044A
:1004E00093048596B6C533CA0190B0C1C401829306
:1004F000C316A6CC21A225AE17A621A225AE03B60F
:1005000003B802C205CD10C316CB0190B0C1C224FE
:10051000C224A52F0190C0D1D4018596B632B4DC97
:1005200002A0C2C6028604CC00B0C1C20086B6C515
:1005300003B3C4C533CA02A0C0D10284A6C6DD007D
:10054000A0C2C40086A6CC10D01096D613BB10D083
:10055000109613BB02A0C0D10284A6D644D4DE00FC
:100560008603C340CE10B016B620AE048596B6C53D
:1005700030D040CD008603A3C5C623C140C9109624
:10058000DE00B3E0E6008633BC00D5008650DE0214
:10059000A0B0D2D40284A6B6DC10C0D1D21096137B
:1005A000C3DA0190B0C1C5018596B6C524DF10C07D
:1005B000D1D2109613C3D233D5DE0190B0C10182DF
:1005C00093B3C4C50596B6CD00C020AE008596B6DF
:1005D000C540CD0084A6C440CC0086B3E632B360EB
:1005E000EE0081D606D150D90082A4C216B624A648
:1005F00040CA10D0D115D11596DE10B01096BE00AD
:10060000EE10B0B616BE03B0EB07EF20A1BA059608
:10061000B6C5D60594C412B2C3CD0695A6C6D510EC
:100620009513C3D4DD0392B2C3038596B6CD04936C
:10063000C3048596B6C5D640CD0392B2C3C4038524
:1006400096B604CC03A306A611A0B0C1119E0392D6
:10065000B2C3D2038495C507B7C643CE109614B271
:10066000C2D3DE12A2A616B628058697B7C64042A8
:10067000CE109614B4D634DA10A0A616BE028604A4
:10068000A2B3C2D3D633BD028604A2B2C3CE0392B4
:10069000B2C3C5038596B6CD0293A2C2D3D407A731
:1006A000139715C5DC0392B2C3D2038495C537D71F
:1006B00043CF0293A2B2C306A6139E0394B4C5030C
:1006C00092C206B6CD12C220A5B6CD028596B6C599
:1006D000D642CD0284A6C442CC028596B4D6E53378
:1006E000B462ED02A4B4D606A434DA028495C50738
:1006F000B7C642CE02C206C206CE0393A4A5B6C6B2
:1007000013A221B0C021AA30B234BE0090A1A2B37E
:10071000C30696A524B324AD0190A0B1C1D804B1FD
:10072000E4E60486EE0190C0D1018394C4D327C7C8
:10073000D634DE01038596B6C5D64143CD0392B2C9
:10074000C3C4038596B604C430C80190D0E115A691
:10075000C6D5E615A4D422C2D3DD0596B6C5D60506
:1007600094C41012B2C3C54800900596B6C5D6050C
:1007700094C412B2C3CD0596B6C5D60594C412B2C0
:10078000C3C520B0B120A1B90392C2D3038495C5DB
:100790000797BD0190D0E113A2C2D3D41395A6C68A
:1007A00014DC000392B2C3C4038596B604C44800A7
:1007B000A00392B2C3C4038596B604CC0012A2A6CD
:1007C00016B6480190C0D122B2B626CE00A012A221
:1007D000A616BE0003A1C3C6038604C4480493B38F
:1007E000C4C6048605C520B0B120A1B912C21296B4
:1007F000C614B420C815A4E41596E622E242CE023F
:10080000A0E0028603D330B6EE0190B0C10493B3EA
:10081000C4C5048596B6CD010493B3C4C5048596BA
:10082000B6C54901A10493B3C4C5048596B6CD01EC
:1008300090B0C1038596B6C5D643CD01A103859678
:10084000B6C5D643CD01038495C507B7C64143CE8F
:100850000013B1D3D41394B6D46800028596B6C5FC
:100860004042CD0392D2038495D530BF03A306C680
:10087000D511A0B0C1C2119E0081A3C104C406C697
:100880001223A73240C900B0C1C2008703B3C254CB
:10089000F463E6F7FF0697A7B623C331C0D0E13172
:1008A000BE0596B6C5D60594C412B2C3C520C812FB
:1008B000A2A616B620C80493B3C4C5048596B6C5CF
:1008C00021C9038596B6C5D621C143CD0190A0B1FB
:1008D000C1D003860493B3C4CE00C002C6028642D0
:1008E000CE11A0C0C31192A3D315DD11A0B0C1C217
:1008F0001192A3B3C215CD15A6C6D515B33032BB20
:1009000003C3038D03C3CD008205D034C3D3E446B3
:10091000E446C7EF008205D044E2E744C5ED13A2E8
:10092000B3B513B513B31395A6B514B415B315B574
:100930002022AE03A503A143E543E901A305A3419A
:10094000E345EB0103050720222426414345476088
:1009500062646E01E7F60190F603C7F403B0F40594
:10096000A7F205D0F207F80191A2B2C3D3E4F403D1
:1009700093A4B4C5D5E6F60595A6B6C7D7E60797FE
:10098000A611A0B0C1D1E2F213A215A432C134C3A2
:1009900036C551E0F053E255EC30BF04B430BF022D
:1009A000B204B430BF04B430B760EF04E4E734BF3E
:1009B00002B2B704BC02B204B4B730B260EF30B7D1
:1009C00060EF02E2E704B4BF02B204E430B260ECCC
:1009D00004E430B460EC02B204B430BC04B4BF3000
:1009E000B4FC04F430BC04F434BF30B734FC04FC71
:1009F00004F430BF30B732F234FC30B760E764FC47
:100A000030B4F460E2FA32F232B764F464EF02B266
:100A100004F430B260E2FA02F204B4B764F464EFB2
:100A200030B760E2F264F464EF02F204FC02B20454
:100A3000B4B730B260E2F264F464EF02F204F4405E
:100A4000CA04F430B460EC02F204F434BF04F434A9
:100A5000B764EF30B4F460EC30B4F432FA32F2320E
:100A6000B734FC34F434B764EF04F430B760EF0209
:100A7000F204F430BF04B430BC34F434BF00F0F7F7
:100A80000087F701F102F203F304F405F506F6100E
:100A90009720A730B740C750D760EF04F4F704871A
:100AA000F705F506F6149724A734B744C754D7645E
:100AB000EF00B0B70087B701B102B203B304B405C9
:100AC000B506B6109720AF40F0F740C7F741F142A6
:100AD000F243F344F445F546F650D760EF00F0F3E7
:100AE0000083F301F102F2109320A330B340C3500E
:100AF000D360EB0392A2B3C3D2038596A6B5C5D645
:100B000033BD0291B1C2028703B3C405B5C433CA71
:100B100001C1C2018E02D2129642CE00C0C1008134
:100B2000A305A30586C645CE0392D2038596A6B536
:100B300032BD07A5C5D41194A551DC0291A1B2D252
:100B4000E132BE0392B2C3C4038495B5C410B0179A
:100B5000B720AF02A0B0D2D40284A6B6D403DB0281
:100B6000A0B0D2D302839496069644D344C6DE0442
:100B700093C3048596B6C531C2C531C0D80392A2CD
:100B8000B3C2D2E3E4038495A5B4C5D5E433BC0273
:100B900091D1E2E4028495D5E406E802A0B0028493
:100BA000A6B603BB0190B0C1C6018E11D113D315F7
:100BB000DD12D216D630BC06C610B214BA06C61262
:100BC000B412B831C0D0E1E231BF058697A7B63084
:100BD000BE13D330B135BE0291A1B2C2D10594A4E7
:100BE000B5C5DC11A0B0C1C21192A3B3CA33BC3CDD
:100BF00015B7C740E040CF0091A0B0C1C4119C011F
:100C000090A0B104B104BC22C422C2C522A5C32352
:100C1000C523C324C224C425C532BD01D1D6018653
:100C2000DE7F0180018F01C601E9011102450273D7
:100C3000028702BD02C702E102F002FE020C03219C
:100C40000335034E0367036F0375037F039503B1F9
:100C500003BB03C003C503CB03D103D403DE03F4FA
:100C6000030A040B04200424042C043A0448045D01
:100C700004610466046B04730477047B047D047FC1
:100C80000481048D0492049E04AD04B404BF04CB1B
:100C900004D404E804F404F804FE04020506050A7A
:100CA0000514052005280536053F0547054E055462
:100CB000055F0565056B0574057E05810589058F52
:100CC000059905A205AE05BA05C805CC05D305D919
:100CD00005E105E805F205FA05FF05010606060926
:100CE000060B060E061A0625062E06390644064E83
:100CF000065C0663066906710678067D0687068E21
:100D0000069806A506B206BB06C506CB06D306D9CD
:100D100006E306EB06F406FA0607070B0718071E9C
:100D200007250733073D074A075A076807760788EC
:100D3000079307A207AF07BC07C307CC07D307DD9C
:100D400007EC07F507FF070908170823082F083BDA
:100D500008450850085A0863086C08780886089502
:100D600008A108AF08B608C208CC08D908E108EB0A
:100D700008F70800090409070914091E0933093B8B
:100D80000943095309670999099B099F09A509ABFB
:100D900009B009B509BE09C209C809D009D609DCDC
:100DA00009DF09E209E609EA09EE09F009F409FA9E
:100DB00009000A060A0E0A170A200A290A2D0A3B08
:100DC0000A410A470A4D0A530A580A5D0A630A692A
:100DD0000A6F0A750A790A7D0A9B0AB10AC70ADDF9
:100DE0000AF30A020B100B150B1B0B280B320B3BE3
:100DF0000B430B530B5F0B6F0B7D0B8F0B9B0BA4EC
:100E00000BAB0BB10BB70BBD0BC30BCA0BD10BD785
:100E10000BE30BED0BEF0BF00BF70BFF0B070C1BB2
:100E20000C3630256400414243444546474849005A
:100E30005B5D7C5C3A3B272C2E3F2F0A0030313221
:100E40003334353637383930202140232425255E88
:100E5000262A28295F2B2D3D0A004142434445465E
:100E60004748494A4B4C4D4E4F505152535455569A
:100E70005758595A0A004C43442055415254312086
:100E800044656D6F20230052454345495645442033
:100E90004348415220313A004C434420554152547A
:100EA000302044656D6F2023005245434549564527
:100EB000442043484152203A006F75746772616262
:100EC00062652E2020202020202020202000616E1E
:100ED0006420746865206D6F6D652072617468733D
:100EE000202000776572652074686520626F726FDC
:100EF000676F7665732C2000746865207761626582
:100F00003A2020416C6C206D696D737900677972AD
:100F10006520616E642067696D626C6520696E2072
:100F2000200074686520736C6974687920746F762A
:100F30006573206469640027547761732062726965
:100F40006C6C69672C20616E642020002D2D2D2D86
:100F50002D2D2D2D2D2D2D2D2D2D2D2D2D2D2D2DC1
:100F6000007C202020202041434854554E4721201A
:100F7000202020207C002D2D2D2D2D2D2D2D2D2DB3
:100F80002D2D2D2D2D2D2D2D2D2D002D44414E4758
:100F900045522D2D00524F42494E534F4E2D002D9C
:100FA0002D57494C4C2D2D2D002D44414E47455277
:100FB0002D2D002D002D002D002D00427562626C3C
:100FC0006520486561646564204E696E6E79210014
:100FD0004A004A004A004A00257300253032643A2C
:100FE000253032643A2530326400257300257300C1
:100FF000257300256420257320253032640000808D
:1010000040C020A060E0109050D030B070F0088850
:1010100048C828A868E8189858D838B878F80484D8
:1010200044C424A464E4149454D434B474F40C8CF0
:101030004CCC2CAC6CEC1C9C5CDC3CBC7CFC028284
:1010400042C222A262E2129252D232B272F20A8AF0
:101050004ACA2AAA6AEA1A9A5ADA3ABA7AFA068678
:1010600046C626A666E6169656D636B676F60E8E90
:101070004ECE2EAE6EEE1E9E5EDE3EBE7EFE01812A
:1010800041C121A161E1119151D131B171F10989C0
:1010900049C929A969E9199959D939B979F9058548
:1010A00045C525A565E5159555D535B575F50D8D60
:1010B0004DCD2DAD6DED1D9D5DDD3DBD7DFD0383F4
:1010C00043C323A363E3139353D333B373F30B8B60
:1010D0004BCB2BAB6BEB1B9B5BDB3BBB7BFB0787E8
:1010E00047C727A767E7179757D737B777F70F8F00
:1010F0004FCF2FAF6FEF1F9F5FDF3FBF7FFF00001E
:101100000000000000007E81A581BD99817E7EFFE8
:10111000DBFFC3E7FF7E367F7F7F3E1C0800081C95
:101120003E7F3E1C08001C3E1C7F7F3E1C3E080884
:101130001C3E7F3E1C3E0000183C3C180000FFFF98
:10114000E7C3C3E7FFFF003C664242663C00FFC3C3
:1011500099BDBD99C3FFF0E0F0BE3333331E3C664A
:1011600066663C187E18FCCCFC0C0C0E0F07FEC605
:10117000FEC6C6E66703995A3CE7E73C5A99010761
:101180001F7F1F07010040707C7F7C704000183C6F
:101190007E18187E3C186666666666006600FEDB92
:1011A000DBDED8D8D8007CC61C36361C331E0000C7
:1011B00000007E7E7E00183C7E187E3C18FF183CA6
:1011C0007E1818181800181818187E3C18000018F7
:1011D000307F30180000000C067F060C0000000075
:1011E0000303037F0000002466FF6624000000184C
:1011F0003C7EFFFF000000FFFF7E3C180000000067
:101200000000000000000C1E1E1E0C000C003636F4
:1012100036000000000036367F367F3636000C3E42
:10122000031E301F0C00006333180C6663001C366D
:101230001C6E3B336E000606030000000000180C15
:101240000606060C1800060C1818180C0600006696
:101250003CFF3C660000000C0C3F0C0C0000000042
:101260000000000C0C060000003F00000000000021
:101270000000000C0C006030180C060301003E63F7
:10128000737B6F673E000C0E0C0C0C0C3F001E3382
:10129000301C06333F001E33301C30331E00383CF8
:1012A00036337F3078003F031F3030331E001C067A
:1012B000031F33331E003F3330180C0C0C001E3359
:1012C000331E33331E001E33333E30180E00000C25
:1012D0000C00000C0C00000C0C00000C0C06180C90
:1012E0000603060C180000003F00003F0000060C3B
:1012F0001830180C06001E3330180C000C003E632A
:101300007B7B7B031E000C1E33333F3333003F6671
:10131000663E66663F003C66030303663C001F367C
:10132000666666361F007E06061E06067E007E0680
:10133000061E060606003C66030373667C00333314
:10134000333F333333001E0C0C0C0C0C1E00783072
:10135000303033331E006766361E36666700060679
:10136000060606067E0063777F7F6B636300636714
:101370006F7B736363001C36636363361C003F66D8
:10138000663E06060F001E3333333B1E38003F66B1
:10139000663E366667001E33070E38331E003F0C6C
:1013A0000C0C0C0C0C003333333333333F0033332A
:1013B0003333331E0C006363636B7F7763006363B7
:1013C000361C1C3663003333331E0C0C1E007F604A
:1013D00030180C067F001E06060606061E000306D1
:1013E0000C18306040001E18181818181E00081C31
:1013F00036630000000000000000000000FF0C0C3D
:1014000018000000000000001E303E336E0007068A
:10141000063E66663B0000001E3303331E00383074
:10142000303E33336E0000001E333F031E001C3677
:10143000060F06060F0000006E33333E301F07060E
:10144000366E666667000C000E0C0C0C1E00300039
:1014500030303033331E070666361E3667000E0CFA
:101460000C0C0C0C1E000000337F7F6B630000002F
:101470001F333333330000001E3333331E000000AC
:101480003B66663E060F00006E33333E3078000048
:101490003B6E66060F0000003E031E301F00080C66
:1014A0003E0C0C2C18000000333333336E00000068
:1014B0003333331E0C000000636B7F7F3600000067
:1014C00063361C36630000003333333E301F0000A8
:1014D0003F190C263F00380C0C070C0C380018186C
:1014E000180018181800070C0C380C0C07006E3B7D
:1014F00000000000000000081C3663637F003E63AC
:1015000003633E30603E0033003333336E003800F7
:101510001E333F031E007E813C607C66DC0033008E
:101520001E303E336E0007001E303E336E000C0C42
:101530001E303E336E0000003E63031E301C7E8171
:101540003C667E063C0033001E333F031E0007004E
:101550001E333F031E0033000E0C0C0C1E003E41D8
:101560001C1818183C0007000E0C0C0C1E00630819
:101570003E637F6363000C0C001E333F3300380072
:101580003F061E063F000000FE30FE33FE007C36A4
:10159000337F333373001E21001E33331E000033AC
:1015A000001E33331E000007001E33331E001E21B1
:1015B000003333336E000007003333336E000033E3
:1015C0000033333E301FC3183C66663C18003300BE
:1015D000333333331E0018187E03037E18181C366D
:1015E000260F06673F0033331E0C3F0C3F0C1F33A2
:1015F000335F63F363C370D8183C18181B0E3800B0
:101600001E303E336E001C000E0C0C0C1E00003809
:10161000001E33331E000038003333336E00001FCA
:10162000001D333333003F0033373F3B33003C363C
:10163000367C007E00001C36361C003E0000180080
:1016400018180C663C000000003F03030000000077
:10165000003F3030000063331B6CD64321F0C3637E
:1016600033DBECB6F3C0180018183C3C180000CC73
:10167000663366CC0000003366CC6633000044114C
:10168000441144114411AA55AA55AA55AA55DB6F15
:10169000DBF6DB7EEBB7181818181818181818188E
:1016A00018181F18181818181F181F1818186C6CFD
:1016B0006C6C6F6C6C6C000000007F6C6C6C0000DC
:1016C0001F181F1818186C6C6F606F6C6C6C6C6C4A
:1016D0006C6C6C6C6C6C00007F606F6C6C6C6C6C18
:1016E0006F607F0000006C6C6C6C7F00000018184D
:1016F0001F181F000000000000001F1818181818FD
:101700001818F800000018181818FF000000000052
:101710000000FF18181818181818F81818180000E2
:101720000000FF00000018181818FF1818181818E3
:10173000F818F81818186C6C6C6CEC6C6C6C6C6CA1
:10174000EC0CFC0000000000FC0CEC6C6C6C6C6C95
:10175000EF00FF0000000000FF00EF6C6C6C6C6C91
:10176000EC0CEC6C6C6C0000FF00FF0000006C6C7B
:10177000EF00EF6C6C6C1818FF00FF0000006C6C41
:101780006C6CFF0000000000FF00FF18181800003C
:101790000000FF6C6C6C6C6C6C6CFC00000018182A
:1017A000F818F80000000000F818F81818180000E1
:1017B0000000FC6C6C6C6C6C6C6CFF6C6C6C1818C6
:1017C000FF18FF181818181818181F00000000003C
:1017D0000000F8181818FFFFFFFFFFFFFFFF0000D1
:1017E0000000FFFFFFFF0F0F0F0F0F0F0F0FF0F0A5
:1017F000F0F0F0F0F0F0FFFFFFFF0000000000004D
:101800006E3B133B6E00001E331F331F0303003F6C
:1018100033030303030000007F36363636003F33C0
:10182000060C06333F0000007E1B1B1B0E000066EB
:101830006666663E0603006E3B18181818003F0CDB
:101840001E33331E0C3F1C36637F63361C001C3670
:10185000636336367700380C183E33331E000000C1
:101860007EDBDB7E000060307EDBDB7E06031C0659
:10187000031F03061C001E33333333333300007E53
:10188000007E007E000018187E1818007E00060CEE
:10189000180C06003F00180C060C18003F0070D80A
:1018A000D8181818181818181818181B1B0E1818FC
:1018B000007E00181800006E3B006E3B00001C36D6
:1018C000361C000000000000001818000000000096
:1018D000000018000000F030303037363C381A363F
:1018E0003636360000000E190C061F0000000000FE
:1018F0003C3C3C3C0000007E424242427E000002F2
:101900000407090B0D0F121416181A1D1F21232589
:1019100027292B2E30323436383A3C3E404143455D
:1019200047494B4C4E5052535557585A5B5D5E6079
:10193000616364656768696B6C6D6E6F70717273FB
:1019400074757677777879797A7B7B7C7C7D7D7D01
:101950007E7E7E7F7F7F7F7F7F7F7F7F7F7F7E7E9C
:101960007E7D7D7D7C7C7B7B7A79797877777675D7
:1019700074737271706F6E6D6C6B696867656463A8
:1019800061605E5D5B5A5857555352504E4C4B49FF
:1019900047454341403E3C3A38363432302E2B29BD
:1019A000272523211F1D1A181614120F0D0B0907C6
:1019B000040200FEFCF9F7F5F3F1EEECEAE8E6E3E9
:1019C000E1DFDDDBD9D7D5D2D0CECCCAC8C6C4C200
:1019D000C1BFBDBBB9B7B5B4B2B0AEADABA9A8A6D7
:1019E000A5A3A2A09F9D9C9B999897959493929153
:1019F000908F8E8D8C8B8A89898887878685858450
:101A000084838383828282818181818181818181BA
:101A10008181828282838383848485858687878887
:101A200089898A8B8C8D8E8F9091929394959798BB
:101A3000999B9C9D9FA0A2A3A5A6A8A9ABADAEB063
:101A4000B2B4B5B7B9BBBDBFC1C2C4C6C8CACCCE9B
:101A5000D0D2D5D7D9DBDDDFE1E3E6E8EAECEEF181
:101A6000F3F5F7F9FCFE000306090C101316191C18
:101A70001F2225282B2E313336393C3F414447491C
:101A80004C4E515355585A5C5E60626466686A6B8E
:101A90006D6F70717374757678797A7A7B7C7D7DE1
:101AA0007E7E7E7F7F7F7F7F7F7F7E7E7E7D7D7C53
:101AB0007B7A7A79787675747371706F6D6B6A68FA
:101AC000666462605E5C5A585553514E4C494744B7
:101AD000413F3C393633312E2B2825221F1C191645
:101AE00013100C09060300FDFAF7F4F0EDEAE7E441
:101AF000E1DEDBD8D5D2CFCDCAC7C4C1BFBCB9B730
:101B0000B4B2AFADABA8A6A4A2A09E9C9A9896959D
:101B10009391908F8D8C8B8A88878686858483832A
:101B20008282828181818181818182828283838498
:101B300085868687888A8B8C8D8F909193959698D1
:101B40009A9C9EA0A2A4A6A8ABADAFB2B4B7B9BCF4
:101B5000BFC1C4C7CACDCFD2D5D8DBDEE1E4E7EA46
:101B6000EDF0F4F7FAFD253464202534642048258F
:101B7000336400580050004E005A4D001B18191ACB
:101B80002053204800204D61702044656D6F005443
:101B90006F61644374726C734469616700546F6170
:101BA0006420412F4300546F61642048756D69645F
:101BB000696669657200546F616420486561746587
:101BC0007200544F4144004C45443320496E7465C3
:101BD0006E20004C45443220496E74656E20004CE6
:101BE000454420434F4E54524F4C00426565704669
:101BF000727100426565702000534F554E4420437A
:101C00004F4E54524F4C005468726573686F6C6449
:101C1000204E656172005468726573686F6C642051
:101C2000466172004761696E00534F4E4152204336
:101C30004F4E54524F4C004B74656D70004D6F64A5
:101C4000650050574D204D6178004B64004B690092
:101C50004B70005570646174652031303074687366
:101C60000050574D205269676874204D6F746F7231
:101C70000050574D204C656674204D6F746F720094
:101C800050574D20446972656374004D4F544F5254
:101C900020434F4E54524F4C005B585D20457869AD
:101CA000740A0A005B525D2052656164204545500C
:101CB000524F4D205B575D20577269746520454532
:101CC00050524F4D0A005B2B2F2D5D206368616ED3
:101CD000676520766172204F5220656E74657220B0
:101CE00064696769747320666F6C6C6F77656420D4
:101CF0006279205B456E7465725D0A005B475D200A
:101D00004E6578742047726F757020205B3C5D5B78
:101D10003E5D2070726576206E6578742076617203
:101D20000A000C5661726961626C652045646974D1
:101D30006F7220204D656761446F6E6B657920433B
:101D40004F4D2564200A0056617220456469742055
:101D5000506F7274256400564520457869740045BB
:101D60007869742E205468616E6B20596F752066F7
:101D70006F72207573696E67204D656761646F6E61
:101D80006B6579205661726961626C652045646992
:101D9000746F720A002D002B004720AEAF20202365
:101DA000205752005661726961626C652045646912
:101DB000746F7200580046696E69736865640A0A38
:101DC000000A57726974696E6720454550524F4D3D
:101DD0002E2E2E000A52656164696E6720454550BB
:101DE000524F4D2E2E2E0057726974696E67204532
:101DF0004550524F4D0052656164696E67204545FC
:101E000050524F4D000A00FD33363336373C3A3AD4
:101E10003B3B3B3B3C3C323F3F4B3F4B404C3D40D0
:101E20003C3C3C3C3C3B3E3B3F3B3F3B443B4834E3
:101E30004C324C324C32502F4F2D4F2D4F2D4E2BBC
:101E40004E2B4E2B4C2B4B2F492C492C482A4D2BDB
:101E50004C284C284B254729462946293B2B2E2B1D
:101E60003114311432113A0039003900370132008F
:101E7000300330032D0A2D172B192B19270C1708A7
:101E80000A150A1505190A000900FE0400040000DD
:101E900001052008290829082906290628062804FA
:101EA0002502140115011500150129042C042C0626
:101EB0002E082C082C082C1D2327263336FD4138EC
:101EC00041383F383E383D38FE4036403640374195
:101ED000374137413742374336433543354335423F
:101EE000344134413440343F353F353F353F363F50
:101EF000364036FE3D373D373D373D373D373D3780
:101F00003D353E3341334133433345334535453524
:101F1000453643384138FD0E23FE2523252326234D
:101F200026232622FE26172617261626162516FEF7
:101F300021162116281827221B211B211C1D1C19C4
:101F40001C16FE1A161A161A191A1D1B21FE172125
:101F5000FE151BFE1321FE0F210F210F1D0F190F60
:101F600016FE0E160E160E160E160E17FE0E220E6C
:101F7000220E230E230E23FE0E23FD1816FE181A22
:101F8000FE1516FE1816FE1816FD1516FE121AFE80
:101F90001216FE1516FE1516FD1E1FFE1E171E1725
:101FA0002518231F1E1FFF58004152452042454C53
:101FB0004F4E4720544F20555300414C4C20594F11
:101FC000555220424153452020200057686F277307
:101FD00020796F75722064616464793F0047756D84
:101FE000627900446F6E6B756C61746F720025349A
:101FF0006C750058004354524C004B42442000433F
:10200000414C43004C45442034004C4544203300AF
:102010004C45442032004C4544203100436F6E74DF
:10202000726F6C0058002049002044002046005385
:10203000706B722F4C454420546573740020005817
:102040000020005800580020002534643A253464EC
:10205000002534642C253464002534646F253464F1
:1020600000430023005800546F7563682073637247
:1020700065656E20746F20657869740043616C69D2
:1020800062726174696F6E20636F6D706C657465E8
:102090000043616C6962726174696F6E2043414EE6
:1020A00043454C45440043414C3A25346C642C254F
:1020B0002D346C64004144433A25346C642C252D46
:1020C000346C640043414E43454C0020202054684A
:1020D000656E20746F7563682027582700202020C4
:1020E000546F756368206561636820272B2700544F
:1020F0006F7563682043616C6962726174696F6EA9
:102100000058002B002B0044415441204269747355
:102110003F004261756420726174653F005800544D
:10212000494D454F555400525453004354530046B3
:102130004C4F572043544C00584D4954005243567D
:1021400000584F4E2F584F4646004556454E004FBB
:102150004444005061726974793A200053544F50DE
:102160003A20256400444154413A202564004261EC
:10217000756420726174653A2025366C6400434FA3
:102180004D2564205365747570204D656E75002073
:102190002530325800253034583A0045584954000B
:1021A000434C45415220434845434B504F494E54C0
:1021B0000044554D5020746F20434F4D300043680C
:1021C00065636B506F696E742044756D703A20259D
:1021D0003032580044554D50494E472052414D3AF7
:1021E000202530325800580053657420636C6F63AB
:1021F0006B00496E7665727420627574746F6E73CD
:1022000000426565706572004261636B6C69676866
:1022100074004D697363205365747570204D656E4D
:1022200075005365747570004D65676120446F6E6D
:102230006B65790A5465726D696E616C2044656DD9
:102240006F0A0021402324255E262A2F2E007E2798
:10225000225C3C3E7B7D5B5D0021402324255E2685
:102260002A2F2E005A584356424E4D2B2D3D005AD0
:10227000584356424E4D2C2E2F005A584356424E2C
:102280004D2B2D3D004153444647484A4B4C3B00A3
:102290004153444647484A4B4C3A00415344464711
:1022A000484A4B4C3B0051574552545955494F50A1
:1022B0000051574552545955494F500051574552B6
:1022C000545955494F500031323334353637383947
:1022D000300031323334353637383930003132332B
:1022E000343536373839300053480021402324250F
:1022F0005E262A2F2E007368007E27225C3C3E7BE0
:102300007D5B5D0020200043520042530045530096
:102310005A584356424E4D2B2D3D005A5843564273
:102320004E4D2C2E2F004153444647484A4B4C3BC0
:10233000004153444647484A4B4C3A005157455296
:10234000545955494F500051574552545955494FCA
:10235000500031323334353637383930003132338A
:102360003435363738393000252D31367300253174
:102370003673005800434C520044454C0020F12075
:102380000048455800464958002E303000302E3D58
:102390002F0031323378003435362B003738392D61
:1023A00000302E3D200031323320003435362000FD
:1023B00037383920004445430030203D2F0031326A
:1023C0003378003435362B20444546003738392DD4
:1023D000204142430030203D003132330034353655
:1023E000204445460037383920414243000011243B
:1023F0001FBECFEFD1E2DEBFCDBF00E00CBF14E0C7
:10240000A0E0B2E0E0EAF2E301E00BBF02C0079017
:102410000D92AA3AB107D9F718E0AAEAB4E001C0D0
:102420001D92A73AB107E1F70E9499790C946D8F3C
:102430000C9400009FB7F8941092B60082E084BD1F
:1024400085B5826085BD87EC87BDEEE6F0E08081D2
:102450008260808380818E7F808310921605109227
:1024600015059FBF08952C9B02C02C9808952C9AA7
:1024700008959C018091CF058823F9F461157105B9
:1024800039F0CB01805F984D660F771F0E94C89886
:10249000C90153E0880F991F5A95E1F7220F331FA6
:1024A000820F931F2FB7F8949093D3058093D20592
:1024B00070936505609364052FBF08958091D205E0
:1024C0009091D30518161906CCF308958091D20582
:1024D0009091D30520E030E01816190614F421E09D
:1024E00030E0C90108952FB7F89460918A05709182
:1024F0008B0580918C0590918D052FBF08952FB786
:10250000F8946091C7057091C8058091C9059091B4
:10251000CA052FBF08958FB7F8941092C70510927F
:10252000C8051092C9051092CA0510928A0510922A
:102530008B0510928C0510928D058FBF08958091A8
:10254000C7059091C805A091C905B091CA054091F1
:10255000D8055091D9054827592780914E0590916B
:102560004F05982F882748275927FA01E770F07000
:10257000EE0FFF1FE858FA4F8081918129E68427EA
:1025800095278227282F22952827022E26952695E3
:102590002025022E269520252770082E892F269586
:1025A00007942795902D82270694279590258227BA
:1025B0009093D9058093D8050895E1E8F0E09081E3
:1025C000987F982B90830895E1E9F0E09081987FBF
:1025D000982B90830895E1E8F0E02081982F96955C
:1025E0009695990F990F990F277E922B9083E0E88B
:1025F000F0E0908183709C7F982B90830895E1E9AF
:10260000F0E02081982F96959695990F990F990F44
:10261000277E922B9083E0E9F0E0908183709C7F8D
:10262000982B90830895542F90918000482F4295C5
:10263000440F440F407C9370492B262F30E02370C9
:10264000307074E0220F331F7A95E1F7422B252F6B
:1026500030E023703070220F331F220F331F422BC4
:10266000409380008111259A6111269A5111279A71
:102670000895542F90919000482F4295440F440F95
:10268000407C9370492B262F30E023703070F4E0AB
:10269000220F331FFA95E1F7422B252F30E02370EC
:1026A0003070220F331F220F331F422B40939000B4
:1026B00081116B9A61116C9A51116D9A0895EFE630
:1026C000F0E0208190E081709070880F991F217058
:1026D000282B70E061707070660F771F660F771F90
:1026E000262B50E041705070A3E0440F551FAA956F
:1026F000E1F7242B20830895E1E7F0E0208190E0CA
:1027000081709070880F991F2170282B70E0617084
:102710007070660F771F660F771F262B50E0417091
:10272000507063E0440F551F6A95E1F7242B208316
:102730000895882321F080916F00816003C080910B
:102740006F008E7F80936F000895882321F0809121
:102750007100816003C0809171008E7F8093710051
:102760000895882321F080916F00806203C08091DA
:102770006F008F7D80936F000895882321F08091F2
:102780007100806203C0809171008F7D8093710021
:102790000895809167058F5F809367058091670535
:1027A0008C3308F464C010926705809168058F5FD0
:1027B00080936805809168058C3308F458C01092A6
:1027C000680520916F053091700580915505821B39
:1027D00080935505809169058F5F8093690580918D
:1027E0006905883108F443C01092690580916E052F
:1027F0008F5F80936E0580916E05873010F0109288
:102800006E05E0916B05F0E0E651FF4F2491809159
:102810006B05823059F480916C0590916D05837041
:102820009070892B19F0922F915001C0922F8091B6
:102830006A058F5F80936A0580916A059817B8F4DE
:1028400091E090936A0580916B058F5F80936B0593
:1028500080916B058D3058F090936B0580916C05DD
:1028600090916D05019690936D0580936C05089588
:10287000CF93DF93EA01633008F42197E62FF0E06D
:10288000EE58FE4FE4919E01280F311DCE0164E009
:1028900070E00E94C898260F371FCE0160E971E0F2
:1028A0000E94C898260F371F2E0F311DCE0164E6F7
:1028B00070E00E94C898C901861B970B67E070E022
:1028C0000E94C89890E0DF91CF91089580916F05A4
:1028D000909170050197A0E3B0E00C010E942E9842
:1028E0000895A0E3B0E00E941D983196F093700522
:1028F000E0936F0580916F0590917005885E93401D
:102900002CF01092700510926F05089580916F055C
:102910009091700589519C4F24F41092700510928B
:102920006F0508951F920F920FB60F9211242F93E7
:102930003F934F935F936F937F938F939F93AF9347
:10294000BF93EF93FF938091570587FF02C00E94CA
:102950005F648091D2059091D305181619067CF515
:102960008091D2059091D30501979093D3058093E0
:10297000D2058091D2059091D30518161906E4F47A
:10298000209164053091650521153105C1F08091D4
:102990007305909174050197909374058093730566
:1029A000809173059091740597FF09C03093740569
:1029B000209373052C9902C02C9A01C02C98809109
:1029C0004E0590914F05019790934F0580934E05CA
:1029D000181619060CF449C08AE090E090934F0550
:1029E00080934E058091C7059091C805A091C905B7
:1029F000B091CA050196A11DB11D8093C7059093A2
:102A0000C805A093C905B093CA0580911A058150E5
:102A100080931A05882349F58AE080931A05E0918E
:102A20001505F0911605309709F019958091550517
:102A30008150809355058823C1F484E68093550521
:102A400080918A0590918B05A0918C05B0918D05A0
:102A50000196A11DB11D80938A0590938B05A093CB
:102A60008C05B0938D050E94C913E0915A05F09131
:102A70005B05309709F019958091D105882311F0F5
:102A80000E949E79FF91EF91BF91AF919F918F919D
:102A90007F916F915F914F913F912F910F900FBE5A
:102AA0000F901F901895EF92FF920F931F937B0149
:102AB0008C016115710581059105D9F12FB7F89445
:102AC0008091C7059091C805A091C905B091CA052C
:102AD0002FBFB801A701480F591F6A1F7B1F481756
:102AE00059076A077B07A8F48FB7F8941092C705B7
:102AF0001092C8051092C9051092CA0510928A0555
:102B000010928B0510928C0510928D058FBFB80125
:102B1000A7012FB7F8948091C7059091C805A0919F
:102B2000C905B091CA052FBF84179507A607B70737
:102B300080F31F910F91FF90EF9008952F923F9295
:102B40004F925F926F927F928F929F92AF92BF92BD
:102B5000CF92DF92EF92FF920F931F93CF93DF9369
:102B6000CDB7DEB7A2970FB6F894DEBF0FBECDBFCC
:102B70000E9471142FB7F8948091690590E09B83AF
:102B80008A838091680590E09D838C83809167059E
:102B900090E09F838E8380916A0590E09987888773
:102BA00080916B0590E09B878A8780916C0590915E
:102BB0006D059D878C8780906F05909070052FBF65
:102BC0000E9446582EE0A22EB12CAC0EBD1E3E0136
:102BD0000894611C711C92E0292E312C2C0E3D1E94
:102BE00080E0482E82E0582E0E94CB6185E691E07D
:102BF0000E949A29AC0160E080E00E946F580E812B
:102C00001F81EC80FD80CA80DB8086E591E00E9418
:102C10009A291F930F93FF92EF92DF92CF929F9387
:102C20008F93BF92AF920E94F18F21E0A50160E1E6
:102C300080E10E944D5E8C859D8564E670E00E9477
:102C4000C8988C01E884F984CA84DB8487E491E025
:102C50000E949A291F930F93FF92EF92DF92CF92D7
:102C60009F938F93BF92AF920E94F18F22E0A501B4
:102C700060E280E10E944D5E8EE391E00E949A291D
:102C800023E0AC0160E380E10E944D5E8CE391E0C3
:102C90000E949A29E0915805F0E0EE0FFF1FEE0F19
:102CA000FF1F2091BA04E20FF11DEE0FFF1F2FEF5F
:102CB000AC0160E080EA8E1B0E944D5E1092180508
:102CC0000E946B582DB73EB72C5E3F4F0FB6F8945D
:102CD0003EBF0FBE2DBF823009F43CC0833009F4E3
:102CE00088C0813009F0BAC01E868CE291E00E9453
:102CF0009A2949E0B5010E94028686E090E08C0F97
:102D00009D1F9F938F937F926F9224E030E02C0F52
:102D10003D1F3F932F937F926F923F922F925F922E
:102D20004F92BF92AF920E9416908DB79EB70E96AB
:102D30000FB6F8949EBF0FBE8DBF8A819B814897C6
:102D4000A4F68C819D81CC9784F68E819F81CC974F
:102D500064F684C01E868CE191E00E949A2949E0C5
:102D6000B5010E94028681E191E00E949A292CE03F
:102D700030E02C0F3D1F3F932F937F926F9228E0FE
:102D800030E02C0F3D1F3F932F937F926F922AE0EC
:102D900030E02C0F3D1F3F932F939F938F93BF9253
:102DA000AF920E941690EA85FB85CF0101972DB75F
:102DB0003EB7225F3F4F0FB6F8943EBF0FBE2DBF08
:102DC0000C9748F6288539851216130624F6E65125
:102DD000FF4F849190E0821793070CF4BCCF8C8551
:102DE0009D8584369105D4F58053984F9D878C87B7
:102DF00035C08114910479F483E091E00E949A290E
:102E00009F938F93BF92AF920E94F18F0F900F907C
:102E10000F900F9014C087EF90E00E949A299F9224
:102E20008F929F938F93BF92AF920E94F18F8DB735
:102E30009EB706960FB6F8949EBF0FBE8DBF68E68C
:102E4000C5010E941D8B4B0198EE891693E09906EF
:102E50009CF629E182162CEF920674F20E946B58C0
:102E60008F3F09F0C1CE1FB7F8948A81809369051E
:102E70008C81809368058E81809367058885809317
:102E80006A056A8560936B054C855D8550936D0579
:102E900040936C050E94381480936E0590927005E3
:102EA00080926F058FB7F8941092C7051092C805ED
:102EB0001092C9051092CA0510928A0510928B05CE
:102EC00010928C0510928D058FBF1FBF0E949E66C9
:102ED00080916F05909170050197A0E3B0E00C011F
:102EE0000E942E980E943133A2960FB6F894DEBF4E
:102EF0000FBECDBFDF91CF911F910F91FF90EF904B
:102F0000DF90CF90BF90AF909F908F907F906F9009
:102F10005F904F903F902F9008958F929F92AF9225
:102F2000BF92CF92DF92EF92FF920F931F93CF93B6
:102F3000DF93EC0197FF2CC0882799278C1B9D0BF2
:102F400068E671E00E94C898FC01E250F74EE491F7
:102F50000E2F112707FD1095212F312F8AE590E0C4
:102F60008C1B9D0B68E671E00E94C898FC01E25042
:102F7000F74EE491CE2EDD24C7FCD094ED2CFD2C31
:102F800030952095109501951F4F2F4F3F4F1FC033
:102F900068E671E00E94C898FC01E250F74EE491A7
:102FA0000E2F112707FD1095212F312FCE01865AA4
:102FB0009F4F68E671E00E94C898FC01E250F74E0E
:102FC000E491CE2EDD24C7FCD094ED2CFD2C922F65
:102FD000812F702F6627A70196010E94FD98490155
:102FE0005A01C2EED5E0CC24DD247601C701B6013A
:102FF00020E031E040E050E00E94FD982883C80CBA
:10300000D91CEA1CFB1C219785E0CA3DD80771F743
:10301000DF91CF911F910F91FF90EF90DF90CF90B4
:10302000BF90AF909F908F90089581E192E0909330
:10303000A4088093A3088FEF9FEF909324058093BB
:10304000230508950F931F93CF93DF93182F062F17
:103050000E94242AC0E0D0E00DC04091E905415013
:103060008091E605480F410F612F852F800F0E9448
:10307000262E21965C2F8C2F90E04091E805209120
:10308000E3053091E405240F311D821793072CF3DB
:103090000E94242ADF91CF911F910F91089581E022
:1030A0008093E5050E94513868E088E00E94B619D7
:1030B00061E081E00E94A51960E080E00E9494191F
:1030C00080E090E00E948D1760E080E00E94152A69
:1030D00008952F923F924F925F926F927F928F92BC
:1030E0009F92AF92BF92CF92DF92EF92FF920F9397
:1030F0001F93CF93DF93CDB7DEB72B970FB6F8941E
:10310000DEBF0FBECDBF1C012B01142F8091E50542
:10311000882311F40E944F18809123059091240573
:1031200091FF04C0642D822D0E942218C12EDD243F
:10313000CC0CDD1C21E23CE0C20ED31E52011C82ED
:103140001B821A821982105B1F83CBC0F601659027
:103150007490F30144914F3F09F4B4C0842F8295D9
:103160008F70282F30E027703070642F70E07E83DE
:103170006D838B01077010708091E6059091E705D3
:103180009B878A87F801E552FA4F8081992787FD4E
:103190009095FC016A857B85E69FC001E79F900DB5
:1031A000F69F900D112468E070E00E94C8984B01D2
:1031B000EA85FB852E9FC0012F9F900D3E9F900DAD
:1031C0001124FF81F03368F42730310551F42A854A
:1031D0003B8521503040820F931F2F5F3F4F3B872D
:1031E0002A8768E070E00E94C898798768872091F4
:1031F000E3053091E405029FC001039F900D129FEB
:10320000900D11245F81503348F40730110531F4DB
:1032100021503040820F931F2F5F3F4F68E070E0D6
:103220000E94C8988B018091120582FF10C06A85A8
:103230007B85615070407B876A87E885F9856E1BC6
:103240007F0B79876887909481949108939481FF8C
:1032500005C021503040201B310B8901288539855C
:10326000820E931E47FD04C09C828B821A830983C1
:1032700080FF0DC02B813C812A0D3B1D49815A8165
:103280004E0D5F1DB4016A0D7B1DC8010CC0298164
:103290003A812A0D3B1D4B815C814E0D5F1DB801AB
:1032A0006A0D7B1DC4018E0D9F1D0E944F3B3D8109
:1032B00033FD08C00894611C711C1A8309839C8229
:1032C0008B8247CF0894E11CF11C8091EE05B1017F
:1032D000680F711DE616F7060CF438CF0894A11C90
:1032E000B11C8091EB05F201E80FF11DAE16BF068F
:1032F00014F47101EACF2B960FB6F894DEBF0FBE1F
:10330000CDBFDF91CF911F910F91FF90EF90DF9094
:10331000CF90BF90AF909F908F907F906F905F9075
:103320004F903F902F9008950F931F93182F062FC3
:103330008091E505882311F40E944F181093E90548
:103340000093E8051F910F9108950F931F93182F75
:10335000062F8091E505882311F40E944F181093E1
:10336000EE050093EB051F910F9108950F931F93A6
:10337000082F162F8091E505882311F40E944F181D
:10338000812F90E09093E4058093E305802F90E0F7
:103390009093E7058093E6051F910F910895CF93D1
:1033A000DF930E944F1860E280E20E94B6190E94EB
:1033B0003133C0E0D0E08C2F65E00E94A898282F20
:1033C00030E045E0220F331F4A95E1F78C2F0E9431
:1033D000A898892F90E04C2FB90125E0880F991FFC
:1033E0002A95E1F70E9469182196C131D10519F794
:1033F0000E949E660E949866DF91CF9108952F9259
:103400003F924F925F926F927F928F929F92AF9274
:10341000BF92CF92DF92EF92FF920F931F93CF93C1
:10342000DF93CDB7DEB724970FB6F894DEBF0FBE9B
:10343000CDBF082F162F862F90E00796887F9170BA
:103440009C838B83402E552480E890E0B2010E943B
:10345000C8983B0180E490E06B817C810E94C89811
:10346000669D4001679D900C769D900C11240E94F2
:103470004F18612F802F0E94B61900E010E0CC2475
:10348000DD24EB81FC81F095E195FF4FFA83E98320
:103490001401089421083108C801B4010E94C89899
:1034A0005C01892B21F40E943133C980DA80C80184
:1034B000B3010E94C8987C01892BA1F48B819C8167
:1034C000C80ED91E6C2D80E00E94152A1F930F9301
:1034D000EBE0F2E0FF93EF930E94A08F0F900F902C
:1034E0000F900F9080912305909124059D7F9093DC
:1034F000240580932305E49CC001E59C900DF49C79
:10350000900D1124402FB6014C960E9469188091AD
:1035100023059091240592609093240580932305C0
:10352000A214B30421F40E949E660E9498660F5F65
:103530001F4FF1E000301F0709F0AECF24960FB601
:10354000F894DEBF0FBECDBFDF91CF911F910F91D9
:10355000FF90EF90DF90CF90BF90AF909F908F90B3
:103560007F906F905F904F903F902F900895CF92F3
:10357000DF92EF92FF920F931F93CF93DF93F82E7A
:10358000062F6A01809123059091240590FF14C0B5
:103590008091580590E053E0880F991F5A95E1F704
:1035A000682F0E94B61980915805682F0E94A519AE
:1035B00060E080E00E949419809112054091E3053B
:1035C0009091E9052091E6053091E80580FF04C05F
:1035D000E42EE90E122F03C0E22EE90E142F130F72
:1035E000C0E0D0E001C02196F601EC0FF11D44913E
:1035F0004423F1F0602F70E08F2D90E00E94691855
:103600008091120590E09C012071307083FF08C00A
:10361000232B11F0011B01C0010F003520F308C05E
:10362000232B11F0FE1801C0FE0C8FE98F15D8F680
:10363000DF91CF911F910F91FF90EF90DF90CF908E
:103640000895EF92FF920F931F93CF93DF93E82E8D
:10365000F62EEA01809123059091240590FF14C075
:103660008091580590E063E0880F991F6A95E1F713
:10367000682F0E94B61980915805682F0E94A519DD
:1036800060E080E00E949419809112054091E3056A
:103690009091E9052091E6053091E80580FF04C08E
:1036A000042F090F122F03C0022F090F142F130F1D
:1036B0001FC06F2D70E08E2D90E00E9469188091E0
:1036C000120590E09C012071307083FF09C0232B0C
:1036D00011F0F11A01C0F10E8FE48F1548F40BC000
:1036E000232B11F0E01A01C0E00E8FE98E1518F0BF
:1036F00049914423F1F6DF91CF911F910F91FF90F3
:10370000EF900895FF920F931F93182F8091230538
:103710009091240590FF14C08091580590E073E0CB
:10372000880F991F7A95E1F7682F0E94B61980914A
:103730005805682F0E94A51960E080E00E94941946
:10374000809112054091E3059091E9052091E605ED
:103750003091E80580FF04C0F42EF90E022F03C05B
:10376000F22EF90E042F030F80912305909124056A
:1037700080FF09C0173039F460ED77E088EC90E005
:103780000E9439123AC081FF08C0183031F480918C
:1037900054058F1540F08F192EC082FF07C01C30D2
:1037A00029F4109275051092540527C083FF05C0B7
:1037B0001A3019F4109254050CC084FF02C01D3059
:1037C00091F385FF02C0193099F086FF08C01B30C5
:1037D00031F480917505800F809375050EC060915E
:1037E000750570E080915405412F90E00E946918A2
:1037F000809154058F0D809354052091540530E03D
:1038000080EA90E08F199109821793073CF4109297
:10381000540580917505800F80937505409175055D
:10382000242F30E080E590E0801B910982179307F8
:103830006CF48091230587FF07C0401B40937505FA
:10384000802F0E940D3002C01092750580E090E03C
:103850001F910F91FF900895EF92FF921F93CF93C6
:10386000DF938FEF0E94238380E00E94F0820E940A
:1038700031330E944F1881E192E09093A408809325
:10388000A3088FEF9EEF909324058093230566E0B5
:1038900084E00E94B61982E08093E8058093E905F0
:1038A0008AE59EE00E949A299F938F930E94A08FA1
:1038B0008DE39EE00E949A299F938F930E94A08F90
:1038C00080E39EE00E949A299F938F930E94A08F8D
:1038D00062E082E00E94A5196CE08CE00E94B619BB
:1038E00084E08093E90586E29EE00E949A299F93F6
:1038F0008F930E94A08F0E9498660E949E66C1E0EE
:10390000D0E08DB79EB708960FB6F8949EBF0FBE55
:103910008DBFE1E2EE2EEEE0FE2E0E9431331C2F31
:103920008C2F8F5F682F0E94A519110F110F110F97
:10393000612F812F0E94B619C7010E949A29DF9337
:10394000CF939F938F930E94A08F68EE73E080E0E7
:1039500090E00E94531581E00E94D0650F900F9077
:103960000F900F90882321F42196C630D105A9F637
:1039700068EE73E080E090E00E9453150E94B1274A
:10398000DF91CF911F91FF90EF900895CF92DF923A
:10399000EF92FF921F93CF93DF93F82EC9EADEE0F8
:1039A0000DC00E94B270182FCE010E949A290E9469
:1039B0007870812F0E9491700E9485708091F1062D
:1039C000882379F788E99EE00E949A290E947870FE
:1039D000CF2CDD24EE24FF2442E050E0C701B601E5
:1039E0000E940F700E948570C7E8DEE00DC00E9443
:1039F000056E182FCE010E949A290E94D16D812F49
:103A00000E94EA6D0E94DE6D80917206882379F72C
:103A100086E79EE00E949A290E94D16D42E050E024
:103A2000C701B6010E94686D0E94DE6DDF91CF91E3
:103A30001F91FF90EF90DF90CF900895EF92FF924B
:103A40000F931F93CF93DF9300E010E0EE24FF2449
:103A500019C0402F6E2D8C2F0E943E300F5F1F4FDC
:103A60000F3F110519F010F000E010E02896C03A61
:103A7000D10579F788E090E0E80EF91E90E5E916A7
:103A8000F10419F0C0E0D0E0E4CFDF91CF911F91B5
:103A90000F91FF90EF9008950E94242A46E75FE07F
:103AA00060E080E00E940F3241E65FE068E080E085
:103AB0000E940F324CE45FE060E180E00E940F3230
:103AC0000E94242A47E35FE068E180E00E940F3211
:103AD00042E25FE060E280E00E940F324DE05FE092
:103AE00068E280E00E940F3248EF5EE060E380E031
:103AF0000E940F3243EE5EE068E380E00E940F32E6
:103B00004EEC5EE060E480E00E940F3249EB5EE044
:103B100068E480E00E940F320895FF920F931F9394
:103B2000CF93DF93F0907605809129030E94238341
:103B30002FE440E56FE480E00E9421350FE410E0BF
:103B4000C0E5D0E02FE44C2F602F80E00E942135AB
:103B50000A5010402F978FEFC63FD80799F72FE4F0
:103B600040E06AE180E00E9421358F2D0E9423838E
:103B7000DF91CF911F910F91FF9008951F93CF93E5
:103B8000DF9310917605C0ECD0E09E014EE167E333
:103B900083E50E94A833CE019695879596958795E3
:103BA000C81BD90B2897CD30D10578F7812F0E94FB
:103BB0002383DF91CF911F910895AF92BF92CF924F
:103BC000DF92EF92FF920F931F93CF93DF93EC015D
:103BD0006B017A0180E10E9492839701220F331FCB
:103BE0002E0D3F1D220F331FC90188599E4F68E6D5
:103BF00071E00E94C8988C010250174EF8010491A0
:103C0000C901825F9E4F68E671E00E94C898FC017E
:103C1000E250F74EE491FAE2EF02C0011124880F5E
:103C2000892F881F990B20ECA22EB12C9C012A9D74
:103C3000C0012B9D900D3A9D900D112460E071E024
:103C40000E94C8989B01275D0F02A0011124440F18
:103C5000452F441F550B405B69E280E50E942135EA
:103C6000CE14DF0409F440C09601220F331F2C0D3F
:103C70003D1D220F331FC90188599E4F68E671E030
:103C80000E94C8988C010250174EF8010491C90196
:103C9000825F9E4F68E671E00E94C898FC01E25086
:103CA000F74EE491FAE2EF02C0011124880F892F48
:103CB000881F990B9C012A9DC0012B9D900D3A9D58
:103CC000900D112460E071E00E94C8989B01275D6F
:103CD0000F02A0011124440F452F441F550B405BD8
:103CE00069E280E50E942135CC15DD0509F451C05B
:103CF0009E0175E0220F331F7A95E1F7CC0FDD1F8F
:103D00002C1B3D0B2C543F4FC60162E070E00E941B
:103D1000C898260F371FC9018C549F4F68E671E081
:103D20000E94C8985EEFE52E58E1F52EE80EF91EC8
:103D3000F701E490C901865A9F4F68E671E00E943E
:103D4000C898FC01E250F74EE49105E2E002C001A0
:103D50001124880F892F881F990B9C012A9DC0016F
:103D60002B9D900D3A9D900D112460E071E00E9412
:103D7000C8989B01275D3E2D300280011124000F61
:103D8000012F001F110B005B402F69E280E50E94AC
:103D9000213581E00E94928320EC30E044E069E22A
:103DA00080E50E94A83380E00E949283DF91CF914A
:103DB0001F910F91FF90EF90DF90CF90BF90AF9049
:103DC00008950F931F93109176050091B6048AEA27
:103DD0000E94238383E00E94928320EC30E047E23C
:103DE00068E280E50E94A83380E00E949283812FE0
:103DF0000E942383802F0E94F0821F910F910895CB
:103E0000EF920F9306E02FE44FE960E080E00E941C
:103E1000F62D2FE44FE960E080E00E9421352FE489
:103E200040E060E08FE90E94213581E00E949283AA
:103E30008FEF0E94238320EC30E042E368E280E5CC
:103E40000E94A83380E00E94238320EC30E04DE202
:103E500068E280E50E94A8338FEF0E94238320EC64
:103E600030E048E268E280E50E94A83380E00E94EA
:103E7000238320EC30E043E268E280E50E94A8332F
:103E80008FEF0E94238320EC30E04EE168E280E572
:103E90000E94A83380E00E94238320EC30E049E1B7
:103EA00068E280E50E94A8338FEF0E94238320EC14
:103EB00030E044E168E280E50E94A83380E00E949F
:103EC000238320EC30E04FE068E280E50E94A833D5
:103ED0008FEF0E94238320EC30E04AE068E280E527
:103EE0000E94A83380E00E94238320EC30E045E06C
:103EF00068E280E50E94A8338FEF0E94238381E16E
:103F00000E9492838FEF0E94238380E00E94F082C0
:103F100064E1E62E04E12CE34CE364E184E10E94D9
:103F2000302A80E00E9492830F91EF9008951F93B2
:103F3000CF93DF938FEF0E94238380E00E94F08273
:103F400060E080E00E94152A0E949E6610925E0545
:103F500010E0CFE1D2E040E060E070E0CE010E94EE
:103F600002868823C1F38B3181F08D3071F090E0AF
:103F70000E94B78F185F183928F060E080E00E9437
:103F8000152A10E00E949E66E6CF0E949E6610925F
:103F90005E05DF91CF911F910895FF920F931F93BC
:103FA0000E94242A4BEB5FE068E480E00E940F321D
:103FB0000E94242A27E44FE967E480E00E9421352B
:103FC00082E00E9467830091580510E083E0000FB3
:103FD000111F8A95E1F749EB5FE060E080E00E9405
:103FE0000F326091580570E013E0660F771F1A9545
:103FF000E1F747EB5FE080E00E940F3260915805E7
:1040000070E0B4E0660F771FBA95E1F745EB5FE02B
:1040100080E00E940F3260915805A8E1FA2E6F9D52
:10402000B001112443EB5FE080E00E940F3249EAC7
:104030005FE060E0802F0E940F326091580570E0D1
:10404000F3E0660F771FFA95E1F74FE95FE0802F05
:104050000E940F326091580570E0E4E0660F771F10
:10406000EA95E1F745E95FE0802F0E940F32609109
:1040700058056F9DB00111244BE85FE0802F0E942E
:104080000F3281E00E9467831F910F91FF90089586
:104090008F929F92AF92BF92CF92DF92EF92FF9258
:1040A0000F931F93CF93DF93909076058090B60483
:1040B00082E00E94678380915805823018F482E084
:1040C0000E946783C0E0D0E086EDA82E8FE0B82E76
:1040D00004EDC02E0FE0D02E12EDE12E1FE0F12EE8
:1040E00000ED1FE08C2F0E94BD838FEF0E94238381
:1040F00080E00E94F0828091580520911205829FF5
:10410000C0011124B3E0880F991FBA95E1F7A5010A
:1041100060E0885F0E940F320E94242A6091580557
:1041200070E0A3E0660F771FAA95E1F78091120572
:10413000869F802D1124A601885F0E940F320E9465
:10414000242A8091D00582600E9492838AEA0E948C
:1041500023836091580570E08091120590E09C01E6
:10416000629FC001639F900D729F900D1124F3E038
:10417000880F991FFA95E1F7A701E4E0660F771F12
:10418000EA95E1F7885F0E940F3285E50E9423835C
:104190002091580530E0B901660F771F620F731F39
:1041A00043E0660F771F4A95E1F78091120590E092
:1041B000AC01249FC001259F900D349F900D1124C8
:1041C00023E0880F991F2A95E1F7A801885F0E94D4
:1041D0000F328091D0058D7F0E9492832196C83046
:1041E000D10509F07FCF80E00E94BD83892D0E9418
:1041F0002383882D0E94F08281E00E946783DF91F3
:10420000CF911F910F91FF90EF90DF90CF90BF90D3
:10421000AF909F908F9008958FEF0E94238380E04E
:104220000E94F08226E446E46AE08AE00E94673752
:1042300023E244E169E18AE00E9467372CE346E427
:1042400062E38CE30E9467370E94242A22E24AE05C
:104250006AE18AE00E9421352BE346E463E386E4C9
:104260000E9421350E94242A84EF91E00E94036776
:104270000E949E664FEF68E288E20E94C82F089570
:1042800025E24DE365E283E10E94213527E34BE11E
:1042900065E28DE30E94213529E148E267E38BE185
:1042A0000E94213527E345E369E188E20E94213538
:1042B00025E243E167E385E30E9421354FEF68E2A1
:1042C00088E20E94C82F08950F931F93CF93DF9326
:1042D00000917605C0E0D0E04C2F4F5A61E58C2F5D
:1042E0000E94262E60E56C1B40E58C2F885D0E94A5
:1042F000262E2196C832D10579F7802F0E9423837C
:10430000DF91CF911F910F9108951F93CF93DF936A
:1043100010917605C0E0D0E0C0FF06C08C2F805B16
:10432000482F60E5865405C08C2F40E54C1B60E5A6
:10433000865F0E94262E2196C431D10569F7812F10
:104340000E942383DF91CF911F910895CF92DF9236
:10435000EF92FF920F931F93CF93DF9341E460E0BE
:1043600080E00E943E3042E460E088E00E943E30FF
:1043700043E468E080E00E943E3044E468E088E086
:104380000E943E3027E04FE060E080E00E94673707
:1043900028E0C22ED12CC8E1D0E0EC2C0C2F27E075
:1043A0004FE060E080E00E94302A01E50C1B27E02E
:1043B0004FE060E080E00E94302A219688E090E0A3
:1043C000C80ED91EC132D10541F7F0907605C0E084
:1043D000D0E03EC0D02E6E2D802F0E943A27F801EB
:1043E000E770F070EA5FFC4F9081982311F08FEF37
:1043F00001C080E00E9423836C2D8D2D80570E9488
:104400003A330F5F1F4F0F30110521F72196C0314E
:10441000D105F1F48F2D0E942383C0E0D0E01C2F42
:104420006C2F80E00E943A27105C482F612F80E0BB
:104430000E94FB266C2F81E00E943A27482F612FB3
:1044400081E00E94FB262196C031D10541F0E7CFE3
:1044500000E010E0EC2E90E4C92ECC0EBBCFDF9133
:10446000CF911F910F91FF90EF90DF90CF90089523
:104470001F93109176052FE44FE960E080E00E94E1
:1044800067378AEA0E9423838091D00582600E9468
:10449000928328E248E96EE088E70E94B42D8FEF0E
:1044A0000E94238380E00E94928325E448E968E229
:1044B00088E70E94B42D812F0E9423830E9440210F
:1044C0000E948D1D0E9485210E94BE1D1F9108958E
:1044D00081E00E94D06520E030E0882311F021E0E7
:1044E00030E0C9010895CF93DF938091D0058E7F8E
:1044F0000E94928320EC30E044E161E482E30E9478
:10450000A8332CE34CE360E088E20E946737809197
:10451000D00581600E9492830E94242A20EC30E022
:1045200043E161E482E30E94A8332CE34BE361E0C2
:1045300089E20E94B42D38C020EC30E040E161E413
:1045400082E30E94A833C9E3D0E049E36BE28C2FF9
:104550000E94262E64E170E080E090E00E945315F6
:1045600081E00E94D065882329F52197C330D105C9
:1045700061F70E94242AC4E0D0E049E36BE28C2F6B
:104580000E94262E64E170E080E090E00E945315C6
:1045900081E00E94D065882319F00E94242A0AC075
:1045A0002196C933D10549F70E94242A0E94682226
:1045B000882311F280E00E949283DF91CF910895C9
:1045C0000E9468228823E1F30E9468228823E1F791
:1045D0008AE290E00895EF92FF920F931F93CF939A
:1045E000DF9380E00E94928300E010E0EE24FF243D
:1045F00064C0402F6E2D8C2F0E943E300F5F1F4FE6
:104600000F3F110519F010F000E010E02896C03AB5
:10461000D10579F788E090E0E80EF91E90E5E916FB
:10462000F10409F04AC0C0E0D0E040E5E42E00E02B
:104630002FE44FE960E08FE90E94302AEE2401E088
:104640002FE44EE960E080E00E94302A00E02FE98C
:1046500040E060E580E00E94302A0E9468228823C2
:1046600021F42196C03AD10501F70E9468228823DF
:1046700011F00E94E022C0E0D0E030E5E32E00E03F
:104680002FE440E060E080E00E94302AEE242FE436
:104690004FE960E081E00E94302A0FE92FE940E015
:1046A00060E580E00E94302A0E946822882341F45D
:1046B0002196C03AD10521F0E0CFC0E0D0E099CFFB
:1046C000DF91CF911F910F91FF90EF9008958F92FE
:1046D0009F92AF92BF92CF92DF92EF92FF920F9391
:1046E0001F93CF93DF930E9431336EEEA62E62E0CC
:1046F000B62EC0E0D0E05EEF852E58E1952ECE01BB
:10470000865A9F4F68E671E00E94C8989C0122502B
:10471000374EF9012491CE0168E671E00E94C898F5
:10472000FC01E250F74EE491D5010D911D915D0120
:10473000BFE2EB02C0011124880F892F881F990B5B
:1047400030ECC32ED12CFC01EC9DC001ED9D900DF1
:10475000FC9D900D112460E071E00E94C8986B5D93
:10476000F80101900020E9F73197E01BF10BEE0F03
:10477000EE0F80E58E1BFFE22F0290011124220F25
:10478000232F221F330BA801820F0E94D4316E9673
:1047900021E0C836D20709F0B2CFE8E5F9E1E491AB
:1047A0003FE2E302E0011124CC0FCD2FCC1FDD0B43
:1047B000F40184918302C0011124880F892F881F7E
:1047C000990B9C012C9DC0012D9D900D3C9D900D41
:1047D000112460E071E00E94C8985B01F1E0CF2EE7
:1047E000D12CC601865A9F4F68E671E00E94C89896
:1047F000FC01E250F74EE4912FE2E2028001112425
:10480000000F012F001F110BC60168E671E00E9426
:10481000C898FC01E250F74EE491E20290011124A5
:10482000220F232F221F330B80EC90E0AC01249F3A
:10483000C001259F900D349F900D112460E071E020
:104840000E94C8987B01262F275D402F405B6A2D70
:10485000675DDE01A05B8A2F0E9421350894C11C90
:10486000D11C5701E801B8E6CB16B1E0DB0609F030
:10487000B8CF2FE44FE960E080E00E9467370E94E4
:104880009E6663E6862E912C53E6A52EB12C03E698
:1048900010E0CC2481E00E94D065882311F50E94AD
:1048A000711480916705C82FD0E0E0906805D09022
:1048B0006905C017D10771F3CC2029F0A801B50113
:1048C000C4010E94DD1DFF240D2D10E0AE01B701D3
:1048D000C8010E94DD1D480157018E01CC24C394FC
:1048E000D9CF0E949E660E943133DF91CF911F91F4
:1048F0000F91FF90EF90DF90CF90BF90AF909F907F
:104900008F9008952F923F924F925F926F927F9275
:104910008F929F92AF92BF92CF92DF92EF92FF92CF
:104920000F931F93CF93DF93CDB7DEB765970FB685
:10493000F894DEBF0FBECDBF82E00E948D290E9499
:104940009E6603E643E6642E4E010894811C911C8A
:104950003BED232E3FE0332E28ED422E2FE0522E4A
:1049600002C0072D6A2C81E00E94D065882309F0DF
:1049700015C10E94711470906A05701609F4B4C0D4
:1049800070906A0582E00E946783B0905805BB0C66
:10499000BB0CB194AA248CE3B80E0E941D380E946F
:1049A000313303E02FE44FE960E080E00E94F62D10
:1049B00080916C0590916D0564E670E00E94B4985A
:1049C0006C01E0916B05F0E0EE0FFF1FEB59FD4F1E
:1049D000E080F18000916A0510E083EF9FE00E9483
:1049E0009A29DF92CF92FF92EF921F930F939F939A
:1049F0008F939F928F920E94F18FF401019000207B
:104A0000E9F73197E819F9092091580583E0EE0F8D
:104A1000FF1F8A95E1F730E0E29FE02D112400EAC4
:104A2000E02EF12CC7018E1B910962E070E00E941C
:104A3000C898CB01220F331F220F331F68E2621B7D
:104A40000E94152A80EF9FE00E949A299F928F92E0
:104A50009F938F930E94A08FE0916E05F0E0EE0F80
:104A6000FF1FE854FD4F008111818DEE9FE00E94F1
:104A70009A291F930F939F938F939F928F920E94D7
:104A8000F18FF40101900020E9F73197E819F90955
:104A9000A3E0EE0FFF1FAA95E1F7809158058E9FC6
:104AA000802D1124E81AF108C70162E070E00E942D
:104AB000C898CB016B2D0E94152A8AEE9FE00E94B8
:104AC0009A299F928F929F938F930E94A08FA39475
:104AD0008DB79EB748960FB6F8949EBF0FBE8DBF98
:104AE00092E0A91609F059CFA0906705A61409F421
:104AF00038CFA090670582E00E94678380915805B7
:104B0000880F880FE4E1BE2EB81A0E941D38C090AD
:104B10006705DD24E0906805FF240091690510E039
:104B2000C1010E949A29DF92CF92FF92EF921F93C8
:104B30000F939F938F939F928F920E94F18FF40116
:104B400001900020E9F73197E819F90973E0EE0FB9
:104B5000FF1F7A95E1F7209158052E9F202D1124F3
:104B600080EA90E0821B910962E070E00E94C898A0
:104B7000CB016B2D0E94152AC2010E949A299F9297
:104B80008F929F938F930E94A08F8DB79EB70E96A2
:104B90000FB6F8949EBF0FBE8DBFE3CE0E949E66F7
:104BA0000E9411380E94313381E00E94678365962C
:104BB0000FB6F894DEBF0FBECDBFDF91CF911F912E
:104BC0000F91FF90EF90DF90CF90BF90AF909F90AC
:104BD0008F907F906F905F904F903F902F900895AF
:104BE0000F931F93082F0E94313314E064C0812F6C
:104BF0000E94C61C0E943133103119F40E94EB222E
:104C00004BC01F3019F40E94A62146C01E3019F473
:104C10000E940C2141C01D3019F40E9464213CC047
:104C20001C3009F447C01B3019F40E94482034C0DE
:104C30001A3019F40E9438222FC0193019F40E943A
:104C400082242AC0183019F40E94672325C0173027
:104C500019F40E94E11E20C0163019F40E94CD1FE5
:104C60001BC0153019F40E94971F22C0143019F48C
:104C70000E94001F11C0133019F40E944C1D0CC07B
:104C8000123019F40E941E1D07C0113011F48FEF6D
:104C900001C080E00E94E83268EC169FB001112448
:104CA0008AEF90E00E94391280ED97E00E9403673E
:104CB0000E949E661F5F113108F499CF002311F006
:104CC00014E095CF1F910F91089582B38695869534
:104CD0008095817090E00895459A000000000000E2
:104CE00080E0079B04C0823311F08F5FFACF4598B4
:104CF00008951F931FEF12B911B8469A479A0E9460
:104D00006C26469811B947981F9108950F931F93E9
:104D1000182F062F0E947926479A12B9459A00004B
:104D2000000000004598479802B9459A000000002D
:104D3000000045981F910F910895FF920F931F93C4
:104D400090EA699F80011124080F111D93E01695C8
:104D500007959A95E1F78091500590915105080FBC
:104D6000191FA2984698FF24FA94F1B8602F8AE0A0
:104D70000E948626012F1127602F8BE00E94862635
:104D8000A29AF2B811B8469A1F910F91FF90089518
:104D9000EF92FF920F931F93E42E8695869586954A
:104DA0000091500510915105080F111D66956695EB
:104DB000669584E1689FB0011124060F171FA29821
:104DC0004698FF24FA94F1B8602F8AE00E94862664
:104DD000012F1127602F8BE00E9486266E2D8CE01C
:104DE0000E948626A29AF2B811B8469A1F910F9196
:104DF000FF90EF900895EF92FF920F931F93E42E90
:104E000090EA699F80011124080F111D43E0169557
:104E100007954A95E1F78091500590915105080F4B
:104E2000191FA2984698FF24FA94F1B8602F8AE0DF
:104E30000E948626012F1127602F8BE00E94862674
:104E40000E947926479A8CE082B9459A00000000BA
:104E5000000045984798E2B8459A0000000000001D
:104E60004598A29AF2B811B8469A1F910F91FF90F7
:104E7000EF900895FF920F931F9390EA699F80012E
:104E80001124080F111D63E0169507956A95E1F747
:104E90008091500590915105080F191FA2984698CE
:104EA000FF24FA94F1B8602F8AE00E948626012F31
:104EB0001127602F8BE00E9486260E947926479A50
:104EC0008DE082B9459A0000000000004598F2B8D4
:104ED00011B8469A0E946C264798459A0000000037
:104EE00000004598479A0E946C264798459A000012
:104EF0000000000080B14598A29AF2B811B8469A15
:104F000090E01F910F91FF9008950F931F930091D0
:104F1000500510915105909351058093500560E024
:104F200080E00E943A27109351050093500590E0CD
:104F30001F910F9108950F931F93462F00915005D5
:104F400010915105909351058093500560E080E0E9
:104F50000E94FB2610935105009350051F910F915D
:104F600008958FE293E09093A4088093A3088FEFB5
:104F70009FEF90932405809323050895EF92FF926D
:104F80000F931F937C018B010E949B27012F1127F8
:104F9000602FC70101960E949B271F910F91FF90E0
:104FA000EF900895CF92DF92EF92FF920F931F93AD
:104FB0006C017A018B01642F0E949B279927812F16
:104FC000702F6F2DC60101960E949B27B80188277C
:104FD0009927C60102960E949B27E12EFF240027F5
:104FE00011276E2DC60103960E949B271F910F91DA
:104FF000FF90EF90DF90CF900895EF92FF920F9384
:105000001F937C0101960E948527082F10E0102F26
:105010000027C7010E94852790E0802B912B1F91CC
:105020000F91FF90EF900895CF92DF92EF92FF9251
:105030000F931F936C0103960E948527E82EFF248F
:1050400000E010E0102F0F2DFE2CEE24C60102967A
:105050000E94852790E0A0E0B0E0E82AF92A0A2B18
:105060001B2B102F0F2DFE2CEE24C60101960E9443
:10507000852790E0A0E0B0E0E82AF92A0A2B1B2B54
:10508000102F0F2DFE2CEE24C6010E94852790E0E4
:10509000A0E0B0E0E82AF92A0A2B1B2BC801B701CF
:1050A0001F910F91FF90EF90DF90CF90089597FFA1
:1050B00006C0DB01BF770E941098802D0AC096FFC2
:1050C00003C0FB01849105C095FF05C0CB010E9480
:1050D000852790E00895FB01808190E0089597FF77
:1050E00006C0DB01BF770E941D98CF01089596FF8F
:1050F00004C0FB0185919491089595FF04C0CB01F4
:105100000E94FD270895FB01808191810895AF924F
:10511000BF92CF92DF92EF92FF920F931F93CF93A4
:10512000DF93EA01A22E6A01BB2411C07B018C012E
:105130000894E11CF11C011D111D0E9457288823B1
:1051400051F0F60181936F01B394C801B701BA140D
:1051500069F77B018C01CB0DD11D1882C801B70105
:10516000DF91CF911F910F91FF90EF90DF90CF9043
:10517000BF90AF9008956F927F928F929F92AF925F
:10518000BF92CF92DF92EF92FF920F931F93CF9334
:10519000DF935B016C013A014901E9010EC07B011B
:1051A0008C010894E11CF11C011D111D0E9457285F
:1051B000F30181933F01C801B7012197FFEFCF3F72
:1051C000DF0769F7B40180E090E06A0D7B1D8C1D5C
:1051D0009D1DDF91CF911F910F91FF90EF90DF9078
:1051E000CF90BF90AF909F908F907F906F900895D9
:1051F000DC01CB01B7FF06C0DC01BF77042E0E94A3
:1052000022980895B5FF04C0642F0E949B2708953B
:10521000B6FD02C0FC0140830895DC01CB01B7FF5D
:1052200006C0DC01BF770A010E942E980895B5FFE1
:1052300004C0BA010E94BE270895B6FD03C0FC0158
:10524000518340830895BF92CF92DF92EF92FF92F5
:105250000F931F93CF93DF93B22EEA0100E010C0AB
:1052600019916B017C010894C11CD11CE11CF11C3B
:10527000412F0E94F828112339F00F5FC701B601B2
:105280000B1571F76B017C01C701B601DF91CF915E
:105290001F910F91FF90EF90DF90CF90BF900895F6
:1052A0006F927F928F929F92AF92BF92CF92DF9236
:1052B000EF92FF920F931F93CF93DF935B016C01EB
:1052C0003A014901E9010EC0F30141913F017B011F
:1052D0008C010894E11CF11C011D111D0E94F8288D
:1052E000C801B7012197FFEFCF3FDF0769F7B4018E
:1052F00080E090E06A0D7B1D8C1D9D1DDF91CF919C
:105300001F910F91FF90EF90DF90CF90BF90AF90E3
:105310009F908F907F906F900895853010F084E07B
:1053200003C0882309F481E081508093D7058F5F03
:1053300090E008950F931F930CEB14E040E550E0CC
:10534000BC01C8010E94708FC8011F910F91089580
:10535000CF93DF93CDB7DEB724970FB6F894DEBFB7
:105360000FBECDBFDC01CB0129833A834B835C8325
:10537000B7FF09C0DC01BF7784E0FE013196182E2B
:105380000E94339814C0B5FF07C049815A816B81D0
:105390007C810E94D2270BC0B6FD09C0FC01898127
:1053A0009A81AB81BC8180839183A283B38324964D
:1053B0000FB6F894DEBF0FBECDBFDF91CF91089539
:1053C000CF93DF93CDB7DEB724970FB6F894DEBF47
:1053D0000FBECDBF97FF0DC0DB01BF7784E0FE019C
:1053E0003196182E0E94189869817A818B819C8150
:1053F00013C096FF06C0FB0165917591859194914C
:105400000BC095FF04C0CB010E94142805C0FB010E
:10541000608171818281938124960FB6F894DEBFFA
:105420000FBECDBFDF91CF910895982F8093540583
:10543000609375058091B904882329F070E0892F65
:1054400090E00E949B8208951F93109176058091B1
:10545000B6040E942383812F0E94F0821F91089539
:105460002F923F924F925F926F927F928F929F9274
:10547000AF92BF92CF92DF92EF92FF920F931F9362
:10548000CF93DF93CDB7DEB76E970FB6F894DEBF3C
:105490000FBECDBF782EB62EC42ED22E902EAE2C9F
:1054A0008091B904882349F0FF2410E030E050E0F7
:1054B00070E0872D90E00E94CF7BDB1418F48D2DD7
:1054C000DB2CB82EC71418F48C2DC72C782E2FE99E
:1054D000291508F430C34C2D403A08F04FE9692DE6
:1054E00070E0842F90E087199109860F971F803A0A
:1054F000910528F04156481B471508F41CC3292D77
:10550000269526952695922FA22FBB27A7FDB0950D
:10551000BA83A983F7E06F2E6920872D8770681AF8
:10552000B4E0B61524F4E8EF6E0E9F5F09C02223A5
:1055300039F0FCEF6F1624F438E0630E922F91508F
:10554000D3945D2D5B195C83DA94BA1428F0BB8286
:10555000EA2C81E08D8391C2EA2CEA94AC81EA0EB8
:10556000DB82BFEFBD8389C2282F30E087FF1DC0DB
:1055700085FDBCC020E030E00DC0842F90E0AA85FE
:10558000BB85A80FB91FA855BA4F88559A4FFC0183
:1055900080818C93122F442D421B2F5F3F4F8C85AF
:1055A0009D852817390749F7A2C0C90183709070FB
:1055B000892BE9F125FD9AC021FD0AC0509176059D
:1055C000472D20E030E06E817F81685F7F4F26C0ED
:1055D000E0FEF4CF509176055095472D20E030E065
:1055E0006E817F81685F7F4F08C0AA85BB85A10F50
:1055F000B11DA855BA4F5C93485F122F2F5F3F4FE4
:10560000842F90E06817790784F771C0AA85BB855D
:10561000A10FB11DA855BA4F5C93485F122F2F5FA1
:105620003F4F842F90E06817790784F760C000EA45
:105630009B81909F80011124070D111DE3E01695B9
:105640000795EA95E1F78091500590915105080F73
:10565000191FA2984698FF24FA94F1B8602F8AE0A7
:105660000E948626012F1127602F8BE00E9486263C
:105670000E947926479A8DE082B9459A0000000081
:1056800000004598F2B811B8469A0E946C264798D7
:10569000459A0000000000004598072D1C8E1B8EC7
:1056A00012C0479A0E946C264798459A0000000055
:1056B000000080B1AA85BB85A10FB11DA855BA4FC6
:1056C0008C934598085F1B8DAB8DBC8D1196BC8F5C
:1056D000AB8F802F90E0E885F985E817F9070CF784
:1056E000A29A8FEF82B911B8469A01C010E0A0913A
:1056F000D0056A2FA5FD41C0462D16148CF01FC0A1
:105700005B2FF9010AC09181990F9183808187FFF6
:1057100002C0916091835150319757FFF4CF0CC074
:10572000B12FB1502B2F332727FD309589819A81D6
:10573000280F391F29553A4F415010F71EC06620D7
:1057400099F41BC0ED8DFE8D90819695908381819B
:1057500080FF02C0906890832F5F8D8D9E8D019693
:105760009E8F8D8F211771F74F5F413031F0EE859D
:10577000FF85FE8FED8F20E0F5CF61FF03C08A2FFC
:105780008F7D05C0862F817821F08A2F80620E944C
:105790009283852C288939894A895B8924173507A2
:1057A00009F04AC0A88DB98D1C91F1018081182B98
:1057B0008091D005282F30E0C9018C719070892B21
:1057C00049F46E2D892D0E943A2781231095D60128
:1057D0009C9109C022FF0AC06E2D892D0E943A2794
:1057E0001095F60190811923182B19C023FF0CC0C6
:1057F0006E2D892D0E943A27912F9095D6012C91DC
:105800009223192B18230BC024FF09C06E2D892D5C
:105810000E943A271095F60190811923182780914C
:10582000D00586FF03C0D6011C9321C1412F6E2DE8
:10583000892D0E94FB261BC1EC89FD89EF2B11F4F9
:10584000F92C3BC06E2D892D0E943A27482F80915C
:10585000D005682F70E0CB018C719070892B21F4FA
:10586000D1018C91482304C062FF08C0D1018C9102
:105870008095F60190818923482B15C063FF0AC0EB
:10588000D1018C91982F9095F60120819223982B2D
:10589000492309C064FF07C0D1018C918095F601AE
:1058A00090818923482766FF03C0D6014C9304C02A
:1058B0006E2D892D0E94FB26FA8CEE89FF89379781
:1058C00009F445C06E2D852D0E943A27482F8091FE
:1058D000D005682F70E0CB018C719070892B29F472
:1058E000A88DB98D8C91482305C062FF09C0A88D91
:1058F000B98D8C918095F50190818923482B17C033
:1059000063FF0BC0A88DB98D8C91982F9095F501F0
:1059100020819223982B49230AC064FF08C0A88DD8
:10592000B98D8C918095F50190818923482766FF78
:1059300003C0D5014C9304C06E2D852D0E94FB261B
:1059400068EF862E8520BFE9B81508F490C0F814DA
:1059500008F08DC08091D005282F30E0C9018C71EE
:105960009070892B09F045C026FD81C000EAE09EB9
:10597000800111240F0D111D53E0169507955A95BE
:10598000E1F78091500590915105080F191FA298D9
:1059900046988FEF81B9602F8AE00E948626012FFA
:1059A0001127602F8BE00E9486260E947926479A55
:1059B0008CE082B9459A00000000000045980E94E2
:1059C0007926EF2DE695E695E695F0E0E855FA4F55
:1059D000808182B9459A0000000000004598E8E007
:1059E000FE0EF81460F3A29A8FEF82B911B8469AAE
:1059F0003EC06E2D8F2D0E943A27482F8091D005F2
:105A0000282F82FF0AC0EF2DE695E695E695F0E097
:105A1000E855FA4F8081482B17C083FF0AC0EF2D4D
:105A2000E695E695E695F0E0E855FA4F8081482343
:105A30000BC084FF09C0EF2DE695E695E695F0E0F2
:105A4000E855FA4F8081482726FF09C0EF2DE695DB
:105A5000E695E695F0E0E855FA4F408304C06E2DD8
:105A60008F2D0E94FB26F8E0FF0EF81410F22B8118
:105A70003D81230F2B83E30E53C0A42FB0E0BF83DF
:105A8000AE831196B987A887E92FFF27E7FDF09528
:105A9000FB87EA87CD0133E0959587953A95E1F745
:105AA000482E4394842D90E04A9401969D878C87DC
:105AB000A981BA81A855BA4FBF87AE87592C57180C
:105AC000540E852D90E0FB01E87FF98BE88BAC014B
:105AD000487F5B8B4A8B677070707D8B6C8B877097
