:100000000C94D7110C94F6110C94F6110C94F61173
:100010000C94F6110C94F6110C94F6110C94F61144
:100020000C94F6110C94F6110C94F6110C94F61134
:100030000C94F6110C94F6110C94F6110C944E14C9
:100040000C94F6110C94F6110C94BA710C94F611F0
:100050000C94376C0C94F6110C94F6110C94F61168
:100060000C94F6110C94F6110C94F6110C94F611F4
:100070000C94F6110C94F6110C940D6F0C94F6116F
:100080000C94A46C0C94F6110C94F61105A84CCDAC
:10009000B2D44EB93836A9020C50B9918688083CC2
:1000A000A6AAAA2ABE000000803F001F1D1F1E1F17
:1000B0001E1F1F1E1F1E1F2564206D736563732F77
:1000C0006872002B2F2D206D736563732F6872206B
:1000D0000025642563256425632564004441544557
:1000E0003A204D4D2F44442F59593F0054494D4516
:1000F0003A2048483A4D4D3A53533F00580020416A
:10010000444A5553542000253032642F2530326440
:100110002F2530326400253032643A253032643A7B
:1001200025303264005365742054696D65204D6537
:100130006E7500000302050003050104060204FFBA
:100140000190D0E1E6018697D7E62224B5C44A01A2
:1001500090C301E1E6018697D7E602A0B1C0E203B1
:10016000E304B7E405A705959706E610D0E11091E2
:1001700020A1B0C123D0D126A730B336B740C146A5
:10018000C7E555E555DF0190C301B401C1C3018343
:10019000A5C302A4C202C203B0C103C31094C1111B
:1001A000B313B114B421A630BC03B6E303B0E30328
:1001B000E312C512D2D41294C1C513B5D313B1D36F
:1001C00014D421D421C121A5D222C424C225C530F2
:1001D000BE03C703D3D40384B704B104D411A0B1C0
:1001E00011C411C113B51395B314C115C517D31795
:1001F000C720B0C120A7D421B0B721D422B223C5D3
:1002000025C3C526BE03C703B0E3E503E30385C1E9
:10021000C504B1E404E412C512D2D4129413B5D3C8
:1002200021E521C121A5D222C424C225C527E32767
:10023000C730BF23B4C3C423B2C323C323A4B3C4EE
:1002400024B5C424C432BD00E0E70087E7019092E2
:1002500001E102A0A1029203B0E304B7E405A705FF
:100260009597069706E626A730B136B740E240C11B
:1002700046C7E550E150D2E255E555D7EE03A1C19E
:10028000E3E40384A6C6EC00E0E70087E723B4C3F9
:10029000C423B2C323C323A4B3C424B5C424C43227
:1002A000BD0493B3C4C6048697B7C633E0E240E802
:1002B00011A0C0D1D31193A4C4D316D634BF0695D0
:1002C000A5068797A620E0E220A622EA0594A405C9
:1002D0008696A520E0E620A522E246D5E546C7D7CA
:1002E000EE00A20393B5D3E306A413B1D330B13526
:1002F000B642E044EE00B30086B301A3019195023B
:10030000A402A2A403B304A204A405A3059D23D6BA
:1003100023D0D623D332D432D232B4D233D533D150
:1003200034D441D141C5DD12B0D215B7D530BF109C
:10033000941650D45E0190E0E6018293B330BE067D
:1003400097B7C611A2B2C3C411A0C0D113A213940F
:10035000A5B5C635CC14B6D4D614D41496B4D615D7
:10036000A6C4D515A4C6D515D516D624A634B6442C
:10037000CE12B0D214B6D417D730BE12B0D230BE1F
:1003800014B6D430BE03D331D335DB03A503A103A8
:10039000DB0285DD03A503A103E341E345EB04B1E3
:1003A000E404E413D3D41394B2D422C422C2C422EA
:1003B000A4C231BC02B5E202E212B4D2D31293D38A
:1003C00022C422A4C2C424C432BDFF11A0B1B311FF
:1003D000B311B11193A4B312B213B113B320A42E6D
:1003E000109240CA02D204D4109640CE0293B3C4F5
:1003F0000291C105B5C420A125AE0191920182925E
:1004000006D145D5D645C6DE04A2B2D4E30485960E
:10041000C6D5E611A211A0B0C132C154DD029110BF
:100420009912B01294BE10B2B416BC03E311D515E4
:10043000D130BE03C321AD17A625AE03CB25AE0533
:10044000D80190C0D1D5018596C6D505D911A0A6F1
:1004500016BE0190B0C1C205A3B3C20586CE0190FD
:10046000B0C1C20596B6C523B3C4C533CA03B0C074
:10047000C60384DC00C00082B2C3C50596B6CD02B7
:10048000A0B0028596B6C503B3C4CD00C0C200813A
:1004900024C224AE0190B0C1C2018293B3C4C5048A
:1004A00093048596B6C533CA0190B0C1C401829346
:1004B000C316A6CC21A225AE17A621A225AE03B64F
:1004C00003B802C205CD10C316CB0190B0C1C2243F
:1004D000C224A52F0190C0D1D4018596B632B4DCD8
:1004E00002A0C2C6028604CC00B0C1C20086B6C556
:1004F00003B3C4C533CA02A0C0D10284A6C6DD00BE
:10050000A0C2C40086A6CC10D01096D613BB10D0C3
:10051000109613BB02A0C0D10284A6D644D4DE003C
:100520008603C340CE10B016B620AE048596B6C57D
:1005300030D040CD008603A3C5C623C140C9109664
:10054000DE00B3E0E6008633BC00D5008650DE0254
:10055000A0B0D2D40284A6B6DC10C0D1D2109613BB
:10056000C3DA0190B0C1C5018596B6C524DF10C0BD
:10057000D1D2109613C3D233D5DE0190B0C101821F
:1005800093B3C4C50596B6CD00C020AE008596B61F
:10059000C540CD0084A6C440CC0086B3E632B3602B
:1005A000EE0081D606D150D90082A4C216B624A688
:1005B00040CA10D0D115D11596DE10B01096BE00ED
:1005C000EE10B0B616BE03B0EB07EF20A1BA059649
:1005D000B6C5D60594C412B2C3CD0695A6C6D5102D
:1005E0009513C3D4DD0392B2C3038596B6CD0493AD
:1005F000C3048596B6C5D640CD0392B2C3C4038565
:1006000096B604CC03A306A611A0B0C1119E039216
:10061000B2C3D2038495C507B7C643CE109614B2B1
:10062000C2D3DE12A2A616B628058697B7C64042E8
:10063000CE109614B4D634DA10A0A616BE028604E4
:10064000A2B3C2D3D633BD028604A2B2C3CE0392F4
:10065000B2C3C5038596B6CD0293A2C2D3D407A771
:10066000139715C5DC0392B2C3D2038495C537D75F
:1006700043CF0293A2B2C306A6139E0394B4C5034C
:1006800092C206B6CD12C220A5B6CD028596B6C5D9
:10069000D642CD0284A6C442CC028596B4D6E533B8
:1006A000B462ED02A4B4D606A434DA028495C50778
:1006B000B7C642CE02C206C206CE0393A4A5B6C6F2
:1006C00013A221B0C021AA30B234BE0090A1A2B3BF
:1006D000C30696A524B324AD0190A0B1C1D804B13E
:1006E000E4E60486EE0190C0D1018394C4D327C709
:1006F000D634DE01038596B6C5D64143CD0392B20A
:10070000C3C4038596B604C430C80190D0E115A6D1
:10071000C6D5E615A4D422C2D3DD0596B6C5D60546
:1007200094C41012B2C3C54800900596B6C5D6054C
:1007300094C412B2C3CD0596B6C5D60594C412B200
:10074000C3C520B0B120A1B90392C2D3038495C51B
:100750000797BD0190D0E113A2C2D3D41395A6C6CA
:1007600014DC000392B2C3C4038596B604C44800E7
:10077000A00392B2C3C4038596B604CC0012A2A60D
:1007800016B6480190C0D122B2B626CE00A012A261
:10079000A616BE0003A1C3C6038604C4480493B3CF
:1007A000C4C6048605C520B0B120A1B912C21296F4
:1007B000C614B420C815A4E41596E622E242CE027F
:1007C000A0E0028603D330B6EE0190B0C10493B32B
:1007D000C4C5048596B6CD010493B3C4C5048596FB
:1007E000B6C54901A10493B3C4C5048596B6CD012D
:1007F00090B0C1038596B6C5D643CD01A1038596B9
:10080000B6C5D643CD01038495C507B7C64143CECF
:100810000013B1D3D41394B6D46800028596B6C53C
:100820004042CD0392D2038495D530BF03A306C6C0
:10083000D511A0B0C1C2119E0081A3C104C406C6D7
:100840001223A73240C900B0C1C2008703B3C2540B
:10085000F463E6F7FF0697A7B623C331C0D0E131B2
:10086000BE0596B6C5D60594C412B2C3C520C8123B
:10087000A2A616B620C80493B3C4C5048596B6C50F
:1008800021C9038596B6C5D621C143CD0190A0B13B
:10089000C1D003860493B3C4CE00C002C602864210
:1008A000CE11A0C0C31192A3D315DD11A0B0C1C257
:1008B0001192A3B3C215CD15A6C6D515B33032BB60
:1008C00003C3038D03C3CD008205D034C3D3E446F4
:1008D000E446C7EF008205D044E2E744C5ED13A229
:1008E000B3B513B513B31395A6B514B415B315B5B5
:1008F0002022AE03A503A143E543E901A305A341DB
:10090000E345EB01030507202224264143454760C8
:1009100062646E01E7F60190F603C7F403B0F405D4
:10092000A7F205D0F207F80191A2B2C3D3E4F40311
:1009300093A4B4C5D5E6F60595A6B6C7D7E607973E
:10094000A611A0B0C1D1E2F213A215A432C134C3E2
:1009500036C551E0F053E255EC30BF04B430BF026D
:10096000B204B430BF04B430B760EF04E4E734BF7E
:1009700002B2B704BC02B204B4B730B260EF30B711
:1009800060EF02E2E704B4BF02B204E430B260EC0C
:1009900004E430B460EC02B204B430BC04B4BF3040
:1009A000B4FC04F430BC04F434BF30B734FC04FCB1
:1009B00004F430BF30B732F234FC30B760E764FC87
:1009C00030B4F460E2FA32F232B764F464EF02B2A7
:1009D00004F430B260E2FA02F204B4B764F464EFF3
:1009E00030B760E2F264F464EF02F204FC02B20495
:1009F000B4B730B260E2F264F464EF02F204F4409F
:100A0000CA04F430B460EC02F204F434BF04F434E9
:100A1000B764EF30B4F460EC30B4F432FA32F2324E
:100A2000B734FC34F434B764EF04F430B760EF0249
:100A3000F204F430BF04B430BC34F434BF00F0F737
:100A40000087F701F102F203F304F405F506F6104E
:100A50009720A730B740C750D760EF04F4F704875A
:100A6000F705F506F6149724A734B744C754D7649E
:100A7000EF00B0B70087B701B102B203B304B40509
:100A8000B506B6109720AF40F0F740C7F741F142E6
:100A9000F243F344F445F546F650D760EF00F0F327
:100AA0000083F301F102F2109320A330B340C3504E
:100AB000D360EB0392A2B3C3D2038596A6B5C5D685
:100AC00033BD0291B1C2028703B3C405B5C433CAB2
:100AD00001C1C2018E02D2129642CE00C0C1008175
:100AE000A305A30586C645CE0392D2038596A6B577
:100AF00032BD07A5C5D41194A551DC0291A1B2D293
:100B0000E132BE0392B2C3C4038495B5C410B017DA
:100B1000B720AF02A0B0D2D40284A6B6D403DB02C1
:100B2000A0B0D2D302839496069644D344C6DE0482
:100B300093C3048596B6C531C2C531C0D80392A20D
:100B4000B3C2D2E3E4038495A5B4C5D5E433BC02B3
:100B500091D1E2E4028495D5E406E802A0B00284D3
:100B6000A6B603BB0190B0C1C6018E11D113D31537
:100B7000DD12D216D630BC06C610B214BA06C612A2
:100B8000B412B831C0D0E1E231BF058697A7B630C4
:100B9000BE13D330B135BE0291A1B2C2D10594A427
:100BA000B5C5DC11A0B0C1C21192A3B3CA33BC3C1D
:100BB00015B7C740E040CF0091A0B0C1C4119C015F
:100BC00090A0B104B104BC22C422C2C522A5C32393
:100BD000C523C324C224C425C532BD01D1D6018694
:100BE000DE3F0140014F018601A901D10105023319
:100BF0000247027D028702A102B002BE02CC02E1DE
:100C000002F5020E0327032F0335033F035503713B
:100C1000037B03800385038B03910394039E03B43A
:100C200003CA03CB03E003E403EC03FA0308041D47
:100C300004210426042B04330437043B043D043F01
:100C40000441044D0452045E046D0474047F048B5B
:100C5000049404A804B404B804BE04C204C604CABC
:100C600004D404E004E804F604FF0407050E0514A8
:100C7000051F0525052B0534053E05410549054F92
:100C800005590562056E057A0588058C0593059959
:100C900005A105A805B205BA05BF05C105C605C968
:100CA00005CB05CE05DA05E505EE05F90504060ECA
:100CB000061C0623062906310638063D0647064E61
:100CC000065806650672067B0685068B069306990E
:100CD00006A306AB06B406BA06C706CB06D806DEE0
:100CE00006E506F306FD060A071A07280736074831
:100CF00007530762076F077C0783078C0793079DDD
:100D000007AC07B507BF07C907D707E307EF07FB1E
:100D100007050810081A0823082C08380846085543
:100D20000861086F08760882088C089908A108AB4A
:100D300008B708C008C408C708D408DE08F308FBD1
:100D40000803091309270959095B095F0965096B3C
:100D500009700975097E0982098809900996099C1C
:100D6000099F09A209A609AA09AE09B009B409BADE
:100D700009C009C609CE09D709E009E909ED09FB4F
:100D800009010A070A0D0A130A180A1D0A230A296B
:100D90000A2F0A350A390A3D0A5B0A710A870A9D39
:100DA0000AB30AC20AD00AD50ADB0AE80AF20AFB29
:100DB0000A030B130B1F0B2F0B3D0B4F0B5B0B642D
:100DC0000B6B0B710B770B7D0B830B8A0B910B97C6
:100DD0000BA30BAD0BAF0BB00BB70BBF0BC70BDBF4
:100DE0000B3630256400414243444546474849009C
:100DF0005B5D7C5C3A3B272C2E3F2F0A0030313262
:100E00003334353637383930202140232425255EC8
:100E1000262A28295F2B2D3D0A004142434445469E
:100E20004748494A4B4C4D4E4F50515253545556DA
:100E30005758595A0A004C434420554152543120C6
:100E400044656D6F20230052454345495645442073
:100E50004348415220313A004C43442055415254BA
:100E6000302044656D6F2023005245434549564567
:100E7000442043484152203A006F757467726162A2
:100E800062652E2020202020202020202000616E5E
:100E90006420746865206D6F6D652072617468737D
:100EA000202000776572652074686520626F726F1C
:100EB000676F7665732C20007468652077616265C2
:100EC0003A2020416C6C206D696D737900677972EE
:100ED0006520616E642067696D626C6520696E20B3
:100EE000200074686520736C6974687920746F766B
:100EF00065732064696400275477617320627269A6
:100F00006C6C69672C20616E642020002D2D2D2DC6
:100F10002D2D2D2D2D2D2D2D2D2D2D2D2D2D2D2D01
:100F2000007C202020202041434854554E4721205A
:100F3000202020207C002D2D2D2D2D2D2D2D2D2DF3
:100F40002D2D2D2D2D2D2D2D2D2D002D44414E4798
:100F500045522D2D00524F42494E534F4E2D002DDC
:100F60002D57494C4C2D2D2D002D44414E474552B7
:100F70002D2D002D002D002D002D00427562626C7C
:100F80006520486561646564204E696E6E79210054
:100F90004A004A004A004A00257300253032643A6C
:100FA000253032643A253032640025730025730001
:100FB00025730025642025732025303264000080CD
:100FC00040C020A060E0109050D030B070F0088891
:100FD00048C828A868E8189858D838B878F8048419
:100FE00044C424A464E4149454D434B474F40C8C31
:100FF0004CCC2CAC6CEC1C9C5CDC3CBC7CFC0282C5
:1010000042C222A262E2129252D232B272F20A8A30
:101010004ACA2AAA6AEA1A9A5ADA3ABA7AFA0686B8
:1010200046C626A666E6169656D636B676F60E8ED0
:101030004ECE2EAE6EEE1E9E5EDE3EBE7EFE01816A
:1010400041C121A161E1119151D131B171F1098900
:1010500049C929A969E9199959D939B979F9058588
:1010600045C525A565E5159555D535B575F50D8DA0
:101070004DCD2DAD6DED1D9D5DDD3DBD7DFD038334
:1010800043C323A363E3139353D333B373F30B8BA0
:101090004BCB2BAB6BEB1B9B5BDB3BBB7BFB078728
:1010A00047C727A767E7179757D737B777F70F8F40
:1010B0004FCF2FAF6FEF1F9F5FDF3FBF7FFF00005E
:1010C0000000000000007E81A581BD99817E7EFF29
:1010D000DBFFC3E7FF7E367F7F7F3E1C0800081CD6
:1010E0003E7F3E1C08001C3E1C7F7F3E1C3E0808C5
:1010F0001C3E7F3E1C3E0000183C3C180000FFFFD9
:10110000E7C3C3E7FFFF003C664242663C00FFC303
:1011100099BDBD99C3FFF0E0F0BE3333331E3C668A
:1011200066663C187E18FCCCFC0C0C0E0F07FEC645
:10113000FEC6C6E66703995A3CE7E73C5A990107A1
:101140001F7F1F07010040707C7F7C704000183CAF
:101150007E18187E3C186666666666006600FEDBD2
:10116000DBDED8D8D8007CC61C36361C331E000007
:1011700000007E7E7E00183C7E187E3C18FF183CE6
:101180007E1818181800181818187E3C1800001837
:10119000307F30180000000C067F060C00000000B5
:1011A0000303037F0000002466FF6624000000188C
:1011B0003C7EFFFF000000FFFF7E3C1800000000A7
:1011C0000000000000000C1E1E1E0C000C00363635
:1011D00036000000000036367F367F3636000C3E83
:1011E000031E301F0C00006333180C6663001C36AE
:1011F0001C6E3B336E000606030000000000180C56
:101200000606060C1800060C1818180C06000066D6
:101210003CFF3C660000000C0C3F0C0C0000000082
:101220000000000C0C060000003F00000000000061
:101230000000000C0C006030180C060301003E6337
:10124000737B6F673E000C0E0C0C0C0C3F001E33C2
:10125000301C06333F001E33301C30331E00383C38
:1012600036337F3078003F031F3030331E001C06BA
:10127000031F33331E003F3330180C0C0C001E3399
:10128000331E33331E001E33333E30180E00000C65
:101290000C00000C0C00000C0C00000C0C06180CD0
:1012A0000603060C180000003F00003F0000060C7B
:1012B0001830180C06001E3330180C000C003E636A
:1012C0007B7B7B031E000C1E33333F3333003F66B2
:1012D000663E66663F003C66030303663C001F36BD
:1012E000666666361F007E06061E06067E007E06C1
:1012F000061E060606003C66030373667C00333355
:10130000333F333333001E0C0C0C0C0C1E007830B2
:10131000303033331E006766361E366667000606B9
:10132000060606067E0063777F7F6B636300636754
:101330006F7B736363001C36636363361C003F6618
:10134000663E06060F001E3333333B1E38003F66F1
:10135000663E366667001E33070E38331E003F0CAC
:101360000C0C0C0C0C003333333333333F0033336A
:101370003333331E0C006363636B7F7763006363F7
:10138000361C1C3663003333331E0C0C1E007F608A
:1013900030180C067F001E06060606061E00030611
:1013A0000C18306040001E18181818181E00081C71
:1013B00036630000000000000000000000FF0C0C7D
:1013C00018000000000000001E303E336E000706CB
:1013D000063E66663B0000001E3303331E003830B5
:1013E000303E33336E0000001E333F031E001C36B8
:1013F000060F06060F0000006E33333E301F07064F
:10140000366E666667000C000E0C0C0C1E00300079
:1014100030303033331E070666361E3667000E0C3A
:101420000C0C0C0C1E000000337F7F6B630000006F
:101430001F333333330000001E3333331E000000EC
:101440003B66663E060F00006E33333E3078000088
:101450003B6E66060F0000003E031E301F00080CA6
:101460003E0C0C2C18000000333333336E000000A8
:101470003333331E0C000000636B7F7F36000000A7
:1014800063361C36630000003333333E301F0000E8
:101490003F190C263F00380C0C070C0C38001818AC
:1014A000180018181800070C0C380C0C07006E3BBD
:1014B00000000000000000081C3663637F003E63EC
:1014C00003633E30603E0033003333336E00380038
:1014D0001E333F031E007E813C607C66DC003300CF
:1014E0001E303E336E0007001E303E336E000C0C83
:1014F0001E303E336E0000003E63031E301C7E81B2
:101500003C667E063C0033001E333F031E0007008E
:101510001E333F031E0033000E0C0C0C1E003E4118
:101520001C1818183C0007000E0C0C0C1E00630859
:101530003E637F6363000C0C001E333F33003800B2
:101540003F061E063F000000FE30FE33FE007C36E4
:10155000337F333373001E21001E33331E000033EC
:10156000001E33331E000007001E33331E001E21F1
:10157000003333336E000007003333336E00003323
:101580000033333E301FC3183C66663C18003300FE
:10159000333333331E0018187E03037E18181C36AD
:1015A000260F06673F0033331E0C3F0C3F0C1F33E2
:1015B000335F63F363C370D8183C18181B0E3800F0
:1015C0001E303E336E001C000E0C0C0C1E0000384A
:1015D000001E33331E000038003333336E00001F0B
:1015E000001D333333003F0033373F3B33003C367D
:1015F000367C007E00001C36361C003E00001800C1
:1016000018180C663C000000003F030300000000B7
:10161000003F3030000063331B6CD64321F0C363BE
:1016200033DBECB6F3C0180018183C3C180000CCB3
:10163000663366CC0000003366CC6633000044118C
:10164000441144114411AA55AA55AA55AA55DB6F55
:10165000DBF6DB7EEBB718181818181818181818CE
:1016600018181F18181818181F181F1818186C6C3D
:101670006C6C6F6C6C6C000000007F6C6C6C00001C
:101680001F181F1818186C6C6F606F6C6C6C6C6C8A
:101690006C6C6C6C6C6C00007F606F6C6C6C6C6C58
:1016A0006F607F0000006C6C6C6C7F00000018188D
:1016B0001F181F000000000000001F18181818183D
:1016C0001818F800000018181818FF000000000093
:1016D0000000FF18181818181818F8181818000023
:1016E0000000FF00000018181818FF181818181824
:1016F000F818F81818186C6C6C6CEC6C6C6C6C6CE2
:10170000EC0CFC0000000000FC0CEC6C6C6C6C6CD5
:10171000EF00FF0000000000FF00EF6C6C6C6C6CD1
:10172000EC0CEC6C6C6C0000FF00FF0000006C6CBB
:10173000EF00EF6C6C6C1818FF00FF0000006C6C81
:101740006C6CFF0000000000FF00FF18181800007C
:101750000000FF6C6C6C6C6C6C6CFC00000018186A
:10176000F818F80000000000F818F8181818000021
:101770000000FC6C6C6C6C6C6C6CFF6C6C6C181806
:10178000FF18FF181818181818181F00000000007C
:101790000000F8181818FFFFFFFFFFFFFFFF000011
:1017A0000000FFFFFFFF0F0F0F0F0F0F0F0FF0F0E5
:1017B000F0F0F0F0F0F0FFFFFFFF0000000000008D
:1017C0006E3B133B6E00001E331F331F0303003FAD
:1017D00033030303030000007F36363636003F3301
:1017E000060C06333F0000007E1B1B1B0E0000662C
:1017F0006666663E0603006E3B18181818003F0C1C
:101800001E33331E0C3F1C36637F63361C001C36B0
:10181000636336367700380C183E33331E00000001
:101820007EDBDB7E000060307EDBDB7E06031C0699
:10183000031F03061C001E33333333333300007E93
:10184000007E007E000018187E1818007E00060C2E
:10185000180C06003F00180C060C18003F0070D84A
:10186000D8181818181818181818181B1B0E18183C
:10187000007E00181800006E3B006E3B00001C3616
:10188000361C0000000000000018180000000000D6
:10189000000018000000F030303037363C381A367F
:1018A0003636360000000E190C061F00000000003E
:1018B0003C3C3C3C0000007E424242427E00000232
:1018C0000407090B0D0F121416181A1D1F212325CA
:1018D00027292B2E30323436383A3C3E404143459E
:1018E00047494B4C4E5052535557585A5B5D5E60BA
:1018F000616364656768696B6C6D6E6F707172733C
:1019000074757677777879797A7B7B7C7C7D7D7D41
:101910007E7E7E7F7F7F7F7F7F7F7F7F7F7F7E7EDC
:101920007E7D7D7D7C7C7B7B7A7979787777767517
:1019300074737271706F6E6D6C6B696867656463E8
:1019400061605E5D5B5A5857555352504E4C4B493F
:1019500047454341403E3C3A38363432302E2B29FD
:10196000272523211F1D1A181614120F0D0B090706
:10197000040200FEFCF9F7F5F3F1EEECEAE8E6E329
:10198000E1DFDDDBD9D7D5D2D0CECCCAC8C6C4C240
:10199000C1BFBDBBB9B7B5B4B2B0AEADABA9A8A617
:1019A000A5A3A2A09F9D9C9B999897959493929193
:1019B000908F8E8D8C8B8A89898887878685858490
:1019C00084838383828282818181818181818181FB
:1019D00081818282828383838484858586878788C8
:1019E00089898A8B8C8D8E8F9091929394959798FC
:1019F000999B9C9D9FA0A2A3A5A6A8A9ABADAEB0A4
:101A0000B2B4B5B7B9BBBDBFC1C2C4C6C8CACCCEDB
:101A1000D0D2D5D7D9DBDDDFE1E3E6E8EAECEEF1C1
:101A2000F3F5F7F9FCFE000306090C101316191C58
:101A30001F2225282B2E313336393C3F414447495C
:101A40004C4E515355585A5C5E60626466686A6BCE
:101A50006D6F70717374757678797A7A7B7C7D7D21
:101A60007E7E7E7F7F7F7F7F7F7F7E7E7E7D7D7C93
:101A70007B7A7A79787675747371706F6D6B6A683A
:101A8000666462605E5C5A585553514E4C494744F7
:101A9000413F3C393633312E2B2825221F1C191685
:101AA00013100C09060300FDFAF7F4F0EDEAE7E481
:101AB000E1DEDBD8D5D2CFCDCAC7C4C1BFBCB9B770
:101AC000B4B2AFADABA8A6A4A2A09E9C9A989695DE
:101AD0009391908F8D8C8B8A88878686858483836B
:101AE00082828281818181818181828282838384D9
:101AF00085868687888A8B8C8D8F90919395969812
:101B00009A9C9EA0A2A4A6A8ABADAFB2B4B7B9BC34
:101B1000BFC1C4C7CACDCFD2D5D8DBDEE1E4E7EA86
:101B2000EDF0F4F7FAFD25346420253464204825CF
:101B3000336400580050004E005A4D001B18191A0B
:101B40002053204800204D61702044656D6F005483
:101B50006F61644374726C734469616700546F61B0
:101B60006420412F4300546F61642048756D69649F
:101B7000696669657200546F6164204865617465C7
:101B80007200544F4144004C45443320496E746503
:101B90006E20004C45443220496E74656E20004C26
:101BA000454420434F4E54524F4C004265657046A9
:101BB000727100426565702000534F554E442043BA
:101BC0004F4E54524F4C005468726573686F6C648A
:101BD000204E656172005468726573686F6C642092
:101BE000466172004761696E00534F4E4152204377
:101BF0004F4E54524F4C004B74656D70004D6F64E6
:101C0000650050574D204D6178004B64004B6900D2
:101C10004B700055706461746520313030746873A6
:101C20000050574D205269676874204D6F746F7271
:101C30000050574D204C656674204D6F746F7200D4
:101C400050574D20446972656374004D4F544F5294
:101C500020434F4E54524F4C005B585D20457869ED
:101C6000740A0A005B525D2052656164204545504C
:101C7000524F4D205B575D20577269746520454572
:101C800050524F4D0A005B2B2F2D5D206368616E13
:101C9000676520766172204F5220656E74657220F0
:101CA00064696769747320666F6C6C6F7765642014
:101CB0006279205B456E7465725D0A005B475D204A
:101CC0004E6578742047726F757020205B3C5D5BB9
:101CD0003E5D2070726576206E6578742076617244
:101CE0000A000C5661726961626C65204564697412
:101CF0006F7220204D656761446F6E6B657920437C
:101D00004F4D2564200A0056617220456469742095
:101D1000506F7274256400564520457869740045FB
:101D20007869742E205468616E6B20596F75206637
:101D30006F72207573696E67204D656761646F6EA1
:101D40006B6579205661726961626C6520456469D2
:101D5000746F720A002D002B004720AEAF202023A5
:101D6000205752005661726961626C652045646952
:101D7000746F7200580046696E69736865640A0A78
:101D8000000A57726974696E6720454550524F4D7D
:101D90002E2E2E000A52656164696E6720454550FB
:101DA000524F4D2E2E2E0057726974696E67204572
:101DB0004550524F4D0052656164696E672045453C
:101DC00050524F4D000A00FD33363336373C3A3A15
:101DD0003B3B3B3B3C3C323F3F4B3F4B404C3D4011
:101DE0003C3C3C3C3C3B3E3B3F3B3F3B443B483424
:101DF0004C324C324C32502F4F2D4F2D4F2D4E2BFD
:101E00004E2B4E2B4C2B4B2F492C492C482A4D2B1B
:101E10004C284C284B254729462946293B2B2E2B5D
:101E20003114311432113A003900390037013200CF
:101E3000300330032D0A2D172B192B19270C1708E7
:101E40000A150A1505190A000900FE04000400001D
:101E5000010520082908290829062906280628043A
:101E60002502140115011500150129042C042C0666
:101E70002E082C082C082C1D2327263336FD41382C
:101E800041383F383E383D38FE40364036403741D5
:101E9000374137413742374336433543354335427F
:101EA000344134413440343F353F353F353F363F90
:101EB000364036FE3D373D373D373D373D373D37C0
:101EC0003D353E3341334133433345334535453565
:101ED000453643384138FD0E23FE2523252326238E
:101EE00026232622FE26172617261626162516FE38
:101EF00021162116281827221B211B211C1D1C1905
:101F00001C16FE1A161A161A191A1D1B21FE172165
:101F1000FE151BFE1321FE0F210F210F1D0F190FA0
:101F200016FE0E160E160E160E160E17FE0E220EAC
:101F3000220E230E230E23FE0E23FD1816FE181A62
:101F4000FE1516FE1816FE1816FD1516FE121AFEC0
:101F50001216FE1516FE1516FD1E1FFE1E171E1765
:101F60002518231F1E1FFF58004152452042454C93
:101F70004F4E4720544F20555300414C4C20594F51
:101F8000555220424153452020200057686F277347
:101F900020796F75722064616464793F0047756DC4
:101FA000627900446F6E6B756C61746F72002534DA
:101FB0006C750058004354524C004B42442000437F
:101FC000414C43004C45442034004C4544203300F0
:101FD0004C45442032004C4544203100436F6E7420
:101FE000726F6C00580020490020440020460053C6
:101FF000706B722F4C454420546573740020005858
:102000000020005800580020002534643A2534642C
:10201000002534642C253464002534646F25346431
:1020200000430023005800546F7563682073637287
:1020300065656E20746F20657869740043616C6912
:1020400062726174696F6E20636F6D706C65746528
:102050000043616C6962726174696F6E2043414E26
:1020600043454C45440043414C3A25346C642C258F
:102070002D346C64004144433A25346C642C252D86
:10208000346C640043414E43454C0020202054688A
:10209000656E20746F756368202758270020202004
:1020A000546F756368206561636820272B2700548F
:1020B0006F7563682043616C6962726174696F6EE9
:1020C0000058002B002B0044415441204269747396
:1020D0003F004261756420726174653F005800548E
:1020E000494D454F555400525453004354530046F4
:1020F0004C4F572043544C00584D495400524356BE
:1021000000584F4E2F584F4646004556454E004FFB
:102110004444005061726974793A200053544F501E
:102120003A20256400444154413A2025640042612C
:10213000756420726174653A2025366C6400434FE3
:102140004D2564205365747570204D656E750020B3
:102150002530325800253034583A0045584954004B
:10216000434C45415220434845434B504F494E5400
:102170000044554D5020746F20434F4D300043684C
:1021800065636B506F696E742044756D703A2025DD
:102190003032580044554D50494E472052414D3A37
:1021A000202530325800580053657420636C6F63EB
:1021B0006B00496E7665727420627574746F6E730D
:1021C00000426565706572004261636B6C696768A7
:1021D00074004D697363205365747570204D656E8E
:1021E00075005365747570004D65676120446F6EAE
:1021F0006B65790A5465726D696E616C2044656D1A
:102200006F0A0021402324255E262A2F2E007E27D8
:10221000225C3C3E7B7D5B5D0021402324255E26C5
:102220002A2F2E005A584356424E4D2B2D3D005A10
:10223000584356424E4D2C2E2F005A584356424E6C
:102240004D2B2D3D004153444647484A4B4C3B00E3
:102250004153444647484A4B4C3A00415344464751
:10226000484A4B4C3B0051574552545955494F50E1
:102270000051574552545955494F500051574552F6
:10228000545955494F500031323334353637383987
:10229000300031323334353637383930003132336B
:1022A000343536373839300053480021402324254F
:1022B0005E262A2F2E007368007E27225C3C3E7B20
:1022C0007D5B5D00202000435200425300455300D7
:1022D0005A584356424E4D2B2D3D005A58435642B4
:1022E0004E4D2C2E2F004153444647484A4B4C3B01
:1022F000004153444647484A4B4C3A0051574552D7
:10230000545955494F500051574552545955494F0A
:1023100050003132333435363738393000313233CA
:102320003435363738393000252D313673002531B4
:102330003673005800434C520044454C0020F120B5
:102340000048455800464958002E303000302E3D98
:102350002F0031323378003435362B003738392DA1
:1023600000302E3D2000313233200034353620003D
:1023700037383920004445430030203D2F003132AA
:102380003378003435362B20444546003738392D14
:10239000204142430030203D003132330034353695
:1023A000204445460037383920414243000011247B
:1023B0001FBECFEFD0E1DEBFCDBF13E0A0E0B1E0A4
:1023C000E6E7F3E301E00BBF02C007900D92AA3AE3
:1023D000B107D9F717E0AAEAB3E001C01D92A73A06
:1023E000B107E1F70E94047A0C94D88F0C94000096
:1023F0009FB7F89410BE88E083BF83B7826083BF25
:1024000087EC81BF87B7826087BF87B78E7F87BF22
:1024100010921604109215049FBF0895C49B02C029
:10242000C4980895C49A08959C018091CF0488238C
:10243000F9F46115710539F0CB01805F984D660F95
:10244000771F0E943399C90153E0880F991F5A954D
:10245000E1F7220F331F820F931F2FB7F894909349
:10246000D3048093D20470936504609364042FBFF7
:1024700008958091D2049091D30418161906CCF3D4
:1024800008958091D2049091D30420E030E0181692
:10249000190614F421E030E0C90108952FB7F8942B
:1024A00060918A0470918B0480918C0490918D04CA
:1024B0002FBF08952FB7F8946091C7047091C80496
:1024C0008091C9049091CA042FBF08958FB7F894E2
:1024D0001092C7041092C8041092C9041092CA0442
:1024E00010928A0410928B0410928C0410928D0426
:1024F0008FBF08958091C7049091C804A091C9042A
:10250000B091CA044091D8045091D9044827592762
:1025100080914E0490914F04982F8827482759277F
:10252000FA01E770F070EE0FFF1FE858FB4F808153
:10253000918129E6842795278227282F229528270D
:10254000022E269526952025022E269520252770D9
:10255000082E892F269507942795902D822706947B
:102560002795902582279093D9048093D8040895C5
:102570009EB5987F982B9EBD0895EAE8F0E0908183
:10258000987F982B908308952EB5982F96959695C1
:10259000990F990F990F277E922B9EBD9FB583703F
:1025A0009C7F982B9FBD0895EAE8F0E02081982F4A
:1025B00096959695990F990F990F277E922B908358
:1025C000EBE8F0E0908183709C7F982B90830895D6
:1025D000542F9FB5482F4295440F440F407C937071
:1025E000492B262F30E02370307074E0220F331F08
:1025F0007A95E1F7422B252F30E023703070220FBF
:10260000331F220F331F422B4FBD8111BD9A611121
:10261000BE9A5111BF9A0895542F90918B00482F64
:102620004295440F440F407C9370492B262F30E095
:1026300023703070F4E0220F331FFA95E1F7422B3C
:10264000252F30E023703070220F331F220F331FED
:10265000422B40938B008111139A6111149A5111EE
:10266000159A089527B790E081709070B4E0880FB4
:10267000991FBA95E1F7277E282B70E06170707082
:10268000A3E0660F771FAA95E1F7262B27BFEDE79A
:10269000F0E0808141708E7F842B80830895EDE788
:1026A000F0E090818295807F957E982B660F660F73
:1026B000660F962B440F492B4083089597B7880FD8
:1026C000880F9B7F982B97BF0895EDE7F0E09081EE
:1026D000880F880F9B7F982B9083089527B790E0F1
:1026E0008170907035E0880F991F3A95E1F72F7D42
:1026F000282B27BF0895EDE7F0E090818295880FA1
:10270000807E9F7D982B90830895809167048F5FD2
:1027100080936704809167048C3308F464C010923E
:102720006704809168048F5F8093680480916804D7
:102730008C3308F458C01092680420916F043091D3
:10274000700480915504821B809355048091690424
:102750008F5F8093690480916904883108F443C0D5
:102760001092690480916E048F5F80936E04809153
:102770006E04873010F010926E04E0916B04F0E06C
:10278000E655FF4F249180916B04823059F480917B
:102790006C0490916D0483709070892B19F0922FC6
:1027A000915001C0922F80916A048F5F80936A04D8
:1027B00080916A049817B8F491E090936A0480912C
:1027C0006B048F5F80936B0480916B048D3058F0A5
:1027D00090936B0480916C0490916D04019690939A
:1027E0006D0480936C040895CF93DF93EA01633006
:1027F00008F42197E62FF0E0EE5CFE4FE4919E0195
:10280000280F311DCE0164E070E00E943399260F3D
:10281000371FCE0160E971E00E943399260F371F00
:102820002E0F311DCE0164E670E00E943399C9017C
:10283000861B970B67E070E00E94339990E0DF9170
:10284000CF91089580916F04909170040197A0E357
:10285000B0E00C010E9499980895A0E3B0E00E94B6
:1028600088983196F0937004E0936F0480916F0420
:1028700090917004885E93402CF010927004109236
:102880006F04089580916F049091700489519C4F5A
:1028900024F41092700410926F0408951F920F9206
:1028A0000FB60F9211242F933F934F935F936F9323
:1028B0007F938F939F93AF93BF93EF93FF938091F9
:1028C000570487FF02C00E949A648091D2049091BD
:1028D000D304181619067CF58091D2049091D30484
:1028E00001979093D3048093D2048091D204909165
:1028F000D30418161906E4F4209164043091650499
:1029000021153105C1F080917304909174040197F1
:102910009093740480937304809173049091740471
:1029200097FF09C03093740420937304C49902C0C4
:10293000C49A01C0C49880914E0490914F040197AD
:1029400090934F0480934E04181619060CF449C056
:102950008AE090E090934F0480934E048091C704E6
:102960009091C804A091C904B091CA040196A11D18
:10297000B11D8093C7049093C804A093C904B09379
:10298000CA0480911A04815080931A04882349F55F
:102990008AE080931A04E0911504F09116043097B0
:1029A00009F009958091550481508093550488233E
:1029B000C1F484E68093550480918A0490918B043D
:1029C000A0918C04B0918D040196A11DB11D80933E
:1029D0008A0490938B04A0938C04B0938D040E947E
:1029E0008513E0915A04F0915B04309709F0099542
:1029F0008091D104882311F00E94097AFF91EF9110
:102A0000BF91AF919F918F917F916F915F914F9106
:102A10003F912F910F900FBE0F901F901895EF923E
:102A2000FF920F931F937B018C0161157105810546
:102A30009105D9F12FB7F8948091C7049091C804FB
:102A4000A091C904B091CA042FBFB801A701480FD3
:102A5000591F6A1F7B1F481759076A077B07A8F48D
:102A60008FB7F8941092C7041092C8041092C9044A
:102A70001092CA0410928A0410928B0410928C0453
:102A800010928D048FBFB801A7012FB7F8948091E1
:102A9000C7049091C804A091C904B091CA042FBF83
:102AA00084179507A607B70780F31F910F91FF9032
:102AB000EF9008952F923F924F925F926F927F9284
:102AC0008F929F92AF92BF92CF92DF92EF92FF923E
:102AD0000F931F93CF93DF93CDB7DEB7A2970FB6B7
:102AE000F894DEBF0FBECDBF0E942D142FB7F8940F
:102AF0008091690490E09B838A838091680490E0D0
:102B00009D838C838091670490E09F838E83809166
:102B10006A0490E09987888780916B0490E09B8796
:102B20008A8780916C0490916D049D878C8780903A
:102B30006F04909070042FBF0E948458EEE0AE2E78
:102B4000B12CAC0EBD1E3E010894611C711C72E0DC
:102B5000272E312C2C0E3D1E60E0462E61E0562EB5
:102B60000E94096285E291E00E948B29AC0160E03D
:102B700080E00E94AD580E811F81EC80FD80CA80EC
:102B8000DB8086E191E00E948B291F930F93FF92D7
:102B9000EF92DF92CF929F938F93BF92AF920E945A
:102BA0005C9021E0A50160E180E10E948B5E8C8554
:102BB0009D8564E670E00E9433998C01E884F98475
:102BC000CA84DB8487E091E00E948B291F930F93D6
:102BD000FF92EF92DF92CF929F938F93BF92AF922B
:102BE0000E945C9022E0A50160E280E10E948B5E81
:102BF0008EEF90E00E948B2923E0AC0160E380E13E
:102C00000E948B5E8CEF90E00E948B29E09158042B
:102C1000F0E0EE0FFF1FEE0FFF1F2091BA03E20F4F
:102C2000F11DEE0FFF1F2FEFAC0160E080EA8E1B5D
:102C30000E948B5E109218040E94A9582DB73EB7CF
:102C40002C5E3F4F0FB6F8943EBF0FBE2DBF8230B3
:102C500009F43CC0833009F488C0813009F0BAC05F
:102C60001E868CEE90E00E948B2949E0B5010E94FF
:102C70006D8686E090E08C0F9D1F9F938F937F92CF
:102C80006F9224E030E02C0F3D1F3F932F937F92F3
:102C90006F923F922F925F924F92BF92AF920E949B
:102CA00081908DB79EB70E960FB6F8949EBF0FBE5B
:102CB0008DBF8A819B814897A4F68C819D81CC979A
:102CC00084F68E819F81CC9764F684C01E868CED3D
:102CD00090E00E948B2949E0B5010E946D8681ED4C
:102CE00090E00E948B292CE030E02C0F3D1F3F9399
:102CF0002F937F926F9228E030E02C0F3D1F3F937F
:102D00002F937F926F922AE030E02C0F3D1F3F936C
:102D10002F939F938F93BF92AF920E948190EA85E9
:102D2000FB85CF0101972DB73EB7225F3F4F0FB60E
:102D3000F8943EBF0FBE2DBF0C9748F62885398505
:102D40001216130624F6E655FF4F849190E0821781
:102D500093070CF4BCCF8C859D8584369105D4F502
:102D60008053984F9D878C8735C08114910479F4E6
:102D700083EC90E00E948B299F938F93BF92AF9238
:102D80000E945C900F900F900F900F9014C087EBF3
:102D900090E00E948B299F928F929F938F93BF9276
:102DA000AF920E945C908DB79EB706960FB6F894CE
:102DB0009EBF0FBE8DBF68E6C5010E94888B4B0188
:102DC00098EE891693E099069CF629E182162CEF7D
:102DD000920674F20E94A9588F3F09F0C1CE1FB726
:102DE000F8948A81809369048C81809368048E8131
:102DF00080936704888580936A046A8560936B0476
:102E00004C855D8550936D0440936C040E94F413CF
:102E100080936E049092700480926F048FB7F89440
:102E20001092C7041092C8041092C9041092CA04E8
:102E300010928A0410928B0410928C0410928D04CC
:102E40008FBF1FBF0E94F56680916F049091700440
:102E50000197A0E3B0E00C010E9499980E943B33D7
:102E6000A2960FB6F894DEBF0FBECDBFDF91CF9113
:102E70001F910F91FF90EF90DF90CF90BF90AF9098
:102E80009F908F907F906F905F904F903F902F908A
:102E900008958F929F92AF92BF92CF92DF92EF925E
:102EA000FF920F931F93CF93DF93EC0197FF2CC0FA
:102EB000882799278C1B9D0B68E671E00E94339947
:102EC000FC01E254F74EE4910E2F112707FD1095F7
:102ED000212F312F8AE590E08C1B9D0B68E671E075
:102EE0000E943399FC01E254F74EE491CE2EDD248A
:102EF000C7FCD094ED2CFD2C3095209510950195B4
:102F00001F4F2F4F3F4F1FC068E671E00E9433995B
:102F1000FC01E254F74EE4910E2F112707FD1095A6
:102F2000212F312FCE01865A9F4F68E671E00E9413
:102F30003399FC01E254F74EE491CE2EDD24C7FC18
:102F4000D094ED2CFD2C922F812F702F6627A70196
:102F500096010E94689949015A01C2EED4E0CC243E
:102F6000DD247601C701B60120E031E040E050E009
:102F70000E9468992883C80CD91CEA1CFB1C219765
:102F800084E0CA3DD80771F7DF91CF911F910F916F
:102F9000FF90EF90DF90CF90BF90AF909F908F9079
:102FA000089581E191E09093A4078093A3078FEFA8
:102FB0009FEF909324048093230408950F931F930D
:102FC000CF93DF93182F062F0E94152AC0E0D0E080
:102FD0000DC04091E90441508091E604480F410F33
:102FE000612F852F800F0E94272E21965C2F8C2F1A
:102FF00090E04091E8042091E3043091E404240F30
:10300000311D821793072CF30E94152ADF91CF916F
:103010001F910F91089581E08093E5040E94733819
:1030200068E088E00E94721961E081E00E94611905
:1030300060E080E00E94501980E090E00E94491713
:1030400060E080E00E94062A08952F923F924F92FE
:103050005F926F927F928F929F92AF92BF92CF9228
:10306000DF92EF92FF920F931F93CF93DF93CDB731
:10307000DEB72B970FB6F894DEBF0FBECDBF1C0195
:103080002B01142F8091E504882311F40E940B1862
:10309000809123049091240491FF04C0642D822D1B
:1030A0000E94DE17C12EDD24CC0CDD1C21EE3BE09E
:1030B000C20ED31E52011C821B821A821982105B1F
:1030C0001F83CBC0F60165907490F30144914F3F8C
:1030D00009F4B4C0842F82958F70282F30E02770B8
:1030E0003070642F70E07E836D838B0107701070E9
:1030F0008091E6049091E7049B878A87F801E55266
:10310000FB4F8081992787FD9095FC016A857B851F
:10311000E69FC001E79F900DF69F900D112468E097
:1031200070E00E9433994B01EA85FB852E9FC00118
:103130002F9F900D3E9F900D1124FF81F03368F476
:103140002730310551F42A853B8521503040820FCC
:10315000931F2F5F3F4F3B872A8768E070E00E94F4
:103160003399798768872091E3043091E404029FC2
:10317000C001039F900D129F900D11245F81503369
:1031800048F40730110531F421503040820F931F6D
:103190002F5F3F4F68E070E00E9433998B01809170
:1031A000120482FF10C06A857B85615070407B8766
:1031B0006A87E885F9856E1B7F0B7987688790940D
:1031C00081949108939481FF05C021503040201BC9
:1031D000310B890128853985820E931E47FD04C075
:1031E0009C828B821A83098380FF0DC02B813C81D6
:1031F0002A0D3B1D49815A814E0D5F1DB4016A0D98
:103200007B1DC8010CC029813A812A0D3B1D4B81D1
:103210005C814E0D5F1DB8016A0D7B1DC4018E0DD2
:103220009F1D0E94713B3D8133FD08C00894611CC5
:10323000711C1A8309839C828B8247CF0894E11CFE
:10324000F11C8091EE04B101680F711DE616F706BE
:103250000CF438CF0894A11CB11C8091EB04F2014E
:10326000E80FF11DAE16BF0614F47101EACF2B96DC
:103270000FB6F894DEBF0FBECDBFDF91CF911F9187
:103280000F91FF90EF90DF90CF90BF90AF909F9005
:103290008F907F906F905F904F903F902F90089508
:1032A0000F931F93182F062F8091E504882311F4A4
:1032B0000E940B181093E9040093E8041F910F91EA
:1032C00008950F931F93182F062F8091E5048823EC
:1032D00011F40E940B181093EE040093EB041F915D
:1032E0000F9108950F931F93082F162F8091E504D7
:1032F000882311F40E940B18812F90E09093E4042E
:103300008093E304802F90E09093E7048093E60499
:103310001F910F910895CF93DF930E940B1860E2E5
:1033200080E20E9472190E943B33C0E0D0E08C2FF3
:1033300065E00E941399282F30E045E0220F331FEB
:103340004A95E1F78C2F0E941399892F90E04C2F1A
:10335000B90125E0880F991F2A95E1F70E942518E9
:103360002196C131D10519F70E94F5660E94EF66DA
:10337000DF91CF9108952F923F924F925F926F927B
:103380007F928F929F92AF92BF92CF92DF92EF92F5
:10339000FF920F931F93CF93DF93CDB7DEB72497A0
:1033A0000FB6F894DEBF0FBECDBF082F162F862FA5
:1033B00090E00796887F91709C838B83402E5524E4
:1033C00080E890E0B2010E9433993B0180E490E0F4
:1033D0006B817C810E943399669D4001679D900CB2
:1033E000769D900C11240E940B18612F802F0E9453
:1033F000721900E010E0CC24DD24EB81FC81F09513
:10340000E195FF4FFA83E9831401089421083108FC
:10341000C801B4010E9433995C01892B21F40E94F8
:103420003B33C980DA80C801B3010E9433997C0123
:10343000892BA1F48B819C81C80ED91E6C2D80E054
:103440000E94062A1F930F93EBE0F1E0FF93EF93A6
:103450000E940B900F900F900F900F90809123047B
:10346000909124049D7F9093240480932304E49CF2
:10347000C001E59C900DF49C900D1124402FB601E5
:103480004C960E9425188091230490912404926008
:103490009093240480932304A214B30421F40E9483
:1034A000F5660E94EF660F5F1F4FF1E000301F07C7
:1034B00009F0AECF24960FB6F894DEBF0FBECDBF95
:1034C000DF91CF911F910F91FF90EF90DF90CF9000
:1034D000BF90AF909F908F907F906F905F904F9034
:1034E0003F902F900895CF92DF92EF92FF920F932B
:1034F0001F93CF93DF93F82E062F6A018091230448
:103500009091240490FF14C08091580490E053E0FF
:10351000880F991F5A95E1F7682F0E9472198091C0
:103520005804682F0E94611960E080E00E945019E1
:10353000809112044091E3049091E9042091E60403
:103540003091E80480FF04C0E42EE90E122F03C07E
:10355000E22EE90E142F130FC0E0D0E001C0219637
:10356000F601EC0FF11D44914423F1F0602F70E05F
:103570008F2D90E00E9425188091120490E09C010C
:103580002071307083FF08C0232B11F0011B01C094
:10359000010F003520F308C0232B11F0FE1801C0E5
:1035A000FE0C8FE98F15D8F6DF91CF911F910F9107
:1035B000FF90EF90DF90CF900895EF92FF920F93DE
:1035C0001F93CF93DF93E82EF62EEA018091230418
:1035D0009091240490FF14C08091580490E063E01F
:1035E000880F991F6A95E1F7682F0E9472198091E0
:1035F0005804682F0E94611960E080E00E94501911
:10360000809112044091E3049091E9042091E60432
:103610003091E80480FF04C0042F090F122F03C06B
:10362000022F090F142F130F1FC06F2D70E08E2D66
:1036300090E00E9425188091120490E09C01207176
:10364000307083FF09C0232B11F0F11A01C0F10E75
:103650008FE48F1548F40BC0232B11F0E01A01C042
:10366000E00E8FE98E1518F049914423F1F6DF91B1
:10367000CF911F910F91FF90EF900895FF920F93BC
:103680001F93182F809123049091240490FF14C05D
:103690008091580490E073E0880F991F7A95E1F7C4
:1036A000682F0E94721980915804682F0E94611936
:1036B00060E080E00E945019809112044091E30480
:1036C0009091E9042091E6043091E80480FF04C061
:1036D000F42EF90E022F03C0F22EF90E042F030F61
:1036E000809123049091240480FF09C0173039F49D
:1036F00060ED77E088EC90E00E9414123AC081FF00
:1037000008C0183031F4809154048F1540F08F199F
:103710002EC082FF07C01C3029F41092750410924D
:10372000540427C083FF05C01A3019F410925404C2
:103730000CC084FF02C01D3091F385FF02C0193018
:1037400099F086FF08C01B3031F480917504800F1A
:10375000809375040EC06091750470E080915404EC
:10376000412F90E00E942518809154048F0D809382
:1037700054042091540430E080EA90E08F199109BC
:10378000821793073CF41092540480917504800FC3
:103790008093750440917504242F30E080E590E01B
:1037A000801B9109821793076CF48091230487FF93
:1037B00007C0401B40937504802F0E940E3002C04A
:1037C0001092750480E090E01F910F91FF90089592
:1037D000EF92FF921F93CF93DF938FEF0E948E8320
:1037E00080E00E945B830E943B330E940B1881E1C2
:1037F00091E09093A4078093A3078FEF9EEF90939F
:1038000024048093230466E084E00E94721982E01D
:103810008093E8048093E9048AE19EE00E948B296A
:103820009F938F930E940B908DEF9DE00E948B29B8
:103830009F938F930E940B9080EF9DE00E948B29B5
:103840009F938F930E940B9062E082E00E94611927
:103850006CE08CE00E94721984E08093E90486EEAB
:103860009DE00E948B299F938F930E940B900E9452
:10387000EF660E94F566C1E0D0E08DB79EB708966E
:103880000FB6F8949EBF0FBE8DBFE1EEEE2EEDE0B9
:10389000FE2E0E943B331C2F8C2F8F5F682F0E94BF
:1038A0006119110F110F110F612F812F0E947219D1
:1038B000C7010E948B29DF93CF939F938F930E9420
:1038C0000B9068EE73E080E090E00E940F1581E0BD
:1038D0000E9427660F900F900F900F90882321F47D
:1038E0002196C630D105A9F668EE73E080E090E03D
:1038F0000E940F150E94A227DF91CF911F91FF9088
:10390000EF900895CF92DF92EF92FF921F93CF93A3
:10391000DF93F82EC9E6DEE00DC00E941B71182F60
:10392000CE010E948B290E94E170812F0E94FA70C3
:103930000E94EE708091F105882379F788E59EE07A
:103940000E948B290E94E170CF2CDD24EE24FF24FD
:1039500042E050E0C701B6010E9478700E94EE700C
:10396000C7E4DEE00DC00E946E6E182FCE010E94EB
:103970008B290E943A6E812F0E94536E0E94476EDF
:1039800080917205882379F786E39EE00E948B2957
:103990000E943A6E42E050E0C701B6010E94D16D2C
:1039A0000E94476EDF91CF911F91FF90EF90DF90C3
:1039B000CF900895EF92FF920F931F93CF93DF93D1
:1039C00000E010E0EE24FF2419C0402F6E2D8C2F54
:1039D0000E943F300F5F1F4F0F3F110519F010F08D
:1039E00000E010E02896C03AD10579F788E090E031
:1039F000E80EF91E90E5E916F10419F0C0E0D0E0F8
:103A0000E4CFDF91CF911F910F91FF90EF90089538
:103A10000E94152A46E35FE060E080E00E941032D9
:103A200041E25FE068E080E00E9410324CE05FE03D
:103A300060E180E00E9410320E94152A47EF5EE0AC
:103A400068E180E00E94103242EE5EE060E280E0D9
:103A50000E9410324DEC5EE068E280E00E9410327D
:103A600048EB5EE060E380E00E94103243EA5EE0F3
:103A700068E380E00E9410324EE85EE060E480E09F
:103A80000E94103249E75EE068E480E00E94103254
:103A90000895FF920F931F93CF93DF93F0907604D6
:103AA000809129020E948E832FE440E56FE480E03C
:103AB0000E942B350FE410E0C0E5D0E02FE44C2F3E
:103AC000602F80E00E942B350A5010402F978FEF17
:103AD000C63FD80799F72FE440E06AE180E00E94F2
:103AE0002B358F2D0E948E83DF91CF911F910F91E7
:103AF000FF9008951F93CF93DF9310917604C0EC4D
:103B0000D0E09E014EE167E383E50E94B233CE012F
:103B10009695879596958795C81BD90B2897CD3094
:103B2000D10578F7812F0E948E83DF91CF911F916D
:103B30000895AF92BF92CF92DF92EF92FF920F93D0
:103B40001F93CF93DF93EC016B017A0180E10E9418
:103B5000FD839701220F331F2E0D3F1D220F331FB0
:103B6000C90188599E4F68E671E00E9433998C0123
:103B70000254174EF8010491C901825F9E4F68E616
:103B800071E00E943399FC01E254F74EE491FAE2AD
:103B9000EF02C0011124880F892F881F990B20EC98
:103BA000A22EB12C9C012A9DC0012B9D900D3A9D07
:103BB000900D112460E071E00E9433999B01275D14
:103BC0000F02A0011124440F452F441F550B405BE9
:103BD00069E280E50E942B35CE14DF0409F440C071
:103BE0009601220F331F2C0D3D1D220F331FC901DB
:103BF00088599E4F68E671E00E9433998C01025407
:103C0000174EF8010491C901825F9E4F68E671E08A
:103C10000E943399FC01E254F74EE491FAE2EF027C
:103C2000C0011124880F892F881F990B9C012A9DA0
:103C3000C0012B9D900D3A9D900D112460E071E024
:103C40000E9433999B01275D0F02A0011124440FAC
:103C5000452F441F550B405B69E280E50E942B35E0
:103C6000CC15DD0509F451C09E0175E0220F331F0C
:103C70007A95E1F7CC0FDD1F2C1B3D0B2C543F4FE9
:103C8000C60162E070E00E943399260F371FC90118
:103C90008C549F4F68E671E00E9433995EEBE52EED
:103CA00058E1F52EE80EF91EF701E490C901865A95
:103CB0009F4F68E671E00E943399FC01E254F74E91
:103CC000E49105E2E002C0011124880F892F881FCA
:103CD000990B9C012A9DC0012B9D900D3A9D900D42
:103CE000112460E071E00E9433999B01275D3E2D15
:103CF000300280011124000F012F001F110B005B07
:103D0000402F69E280E50E942B3581E00E94FD830F
:103D100020EC30E044E069E280E50E94B23380E0CC
:103D20000E94FD83DF91CF911F910F91FF90EF9043
:103D3000DF90CF90BF90AF9008950F931F93109195
:103D400076040091B6038AEA0E948E8383E00E9483
:103D5000FD8320EC30E047E268E280E50E94B23368
:103D600080E00E94FD83812F0E948E83802F0E941D
:103D70005B831F910F910895EF920F9306E02FE45C
:103D80004FE960E080E00E94F72D2FE44FE960E00A
:103D900080E00E942B352FE440E060E08FE90E9434
:103DA0002B3581E00E94FD838FEF0E948E8320ECF3
:103DB00030E042E368E280E50E94B23380E00E9496
:103DC0008E8320EC30E04DE268E280E50E94B23361
:103DD0008FEF0E948E8320EC30E048E268E280E5BD
:103DE0000E94B23380E00E948E8320EC30E043E2F8
:103DF00068E280E50E94B2338FEF0E948E8320EC50
:103E000030E04EE168E280E50E94B23380E00E943B
:103E10008E8320EC30E049E168E280E50E94B23315
:103E20008FEF0E948E8320EC30E044E168E280E571
:103E30000E94B23380E00E948E8320EC30E04FE09D
:103E400068E280E50E94B2338FEF0E948E8320ECFF
:103E500030E04AE068E280E50E94B23380E00E94F0
:103E60008E8320EC30E045E068E280E50E94B233CA
:103E70008FEF0E948E8381E10E94FD838FEF0E946D
:103E80008E8380E00E945B8364E1E62E04E12CE3F4
:103E90004CE364E184E10E94212A80E00E94FD83DA
:103EA0000F91EF9008951F93CF93DF938FEF0E94B0
:103EB0008E8380E00E945B8360E080E00E94062A9F
:103EC0000E94F56610925E0410E0CFE1D1E040E080
:103ED00060E070E0CE010E946D868823C1F38B31D3
:103EE00081F08D3071F090E00E942290185F1839B7
:103EF00028F060E080E00E94062A10E00E94F5664B
:103F0000E6CF0E94F56610925E04DF91CF911F917B
:103F10000895FF920F931F930E94152A4BE75FE0CD
:103F200068E480E00E9410320E94152A27E44FE9DD
:103F300067E480E00E942B3582E00E94D2830091EA
:103F4000580410E083E0000F111F8A95E1F749E75C
:103F50005FE060E080E00E9410326091580470E001
:103F600013E0660F771F1A95E1F747E75FE080E0FF
:103F70000E9410326091580470E0B4E0660F771F21
:103F8000BA95E1F745E75FE080E00E94103260916A
:103F90005804A8E1FA2E6F9DB001112443E75FE0B9
:103FA00080E00E94103249E65FE060E0802F0E94CE
:103FB00010326091580470E0F3E0660F771FFA95B5
:103FC000E1F74FE55FE0802F0E94103260915804C6
:103FD00070E0E4E0660F771FEA95E1F745E55FE002
:103FE000802F0E941032609158046F9DB0011124FF
:103FF0004BE45FE0802F0E94103281E00E94D28368
:104000001F910F91FF9008958F929F92AF92BF9250
:10401000CF92DF92EF92FF920F931F93CF93DF9394
:10402000909076048090B60382E00E94D2838091C3
:104030005804823018F482E00E94D283C0E0D0E0BD
:1040400086E9A82E8FE0B82E04E9C02E0FE0D02E0E
:1040500012E9E12E1FE0F12E00E91FE08C2F0E94F3
:1040600028848FEF0E948E8380E00E945B83809182
:10407000580420911204829FC0011124B3E0880FDC
:10408000991FBA95E1F7A50160E0885F0E941032A0
:104090000E94152A6091580470E0A3E0660F771F14
:1040A000AA95E1F780911204869F802D1124A60124
:1040B000885F0E9410320E94152A8091D00482608D
:1040C0000E94FD838AEA0E948E836091580470E00A
:1040D0008091120490E09C01629FC001639F900D4B
:1040E000729F900D1124F3E0880F991FFA95E1F764
:1040F000A701E4E0660F771FEA95E1F7885F0E9469
:10410000103285E50E948E832091580430E0B90179
:10411000660F771F620F731F43E0660F771F4A9584
:10412000E1F78091120490E0AC01249FC001259F2B
:10413000900D349F900D112423E0880F991F2A952C
:10414000E1F7A801885F0E9410328091D0048D7F32
:104150000E94FD832196C830D10509F07FCF80E011
:104160000E942884892D0E948E83882D0E945B8363
:1041700081E00E94D283DF91CF911F910F91FF9038
:10418000EF90DF90CF90BF90AF909F908F90089569
:104190008FEF0E948E8380E00E945B8326E446E4DA
:1041A0006AE08AE00E94713723E244E169E18AE033
:1041B0000E9471372CE346E462E38CE30E9471377E
:1041C0000E94152A22E24AE06AE18AE00E942B3529
:1041D0002BE346E463E386E40E942B350E94152A14
:1041E00084EF91E00E945A670E94F5664FEF68E203
:1041F00088E20E94C92F089525E24DE365E283E13C
:104200000E942B3527E34BE165E28DE30E942B35BD
:1042100029E148E267E38BE10E942B3527E345E380
:1042200069E188E20E942B3525E243E167E385E3FB
:104230000E942B354FEF68E288E20E94C92F089553
:104240000F931F93CF93DF9300917604C0E0D0E0EB
:104250004C2F4F5A61E58C2F0E94272E60E56C1B76
:1042600040E58C2F885D0E94272E2196C832D1050B
:1042700079F7802F0E948E83DF91CF911F910F914C
:1042800008951F93CF93DF9310917604C0E0D0E0A0
:10429000C0FF06C08C2F805B482F60E5865405C0A8
:1042A0008C2F40E54C1B60E5865F0E94272E2196EF
:1042B000C431D10569F7812F0E948E83DF91CF91A0
:1042C0001F910895CF92DF92EF92FF920F931F9369
:1042D000CF93DF9341E460E080E00E943F3042E40E
:1042E00060E088E00E943F3043E468E080E00E94A4
:1042F0003F3044E468E088E00E943F3027E04FE030
:1043000060E080E00E94713728E0C22ED12CC8E125
:10431000D0E0EC2C0C2F27E04FE060E080E00E9422
:10432000212A01E50C1B27E04FE060E080E00E94BD
:10433000212A219688E090E0C80ED91EC132D1050D
:1043400041F7F0907604C0E0D0E03EC0D02E6E2D54
:10435000802F0E941E27F801E770F070EA5FFD4F82
:104360009081982311F08FEF01C080E00E948E832E
:104370006C2D8D2D80570E9444330F5F1F4F0F30DF
:10438000110521F72196C031D105F1F48F2D0E943E
:104390008E83C0E0D0E01C2F6C2F80E00E941E278F
:1043A000105C482F612F80E00E94D2266C2F81E0A4
:1043B0000E941E27482F612F81E00E94D22621965D
:1043C000C031D10541F0E7CF00E010E0EC2E90E4E1
:1043D000C92ECC0EBBCFDF91CF911F910F91FF90D3
:1043E000EF90DF90CF9008951F93109176042FE403
:1043F0004FE960E080E00E9471378AEA0E948E8374
:104400008091D00482600E94FD8328E248E96EE03A
:1044100088E70E94B52D8FEF0E948E8380E00E9476
:10442000FD8325E448E968E288E70E94B52D812FE5
:104430000E948E830E94FC200E94491D0E944121FF
:104440000E947A1D1F91089581E00E94276620E056
:1044500030E0882311F021E030E0C9010895CF93C6
:10446000DF938091D0048E7F0E94FD8320EC30E0AA
:1044700044E161E482E30E94B2332CE34CE360E068
:1044800088E20E9471378091D00481600E94FD8390
:104490000E94152A20EC30E043E161E482E30E94AF
:1044A000B2332CE34BE361E089E20E94B52D38C0C2
:1044B00020EC30E040E161E482E30E94B233C9E3E2
:1044C000D0E049E36BE28C2F0E94272E64E170E07C
:1044D00080E090E00E940F1581E00E94276688230B
:1044E00029F52197C330D10561F70E94152AC4E050
:1044F000D0E049E36BE28C2F0E94272E64E170E04C
:1045000080E090E00E940F1581E00E9427668823DA
:1045100019F00E94152A0AC02196C933D10549F71E
:104520000E94152A0E942422882311F280E00E9412
:10453000FD83DF91CF9108950E9424228823E1F327
:104540000E9424228823E1F78AE290E00895EF9206
:10455000FF920F931F93CF93DF9380E00E94FD8320
:1045600000E010E0EE24FF2464C0402F6E2D8C2F5D
:104570000E943F300F5F1F4F0F3F110519F010F0E1
:1045800000E010E02896C03AD10579F788E090E085
:10459000E80EF91E90E5E916F10409F04AC0C0E002
:1045A000D0E040E5E42E00E02FE44FE960E08FE941
:1045B0000E94212AEE2401E02FE44EE960E080E031
:1045C0000E94212A00E02FE940E060E580E00E949F
:1045D000212A0E942422882321F42196C03AD10561
:1045E00001F70E942422882311F00E949C22C0E03F
:1045F000D0E030E5E32E00E02FE440E060E080E032
:104600000E94212AEE242FE44FE960E081E00E941D
:10461000212A0FE92FE940E060E580E00E94212A8D
:104620000E942422882341F42196C03AD10521F02A
:10463000E0CFC0E0D0E099CFDF91CF911F910F91F3
:10464000FF90EF9008958F929F92AF92BF92CF927A
:10465000DF92EF92FF920F931F93CF93DF930E940D
:104660003B336EEEA62E61E0B62EC0E0D0E05EEBEE
:10467000852E58E1952ECE01865A9F4F68E671E04F
:104680000E9433999C012254374EF9012491CE01A6
:1046900068E671E00E943399FC01E254F74EE49120
:1046A000D5010D911D915D01BFE2EB02C001112406
:1046B000880F892F881F990B30ECC32ED12CFC0159
:1046C000EC9DC001ED9D900DFC9D900D112460E0CE
:1046D00071E00E9433996B5DF80101900020E9F7C9
:1046E0003197E01BF10BEE0FEE0F80E58E1BFFE222
:1046F0002F0290011124220F232F221F330BA80118
:10470000820F0E94D5316E9621E0C836D20709F09B
:10471000B2CFE8E1F9E1E4913FE2E302E0011124E4
:10472000CC0FCD2FCC1FDD0BF40184918302C0018F
:104730001124880F892F881F990B9C012C9DC00183
:104740002D9D900D3C9D900D112460E071E00E9424
:1047500033995B01F1E0CF2ED12CC601865A9F4FD1
:1047600068E671E00E943399FC01E254F74EE4914F
:104770002FE2E20280011124000F012F001F110B14
:10478000C60168E671E00E943399FC01E254F74EDD
:10479000E491E20290011124220F232F221F330BF8
:1047A00080EC90E0AC01249FC001259F900D349FC8
:1047B000900D112460E071E00E9433997B01262F57
:1047C000275D402F405B6A2D675DDE01A05B8A2F6D
:1047D0000E942B350894C11CD11C5701E801B8E692
:1047E000CB16B1E0DB0609F0B8CF2FE44FE960E06B
:1047F00080E00E9471370E94F56663E6862E912C58
:1048000053E6A52EB12C03E610E0CC2481E00E94F3
:104810002766882311F50E942D1480916704C82F04
:10482000D0E0E0906804D0906904C017D10771F31C
:10483000CC2029F0A801B501C4010E94991DFF24D4
:104840000D2D10E0AE01B701C8010E94991D48016D
:1048500057018E01CC24C394D9CF0E94F5660E94E3
:104860003B33DF91CF911F910F91FF90EF90DF903D
:10487000CF90BF90AF909F908F9008952F923F92CE
:104880004F925F926F927F928F929F92AF92BF9260
:10489000CF92DF92EF92FF920F931F93CF93DF930C
:1048A000CDB7DEB765970FB6F894DEBF0FBECDBFAC
:1048B00082E00E947E290E94F56603E643E6642EAC
:1048C0004E010894811C911C3BE9232E3FE0332EBE
:1048D00028E9422E2FE0522E02C0072D6A2C81E0DB
:1048E0000E942766882309F015C10E942D1470903C
:1048F0006A04701609F4B4C070906A0482E00E94E1
:10490000D283B0905804BB0CBB0CB194AA248CE3A6
:10491000B80E0E943F380E943B3303E02FE44FE97A
:1049200060E080E00E94F72D80916C0490916D040E
:1049300064E670E00E941F996C01E0916B04F0E066
:10494000EE0FFF1FEB59FE4FE080F18000916A04EB
:1049500010E083EB9FE00E948B29DF92CF92FF92C1
:10496000EF921F930F939F938F939F928F920E942A
:104970005C90F40101900020E9F73197E819F909FA
:104980002091580483E0EE0FFF1F8A95E1F730E095
:10499000E29FE02D112400EAE02EF12CC7018E1BCE
:1049A000910962E070E00E943399CB01220F331F1E
:1049B000220F331F68E2621B0E94062A80EB9FE0F1
:1049C0000E948B299F928F929F938F930E940B90AE
:1049D000E0916E04F0E0EE0FFF1FE854FE4F0081FF
:1049E00011818DEA9FE00E948B291F930F939F9363
:1049F0008F939F928F920E945C90F401019000200F
:104A0000E9F73197E819F909A3E0EE0FFF1FAA951E
:104A1000E1F7809158048E9F802D1124E81AF10847
:104A2000C70162E070E00E943399CB016B2D0E94B8
:104A3000062A8AEA9FE00E948B299F928F929F9379
:104A40008F930E940B90A3948DB79EB748960FB694
:104A5000F8949EBF0FBE8DBF92E0A91609F059CF02
:104A6000A0906704A61409F438CFA090670482E0F0
:104A70000E94D28380915804880F880FE4E1BE2EF3
:104A8000B81A0E943F38C0906704DD24E0906804A3
:104A9000FF240091690410E0C1010E948B29DF927C
:104AA000CF92FF92EF921F930F939F938F939F92BA
:104AB0008F920E945C90F40101900020E9F73197F9
:104AC000E819F90973E0EE0FFF1F7A95E1F72091DD
:104AD00058042E9F202D112480EA90E0821B91091A
:104AE00062E070E00E943399CB016B2D0E94062A90
:104AF000C2010E948B299F928F929F938F930E9455
:104B00000B908DB79EB70E960FB6F8949EBF0FBE52
:104B10008DBFE3CE0E94F5660E9433380E943B337E
:104B200081E00E94D28365960FB6F894DEBF0FBE77
:104B3000CDBFDF91CF911F910F91FF90EF90DF904C
:104B4000CF90BF90AF909F908F907F906F905F902D
:104B50004F903F902F9008950F931F93082F0E941E
:104B60003B3314E064C0812F0E94821C0E943B33BF
:104B7000103119F40E94A7224BC01F3019F40E9473
:104B8000622146C01E3019F40E94C82041C01D3069
:104B900019F40E9420213CC01C3009F447C01B308E
:104BA00019F40E94042034C01A3019F40E94F42130
:104BB0002FC0193019F40E943E242AC0183019F46D
:104BC0000E94232325C0173019F40E949D1E20C087
:104BD000163019F40E94891F1BC0153019F40E9469
:104BE000531F22C0143019F40E94BC1E11C0133090
:104BF00019F40E94081D0CC0123019F40E94DA1C2E
:104C000007C0113011F48FEF01C080E00E94E9323B
:104C100068EC169FB00111248AEF90E00E941412F4
:104C200080ED97E00E945A670E94F5661F5F113180
:104C300008F499CF002311F014E095CF1F910F9144
:104C4000089580916300869586958095817090E0A7
:104C50000895AD9A00000000000080E0CF9B04C0E2
:104C6000823311F08F5FFACFAD9808951F931FEF35
:104C70001BBB1ABAAE9AAF9A0E942926AE981ABBED
:104C8000AF981F9108950F931F93182F062F0E941E
:104C90003626AF9A1BBBAD9A000000000000AD980D
:104CA000AF980BBBAD9A000000000000AD981F91BB
:104CB0000F910895DF92EF92FF920F931F9390EA66
:104CC000699F80011124080F111D23E01695079597
:104CD0002A95E1F78091500490915104080F191F13
:104CE00095E6E92EF12CF70180818B7F8083AE98C9
:104CF000DD24DA94DABA602F8AE00E944326012F7D
:104D00001127602F8BE00E944326F7018081846089
:104D10008083DBBA1ABAAE9A1F910F91FF90EF9081
:104D2000DF900895CF92DF92EF92FF920F931F933F
:104D3000C42E869586958695009150041091510455
:104D4000080F111D66956695669584E1689FB00110
:104D50001124060F171F45E6E42EF12CF701808180
:104D60008B7F8083AE98DD24DA94DABA602F8AE0F4
:104D70000E944326012F1127602F8BE00E944326BB
:104D80006C2D8CE00E944326F70180818460808333
:104D9000DBBA1ABAAE9A1F910F91FF90EF90DF9095
:104DA000CF900895CF92DF92EF92FF920F931F93CF
:104DB000C42E90EA699F80011124080F111D73E031
:104DC000169507957A95E1F78091500490915104DA
:104DD000080F191F65E6E62EF12CF70180818B7F05
:104DE0008083AE98DD24DA94DABA602F8AE00E94DC
:104DF0004326012F1127602F8BE00E9443260E943B
:104E00003626AF9A8CE08BBBAD9A00000000000004
:104E1000AD98AF98CBBAAD9A000000000000AD98F5
:104E2000F701808184608083DBBA1ABAAE9A1F9141
:104E30000F91FF90EF90DF90CF900895DF92EF9267
:104E4000FF920F931F9390EA699F80011124080F2E
:104E5000111DA3E016950795AA95E1F780915004DE
:104E600090915104080F191FF5E6EF2EF12CF70170
:104E700080818B7F8083AE98DD24DA94DABA602F4C
:104E80008AE00E944326012F1127602F8BE00E94A9
:104E900043260E943626AF9A8DE08BBBAD9A000068
:104EA00000000000AD98DBBA1ABAAE9A0E9429261B
:104EB000AF98AD9A000000000000AD98AF9A0E9434
:104EC0002926AF98AD9A00000000000089B3AD9884
:104ED000F701908194609083DBBA1ABAAE9A90E0A1
:104EE0001F910F91FF90EF90DF9008950F931F9304
:104EF00000915004109151049093510480935004F8
:104F000060E080E00E941E2710935104009350043B
:104F100090E01F910F9108950F931F93462F0091DA
:104F2000500410915104909351048093500460E018
:104F300080E00E94D22610935104009350041F91E8
:104F40000F9108958FE292E09093A4078093A307B6
:104F50008FEF9FEF90932404809323040895EF92A2
:104F6000FF920F931F937C018B010E948C27012FCE
:104F70001127602FC70101960E948C271F910F9166
:104F8000FF90EF900895CF92DF92EF92FF920F93F0
:104F90001F936C017A018B01642F0E948C27992743
:104FA000812F702F6F2DC60101960E948C27B801AA
:104FB00088279927C60102960E948C27E12EFF249C
:104FC000002711276E2DC60103960E948C271F9182
:104FD0000F91FF90EF90DF90CF900895EF92FF92A6
:104FE0000F931F937C0101960E947627082F10E0F3
:104FF000102F0027C7010E94762790E0802B912B6D
:105000001F910F91FF90EF900895CF92DF92EF9252
:10501000FF920F931F936C0103960E947627E82E50
:10502000FF2400E010E0102F0F2DFE2CEE24C6010F
:1050300002960E94762790E0A0E0B0E0E82AF92AE4
:105040000A2B1B2B102F0F2DFE2CEE24C6010196D0
:105050000E94762790E0A0E0B0E0E82AF92A0A2B27
:105060001B2B102F0F2DFE2CEE24C6010E9476273D
:1050700090E0A0E0B0E0E82AF92A0A2B1B2BC80137
:10508000B7011F910F91FF90EF90DF90CF9008959F
:1050900097FF06C0DB01BF770E947B98802D0AC076
:1050A00096FF03C0FB01849105C095FF05C0CB01AD
:1050B0000E94762790E00895FB01808190E008959A
:1050C00097FF06C0DB01BF770E948898CF01089543
:1050D00096FF04C0FB0185919491089595FF04C04B
:1050E000CB010E94EE270895FB01808191810895F4
:1050F000AF92BF92CF92DF92EF92FF920F931F93E6
:10510000CF93DF93EA01A22E6A01BB2411C07B0179
:105110008C010894E11CF11C011D111D0E944828FE
:10512000882351F0F60181936F01B394C801B70150
:10513000BA1469F77B018C01CB0DD11D1882C8010F
:10514000B701DF91CF911F910F91FF90EF90DF900A
:10515000CF90BF90AF9008956F927F928F929F9261
:10516000AF92BF92CF92DF92EF92FF920F931F9375
:10517000CF93DF935B016C013A014901E9010EC055
:105180007B018C010894E11CF11C011D111D0E9482
:105190004828F30181933F01C801B7012197FFEF30
:1051A000CF3FDF0769F7B40180E090E06A0D7B1D17
:1051B0008C1D9D1DDF91CF911F910F91FF90EF905E
:1051C000DF90CF90BF90AF909F908F907F906F9027
:1051D0000895DC01CB01B7FF06C0DC01BF77042EC8
:1051E0000E948D980895B5FF04C0642F0E948C27FB
:1051F0000895B6FD02C0FC0140830895DC01CB0197
:10520000B7FF06C0DC01BF770A010E949998089594
:10521000B5FF04C0BA010E94AF270895B6FD03C0D0
:10522000FC01518340830895BF92CF92DF92EF92A9
:10523000FF920F931F93CF93DF93B22EEA0100E00A
:1052400010C019916B017C010894C11CD11CE11C98
:10525000F11C412F0E94E928112339F00F5FC7018B
:10526000B6010B1571F76B017C01C701B601DF9127
:10527000CF911F910F91FF90EF90DF90CF90BF9053
:1052800008956F927F928F929F92AF92BF92CF922A
:10529000DF92EF92FF920F931F93CF93DF935B0107
:1052A0006C013A014901E9010EC0F30141913F014E
:1052B0007B018C010894E11CF11C011D111D0E9451
:1052C000E928C801B7012197FFEFCF3FDF0769F752
:1052D000B40180E090E06A0D7B1D8C1D9D1DDF9167
:1052E000CF911F910F91FF90EF90DF90CF90BF90E3
:1052F000AF909F908F907F906F900895853010F0C1
:1053000084E003C0882309F481E081508093D704AE
:105310008F5F90E008950F931F930CEB13E040E52F
:1053200050E0BC01C8010E94DB8FC8011F910F91A2
:105330000895CF93DF93CDB7DEB724970FB6F894D7
:10534000DEBF0FBECDBFDC01CB0129833A834B8387
:105350005C83B7FF09C0DC01BF7784E0FE013196B2
:10536000182E0E949E9814C0B5FF07C049815A812B
:105370006B817C810E94C3270BC0B6FD09C0FC0174
:1053800089819A81AB81BC8180839183A283B3831D
:1053900024960FB6F894DEBF0FBECDBFDF91CF913C
:1053A0000895CF93DF93CDB7DEB724970FB6F89467
:1053B000DEBF0FBECDBF97FF0DC0DB01BF7784E01E
:1053C000FE013196182E0E94839869817A818B8123
:1053D0009C8113C096FF06C0FB0165917591859174
:1053E00094910BC095FF04C0CB010E94052805C015
:1053F000FB01608171818281938124960FB6F894BC
:10540000DEBF0FBECDBFDF91CF910895982F80935F
:105410005404609375048091B903882329F070E0E7
:10542000892F90E00E94068308951F9310917604BF
:105430008091B6030E948E83812F0E945B831F910F
:1054400008952F923F924F925F926F927F928F9228
:105450009F92AF92BF92CF92DF92EF92FF920F9303
:105460001F93CF93DF93CDB7DEB76E970FB6F89447
:10547000DEBF0FBECDBF782EB62EC42ED22E902EFC
:10548000AE2C8091B903882349F0FF2410E030E06E
:1054900050E070E0872D90E00E943A7CDB1418F415
:1054A0008D2DDB2CB82EC71418F48C2DC72C782E1C
:1054B0002FE9291508F440C34C2D403A08F04FE974
:1054C000692D70E0842F90E087199109860F971F4E
:1054D000803A910528F04156481B471508F42CC323
:1054E000292D269526952695922FA22FBB27A7FD1D
:1054F000B095BA83A98337E0632E6920872D877022
:10550000681AB4E0B61524F4E8EF6E0E9F5F09C088
:10551000222339F0FCEF6F1624F438E0630E922F4B
:105520009150D3945D2D5B195C83DA94BA1428F002
:10553000BB82EA2C81E08D83A1C2EA2CEA94AC8183
:10554000EA0EDB82BFEFBD8399C2282F30E087FFD0
:105550001DC085FDC4C020E030E00DC0842F90E068
:10556000AA85BB85A80FB91FA855BB4F88559B4F6F
:10557000FC0180818C93122F442D421B2F5F3F4FE3
:105580008C859D852817390749F7AAC0C901837002
:105590009070892BE9F125FDA2C021FD0AC0509130
:1055A0007604472D20E030E06E817F81685F7F4F79
:1055B00026C0E0FEF4CF509176045095472D20E0B0
:1055C00030E06E817F81685F7F4F08C0AA85BB8510
:1055D000A10FB11DA855BB4F5C93485F122F2F5FE1
:1055E0003F4F842F90E06817790784F779C0AA8528
:1055F000BB85A10FB11DA855BB4F5C93485F122F0F
:105600002F5F3F4F842F90E06817790784F768C0B9
:1056100000EA9B81909F80011124070D111D93E0EA
:10562000169507959A95E1F7809150049091510451
:10563000080F191F809165008B7F80936500AE98DD
:10564000FF24FA94FABA602F8AE00E944326012FC1
:105650001127602F8BE00E9443260E943626AF9AC6
:105660008DE08BBBAD9A000000000000AD98FBBA46
:105670001ABAAE9A0E942926AF98AD9A000000008F
:105680000000AD98072D1C8E1B8E12C0AF9A0E9491
:105690002926AF98AD9A00000000000089B3AA85C2
:1056A000BB85A10FB11DA855BB4F8C93AD98085F6A
:1056B0001B8DAB8DBC8D1196BC8FAB8F802F90E076
:1056C000E885F985E817F9070CF780916500846093
:1056D000809365008FEF8BBB1ABAAE9A01C010E0C1
:1056E000A091D0046A2FA5FD41C0462D16148CF060
:1056F0001FC05B2FF9010AC09181990F91838081AE
:1057000087FF02C0916091835150319757FFF4CFCA
:105710000CC0B12FB1502B2F332727FD3095898135
:105720009A81280F391F29553B4F415010F71EC051
:10573000662099F41BC0ED8DFE8D90819695908327
:10574000818180FF02C0906890832F5F8D8D9E8D38
:1057500001969E8F8D8F211771F74F5F413031F089
:10576000EE85FF85FE8FED8F20E0F5CF61FF03C052
:105770008A2F8F7D05C0862F817821F08A2F806245
:105780000E94FD83852C288939894A895B892417E1
:10579000350709F04AC0A88DB98D1C91F1018081AF
:1057A000182B8091D004282F30E0C9018C719070A3
:1057B000892B49F46E2D892D0E941E278123109577
:1057C000D6019C9109C022FF0AC06E2D892D0E942E
:1057D0001E271095F60190811923182B19C023FF5D
:1057E0000CC06E2D892D0E941E27912F9095D601F9
:1057F0002C919223192B18230BC024FF09C06E2D66
:10580000892D0E941E271095F601908119231827D3
:105810008091D00486FF03C0D6011C9329C1412F7B
:105820006E2D892D0E94D22623C1EC89FD89EF2B94
:1058300011F4F92C3BC06E2D892D0E941E27482F94
:105840008091D004682F70E0CB018C719070892B0F
:1058500021F4D1018C91482304C062FF08C0D1011A
:105860008C918095F60190818923482B15C063FFA8
:105870000AC0D1018C91982F9095F6012081922336
:10588000982B492309C064FF07C0D1018C918095F2
:10589000F60190818923482766FF03C0D6014C9307
:1058A00004C06E2D892D0E94D226FA8CEE89FF89C4
:1058B000379709F445C06E2D852D0E941E27482F6D
:1058C0008091D004682F70E0CB018C719070892B8F
:1058D00029F4A88DB98D8C91482305C062FF09C0B9
:1058E000A88DB98D8C918095F50190818923482BE5
:1058F00017C063FF0BC0A88DB98D8C91982F909520
:10590000F50120819223982B49230AC064FF08C027
:10591000A88DB98D8C918095F501908189234827B8
:1059200066FF03C0D5014C9304C06E2D852D0E94E7
:10593000D226B8EF8B2E8520BFE9B81508F498C0A1
:10594000F81408F095C08091D004282F30E0C901E8
:105950008C719070892B09F04DC026FD89C000EA3A
:10596000E09E800111240F0D111DA3E016950795EF
:10597000AA95E1F78091500490915104080F191FE6
:10598000809165008B7F80936500AE988FEF8ABB16
:10599000602F8AE00E944326012F1127602F8BE0A1
:1059A0000E9443260E943626AF9A8CE08BBBAD9AAC
:1059B000000000000000AD980E943626EF2DE6950D
:1059C000E695E695F0E0E855FB4F80818BBBAD9AFC
:1059D000000000000000AD98E8E0FE0EF81460F34F
:1059E000809165008460809365008FEF8BBB1ABA4D
:1059F000AE9A3EC06E2D8F2D0E941E27482F80919B
:105A0000D004282F82FF0AC0EF2DE695E695E69593
:105A1000F0E0E855FB4F8081482B17C083FF0AC098
:105A2000EF2DE695E695E695F0E0E855FB4F808191
:105A300048230BC084FF09C0EF2DE695E695E69557
:105A4000F0E0E855FB4F8081482726FF09C0EF2D85
:105A5000E695E695E695F0E0E855FB4F408304C0F7
:105A60006E2D8F2D0E94D226F8E0FF0EF81410F252
:105A70002B813D81230F2B83E30E53C0A42FB0E075
:105A8000BF83AE831196B987A887E92FFF27E7FD6B
:105A9000F095FB87EA87CD01E3E095958795EA9538
:105AA000E1F7482E4394842D90E04A9401969D8717
:105AB0008C87A981BA81A855BB4FBF87AE87592C67
:105AC0005718540E852D90E0FB01E87FF98BE88B89
:105AD000AC01487F5B8B4A8B677070707D8B6C8BE1
