:100000000C94D40A0C94F50A0C94F50A0C94F50A95
:100010000C94F50A0C94F50A0C94F50A0C94F50A64
:100020000C94F50A0C94F50A0C94F50A0C94F50A54
:100030000C94F50A0C94F50A0C94F50A0C94F50A44
:100040000C94F50A0C94F50A0C94F50A0C94F50A34
:100050000C94EB0B0C94A2500C94F50A0C94F50A3A
:100060000C94F50A0C9445590C94F50A0C94C5535C
:100070000C94F50A0C94F50A0C94F50A0C943D0CBA
:100080000C94710C0C94F50A0C94F50A0C94F50A76
:100090000C949D560C94F50A0C9434540C94F50A67
:1000A0000C94F50A0C94F50A0C94F50A0C94F50AD4
:1000B0000C94F50A0C94F50A0C94F50A0C94F50AC4
:1000C0000C94F50A0C94F50A0C94F50A05A84CCD8D
:1000D000B2D44EB93836A9020C50B9918688083C82
:1000E000A6AAAA2ABE000000803F536F6E6172204C
:1000F00020202020202020537765657000536F6EEC
:10010000617220496E69742E2E2E2E0025303464C3
:1001100000546F7563682073637265656E20746F39
:1001200020657869740043616C6962726174696FFB
:100130006E20636F6D706C6574650043616C6962FD
:10014000726174696F6E2043414E43454C454400D3
:1001500043414C3A25346C642C252D346C640041A9
:1001600044433A25346C642C252D346C640043419F
:100170004E43454C002020205468656E20746F75F6
:1001800063682027582700202020546F756368205B
:100190006561636820272B2700546F7563682043CF
:1001A000616C6962726174696F6E0058002B002B7C
:1001B0000000020407090B0D0F121416181A1D1F58
:1001C00021232527292B2E30323436383A3C3E4025
:1001D00041434547494B4C4E5052535557585A5B33
:1001E0005D5E60616364656768696B6C6D6E6F709E
:1001F00071727374757677777879797A7B7B7C7C8A
:100200007D7D7D7E7E7E7F7F7F7F7F7F7F7F7F7F07
:100210007F7E7E7E7D7D7D7C7C7B7B7A7979787725
:1002200077767574737271706F6E6D6C6B696867D9
:1002300065646361605E5D5B5A5857555352504E1A
:100240004C4B4947454341403E3C3A3836343230C6
:100250002E2B29272523211F1D1A181614120F0DC6
:100260000B0907040200FEFCF9F7F5F3F1EEECEAE6
:10027000E8E6E3E1DFDDDBD9D7D5D2D0CECCCAC802
:10028000C6C4C2C1BFBDBBB9B7B5B4B2B0AEADABE9
:10029000A9A8A6A5A3A2A09F9D9C9B999897959479
:1002A000939291908F8E8D8C8B8A8989888787868F
:1002B0008585848483838382828281818181818117
:1002C0008181818181828282838383848485858602
:1002D00087878889898A8B8C8D8E8F909192939451
:1002E000959798999B9C9D9FA0A2A3A5A6A8A9AB12
:1002F000ADAEB0B2B4B5B7B9BBBDBFC1C2C4C6C85C
:10030000CACCCED0D2D5D7D9DBDDDFE1E3E6E8EA4F
:10031000ECEEF1F3F5F7F9FCFE000306090C1013FF
:1003200016191C1F2225282B2E313336393C3F410C
:100330004447494C4E515355585A5C5E606264665E
:10034000686A6B6D6F70717374757678797A7A7B81
:100350007C7D7D7E7E7E7F7F7F7F7F7F7F7E7E7EBA
:100360007D7D7C7B7A7A79787675747371706F6D28
:100370006B6A68666462605E5C5A585553514E4CB5
:10038000494744413F3C393633312E2B2825221F23
:100390001C191613100C09060300FDFAF7F4F0ED12
:1003A000EAE7E4E1DEDBD8D5D2CFCDCAC7C4C1BF0E
:1003B000BCB9B7B4B2AFADABA8A6A4A2A09E9C9A9C
:1003C0009896959391908F8D8C8B8A888786868559
:1003D0008483838282828181818181818182828200
:1003E00083838485868687888A8B8C8D8F90919372
:1003F0009596989A9C9EA0A2A4A6A8ABADAFB2B4C5
:10040000B7B9BCBFC1C4C7CACDCFD2D5D8DBDEE136
:10041000E4E7EAEDF0F4F7FAFD25346420253464CE
:10042000204825336400580050004E005A4D001BF0
:1004300018191A2053204800204D61702044656D22
:100440006F00008040C020A060E0109050D030B01D
:1004500070F0088848C828A868E8189858D838B8AC
:1004600078F8048444C424A464E4149454D434B4C4
:1004700074F40C8C4CCC2CAC6CEC1C9C5CDC3CBC4C
:100480007CFC028242C222A262E2129252D232B2B8
:1004900072F20A8A4ACA2AAA6AEA1A9A5ADA3ABA4C
:1004A0007AFA068646C626A666E6169656D636B664
:1004B00076F60E8E4ECE2EAE6EEE1E9E5EDE3EBEEC
:1004C0007EFE018141C121A161E1119151D131B182
:1004D00071F1098949C929A969E9199959D939B91C
:1004E00079F9058545C525A565E5159555D535B534
:1004F00075F50D8D4DCD2DAD6DED1D9D5DDD3DBDBC
:100500007DFD038343C323A363E3139353D333B327
:1005100073F30B8B4BCB2BAB6BEB1B9B5BDB3BBBBB
:100520007BFB078747C727A767E7179757D737B7D3
:1005300077F70F8F4FCF2FAF6FEF1F9F5FDF3FBF5B
:100540007FFF00000000000000007E81A581BD99B2
:10055000817E7EFFDBFFC3E7FF7E367F7F7F3E1C11
:100560000800081C3E7F3E1C08001C3E1C7F7F3E8E
:100570001C3E08081C3E7F3E1C3E0000183C3C18F8
:100580000000FFFFE7C3C3E7FFFF003C664242668F
:100590003C00FFC399BDBD99C3FFF0E0F0BE33330B
:1005A000331E3C6666663C187E18FCCCFC0C0C0EB8
:1005B0000F07FEC6FEC6C6E66703995A3CE7E73C4E
:1005C0005A9901071F7F1F07010040707C7F7C70D4
:1005D0004000183C7E18187E3C1866666666660009
:1005E0006600FEDBDBDED8D8D8007CC61C36361CA5
:1005F000331E000000007E7E7E00183C7E187E3C8C
:1006000018FF183C7E1818181800181818187E3C87
:1006100018000018307F30180000000C067F060C10
:10062000000000000303037F0000002466FF66242F
:10063000000000183C7EFFFF000000FFFF7E3C181A
:10064000000000000000000000000C1E1E1E0C0038
:100650000C00363636000000000036367F367F3616
:1006600036000C3E031E301F0C00006333180C666E
:1006700063001C361C6E3B336E0006060300000050
:100680000000180C0606060C1800060C1818180CAA
:10069000060000663CFF3C660000000C0C3F0C0CA2
:1006A000000000000000000C0C060000003F0000ED
:1006B000000000000000000C0C006030180C060365
:1006C00001003E63737B6F673E000C0E0C0C0C0C3C
:1006D0003F001E33301C06333F001E33301C3033C6
:1006E0001E00383C36337F3078003F031F303033F4
:1006F0001E001C06031F33331E003F3330180C0C42
:100700000C001E33331E33331E001E33333E3018AD
:100710000E00000C0C00000C0C00000C0C00000C77
:100720000C06180C0603060C180000003F00003FE2
:100730000000060C1830180C06001E3330180C0090
:100740000C003E637B7B7B031E000C1E33333F3368
:1007500033003F66663E66663F003C660303036601
:100760003C001F36666666361F007E06061E0606BD
:100770007E007E06061E060606003C6603037366C0
:100780007C003333333F333333001E0C0C0C0C0C22
:100790001E007830303033331E006766361E3666F2
:1007A00067000606060606067E0063777F7F6B639A
:1007B000630063676F7B736363001C366363633638
:1007C0001C003F66663E06060F001E3333333B1E99
:1007D00038003F66663E366667001E33070E3833C4
:1007E0001E003F0C0C0C0C0C0C0033333333333332
:1007F0003F0033333333331E0C006363636B7F7707
:1008000063006363361C1C3663003333331E0C0CE9
:100810001E007F6030180C067F001E0606060606C6
:100820001E0003060C18306040001E181818181817
:100830001E00081C366300000000000000000000DD
:1008400000FF0C0C18000000000000001E303E33BA
:100850006E000706063E66663B0000001E3303334B
:100860001E003830303E33336E0000001E333F032D
:100870001E001C36060F06060F0000006E33333EC6
:10088000301F0706366E666667000C000E0C0C0CF7
:100890001E00300030303033331E070666361E36F9
:1008A00067000E0C0C0C0C0C1E000000337F7F6BDD
:1008B000630000001F333333330000001E33333333
:1008C0001E0000003B66663E060F00006E33333E9E
:1008D000307800003B6E66060F0000003E031E30BD
:1008E0001F00080C3E0C0C2C18000000333333336F
:1008F0006E0000003333331E0C000000636B7F7FFB
:100900003600000063361C36630000003333333E8C
:10091000301F00003F190C263F00380C0C070C0C50
:1009200038001818180018181800070C0C380C0C90
:1009300007006E3B00000000000000081C366363E7
:100940007F003E6303633E30603E00330033333349
:100950006E0038001E333F031E007E813C607C66C3
:10096000DC0033001E303E336E0007001E303E3385
:100970006E000C0C1E303E336E0000003E63031E02
:10098000301C7E813C667E063C0033001E333F03F4
:100990001E0007001E333F031E0033000E0C0C0C1C
:1009A0001E003E411C1818183C0007000E0C0C0CD1
:1009B0001E0063083E637F6363000C0C001E333F20
:1009C000330038003F061E063F000000FE30FE33B5
:1009D000FE007C36337F333373001E21001E333319
:1009E0001E000033001E33331E000007001E333389
:1009F0001E001E21003333336E00000700333333F3
:100A00006E0000330033333E301FC3183C66663C33
:100A100018003300333333331E0018187E03037E6F
:100A200018181C36260F06673F0033331E0C3F0C88
:100A30003F0C1F33335F63F363C370D8183C18183F
:100A40001B0E38001E303E336E001C000E0C0C0CCA
:100A50001E000038001E33331E00003800333333CD
:100A60006E00001F001D333333003F0033373F3B20
:100A700033003C36367C007E00001C36361C003EBF
:100A80000000180018180C663C000000003F03032B
:100A900000000000003F3030000063331B6CD64381
:100AA00021F0C36333DBECB6F3C0180018183C3CEC
:100AB000180000CC663366CC0000003366CC663389
:100AC00000004411441144114411AA55AA55AA55D5
:100AD000AA55DB6FDBF6DB7EEBB718181818181871
:100AE0001818181818181F18181818181F181F1871
:100AF00018186C6C6C6C6F6C6C6C000000007F6C78
:100B00006C6C00001F181F1818186C6C6F606F6CED
:100B10006C6C6C6C6C6C6C6C6C6C00007F606F6CE3
:100B20006C6C6C6C6F607F0000006C6C6C6C7F0098
:100B3000000018181F181F000000000000001F18F8
:100B4000181818181818F800000018181818FF00BE
:100B5000000000000000FF18181818181818F818DE
:100B6000181800000000FF00000018181818FF18DF
:100B700018181818F818F81818186C6C6C6CEC6CBD
:100B80006C6C6C6CEC0CFC0000000000FC0CEC6C61
:100B90006C6C6C6CEF00FF0000000000FF00EF6C5D
:100BA0006C6C6C6CEC0CEC6C6C6C0000FF00FF006F
:100BB00000006C6CEF00EF6C6C6C1818FF00FF000D
:100BC00000006C6C6C6CFF0000000000FF00FF1860
:100BD000181800000000FF6C6C6C6C6C6C6CFC00F6
:100BE00000001818F818F80000000000F818F818AD
:100BF000181800000000FC6C6C6C6C6C6C6CFF6C6A
:100C00006C6C1818FF18FF181818181818181F00FF
:100C1000000000000000F8181818FFFFFFFFFFFF9A
:100C2000FFFF00000000FFFFFFFF0F0F0F0F0F0F70
:100C30000F0FF0F0F0F0F0F0F0F0FFFFFFFF00001A
:100C4000000000006E3B133B6E00001E331F331F7D
:100C50000303003F33030303030000007F363636EF
:100C600036003F33060C06333F0000007E1B1B1B83
:100C70000E0000666666663E0603006E3B18181896
:100C800018003F0C1E33331E0C3F1C36637F633647
:100C90001C001C36636336367700380C183E33333D
:100CA0001E0000007EDBDB7E000060307EDBDB7E32
:100CB00006031C06031F03061C001E3333333333A5
:100CC0003300007E007E007E000018187E18180099
:100CD0007E00060C180C06003F00180C060C1800CD
:100CE0003F0070D8D8181818181818181818181B9A
:100CF0001B0E1818007E00181800006E3B006E3B9B
:100D000000001C36361C000000000000001818000F
:100D100000000000000018000000F03030303736CE
:100D20003C381A363636360000000E190C061F0005
:100D3000000000003C3C3C3C0000007E424242423D
:100D40007E000A434845434B53554D204552524F70
:100D5000520A000A434845434B53554D204F4B0A16
:100D6000000A434845434B53554D20534156454493
:100D70000A00434845434B53554D2073623A253092
:100D800034580A00434845434B53554D2069733A44
:100D9000253034580A002025303258002530345888
:100DA0003A004558495400434C4541522043484578
:100DB000434B504F494E540044554D5020746F20C2
:100DC000434F4D3000436865636B506F696E74200C
:100DD00044756D703A20253032580044554D5049C5
:100DE0004E472052414D3A2025303258005800538A
:100DF000657420636C6F636B00496E766572742056
:100E0000627574746F6E730042656570657200423E
:100E100061636B6C69676874004D69736320536527
:100E2000747570204D656E7500312E30320053653B
:100E300074757000200058002000580058002000F1
:100E4000001F1D1F1E1F1E1F1F1E1F1E1F2564208B
:100E50006D736563732F6872002B2F2D206D736582
:100E600063732F687220002564256325642563253C
:100E70006400444154453A204D4D2F44442F595964
:100E80003F0054494D453A2048483A4D4D3A535356
:100E90003F0058002041444A555354200025303229
:100EA000642F253032642F253032640025303264BF
:100EB0003A253032643A2530326400536574205448
:100EC000696D65204D656E75000003020500030520
:100ED00001040602044441544120426974733F00F6
:100EE0004261756420726174653F00580054494D39
:100EF000454F5554005254530043545300464C4FF1
:100F0000572043544C00584D495400524356005802
:100F10004F4E2F584F4646004556454E004F4444CD
:100F2000005061726974793A200053544F503A204E
:100F3000256400444154413A2025640042617564AF
:100F400020726174653A2025366C6400434F4D254C
:100F500064205365747570204D656E75000500F84A
:100F600000AF00FF00FF00FF001E00F2004F00FF77
:100F700000FF00FF00FF00FF00FF00FF00FF00FF79
:100F80000041003900B800BF00FF00FF00FF00FF74
:100F900000FF00FF00FF00FF00FF00FF00FF00FF59
:100FA00000FF00FF001E00FF00FF00FF00FF00FF2A
:100FB000002E00DC00FF00FF00FF00FF000E00DA43
:100FC00000FF00FF00FF00FF000C00F200AF005721
:100FD00000FF00FF005700FE00DF00FF00FF00FFE2
:100FE00000DA00FF00FF00FF00FF00FF005700FFD6
:100FF00000FF00FF00FF00FF008A00FF00FF00FF6E
:1010000000FF00FF002A00FF00FF00FF00FF00FFBD
:1010100000830014009B008F00FF00FF003100BF21
:1010200000AC00FF00FF00FF00310047008A00CF46
:1010300000FF00FF0001004900BA00F5007F00FF3B
:1010400000B60051006700FF00FF00FF00200056BF
:10105000009B00AF00FF00FF0021005800B90075A1
:1010600000FF00FF000200AF00FF00FF00FF00FFD5
:1010700000630014006900B8006F00FF008B00944B
:101080000013005D007F00FF001E00FD00BF00FF99
:1010900000FF00FF001E00FD00AF00FF00FF00FF8B
:1010A000002500CF00FF00FF00FF00FF005700F801
:1010B000009F00FF00FF00FF000700AF00FF00FFE0
:1010C00000FF00FF00BD0074001300FF00FF00FFE1
:1010D000009B00830014007D005E00D500A5001772
:1010E00000CF005700FF00FF00A00014006900BA05
:1010F000000F00560041003800B900FF00FF00FF5C
:10110000000A00B90041000F00FF00FF002000AC02
:1011100000F5006F00FF00FF002000AF005600FF49
:1011200000FF00FF0041003800B9007600FF00FF1B
:10113000000A00F200CF007500FF00FF000200FA75
:1011400000CF001B00FF00FF002900B800FF00FFD8
:1011500000FF00FF000A00F2005C00FF00FF00FF3C
:10116000000A00CF00FF00FF00FF00FF00A000E228
:1011700000CF00FF00FF00FF00A000C200FF00FF43
:1011800000FF00FF0031004900B8003F00FF00FFF2
:1011900000A00014006500FF00FF00FF00DC00F865
:1011A0000031004900B800FF00A00014006500CF26
:1011B00000FF00FF0041003900B800FF00FF00FF02
:1011C000000200F100BF00FF00FF00FF000800B9AF
:1011D000002F00FF00FF00FF000B002F00FF00FFAB
:1011E00000FF00FF000A006C002F00FF00FF00FF5F
:1011F000000C00F200AF00FF00FF00FF000E002B0C
:1012000000FF00FF00FF00FF000200AC00FF00FF36
:1012100000FF00FF002100BC00FF00FF00FF00FFF7
:10122000000C00FF00FF00FF00FF00FF000100BAFC
:1012300000FF00FF00FF00FF0051007F00FF00FFE4
:1012400000FF00FF00AC00FF00FF00FF00FF00FFF9
:10125000000E00FF00FF00FF00FF00FF00252D3102
:1012600036730025313673005800434C5200444514
:101270004C0020F1200048455800464958002E30C7
:101280003000302E3D2F0031323378003435362B8C
:10129000003738392D00302E3D2000313233200008
:1012A000343536200037383920004445430030209B
:1012B0003D2F0031323378003435362B20444546FB
:1012C000003738392D204142430030203D00313273
:1012D0003300343536204445460037383920414202
:1012E0004300FD33363336373C3A3A3B3B3B3B3CDD
:1012F0003C323F3F4B3F4B404C3D403C3C3C3C3CF8
:101300003B3E3B3F3B3F3B443B48344C324C324CF2
:1013100032502F4F2D4F2D4F2D4E2B4E2B4E2B4CF1
:101320002B4B2F492C492C482A4D2B4C284C284B11
:10133000254729462946293B2B2E2B3114311432BF
:10134000113A003900390037013200300330032DE3
:101350000A2D172B192B19270C17080A150A150522
:10136000190A000900FE04000400000105200829F4
:10137000082908290629062806280425021401152B
:10138000011500150129042C042C062E082C082C0C
:10139000082C1D2327263336FD413841383F383E7F
:1013A000383D38FE403640364037413741374137C7
:1013B0004237433643354335433542344134413473
:1013C00040343F353F353F353F363F364036FE3DB2
:1013D000373D373D373D373D373D373D353E33416E
:1013E000334133433345334535453545364338413D
:1013F00038FD0E23FE25232523262326232622FE21
:1014000026172617261626162516FE21162116281B
:101410001827221B211B211C1D1C191C16FE1A1625
:101420001A161A191A1D1B21FE1721FE151BFE1371
:1014300021FE0F210F210F1D0F190F16FE0E160E84
:10144000160E160E160E17FE0E220E220E230E2359
:101450000E23FE0E23FD1816FE181AFE1516FE1892
:1014600016FE1816FD1516FE121AFE1216FE151699
:10147000FE1516FD1E1FFE1E171E172518231F1E04
:101480001FFF21402324255E262A2F2E007E27229F
:101490005C3C3E7B7D5B5D0021402324255E262A4B
:1014A0002F2E005A584356424E4D2B2D3D005A5870
:1014B0004356424E4D2C2E2F005A584356424E4D05
:1014C0002B2D3D004153444647484A4B4C3B00417D
:1014D00053444647484A4B4C3A00415344464748D8
:1014E0004A4B4C3B0051574552545955494F5000B7
:1014F00051574552545955494F5000515745525430
:101500005955494F50003132333435363738393038
:1015100000313233343536373839300031323334F4
:101520003536373839300053480021402324255EB2
:10153000262A2F2E007368007E27225C3C3E7B7D8E
:101540005B5D002020004352004253004553005A87
:10155000584356424E4D2B2D3D005A584356424E4D
:101560004D2C2E2F004153444647484A4B4C3B00DC
:101570004153444647484A4B4C3A00515745525410
:101580005955494F500051574552545955494F509C
:101590000031323334353637383930003132333474
:1015A000353637383930000011241FBECFEFD1E275
:1015B000DEBFCDBF00E00CBF13E0A0E0B2E0EEE282
:1015C000F0EF00E00BBF02C007900D92AA38B10700
:1015D000D9F718E0AAE8B3E001C01D92A030B10726
:1015E000E1F70E94E60B0C94C70D0C940000FF92EB
:1015F0000F93CF93DF93C091F404D091F5042FEFB4
:10160000CF3FD20709F498C0F8948FEF9FEF9093E3
:10161000F5048093F404789482E00E9407426CE31E
:1016200080E00E9496248CE091E00E941B24DF93CE
:10163000CF939F938F930E94CA0D81E00E9407422F
:10164000CE0166E070E00E944C77062F0F900F905D
:101650000F900F90643208F003E2E0919707F09149
:101660009807EF01CE52DF4F10921506E759FB4F56
:101670008081BE0190E00E94DC1EE0919707F0910E
:101680009807E759FB4F0083FF24FA94F092150660
:10169000BE01802F90E00E94DC1E809165058823AA
:1016A00019F481E0809365058091970790919807E0
:1016B0008837910544F0F092650588E790E09093B3
:1016C000980780939707809197079091980718162D
:1016D00019063CF081E080936505109298071092FE
:1016E000970780916505992787FD90952091970729
:1016F00030919807820F931F9093980780939707D4
:101700009C01B901882777FD8095982F97FF04C029
:1017100060E070E080E090E027EE33E040E050E0F1
:101720000E94197728E730E040E050E00E9481777E
:10173000B90180E00E946C4DDF91CF910F91FF9035
:10174000089560E082E00E941D330E94B22D8FEF69
:101750000E94C34180E00E9490418DEF90E00E9482
:101760001B249F938F930E94CA0D6E9A6F980E94BC
:10177000A10D84E690E00E940F0C46E065E480E055
:101780000E942A0C80E00E94EA4D269A0E94B22D07
:101790004AEE50E060E080E00E94902C84E00E94DD
:1017A0006F1F0F900F9008C00E94F70A64E170E06D
:1017B00080E090E00E945A5181E00E94FC11882351
:1017C00099F30E94930D0E94E34D08950E94C33740
:1017D0000E94A10BFFCF1F920F920FB60F92112400
:1017E0002F933F934F935F936F937F938F939F9329
:1017F000AF93BF93EF93FF930E949D4DFF91EF91A5
:10180000BF91AF919F918F917F916F915F914F9118
:101810003F912F910F900FBE0F901F901895F89445
:101820001092950010929400A0E0B0E0BC01CD01B0
:101830002DE730E040E050E00E94197724E030E0EE
:1018400040E050E00E948177309399002093980007
:1018500078940895E82F613608F060528091EE0484
:101860008E1710F4E093EE04F0E0EB50F94F629520
:10187000607F4770642B608308951F920F920FB6AC
:101880000F9211242F933F938F939F93EF93FF9386
:10189000679B09C0809196009091970090939A075A
:1018A0008093990713C08091960090919700E091E2
:1018B000EE03F0E0EE0FFF1FEC50FB4F2091990775
:1018C00030919A07821B930B91838083FF91EF9154
:1018D0009F918F913F912F910F900FBE0F901F906E
:1018E00018951F920F920FB60F9211240F931F930A
:1018F0002F933F934F935F936F937F938F939F9318
:10190000AF93BF93EF93FF938091EE038F5F80932C
:10191000EE039091EE04891710F01092EE03E0911F
:10192000EE03F0E0EB50F94FE0811E2F12951F708F
:10193000105C09F4E5C00E2F0770143459F115340A
:1019400048F4123479F0133408F048C0113409F027
:101950005CC038C0163451F1163480F0173409F0E9
:1019600054C048C025B181E090E0002E02C0880F2D
:10197000991F0A94E2F7282B25B947C02EB181E0C0
:1019800090E0002E02C0880F991F0A94E2F7282BDE
:101990002EB93BC02BB181E090E0002E02C0880F31
:1019A000991F0A94E2F7282B2BB92FC021B381E0AD
:1019B00090E0002E02C0880F991F0A94E2F7282BAE
:1019C00021BB23C022B181E090E0002E02C0880F2D
:1019D000991F0A94E2F7282B22B917C028B181E099
:1019E00090E0002E02C0880F991F0A94E2F7282B7E
:1019F00028B90BC024B381E090E0002E02C0880F0C
:101A0000991F0A94E2F7282B24BB8F938F918F9311
:101A10008F9189E090E006C08F938F938F910000A3
:101A200000008F910197C1F76FEF82E00E941D3394
:101A3000143459F1153448F4123479F0133408F0A1
:101A400048C0113409F05CC038C0163451F1163466
:101A500080F0173409F054C048C025B181E090E00F
:101A600002C0880F991F0A95E2F78095822385B9F5
:101A700047C02EB181E090E002C0880F991F0A95FF
:101A8000E2F7809582238EB93BC02BB181E090E0D4
:101A900002C0880F991F0A95E2F7809582238BB9BF
:101AA0002FC021B381E090E002C0880F991F0A95F2
:101AB000E2F78095822381BB23C022B181E090E0D0
:101AC00002C0880F991F0A95E2F78095822382B998
:101AD00017C028B181E090E002C0880F991F0A95D5
:101AE000E2F78095822388B90BC024B381E090E0AF
:101AF00002C0880F991F0A95E2F78095822384BB64
:101B0000FF91EF91BF91AF919F918F917F916F91D5
:101B10005F914F913F912F911F910F910F900FBEA9
:101B20000F901F90189580E00E94EF4E40E060E01B
:101B300080E00E94874FE1E7F0E080818F7D808325
:101B40000895F8941092FD0684E00E94EF4E84E020
:101B50000E940A4F40E060E080E00E94444F40E075
:101B600060E081E00E94874FE1E9F0E080818F73BF
:101B700080688083E1E7F0E080818062808382E397
:101B800090E00E940F0C1092EE0378940895F89460
:101B90000C941678A2E0B0E0E0EDFDE00C94AC7798
:101BA000FE01389661917191FA83E983AF018091CA
:101BB0009D0790919E070E94E10DE2E022960C9411
:101BC000C8772F923F925F926F927F928F929F92EF
:101BD000AF92BF92CF92DF92EF92FF920F931F933B
:101BE000CF93DF93CDB7DEB72B970FB6F894DEBF58
:101BF0000FBECDBF3C014B016A01FC01178216826A
:101C0000838181FD03C08FEF9FEFBBC11E0108944C
:101C1000211C311CF3013381F40133FD859133FF25
:101C200081914F01882309F4A9C1853239F433FD2C
:101C3000859133FF81914F01853229F4B30190E002
:101C40000E94EF0FE7CF982FAA2410E055241032FE
:101C5000B0F49B3269F09C3228F4903251F0933208
:101C600071F40BC09D3239F0903349F411602AC0F1
:101C70001260146027C0186025C0106123C017FDD2
:101C80002AC0292F20532A3088F416FF07C08AE083
:101C9000A89EC0011124A22EA80E14C08AE0589E4E
:101CA000C0011124522E580E10620CC09E3221F435
:101CB00016FD64C1106406C09C3611F4106802C0A1
:101CC000983649F4F40133FD959133FF91914F011A
:101CD000992309F0BCCF892F8554833018F08052A6
:101CE000833038F424E030E0C20ED31E8FE38983C2
:101CF0000FC0933631F0933781F0933509F056C019
:101D000020C0F6018081898322E030E0C20ED31E1C
:101D1000710181E0A82EB12C12C0F601E080F180A3
:101D200016FD03C06FEF7FEF02C06A2D70E022E066
:101D300030E0C20ED31EC7010E94E40F5C011F7782
:101D400013C0F601E080F18016FD03C06FEF7FEF56
:101D500002C06A2D70E022E030E0C20ED31EC7013F
:101D60000E94D90F5C01106813FF07C01BC0B301AC
:101D700080E290E00E94EF0F5A94852D90E0A81623
:101D8000B906A8F30FC0F70117FD859117FF8191E0
:101D90007F01B30190E00E94EF0F51105A94089414
:101DA000A108B108A114B10471F7E5C0943611F08F
:101DB000993669F517FF0AC0F60160817181828149
:101DC000938124E030E0C20ED31E0DC0F601808165
:101DD00091819C01B901882777FD8095982F42E079
:101DE00050E0C40ED51E012F0F7697FF08C09095C6
:101DF0008095709561957F4F8F4F9F4F00682AE0C7
:101E000030E0A1010E941B10B82EB2183DC09537DA
:101E100021F41F7E2AE030E01CC0197F9F3661F05C
:101E2000903720F4983509F0A9C00FC0903739F0E9
:101E3000983709F0A3C004C028E030E00AC0106160
:101E400014FD146020E130E004C014FD166020E1B0
:101E500032E017FF08C0F6016081718182819381B1
:101E600044E050E008C0F60180819181BC0180E02F
:101E700090E042E050E0C40ED51EA1010E941B106C
:101E8000B82EB218012F0F7706FF09C00E7FBA14C3
:101E900030F404FF06C002FD04C00F7E02C01B2DFB
:101EA00001C01A2D04FF0CC0FE01EB0DF11D808155
:101EB000803311F4097E08C01F5F02FF05C003C014
:101EC000802F867809F01F5FE02E03FD14C000FF0D
:101ED0000FC0151510F0AB2C0BC0AB2CA50CA11A24
:101EE000152D06C0B30180E290E00E94EF0F1F5F46
:101EF0001515C0F304C0151510F4511A01C055246E
:101F0000E4FE10C0B30180E390E00E94EF0FE2FE18
:101F10001EC0E1FE03C088E590E002C088E790E0C3
:101F2000B3010CC08E2D867891F0E1FE02C08BE2E9
:101F300001C080E207FD8DE2B30190E00E94EF0F47
:101F400006C0B30180E390E00E94EF0FAA94BA1498
:101F5000C0F3BA94F101EB0DF11D8081B30190E063
:101F60000E94EF0FBB2039F0F4CFB30180E290E084
:101F70000E94EF0F5A945520C1F74CCEF301868191
:101F800097812B960FB6F894DEBF0FBECDBFDF91C1
:101F9000CF911F910F91FF90EF90DF90CF90BF9066
:101FA000AF909F908F907F906F905F903F902F9019
:101FB0000895FC010590615070400110D8F780959C
:101FC00090958E0F9F1F0895FC0161507040019005
:101FD0000110D8F7809590958E0F9F1F08950F934D
:101FE0001F93CF93DF938C01EB018B8181FF1BC08B
:101FF00082FF0DC02E813F818C819D81281739077A
:1020000064F4E881F9810193F983E88306C0E885E7
:10201000F985802F1995892B31F48E819F81019646
:102020009F838E8302C00FEF1FEFC801DF91CF9116
:102030001F910F910895FA01AA27283051F12031FC
:1020400081F1E8946F936E7F6E5F7F4F8F4F9F4F4C
:10205000AF4FB1E03ED0B4E03CD0670F781F891F8E
:102060009A1FA11D680F791F8A1F911DA11D6A0F5C
:10207000711D811D911DA11D20D009F468943F910F
:102080002AE0269F11243019305D3193DEF6CF010E
:102090000895462F4770405D4193B3E00FD0C9F7D4
:1020A000F6CF462F4F70405D4A3318F0495D31FD41
:1020B0004052419302D0A9F7EACFB4E0A695979594
:1020C000879577956795BA95C9F70097610571056A
:1020D00008959B01AC010A2E0694579547953795B4
:1020E0002795BA95C9F7620F731F841F951FA01D0E
:1020F0000895982F1092ED03882309F498E080B793
:10210000806880BF8091ED03806480937C0090683C
:102110009093620508958091ED03823029F48091B7
:102120008D078230B1F408C08091ED03833021F433
:1021300080918D07833069F4E091ED03F0E08091A8
:10214000780090917900EE0FFF1FE85EF94F9183C0
:1021500080838091ED038F5F8093ED032091ED03E9
:1021600030E08091620590E08F70907028173907F9
:1021700014F01092ED038091ED03806480937C0055
:102180008091ED038430E9F480918D07833061F410
:1021900082E080938D0782988A9A3998419A839A2F
:1021A0008B9A389A40980DC0823059F483E080931E
:1021B0008D0783988B9A3898409A829A8A9A399A8E
:1021C000419886EC80937A000895FC014FB7F8940B
:1021D000EE0FFF1FE85EF94F808191812FEF3FEFF7
:1021E000318320834FBF089528E730E030931D02EC
:1021F00020931C0228EC30E030931F0220931E0233
:102200002EEF30E1309321022093200228EA36E1BC
:10221000309323022093220290E008950F931F939E
:10222000CF93DF9382E080938D07A0E1B0E00E941E
:10223000F077BF01A2E1B0E00E94F077AF01A4E126
:10224000B0E00E94F0779F01A6E1B0E00E94F07735
:102250008F01A8E1B0E00E94F077EF01CB01019778
:102260008E5F9F4FD8F088E790E090931D02809397
:102270001C0288EC90E090931F0280931E028EEF68
:1022800090E1909321028093200288EA96E1909356
:1022900023028093220281E090E097C0CA01019757
:1022A0008E5F9F4FD8F088E790E090931D02809357
:1022B0001C0288EC90E090931F0280931E028EEF28
:1022C00090E1909321028093200288EA96E1909316
:1022D00023028093220282E090E077C0C901019737
:1022E0008E5F9F4FD8F088E790E090931D02809317
:1022F0001C0288EC90E090931F0280931E028EEFE8
:1023000090E1909321028093200288EA96E19093D5
:1023100023028093220283E090E057C0C801019716
:102320008E5F9F4FD8F088E790E090931D028093D6
:102330001C0288EC90E090931F0280931E028EEFA7
:1023400090E1909321028093200288EA96E1909395
:1023500023028093220284E090E037C0CA01860FF6
:10236000971F820F931F800F911F8C179D07D9F025
:1023700088E790E090931D0280931C0288EC90E027
:1023800090931F0280931E028EEF90E190932102A2
:102390008093200288EA96E19093230280932202A0
:1023A00085E090E012C070931D0260931C02509370
:1023B0001F0240931E0230932102209320021093AB
:1023C00023020093220280E090E0DF91CF911F91E1
:1023D0000F9108958FB7F8942FEF3FEF30931F06BA
:1023E00020931E0620911E0630911F0630931D0675
:1023F00020931C068FBF08954F925F926F927F9239
:102400008F929F92AF92BF92CF92DF92EF92FF9204
:102410000F931F93CF93DF93282F8091EB0582FFBB
:1024200017C08091EB0580FF11C080912906909123
:102430002A0690936B0580936A05809167049091BA
:1024400068049093EA058093E90588C01092EB0533
:10245000822F8150823308F025E08FEF9FEF909319
:10246000EA058093E90590936B0580936A05409097
:1024700020025090210260901C0270901D028090FA
:10248000220290902302A0901E02B0901F0200E052
:1024900010E0EE24FF24C0E0D0E0C22EDD2446C0D0
:1024A0008FB7F8942FEF3FEF30931F0620931E064F
:1024B00020911E0630911F0630931D0620931C06A6
:1024C0008FBF8FB7F89420911C0630911D06E091C4
:1024D0001E06F0911F068FBF37FDF3CFF7FDF1CF3A
:1024E00055E0220F331F5A95E1F7C9018419950968
:1024F000B3010E9438779B0177FD33C0603A7105C4
:1025000084F545E0EE0FFF1F4A95E1F7CF018819EA
:102510009909B5010E94387777FD23C060357105B0
:1025200004F5020F131FE60EF71E2196CC15DD05EC
:1025300009F0B6CF209711F4C1E0D0E0C801BE0188
:102540000E944C7770936B0560936A05C701BE01CA
:102550000E944C777093EA056093E90581E090E072
:1025600002C080E090E0DF91CF911F910F91FF902A
:10257000EF90DF90CF90BF90AF909F908F907F9023
:102580006F905F904F90089581E00E94FC11882326
:10259000D9F3089581E00E94FC118823D9F70895AA
:1025A000ECE1F2E080911E0290911F0220911C024A
:1025B00030911D02820F931F209120023091210241
:1025C000820F931F2091220230912302820F931FCA
:1025D00090932502809324028AE0A0E1B0E0182EB7
:1025E0000E94067880E090E00895AF92BF92CF926B
:1025F000DF92EF92FF920F931F938C01892B21F1B1
:102600000E948A4E5801CC24DD247B018C01EA0C07
:10261000FB1C0C1D1D1DE616F7060807190768F4BC
:102620000E94964E8601750108C081E00E94FC114F
:10263000882319F481E090E009C00E948A4E6E154B
:102640007F058007910788F380E090E01F910F914C
:10265000FF90EF90DF90CF90BF90AF900895AF9232
:10266000BF92CF92DF92EF92FF920F931F938C0154
:10267000892B21F10E948A4E5801CC24DD247B0154
:102680008C01EA0CFB1C0C1D1D1DE616F706080745
:10269000190768F40E94964E8601750108C081E012
:1026A0000E94FC11882319F081E090E009C00E948B
:1026B0008A4E6E157F058007910788F380E090E0D1
:1026C0001F910F91FF90EF90DF90CF90BF90AF9050
:1026D00008952F923F924F925F926F927F928F92C6
:1026E0009F92AF92BF92CF92DF92EF92FF920F93A1
:1026F0001F93CF93DF93CDB7DEB768970FB6F894EB
:10270000DEBF0FBECDBF882339F40E940E1188238F
:1027100019F480E090E0B7C20E94B22D88E790E003
:1027200090931D0280931C0288EC90E090931F020E
:1027300080931E028EEF90E19093210280932002FD
:1027400088EA96E190932302809322024FEA51E0B7
:1027500066E086E00E94902C4DEA51E062E482E956
:102760000E94902C4BEA51E064E28CE40E94902C91
:1027700049E951E060E088E10E94902C47E851E08F
:1027800068E088E10E94902C45E751E060E188E133
:102790000E94902C4EE651E066E484E00E94902C6A
:1027A0002FE448E364E480E00E94893109C01D867B
:1027B0001E861F86188A19861A861B861C860BC0E1
:1027C0001D861E861F86188A19861A861B861C86F9
:1027D0006624772443011D821E821F821886198277
:1027E0001A821B821C822224332421018FB7F89481
:1027F00020911C0630911D065901CC24B7FCC094D1
:10280000DC2C20911E0630911F0679010027F7FC71
:102810000095102F8FBF24E6A216B104C104D10485
:102820002CF331EEA31633E0B30630E0C30630E0FC
:10283000D306E4F684E6E816F10401051105B4F2C6
:1028400091EEE91693E0F90690E0090790E0190788
:102850006CF68FB7F8942FEF3FEF30931F0620935D
:102860001E0620911E0630911F0630931D062093F0
:102870001C068FBF68E380E00E9496248FE591E0FC
:102880000E941B241F930F93FF92EF92DF92CF922F
:10289000BF92AF929F938F930E94CA0DADB7BEB700
:1028A0001A960FB6F894BEBF0FBEADBFB0E9AB1617
:1028B000B1E0BB06B0E0CB06B0E0DB060CF045C0F3
:1028C000EFEEEE16E2E0FE06E0E00E07E0E01E07A7
:1028D00024F00E940E1111E089C1FDE2EF16F1E033
:1028E000FF06F0E00F07F0E01F070CF07FCF55E088
:1028F000AA0CBB1CCC1CDD1C5A95D1F78D859E857E
:10290000AF85B8898A0D9B1DAC1DBD1D8D879E8727
:10291000AF87B88B45E0EE0CFF1C001F111F4A95D6
:10292000D1F789859A85AB85BC858E0D9F1DA01F2B
:10293000B11F89879A87AB87BC870894611C711C7B
:10294000811C911C6CE271E040C099E5A91692E0EF
:10295000B90690E0C90690E0D906E4F1AEEEEA16B9
:10296000A2E0FA06A0E00A07A0E01A070CF43ECFA6
:1029700035E0AA0CBB1CCC1CDD1C3A95D1F78D812F
:102980009E81AF81B8858A0D9B1DAC1DBD1D8D83B9
:102990009E83AF83B88725E0EE0CFF1C001F111F3C
:1029A0002A95D1F789819A81AB81BC818E0D9F1DBB
:1029B000A01FB11F89839A83AB83BC830894211C19
:1029C000311C411C511C68EC70E084E190E00E94D5
:1029D000444E0CCF9CE2E91691E0F90690E009071D
:1029E00090E019070CF402CFADEBEA16A2E0FA066C
:1029F000A0E00A07A0E01A070CF0F8CE6AEF70E03A
:102A000082E390E00E94444E6114710481049104B9
:102A100009F4CDCE2114310441045104A1F41D86E2
:102A20001E861F86188A19861A861B861C866624AF
:102A3000772443011D821E821F82188619821A8202
:102A40001B821C82D3CE6D857E858F859889A401DB
:102A500093010E948177298B3A8B4B8B5C8B698524
:102A60007A858B859C85A40193010E9481772D8BAB
:102A70003E8B4F8B588F6D817E818F819885A2010F
:102A800091010E94817739014A0189899A89AB892C
:102A9000BC89681A790A8A0A9B0A69817A818B81C2
:102AA0009C81A20191010E94817719012A018D89DF
:102AB0009E89AF89B88D281A390A4A0A5B0A68E3E9
:102AC00080E00E9496248201710195E0159507959A
:102AD000F794E7949A95D1F76401530185E0D59472
:102AE000C794B794A7948A95D1F780E591E00E94A6
:102AF0001B241F930F93FF92EF92DF92CF92BF920E
:102B0000AF929F938F930E94CA0DADB7BEB71A962E
:102B10000FB6F894BEBF0FBEADBFB0E06B16B6E403
:102B20007B06B0E08B06B0E09B060CF449CEE1E0FA
:102B30006E16EEE67E06E0E08E06E0E09E060CF005
:102B40003FCEF0E82F16FEE33F06F0E04F06F0E040
:102B50005F060CF435CE21E0221624E6320620E092
:102B6000420620E052060CF02BCEC401B3012CE843
:102B700030E040E050E00E948177890130931D02EF
:102B800020931C02C201B1012CE330E040E050E090
:102B90000E948177B90130931F0220931E02C80161
:102BA000B3E0880F991FBA95E1F7000F111F080FC6
:102BB000191F89899A89801B910B90932102809318
:102BC0002002C901F3E0880F991FFA95E1F7660F1B
:102BD000771F680F791F8D899E89861B970B9093AD
:102BE0002302809322020E94D01210E00E94CA1297
:102BF0000E94B22D112319F04BE351E002C046E2CE
:102C000051E060E080E00E94902C41E151E060E101
:102C100080E00E94902C68E380E00E9496248091DE
:102C200020029091210220911C0230911D029F935D
:102C30008F933F932F9380E092E09F938F930E9416
:102C4000CA0D809122029091230220911E023091A0
:102C50001F029F938F933F932F938EE092E09F9359
:102C60008F930E94CA0D0E94C4120E94CA120E9431
:102C7000B22D812F90E0ADB7BEB71C960FB6F89479
:102C8000BEBF0FBEADBF68960FB6F894DEBF0FBED5
:102C9000CDBFDF91CF911F910F91FF90EF90DF900B
:102CA000CF90BF90AF909F908F907F906F905F90EC
:102CB0004F903F902F900895109245061092440631
:102CC0008FE990E09093490680934806109247065A
:102CD000109246068FE490E090934B0680934A064C
:102CE00086E396E090931306809312060895EAE136
:102CF000F5E08FEF9FE791838083359685E0E2349E
:102D0000F807B9F708959C01E0911206F0911306B7
:102D1000868597852817390714F421E008C0828931
:102D200093898217930714F422E001C020E084897C
:102D300095898617970714F4246006C080899189C5
:102D4000681779070CF42860822F90E008952F927D
:102D50003F924F925F926F927F928F929F92AF922B
:102D6000BF92CF92DF92EF92FF920F931F93CF9378
:102D7000DF93CDB7DEB72C970FB6F894DEBF0FBE4A
:102D8000CDBF5C013B015E834D8338872F8320914B
:102D90008E0330918F03C901865A9F4F68E671E018
:102DA0000E944C7701EB11E0FC01E00FF11F6491F0
:102DB000862F992787FD9095A92FB92F89839A830C
:102DC000AB83BC83C90168E671E00E944C77080FB1
:102DD000191FF8012490332427FC3094432C532CE2
:102DE000CC24B7FCC094DC2C882477FC8094982CED
:102DF00069817A818B819C81A60195010E94197756
:102E00007B018C01C201B101A40193010E941977D9
:102E1000E61AF70A080B190B209138023091390293
:102E200040913A0250913B02C801B7010E941977C4
:102E300069877A878B879C87C201B101A6019501BA
:102E40000E9419777B018C0169817A818B819C8139
:102E5000A40193010E941977E60EF71E081F191F9F
:102E600020913C0230913D0240913E0250913F0240
:102E7000C801B7010E94197720918A0330918B0312
:102E80004B855C85240F351FAD81BE812D933C930E
:102E900020918C0330918D03280F391FEF81F88525
:102EA000318320832C960FB6F894DEBF0FBECDBFC2
:102EB000DF91CF911F910F91FF90EF90DF90CF9016
:102EC000BF90AF909F908F907F906F905F904F904A
:102ED0003F902F9008952F923F924F925F926F9262
:102EE0007F928F929F92AF92BF92CF92DF92EF929A
:102EF000FF920F931F93CF93DF93CDB7DEB72E973B
:102F00000FB6F894DEBF0FBECDBF5C013B011A01C6
:102F10003A8729874090120650901306F2012481C7
:102F20003581C901865A9F4F68E671E00E944C774F
:102F300001EB11E0FC01E00FF11F6491862F99274E
:102F400087FD9095A92FB92F8D839E83AF83B88776
:102F5000C90168E671E00E944C77080F191FF8015B
:102F60006491862F992787FD9095A92FB92F898382
:102F70009A83AB83BC83D2018D919C91A81AB90A24
:102F8000CC24B7FCC094DC2CF20182819381681AB6
:102F9000790A882477FC8094982C6D817E818F81BA
:102FA0009885A60195010E9419777B018C016981A2
:102FB0007A818B819C81A40193010E941977E61A82
:102FC000F70A080B190BF20122853385442737FDD8
:102FD0004095542FC801B7010E9419776B877C87F1
:102FE0008D879E8769817A818B819C81A60195015D
:102FF0000E9419777B018C016D817E818F8198857C
:10300000A40193010E941977E60EF71E081F191FED
:10301000F20124853585442737FD4095542FC8019A
:10302000B7010E941977F201268937894D855E859F
:10303000240F351FD1012D933C93208D318D281BFA
:10304000390BE985FA85318320832E960FB6F894E3
:10305000DEBF0FBECDBFDF91CF911F910F91FF90CB
:10306000EF90DF90CF90BF90AF909F908F907F9028
:103070006F905F904F903F902F9008951092E204D0
:103080001092E1041092EC061092ED061092EE06FA
:103090001092EF061092120510921305109214056B
:1030A00010921505089580919303209116058823A9
:1030B000B9F081E090E09093450680934406222386
:1030C00011F08AE090E090934706809346068EE9DF
:1030D00090E090934906809348068EE490E016C0F5
:1030E00081E090E09093450680934406222311F0FE
:1030F0008AE090E0909347068093460688E890E047
:10310000909349068093480680E490E090934B06A4
:1031100080934A068091480690914906019662E0A4
:1031200070E00E944C7770934D0660934C0680913E
:103130004A0690914B062091460630914706820F31
:10314000931F62E070E00E944C7770934F0660938B
:103150004E0610923B0610923A0686E396E0909354
:103160001306809312068FEF0E94C3410E94923291
:1031700080916405882319F082E00E940E240E9449
:10318000AA43089581E080936706809364051092B6
:10319000930380931605109292031092E20410920A
:1031A000E1041092EC061092ED061092EE061092D9
:1031B000EF0610921205109213051092140510924A
:1031C000150582E380936F060E94205F80911805A9
:1031D000909119059D7F9093190580931805109281
:1031E000370610923606109239061092380680E0A3
:1031F00091E090934106809340069093430680931C
:1032000042061092A1071092A2071092A3071092F3
:10321000A4070E94531808950F931F93CF93DF9331
:1032200000914A0510914B0580E00E943242C0E0B7
:10323000D0E01BC030E080E496E0AC01249FC001E8
:10324000259F900D349F900D11240E94DC39E09150
:103250001206F091130624892F5F42894F5F60891F
:103260006150868581500E94E8312C2F21968091F3
:103270008F078217F8F6C8010E94DC39DF91CF91E1
:103280001F910F9108950E946C39809115068095C9
:103290000E94C341E0911206F091130624894289ED
:1032A000608986850E9435288091150680950E9448
:1032B000C34108952F923F924F925F926F927F92F7
:1032C0008F929F92AF92BF92CF92DF92EF92FF9236
:1032D0000F931F93CF93DF93CDB7DEB72A970FB627
:1032E000F894DEBF0FBECDBF4C017A8769875E833D
:1032F0004D8338872F830E9483168B836F81788557
:103300008D819E810E9483168A83209012063090C0
:103310001306442455246624772419827BC08A81AD
:103320002B81822319F080E090E084C08D819E8102
:10333000881999095C01CC24B7FCC094DC2C8F81DE
:103340009885E985FA858E1B9F0B7C010027F7FC89
:103350000095102FFB81FF2319F42A812C8302C0D2
:103360003B813C83EC81E3FF04C0F10160887188FC
:1033700024C0E0FF04C0F1014684578405C0E1FF8A
:1033800017C0F10142885388B2016819790988276A
:1033900077FD8095982FA80197010E941977A601C3
:1033A00095010E94817769847A84620E731E19C028
:1033B000E2FF17C0F10164887588B30129853A8559
:1033C000621B730B882777FD8095982FA6019501C6
:1033D0000E941977A80197010E9481772401420E6B
:1033E000531E3C818B81381749F4B301C2010E94FE
:1033F00083168B8342017A86698609C0B301C201B4
:103400000E9483168A835E824D8278866F829981BC
:103410009F5F99838A81EB818E2B21F0F981F430B3
:1034200009F07DCF2F814D816985882D0E94A22FC3
:1034300081E090E02A960FB6F894DEBF0FBECDBFB4
:10344000DF91CF911F910F91FF90EF90DF90CF9080
:10345000BF90AF909F908F907F906F905F904F90B4
:103460003F902F900895AF92BF92CF92DF92EF924C
:10347000FF920F931F935C017B018A0169019B01FD
:103480000E945A199601A801B701C8010E945A1951
:103490009601A501B601C8010E945A199701A5011C
:1034A000B601C5010E945A191F910F91FF90EF902C
:1034B000DF90CF90BF90AF9008958F929F92AF9280
:1034C000BF92CF92DF92EF92FF920F931F93CF9311
:1034D000DF93CDB7DEB724970FB6F894DEBF0FBEEB
:1034E000CDBF2AE1C22E25E0D22E9FEFE92E9FE725
:1034F000F92E0FEF1FE783E0882E912C8C0E9D1E76
:103500005E010894A11CB11C4FC0F6016281738159
:103510009401A5010E946B17FFEFEF16FFE7FF066E
:10352000F9F02B813C8149815A81B801C7010E9481
:103530005A192B813C8149815A814F5F5F4FB801F5
:10354000C70101960E945A192B813C812F5F3F4F82
:1035500049815A810F5F1F4FB801C7010E945A1954
:103560002B813C8189819A810396B9016350704017
:103570002D5F3F4FAC0106970E94331A6B817C810F
:1035800089819A81F601448105960E94585EE980FE
:10359000FA800B811C8185E090E0C80ED91E97E46B
:1035A000C91695E0D90641F0F60180819181FFE7C7
:1035B0008F3F9F0709F0A9CF24960FB6F894DEBF7E
:1035C0000FBECDBFDF91CF911F910F91FF90EF9074
:1035D000DF90CF90BF90AF909F908F9008952F92E3
:1035E0003F924F925F926F927F928F929F92AF9293
:1035F000BF92CF92DF92EF92FF920F931F93CF93E0
:10360000DF93CDB7DEB72A970FB6F894DEBF0FBEB3
:10361000CDBF2C016B013A0149015801FA86E986B8
:103620008C0177E0272E312C2C0E3D1E65E0E62E16
:10363000F12CEC0EFD1E1CC09E012D5F3F4FAE0114
:103640004F5F5F4FB601C8010E946B179101A70140
:10365000B401C8010E946B172F8138854D815E81AE
:103660006B817C8189819A810E945A190A0D1B1DE8
:10367000601671060CF7860153E0E52EF12CEC0E76
:10368000FD1E1E010894211C311C47E0A42EB12C04
:10369000AC0EBD1E35E0C32ED12CCC0EDD1E1AC0E3
:1036A0009701A101B801C2010E946B179501A60103
:1036B000B801C3010E946B172F8138854D815E814F
:1036C0006B817C8189819A810E945A1989859A85AA
:1036D000080F191F801691061CF72A960FB6F8944A
:1036E000DEBF0FBECDBFDF91CF911F910F91FF9035
:1036F000EF90DF90CF90BF90AF909F908F907F9092
:103700006F905F904F903F902F9008956F927F92AF
:103710008F929F92AF92BF92CF92DF92FF920F93C0
:103720001F93CF93DF93CDB7DEB724970FB6F894EE
:10373000DEBF0FBECDBF8C01AA24BB24CC24DD2468
:10374000FF2463E0662E712C6C0E7D1E4E010894E2
:10375000811C911C36C0992787FD90959A83898397
:10376000F8016181772767FD70957C836B839B01EE
:1037700053E0220F331F5A95E1F7660F771F620F50
:10378000731FFC01B3E0EE0FFF1FBA95E1F7930141
:10379000A401880F991F8E0F9F1F0E946B17F3942F
:1037A000F1E0FF1641F02B813C8149815A81B6013D
:1037B000C5010E945A190E5F1F4FA980BA80CB80A5
:1037C000DC80F80180818F3731F624960FB6F894AB
:1037D000DEBF0FBECDBFDF91CF911F910F91FF9044
:1037E000DF90CF90BF90AF909F908F907F906F9021
:1037F0000895AF92BF92CF92DF92EF92FF920F9314
:103800001F932091E9053091EA052930310548F4EC
:103810000E94CA128091160591E0892780931605AF
:1038200028C040916A0550916B05809144069091A3
:1038300045064817590714F18091480690914906AA
:1038400084179507DCF0809146069091470628176B
:103850003907A4F080914A0690914B06821793078E
:103860006CF00E94CA128091930391E089278093A3
:1038700093030E94531888E590E059C10E942F4D90
:1038800080919303882309F076C0809116058823E0
:1038900049F088E394E00E941B24AC0160E080E0E2
:1038A0000E94D3438FE294E00E941B24AC0164E4A5
:1038B00080E00E942E4BE0906F06FF2400E010E0B5
:1038C0008CE294E00E941B2423E02F9321E02F93AD
:1038D00023E630E040E050E05F934F933F932F9317
:1038E00041E0A42EB12CC12CD12C9C0148E168E10F
:1038F00082E90E94D74560936F06109192038AE295
:1039000094E00E941B2401E0212FAC0168E48CE8C4
:103910000E942148809392031091640588E294E00C
:103920000E941B2402E0212FAC016EE38CE80E9470
:1039300021488093640586E294E00E941B24E09174
:103940006305F0E0EE0FFF1FEE0FFF1F20919603BF
:10395000E20FF11DEE0FFF1F2FEFAC0160E080EAD8
:103960008E1B0E94B1498DB79EB706960FB6F8948C
:103970009EBF0FBE8DBF8091EF04882311F00E947F
:103980000C191092EF040E94CF438A3151F18B3110
:1039900038F4883101F1893108F58230B9F40AC070
:1039A000883411F1833519F08B3181F411C093E51E
:1039B000D92E1CC00E94923280916405882319F090
:1039C00082E00E940E2481E08093EF04DD240EC08B
:1039D0008CE4D82E0BC005E5D02E08C014E4D12EFF
:1039E00005C0B2E5DB2E02C0A8E4DA2EE090A10704
:1039F000F090A2070091A3071091A4070E948A4E9D
:103A0000E61AF70A080B190B99ECE916F1040105FF
:103A1000110508F488C00E948A4E6093A107709334
:103A2000A2078093A3079093A40780919203882311
:103A300029F010923B0610923A061EC08091E104D4
:103A40009091E20490933B0680933A0697FF06C05C
:103A500088599E4F90933B0680933A0680913A0690
:103A600090913B0621E08836920734F088569140C9
:103A700090933B0680933A068091EC069091ED0678
:103A8000A091EE06B091EF06892F9A2FAB2FBB279E
:103A9000A7FDBA959093370680933606809112055C
:103AA00090911305A0911405B0911505892F9A2FB7
:103AB000AB2FBB27A7FDBA959093390680933806A4
:103AC00080916F0624E1829FC001112490934106EA
:103AD000809340069093430680934206809164054C
:103AE000882311F00E949E320E94431986E292E0E0
:103AF0000E94861B7CE0E72EF12C0CE010E020E613
:103B000030E040E650E060EA7FEF80EA9FEF0E94FD
:103B1000EF1A61E081E00E94DC5D61E082E00E94DA
:103B2000EE5D0E945D1A8D2D992787FD90951F915E
:103B30000F91FF90EF90DF90CF90BF90AF900895DE
:103B4000EF92FF920F931F93CF93DF93CDB7DEB722
:103B500028970FB6F894DEBF0FBECDBF7A0189015A
:103B60009E012D5F3F4FAE014F5F5F4F0E946B176D
:103B70009E01295F3F4FAE014B5F5F4FB801C70108
:103B80000E946B172F8138854D815E816B817C810E
:103B900089819A810E945A1928960FB6F894DEBF3F
:103BA0000FBECDBFDF91CF911F910F91FF90EF908E
:103BB00008956F927F928F929F92AF92BF92CF9211
:103BC000DF92EF92FF920F931F93CF93DF93CDB7C6
:103BD000DEB724970FB6F894DEBF0FBECDBF8C01C1
:103BE000AA24BB24CC24DD24EE24FF2453E0652E3C
:103BF000712C6C0E7D1E4E010894811C911C2CC0F2
:103C0000992787FD90959A838983F80161817727A9
:103C100067FD70957C836B839301A4010E94A716B6
:103C20004E2D405D6B817C8189819A8105960E9431
:103C3000585EEE2041F02B813C8149815A81B601CA
:103C4000C5010E945A190E5F1F4FA980BA80CB8010
:103C5000DC800894E11CF11CF80180818F3781F62B
:103C600024960FB6F894DEBF0FBECDBFDF91CF9183
:103C70001F910F91FF90EF90DF90CF90BF90AF908A
:103C80009F908F907F906F9008952F923F924F92C8
:103C90005F926F927F928F929F92AF92BF92CF92DC
:103CA000DF92EF92FF920F931F93CF93DF93CDB7E5
:103CB000DEB72A970FB6F894DEBF0FBECDBF2C013A
:103CC0006B013A0149015801FA86E9868C01A7E0A7
:103CD0002A2E312C2C0E3D1EF5E0EF2EF12CEC0E91
:103CE000FD1E1CC09E012D5F3F4FAE014F5F5F4F19
:103CF000B601C8010E94A7169101A701B401C8012D
:103D00000E94A7162F8138854D815E816B817C8151
:103D100089819A810E945A190A0D1B1D601671062D
:103D20000CF78601E3E0EE2EF12CEC0EFD1E1E01D9
:103D30000894211C311C77E0A72EB12CAC0EBD1EBF
:103D400065E0C62ED12CCC0EDD1E1AC09701A10154
:103D5000B801C2010E94A7169501A601B801C301CE
:103D60000E94A7162F8138854D815E816B817C81F1
:103D700089819A810E945A1989859A85080F191F8D
:103D8000801691061CF72A960FB6F894DEBF0FBE78
:103D9000CDBFDF91CF911F910F91FF90EF90DF90FA
:103DA000CF90BF90AF909F908F907F906F905F90DB
:103DB0004F903F902F900895EF92FF920F931F9393
:103DC000CF93DF938C019B01E0906105CB01865A74
:103DD0009F4F68E671E00E944C77C1EBD1E08C0FF9
:103DE0009D1FFC014491F090ED05C90168E671E06A
:103DF0000E944C77C80FD91FFE018491992787FD37
:103E00009095809F9001819F300D909F300D1124DF
:103E1000220F232F221F330B2F0D311D842F9927A3
:103E200087FD9095809FA001819F500D909F500D20
:103E30001124440F452F441F550B4E0D511D6F2D5E
:103E40008E2D0E94A22FDF91CF911F910F91FF9095
:103E5000EF900895AF92BF92CF92DF92FF920F93AF
:103E60001F93CF93DF93F82E162F042F80936105B5
:103E70006093ED05C1E0D0E0C22EDD24A42EBB246A
:103E800012C0CA9DC001CB9D900DDA9D900D1124EA
:103E9000B6010E944C77AB0120EC30E0612F8F2DF2
:103EA0000E94292E2196CC16DD065CF7402F4F0D7F
:103EB0006F2D601B812F0E94A728202F210F101B20
:103EC0004F2D612F8F2D0E94A22FDF91CF911F9137
:103ED0000F91FF90DF90CF90BF90AF900895282F63
:103EE00044E168E280E50E942A1F08954F925F92A4
:103EF0006F927F928F929F92AF92BF92CF92DF92FA
:103F0000EF92FF920F93CF93DF93CDB7DEB7229757
:103F10000FB6F894DEBF0FBECDBF0E94C218EAE113
:103F2000F5E08FEF9FE791838083359625E0E234BB
:103F3000F207B9F781E480931E0510921B051092D9
:103F40001A0510921D0510921C0582E4809323052A
:103F500082E390E09093200580931F0589E190E033
:103F6000909322058093210583E480932805109285
:103F700025051092240580E590E090932705809315
:103F8000260584E480932D0580EB9FEF90932A050E
:103F9000809329058EE190E090932C0580932B056A
:103FA0006624772499E1492E94E0592E0E94F91B4A
:103FB000082F662011F4772039F0809116058823A8
:103FC00019F081E08093670680916706882351F19C
:103FD00060E080E00E9496248091E1049091E204E8
:103FE0009A838983E0903806F0903906C0903606AF
:103FF000D0903706C2010E941B24E981FA81FF9309
:10400000EF93FF92EF92DF92CF929F938F930E9454
:10401000CA0D2DB73EB7285F3F4F0FB6F8943EBF8D
:104020000FBE2DBF0C3471F00D342CF4043471F03C
:10403000083431F50FC0033509F1053529F0023593
:10404000F9F406C06A941CC073941AC07A9418C01C
:10405000639416C01092E2041092E1041092EC06F0
:104060001092ED061092EE061092EF0610921205D5
:1040700010921305109214051092150566247724EA
:10408000262D332727FD30958091E1049091E2049D
:10409000280F391F3093E2042093E10481E0283691
:1040A000380734F0285631403093E2042093E1047D
:1040B0008091E1049091E20497FF06C088599E4FD9
:1040C0009093E2048093E104872C992487FC9094D8
:1040D000A92CB92CC090E104D090E204C60168E696
:1040E00071E00E944C77FC01EF54FE4FE4916E2F7B
:1040F000772767FD7095872F972FA50194010E9460
:1041000019772091EC063091ED064091EE06509122
:10411000EF06260F371F481F591F2093EC063093D8
:10412000ED064093EE065093EF06C601865A9F4F68
:1041300068E671E00E944C77FC01EF54FE4FE49179
:104140006E2F772767FD7095872F972FA501940114
:104150000E941977209112053091130540911405A2
:1041600050911505260F371F481F591F2093120520
:104170003093130540931405509315050E94CF43C7
:104180008F3F09F013CF0E94CA120E945C160E9452
:10419000205F0E9492320E94B22D8FEF0E94C34195
:1041A00022960FB6F894DEBF0FBECDBFDF91CF9140
:1041B0000F91FF90EF90DF90CF90BF90AF909F90C6
:1041C0008F907F906F905F904F90089582B3869507
:1041D00086958095817090E00895459A00000000D2
:1041E000000080E0079B04C0823311F08F5FFACF9C
:1041F000459808951F931FEF12B911B8469A479A30
:104200000E94ED20469811B947981F9108950F9389
:104210001F93182F062F0E94FA20479A12B9459A29
:104220000000000000004598479802B9459A000038
:104230000000000045981F910F910895FF920F9381
:104240001F9390EA699F80011124080F111D93E0CC
:10425000169507959A95E1F780914A0590914B053F
:10426000080F191FA2984698FF24FA94F1B8602FFE
:104270008AE00E940721012F1127602F8BE00E9406
:104280000721A29AF2B811B8469A1F910F91FF9098
:104290000895EF92FF920F931F93E42E86958695D3
:1042A000869500914A0510914B05080F111D6695E2
:1042B0006695669584E1689FB0011124060F171F6B
:1042C000A2984698FF24FA94F1B8602F8AE00E94E1
:1042D0000721012F1127602F8BE00E9407216E2DEF
:1042E0008CE00E940721A29AF2B811B8469A1F9159
:1042F0000F91FF90EF900895EF92FF920F931F930D
:10430000E42E90EA699F80011124080F111D43E0FB
:10431000169507954A95E1F780914A0590914B05CE
:10432000080F191FA2984698FF24FA94F1B8602F3D
:104330008AE00E940721012F1127602F8BE00E9445
:1043400007210E94FA20479A8CE082B9459A000022
:104350000000000045984798E2B8459A0000000028
:1043600000004598A29AF2B811B8469A1F910F9191
:10437000FF90EF900895FF920F931F9390EA699F2B
:1043800080011124080F111D63E0169507956A95A9
:10439000E1F780914A0590914B05080F191FA298EB
:1043A0004698FF24FA94F1B8602F8AE00E94072112
:1043B000012F1127602F8BE00E9407210E94FA2015
:1043C000479A8DE082B9459A0000000000004598A8
:1043D000F2B811B8469A0E94ED204798459A00001D
:1043E000000000004598479A0E94ED204798459AA2
:1043F00000000000000080B14598A29AF2B811B800
:10440000469A90E01F910F91FF9008950F931F938C
:1044100000914A0510914B0590934B0580934A05F6
:1044200060E080E00E94BB2110934B0500934A0599
:1044300090E01F910F9108950F931F93462F0091C5
:104440004A0510914B0590934B0580934A0560E017
:1044500080E00E947C2110934B0500934A051F9138
:104460000F91089589E692E090939E0780939D07AF
:104470008FEF9FEF90931905809318050895EF92A1
:10448000FF920F931F937C018B010E941C22012F2E
:104490001127602FC70101960E941C221F910F91C6
:1044A000FF90EF900895CF92DF92EF92FF920F93DB
:1044B0001F936C017A018B01642F0E941C229927A3
:1044C000812F702F6F2DC60101960E941C22B8010A
:1044D00088279927C60102960E941C22E12EFF24FC
:1044E000002711276E2DC60103960E941C221F91E2
:1044F0000F91FF90EF90DF90CF900895EF92FF9291
:104500000F931F937C0101960E940622082F10E052
:10451000102F0027C7010E94062290E0802B912BCC
:104520001F910F91FF90EF900895CF92DF92EF923D
:10453000FF920F931F936C0103960E940622E82EB0
:10454000FF2400E010E0102F0F2DFE2CEE24C601FA
:1045500002960E94062290E0A0E0B0E0E82AF92A44
:104560000A2B1B2B102F0F2DFE2CEE24C6010196BB
:104570000E94062290E0A0E0B0E0E82AF92A0A2B87
:104580001B2B102F0F2DFE2CEE24C6010E9406229D
:1045900090E0A0E0B0E0E82AF92A0A2B1B2BC80122
:1045A000B7011F910F91FF90EF90DF90CF9008958A
:1045B00097FF06C0DB01BF770E94E377802D0AC01A
:1045C00096FF03C0FB01849105C095FF05C0CB0198
:1045D0000E94062290E00895FB01808190E00895FA
:1045E00097FF06C0DB01BF770E94F077CF010895E7
:1045F00096FF04C0FB0185919491089595FF04C036
:10460000CB010E947E220895FB0180819181089553
:10461000AF92BF92CF92DF92EF92FF920F931F93D0
:10462000CF93DF93EA01A22E6A01BB2411C07B0164
:104630008C010894E11CF11C011D111D0E94D8225F
:10464000882351F0F60181936F01B394C801B7013B
:10465000BA1469F77B018C01CB0DD11D1882C801FA
:10466000B701DF91CF911F910F91FF90EF90DF90F5
:10467000CF90BF90AF9008956F927F928F929F924C
:10468000AF92BF92CF92DF92EF92FF920F931F9360
:10469000CF93DF935B016C013A014901E9010EC040
:1046A0007B018C010894E11CF11C011D111D0E946D
:1046B000D822F30181933F01C801B7012197FFEF91
:1046C000CF3FDF0769F7B40180E090E06A0D7B1D02
:1046D0008C1D9D1DDF91CF911F910F91FF90EF9049
:1046E000DF90CF90BF90AF909F908F907F906F9012
:1046F0000895DC01CB01B7FF06C0DC01BF77042EB3
:104700000E94F5770895B5FF04C0642F0E941C2213
:104710000895B6FD02C0FC0140830895DC01CB0181
:10472000B7FF06C0DC01BF770A010E940178089537
:10473000B5FF04C0BA010E943F220895B6FD03C030
:10474000FC01518340830895BF92CF92DF92EF9294
:10475000FF920F931F93CF93DF93B22EEA0100E0F5
:1047600010C019916B017C010894C11CD11CE11C83
:10477000F11C412F0E947923112339F00F5FC701EB
:10478000B6010B1571F76B017C01C701B601DF9112
:10479000CF911F910F91FF90EF90DF90CF90BF903E
:1047A00008956F927F928F929F92AF92BF92CF9215
:1047B000DF92EF92FF920F931F93CF93DF935B01F2
:1047C0006C013A014901E9010EC0F30141913F0139
:1047D0007B018C010894E11CF11C011D111D0E943C
:1047E0007923C801B7012197FFEFCF3FDF0769F7B2
:1047F000B40180E090E06A0D7B1D8C1D9D1DDF9152
:10480000CF911F910F91FF90EF90DF90CF90BF90CD
:10481000AF909F908F907F906F900895853010F0AB
:1048200084E003C0882309F481E0815080938F07DE
:104830008F5F90E008950F931F930AE913E040E51E
:1048400050E0BC01C8010E94F270C8011F910F9195
:104850000895CF93DF93CDB7DEB724970FB6F894C2
:10486000DEBF0FBECDBFDC01CB0129833A834B8372
:104870005C83B7FF09C0DC01BF7784E0FE0131969D
:10488000182E0E94067814C0B5FF07C049815A81CE
:104890006B817C810E9453220BC0B6FD09C0FC01D4
:1048A00089819A81AB81BC8180839183A283B38308
:1048B00024960FB6F894DEBF0FBECDBFDF91CF9127
:1048C0000895CF93DF93CDB7DEB724970FB6F89452
:1048D000DEBF0FBECDBF97FF0DC0DB01BF7784E009
:1048E000FE013196182E0E94EB7769817A818B81C7
:1048F0009C8113C096FF06C0FB016591759185915F
:1049000094910BC095FF04C0CB010E94952205C075
:10491000FB01608171818281938124960FB6F894A6
:10492000DEBF0FBECDBFDF91CF910895982F80934A
:104930005E056093140680919503882329F070E04A
:10494000892F90E00E943B4108951F931091150616
:10495000809191030E94C341812F0E9490411F9139
:1049600008952F923F924F925F926F927F928F9213
:104970009F92AF92BF92CF92DF92EF92FF920F93EE
:104980001F93CF93DF93CDB7DEB76E970FB6F89432
:10499000DEBF0FBECDBF782EB62EC42ED22E902EE7
:1049A000AE2C80919503882349F0FF2410E030E07D
:1049B00050E070E0872D90E00E946F3ADB1418F40D
:1049C0008D2DDB2CB82EC71418F48C2DC72C782E07
:1049D0002FE9291508F430C34C2D403A08F04FE96F
:1049E000692D70E0842F90E087199109860F971F39
:1049F000803A910528F04156481B471508F41CC31E
:104A0000292D269526952695922FA22FBB27A7FD07
:104A1000B095BA83A983F7E06F2E6920872D877040
:104A2000681AB4E0B61524F4E8EF6E0E9F5F09C073
:104A3000222339F0FCEF6F1624F438E0630E922F36
:104A40009150D3945D2D5B195C83DA94BA1428F0ED
:104A5000BB82EA2C81E08D8391C2EA2CEA94AC817E
:104A6000EA0EDB82BFEFBD8389C2282F30E087FFCB
:104A70001DC085FDBCC020E030E00DC0842F90E05B
:104A8000AA85BB85A80FB91FAF5AB94F8F5A994F46
:104A9000FC0180818C93122F442D421B2F5F3F4FCE
:104AA0008C859D852817390749F7A2C0C9018370F5
:104AB0009070892BE9F125FD9AC021FD0AC0509123
:104AC0001506472D20E030E06E817F81685F7F4FC3
:104AD00026C0E0FEF4CF509115065095472D20E0FA
:104AE00030E06E817F81685F7F4F08C0AA85BB85FB
:104AF000A10FB11DAF5AB94F5C93485F122F2F5FC2
:104B00003F4F842F90E06817790784F771C0AA851A
:104B1000BB85A10FB11DAF5AB94F5C93485F122FEF
:104B20002F5F3F4F842F90E06817790784F760C0AC
:104B300000EA9B81909F80011124070D111DE3E085
:104B400016950795EA95E1F780914A0590914B05F6
:104B5000080F191FA2984698FF24FA94F1B8602F05
:104B60008AE00E940721012F1127602F8BE00E940D
:104B700007210E94FA20479A8DE082B9459A0000E9
:104B8000000000004598F2B811B8469A0E94ED2046
:104B90004798459A0000000000004598072D1C8E9C
:104BA0001B8E12C0479A0E94ED204798459A00003C
:104BB0000000000080B1AA85BB85A10FB11DAF5ACE
:104BC000B94F8C934598085F1B8DAB8DBC8D1196AA
:104BD000BC8FAB8F802F90E0E885F985E817F90747
:104BE0000CF7A29A8FEF82B911B8469A01C010E073
:104BF000A09180076A2FA5FD41C0462D16148CF0A8
:104C00001FC05B2FF9010AC09181990F91838081A8
:104C100087FF02C0916091835150319757FFF4CFC5
:104C20000CC0B12FB1502B2F332727FD3095898130
:104C30009A81280F391F205B394F415010F71EC051
:104C4000662099F41BC0ED8DFE8D90819695908322
:104C5000818180FF02C0906890832F5F8D8D9E8D33
:104C600001969E8F8D8F211771F74F5F413031F084
:104C7000EE85FF85FE8FED8F20E0F5CF61FF03C04D
:104C80008A2F8F7D05C0862F817821F08A2F806240
:104C90000E943242852C288939894A895B892417E8
:104CA000350709F04AC0A88DB98D1C91F1018081AA
:104CB000182B80918007282F30E0C9018C719070EB
:104CC000892B49F46E2D892D0E94BB2181231095DB
:104CD000D6019C9109C022FF0AC06E2D892D0E9429
:104CE000BB211095F60190811923182B19C023FFC1
:104CF0000CC06E2D892D0E94BB21912F9095D6015D
:104D00002C919223192B18230BC024FF09C06E2D60
:104D1000892D0E94BB211095F60190811923182737
:104D20008091800786FF03C0D6011C9321C1412FCB
:104D30006E2D892D0E947C211BC1EC89FD89EF2BF2
:104D400011F4F92C3BC06E2D892D0E94BB21482FF8
:104D500080918007682F70E0CB018C719070892B57
:104D600021F4D1018C91482304C062FF08C0D10115
:104D70008C918095F60190818923482B15C063FFA3
:104D80000AC0D1018C91982F9095F6012081922331
:104D9000982B492309C064FF07C0D1018C918095ED
:104DA000F60190818923482766FF03C0D6014C9302
:104DB00004C06E2D892D0E947C21FA8CEE89FF891A
:104DC000379709F445C06E2D852D0E94BB21482FD1
:104DD00080918007682F70E0CB018C719070892BD7
:104DE00029F4A88DB98D8C91482305C062FF09C0B4
:104DF000A88DB98D8C918095F50190818923482BE0
:104E000017C063FF0BC0A88DB98D8C91982F90951A
:104E1000F50120819223982B49230AC064FF08C022
:104E2000A88DB98D8C918095F501908189234827B3
:104E300066FF03C0D5014C9304C06E2D852D0E94E2
:104E40007C2168EF862E8520BFE9B81508F490C054
:104E5000F81408F08DC080918007282F30E0C90138
:104E60008C719070892B09F045C026FD81C000EA45
:104E7000E09E800111240F0D111D53E0169507953A
:104E80005A95E1F780914A0590914B05080F191F3B
:104E9000A29846988FEF81B9602F8AE00E9407217F
:104EA000012F1127602F8BE00E9407210E94FA201A
:104EB000479A8CE082B9459A0000000000004598AE
:104EC0000E94FA20EF2DE695E695E695F0E0EF5A80
:104ED000F94F808182B9459A000000000000459892
:104EE000E8E0FE0EF81460F3A29A8FEF82B911B8D1
:104EF000469A3EC06E2D8F2D0E94BB21482F809177
:104F00008007282F82FF0AC0EF2DE695E695E695EB
:104F1000F0E0EF5AF94F8081482B17C083FF0AC099
:104F2000EF2DE695E695E695F0E0EF5AF94F808192
:104F300048230BC084FF09C0EF2DE695E695E69562
:104F4000F0E0EF5AF94F8081482726FF09C0EF2D86
:104F5000E695E695E695F0E0EF5AF94F408304C0F8
:104F60006E2D8F2D0E947C21F8E0FF0EF81410F2B8
:104F70002B813D81230F2B83E30E53C0A42FB0E080
:104F8000BF83AE831196B987A887E92FFF27E7FD76
:104F9000F095FB87EA87CD0133E0959587953A95A3
:104FA000E1F7482E4394842D90E04A9401969D8722
:104FB0008C87A981BA81AF5AB94FBF87AE87592C68
:104FC0005718540E852D90E0FB01E87FF98BE88B94
:104FD000AC01487F5B8B4A8B677070707D8B6C8BEC
:104FE000877090709F8B8E8B852D86958695869584
:104FF000A82EBB2481E596E0A80EB91EAE89BF8914
:10500000A05BBD4FB98FA88FB92DB87FB85FBA8F9D
:10501000C22EDD24C80ED91E1B01E8E4F2E02E0EDC
:105020003F1EFC81F150FC8380918007FF3F09F017
:105030001CCD8F7D0E9432426E960FB6F894DEBF73
:105040000FBECDBFDF91CF911F910F91FF90EF90D9
:10505000DF90CF90BF90AF909F908F907F906F9098
:105060005F904F903F902F900895AF92BF92CF9254
:10507000DF92EF92FF920F931F93C82EF62EB42E5D
:10508000D22EA0909503AA2031F030E050E070E0DD
:1050900090E00E94563E8091EC058823F9F410922E
:1050A0009503DF1418F48D2DDF2CF82EBC1418F4A2
:1050B0008B2DBC2CC82E10918007812F81600E94FF
:1050C0003242EF2C0C2D2D2D4B2D6F2D8C2D0E944F
:1050D000B124812F0E943242A09295031F910F911B
:1050E000FF90EF90DF90CF90BF90AF900895CF9258
:1050F000DF92EF92FF920F931F93E82ED42EC22ED1
:10510000F02E0111FA940F2D060F202F4D2D8E2D0C
:105110000E9435281C2D1F192C2D4D2D612F8E2DF1
:105120000E9435284F2D4E0D212F602F8E2D0E946D
:1051300035284D2D4F19212F602F8D2D0E94352898
:105140001F910F91FF90EF90DF90CF900895BF9245
:10515000CF92DF92EF92FF920F931F93C82EF62EFD
:10516000D42E461710F4D62EF42EB0909503BB2003
:1051700041F04C2D50E06D2D70E08F2D90E00E949D
:105180007C3F8091EC058823A9F41092950310913F
:105190008007812F81600E943242EC2C0F2D2C2D34
:1051A0004D2D6C2D8F2D0E94B124812F0E943242F3
:1051B000B09295031F910F91FF90EF90DF90CF90E9
:1051C000BF9008956F927F928F929F92AF92BF92FD
:1051D000CF92DF92EF92FF920F931F93CF93DF93C3
:1051E000962ED42E3901082F10E078010894E11C86
:1051F000F11CE80121970E94BB2107701070005C30
:105200001D4FF8019081982319F00FEF10E002C0B4
:1052100000E010E0CD2CDD240C151D0509F04BC07D
:1052200080916802C81BD109D7FF03C0C0E0D0E05D
:1052300014C0692D8C2F0E94BB21FE01E770F07015
:10524000E05CFD4F9081982319F08FEF90E002C051
:1052500080E090E08017910719F380916802A82EF2
:10526000BB2480916802E80EF11CF1EAEF16F1040C
:1052700024F0A0EAEA2EF12C14C0692D8E2D0E9494
:10528000BB21F701E770F070E05CFD4F908198233F
:1052900019F08FEF90E002C080E090E08017910756
:1052A00001F3CA0DDB1D80916802E81AF10803C002
:1052B0002197D7FD1CC0692D8C2F0E94BB21FE01B8
:1052C000E770F070E05CFD4F9081982319F08FEF4C
:1052D00090E002C080E090E08C159D0549F707C082
:1052E0000894E11CF11C81EAE816F104A4F4692D8C
:1052F0008E2D0E94BB21F701E770F070E05CFD4F3E
:105300009081982319F08FEF90E002C080E090E048
:105310008C159D0529F721968701015010407301D6
:10532000E90CF11C862C03C0E60CF71C980CA02E8F
:10533000402F6C2F892D0E94A728E0E5EE16F1047E
:1053400018F080E090E096C0BE2C6E2D8C2F0E944D
:10535000BB21FE01E770F070E05CFD4F9081982367
:1053600019F08FEF90E002C080E090E08C159D0571
:10537000C9F02197D7FD14C06B2D8C2F0E94BB2143
:10538000FE01E770F070E05CFD4F9081982319F00A
:105390008FEF90E002C080E090E08C159D0549F70A
:1053A000219618C02196C017D107A4F46B2D8C2F1D
:1053B0000E94BB21FE01E770F070E05CFD4F908120
:1053C000982319F08FEF90E002C080E090E08C15F8
:1053D0009D0541F36B2D8A2D0E94BB21F801E770DA
:1053E000F070E05CFD4F9081982319F08FEF90E012
:1053F00002C080E090E08C159D05D9F4015010406A
:105400000C171D078CF16B2D802F0E94BB21F8011A
:10541000E770F070E05CFD4F9081982319F08FEFFA
:1054200090E002C080E090E08C159D0509F07CCFF3
:10543000E5CF0F5F1F4F003A1105A4F46B2D802FAD
:105440000E94BB21F801E770F070E05CFD4F908195
:10545000982319F08FEF90E002C080E090E08C1567
:105460009D0539F7015010400C171D070CF05CCF5B
:1054700081E090E0DF91CF911F910F91FF90EF902D
:10548000DF90CF90BF90AF909F908F907F906F9064
:105490000895EF92FF920F931F93082F162FF42E6B
:1054A000E0909503EE2041F00E94163A8091EC05C1
:1054B000882369F510929503612F802F0E94BB21EC
:1054C000E02FF0E0E770F070E05CFD4F90819823F2
:1054D00019F02FEF30E002C020E030E08F2D90E097
:1054E0002817390719F480E090E013C02FEF3FEF41
:1054F0004F2D612F802F0E94E2281F5F21E030E0B6
:105500004F2D612F802F0E94E228E092950381E0C9
:1055100090E01F910F91FF90EF900895EF92FF920E
:105520000F931F93F82E80919503882321F08F2DE0
:1055300090E00E94F4381091800780E00E9432428F
:10554000EE2400E02FE44FE96F2D80E00E94B124AB
:1055500081E00E9432420E94A52460E56F19E62E88
:105560002FE44FE980E00E94B1240E94A524812FFE
:105570000E9432421F910F91FF90EF9008952F9259
:105580003F924F925F926F927F928F929F92AF92D3
:10559000BF92CF92DF92EF92FF920F931F93CF9320
:1055A000DF93CDB7DEB724970FB6F894DEBF0FBEFA
:1055B000CDBFC82ED62E142F20909503222039F06F
:1055C000462F50E0682F70E0812F0E94D840109243
:1055D000950380911706882331F0412F6D2D8C2D76
:1055E0000E94492149C12C2D30E03A832983C90109
:1055F00087709070892B61F480916305823040F44C
:10560000809180078E7121F48091E30480FF0FC0A8
:10561000812F90E003E0880F991F0A95E1F79C83A2
:105620008B836624772417E0412E512C31C0E12E64
:10563000FF24B3E0EE0CFF1CBA95E1F700E010E0A8
:105640006D2D600F8091E30481FF05C0E7E0F0E07D
:10565000E01BF10B01C0F801EE0DFF1DEE5BFA4FF0
:10566000449182FF05C0E42FF0E0EE5BFB4F4491D4
:105670009091910380911506981708F040958C2D14
:105680000E947C210F5F1F4F08301105C9F6DFC053
:105690008091E30490E080FF2FC0BB2420E030E045
:1056A000BC0162707070AC0144705070611571057E
:1056B00029F0E7E0F0E0E21BF30B01C0F9018B8178
:1056C0009C81E80FF91FEE5BFA4F9491411551054B
:1056D00011F0F20101C0F301E05CFD4F80819823DD
:1056E00029F0F901E05CFD4F8081B82A2F5F3F4F20
:1056F00028303105A9F0DACF81FF02C0F20101C0E4
:10570000F3012B813C81E20FF31FEE5BFA4FE49132
:1057100082FD02C0BE2E04C0F0E0EE5BFB4FB490F1
:105720009091910380911506981708F0B094882401
:10573000992469C0812F8B2109F48CC04115510532
:1057400091F06115710511F4902F01C0932DA9817D
:10575000BA81A20FB11DA770B070A05CBD4F8C9133
:10576000982309F477C0A22FA695A695A695B0E038
:10577000AF5AB94FE22FF0E0E770F070E05CFD4FF8
:1057800080819C91892B8C932F5F203A18F43F5F86
:105790003A1580F2110F11F030E0FACF0894811C15
:1057A000911C8E2D806A452BA9F00E9432424091B7
:1057B0006305440F440F440F4150EF2C0C2D20E0A3
:1057C00060E080E00E94B124809180078F750E9484
:1057D000324219C00E94324220916305422F440F89
:1057E000440F440F4150EF2C0C2D215060E080E01D
:1057F0000E94B124809180078F750E943242D09020
:105800006305DF0C19C0F82CFD0CA09063058A1409
:1058100090F4E09080074E2D50E04270507000915F
:105820001506302E30942C2D30E011E06F2D70E0F5
:1058300061707070ADCFDF2C0894611C711C0894EE
:105840004108510838E06316710409F021CF209215
:10585000950312C0A22FA695A695A695B0E0AF5AC3
:10586000B94FE22FF0E0E770F070E05CFD4F80810F
:1058700080959C91892387CF24960FB6F894DEBF3C
:105880000FBECDBFDF91CF911F910F91FF90EF9091
:10589000DF90CF90BF90AF909F908F907F906F9050
:1058A0005F904F903F902F9008950F931F93CF9349
:1058B000DF93082F162FEA012BC0612F802F0E9443
:1058C000BF2A8091E30490E09C012071307083FF37
:1058D00010C080916305232B29F0880F880F880F53
:1058E000181B04C0880F880F880F180F103580F020
:1058F00012C080916305232B29F0880F880F880F31
:10590000081B04C0880F880F880F080F003A18F48E
:105910004991442391F6DF91CF911F910F91089502
:10592000EF92FF920F931F93CF93DF93082F162FC1
:105930007A01C0E0D0E001C02196F701EC0FF11D23
:105940004491442359F1612F802F0E94BF2A8091F6
:10595000E30490E09C012071307083FF10C08091BF
:105960006305232B29F0880F880F880F181B04C0AC
:10597000880F880F880F180F1035F0F20FC0809134
:105980006305232B29F0880F880F880F081B04C09C
:10599000880F880F880F080F003A70F2DF91CF91BF
:1059A0001F910F91FF90EF900895482F20911805B7
:1059B0003091190520FF09C0873039F460ED77E098
:1059C00088EC90E00E94444E4FC021FF16C0483042
:1059D000A1F440915E0580916305282F30E093E0AB
:1059E000220F331F9A95E1F7842F90E082179307D7
:1059F00054F0421B40935E0537C022FF07C04C3075
:105A000029F41092140610925E052EC023FF05C0E3
:105A10004A3019F410925E050CC024FF02C04D30CC
:105A200091F325FF02C04930A9F026FF0DC04B308D
:105A300059F480916305880F880F880F90911406A0
:105A4000890F8093140610C06091140680915E0542
:105A50000E94BF2A80916305880F880F880F90915C
:105A60005E05890F80935E0580916305482F50E0A5
:105A700083E0440F551F8A95E1F720915E0530E0E1
:105A800080EA90E0841B950B821793073CF41092F8
:105A90005E0580911406840F8093140660911406AD
:105AA000262F30E080E590E0841B950B821793074A
:105AB0006CF48091180587FF07C0641B609314067F
:105AC000842F0E948E2A02C01092140680E090E07B
:105AD0000895FF920F931F93CF93DF93F82E809139
