:100000000C94750C0C94920C0C94920C0C94920C15
:100010000C94920C0C94920C0C94920C0C94920CE8
:100020000C94920C0C94920C0C94920C0C94920CD8
:100030000C94920C0C94920C0C94920C0C94920CC8
:100040000C94920C0C94920C0C94920C0C94920CB8
:100050000C94920C0C94B10E0C94920C0C94920C87
:100060000C94920C0C94C76E0C94920C0C944569F1
:100070000C94920C0C94F3620C94920C0C94920CD1
:100080000C94920C0C94920C0C94920C0C94920C78
:100090000C94116C0C94920C0C94B5690C94920C09
:1000A0000C94920C0C94920C0C94920C0C94920C58
:1000B0000C94920C0C94920C0C94920C0C94920C48
:1000C0000C94920C0C94920C0C94920C0829573FAF
:1000D0009F2D49CBA5310F76C73493F27E37D00DD3
:1000E000013AB60B613D2AAAAB3F0000003F8000F9
:1000F0000000001F1D1F1E1F1E1F1F1E1F1E1F256D
:1001000064206D736563732F6872002B2F2D206D33
:10011000736563732F687220002564256325642549
:1001200063256400444154453A204D4D2F44442FEB
:1001300059593F0054494D453A2048483A4D4D3AA7
:1001400053533F0058002041444A55535420002542
:100150003032642F253032642F2530326400253050
:1001600032643A253032643A253032640053657483
:100170002054696D65204D656E7500000302050011
:10018000030501040602040500F800AF00FF00FFAC
:1001900000FF001E00F2004F00FF00FF00FF00FF05
:1001A00000FF00FF00FF00FF00FF0041003900B822
:1001B00000BF00FF00FF00FF00FF00FF00FF00FF87
:1001C00000FF00FF00FF00FF00FF00FF00FF001E18
:1001D00000FF00FF00FF00FF00FF002E00DC00FF1B
:1001E00000FF00FF00FF000E00DA00FF00FF00FF2D
:1001F00000FF000C00F200AF005700FF00FF0057A7
:1002000000FE00DF00FF00FF00FF00DA00FF00FF3C
:1002100000FF00FF00FF005700FF00FF00FF00FF8E
:1002200000FF008A00FF00FF00FF00FF00FF002A20
:1002300000FF00FF00FF00FF00FF00830014009B91
:10024000008F00FF00FF003100BF00AC00FF00FF87
:1002500000FF00310047008A00CF00FF00FF0001CF
:10026000004900BA00F5007F00FF00B600510067AA
:1002700000FF00FF00FF00200056009B00AF00FFC2
:1002800000FF0021005800B9007500FF00FF0002C8
:1002900000AF00FF00FF00FF00FF006300140069D3
:1002A00000B8006F00FF008B00940013005D007F1A
:1002B00000FF001E00FD00BF00FF00FF00FF001E4A
:1002C00000FD00AF00FF00FF00FF002500CF00FF92
:1002D00000FF00FF00FF005700F8009F00FF00FF35
:1002E00000FF000700AF00FF00FF00FF00FF00BDA0
:1002F0000074001300FF00FF00FF009B0083001448
:10030000007D005E00D500A5001700CF005700FF5C
:1003100000FF00A00014006900BA000F0056004161
:10032000003800B900FF00FF00FF000A00B90041DB
:10033000000F00FF00FF002000AC00F5006F00FF81
:1003400000FF002000AF005600FF00FF00FF00414B
:10035000003800B9007600FF00FF000A00F200CF6D
:10036000007500FF00FF000200FA00CF001B00FF35
:1003700000FF002900B800FF00FF00FF00FF000A97
:1003800000F2005C00FF00FF00FF000A00CF00FF4A
:1003900000FF00FF00FF00A000E200CF00FF00FF11
:1003A00000FF00A000C200FF00FF00FF00FF0031BF
:1003B000004900B8003F00FF00FF00A000140065E6
:1003C00000FF00FF00FF00DC00F80031004900B82A
:1003D00000FF00A00014006500CF00FF00FF0041F7
:1003E000003900B800FF00FF00FF000200F100BF6D
:1003F00000FF00FF00FF000800B9002F00FF00FF12
:1004000000FF000B002F00FF00FF00FF00FF000AAD
:10041000006C002F00FF00FF00FF000C00F200AF97
:1004200000FF00FF00FF000E002B00FF00FF00FF99
:1004300000FF000200AC00FF00FF00FF00FF0021F2
:1004400000BC00FF00FF00FF00FF000C00FF00FFEA
:1004500000FF00FF00FF000100BA00FF00FF00FFE7
:1004600000FF0051007F00FF00FF00FF00FF00AC15
:1004700000FF00FF00FF00FF00FF000E00FF00FF75
:1004800000FF00FF00FF004C43442055415254310F
:100490002044656D6F20230052454345495645442D
:1004A000204348415220313A004C434420554152A8
:1004B00054302044656D6F20230052454345495612
:1004C00045442043484152203A0057454947485344
:1004D0002031204F5A20544F4F204D554348005350
:1004E00041595320594F555220524F434B455420A8
:1004F000202020005448452052494748542E2020AF
:10050000534348554C545A20005448454D205349B4
:100510005820494E4348455320544F2020004A411B
:10052000434B205341595320544F204D4F564520A3
:10053000202000415245204F5554204F4620504F17
:10054000534954494F4E2E00544845204849474886
:1005500020504F574552205041445320002D2D2DFF
:100560002D2D2D2D2D2D2D2D2D2D2D2D2D2D2D2DBB
:100570002D007C20202020205741524E494E4721FB
:1005800020202020207C002D2D2D2D2D2D2D2D2DBA
:100590002D2D2D2D2D2D2D2D2D2D2D002D44414E6C
:1005A0004745522D2D00524F42494E534F4E2D007C
:1005B0002D2D57494C4C2D2D2D002D44414E474596
:1005C000522D2D002D002D002D002D004275626250
:1005D0006C6520486561646564204E696E6E7921A2
:1005E000004A004A004A004A002573002530326460
:1005F0003A253032643A2530326400257300257381
:100600000025730025642025732025303264000006
:100610008040C020A060E0109050D030B070F00852
:100620008848C828A868E8189858D838B878F804CE
:100630008444C424A464E4149454D434B474F40CF2
:100640008C4CCC2CAC6CEC1C9C5CDC3CBC7CFC0274
:100650008242C222A262E2129252D232B272F20AF2
:100660008A4ACA2AAA6AEA1A9A5ADA3ABA7AFA066E
:100670008646C626A666E6169656D636B676F60E92
:100680008E4ECE2EAE6EEE1E9E5EDE3EBE7EFE0117
:100690008141C121A161E1119151D131B171F109C2
:1006A0008949C929A969E9199959D939B979F9053E
:1006B0008545C525A565E5159555D535B575F50D62
:1006C0008D4DCD2DAD6DED1D9D5DDD3DBD7DFD03E4
:1006D0008343C323A363E3139353D333B373F30B62
:1006E0008B4BCB2BAB6BEB1B9B5BDB3BBB7BFB07DE
:1006F0008747C727A767E7179757D737B777F70F02
:100700008F4FCF2FAF6FEF1F9F5FDF3FBF7FFF0088
:10071000000000000000007E81A581BD99817E7EE1
:10072000FFDBFFC3E7FF7E367F7F7F3E1C080008AC
:100730001C3E7F3E1C08001C3E1C7F7F3E1C3E086A
:10074000081C3E7F3E1C3E0000183C3C180000FF89
:10075000FFE7C3C3E7FFFF003C664242663C00FF81
:10076000C399BDBD99C3FFF0E0F0BE3333331E3CE7
:100770006666663C187E18FCCCFC0C0C0E0F07FE5F
:10078000C6FEC6C6E66703995A3CE7E73C5A99019C
:10079000071F7F1F07010040707C7F7C704000189E
:1007A0003C7E18187E3C186666666666006600FE2B
:1007B000DBDBDED8D8D8007CC61C36361C331E00E6
:1007C0000000007E7E7E00183C7E187E3C18FF18DC
:1007D0003C7E1818181800181818187E3C180000CD
:1007E00018307F30180000000C067F060C00000057
:1007F000000303037F0000002466FF66240000005E
:10080000183C7EFFFF000000FFFF7E3C1800000048
:10081000000000000000000C1E1E1E0C000C003624
:100820003636000000000036367F367F3636000C44
:100830003E031E301F0C00006333180C6663001C5F
:10084000361C6E3B336E00060603000000000018E5
:100850000C0606060C1800060C1818180C060000EA
:10086000663CFF3C660000000C0C3F0C0C000000D6
:10087000000000000C0C060000003F00000000001B
:10088000000000000C0C006030180C060301003E54
:1008900063737B6F673E000C0E0C0C0C0C3F001E4C
:1008A00033301C06333F001E33301C30331E0038FB
:1008B0003C36337F3078003F031F3030331E001C3E
:1008C00006031F33331E003F3330180C0C0C001E80
:1008D00033331E33331E001E33333E30180E0000F8
:1008E0000C0C00000C0C00000C0C00000C0C06188A
:1008F0000C0603060C180000003F00003F00000635
:100900000C1830180C06001E3330180C000C003E7A
:10091000637B7B7B031E000C1E33333F3333003F6E
:1009200066663E66663F003C66030303663C001F46
:1009300036666666361F007E06061E06067E007E4A
:1009400006061E060606003C66030373667C00333B
:1009500033333F333333001E0C0C0C0C0C1E007869
:1009600030303033331E006766361E366667000649
:1009700006060606067E0063777F7F6B636300636F
:10098000676F7B736363001C36636363361C003FD1
:1009900066663E06060F001E3333333B1E38003FAB
:1009A00066663E366667001E33070E38331E003F0C
:1009B0000C0C0C0C0C0C003333333333333F00334B
:1009C000333333331E0C006363636B7F77630063E1
:1009D00063361C1C3663003333331E0C0C1E007F41
:1009E0006030180C067F001E06060606061E000371
:1009F000060C18306040001E18181818181E000841
:100A00001C36630000000000000000000000FF0C26
:100A10000C18000000000000001E303E336E00077E
:100A200006063E66663B0000001E3303331E003898
:100A300030303E33336E0000001E333F031E001C77
:100A400036060F06060F0000006E33333E301F07D8
:100A500006366E666667000C000E0C0C0C1E00302D
:100A60000030303033331E070666361E3667000E00
:100A70000C0C0C0C0C1E000000337F7F6B6300001D
:100A8000001F333333330000001E3333331E0000A6
:100A9000003B66663E060F00006E33333E30780042
:100AA000003B6E66060F0000003E031E301F00086C
:100AB0000C3E0C0C2C18000000333333336E000056
:100AC000003333331E0C000000636B7F7F36000061
:100AD0000063361C36630000003333333E301F00A2
:100AE000003F190C263F00380C0C070C0C3800187E
:100AF00018180018181800070C0C380C0C07006E9A
:100B00003B00000000000000081C3663637F003ECD
:100B10006303633E30603E0033003333336E00388E
:100B2000001E333F031E007E813C607C66DC003388
:100B3000001E303E336E0007001E303E336E000C48
:100B40000C1E303E336E0000003E63031E301C7EE0
:100B5000813C667E063C0033001E333F031E0007C7
:100B6000001E333F031E0033000E0C0C0C1E003E13
:100B7000411C1818183C0007000E0C0C0C1E0063DA
:100B8000083E637F6363000C0C001E333F33003864
:100B9000003F061E063F000000FE30FE33FE007CD4
:100BA00036337F333373001E21001E33331E0000A3
:100BB00033001E33331E000007001E33331E001E99
:100BC00021003333336E000007003333336E0000EF
:100BD000330033333E301FC3183C66663C18003385
:100BE00000333333331E0018187E03037E18181C9D
:100BF00036260F06673F0033331E0C3F0C3F0C1F99
:100C000033335F63F363C370D8183C18181B0E3876
:100C1000001E303E336E001C000E0C0C0C1E00003B
:100C200038001E33331E000038003333336E0000AB
:100C30001F001D333333003F0033373F3B33003C4D
:100C400036367C007E00001C36361C003E00001844
:100C50000018180C663C000000003F030300000071
:100C600000003F3030000063331B6CD64321F0C3DB
:100C70006333DBECB6F3C0180018183C3C180000D6
:100C8000CC663366CC0000003366CC66330000448B
:100C900011441144114411AA55AA55AA55AA55DB6D
:100CA0006FDBF6DB7EEBB718181818181818181831
:100CB0001818181F18181818181F181F1818186C4B
:100CC0006C6C6C6F6C6C6C000000007F6C6C6C006A
:100CD000001F181F1818186C6C6F606F6C6C6C6CB0
:100CE0006C6C6C6C6C6C6C00007F606F6C6C6C6C12
:100CF0006C6F607F0000006C6C6C6C7F00000018F3
:100D0000181F181F000000000000001F18181818F6
:100D1000181818F800000018181818FF0000000034
:100D2000000000FF18181818181818F818181800DC
:100D3000000000FF00000018181818FF18181818F5
:100D400018F818F81818186C6C6C6CEC6C6C6C6CEF
:100D50006CEC0CFC0000000000FC0CEC6C6C6C6C8F
:100D60006CEF00FF0000000000FF00EF6C6C6C6C8B
:100D70006CEC0CEC6C6C6C0000FF00FF0000006C75
:100D80006CEF00EF6C6C6C1818FF00FF0000006C3B
:100D90006C6C6CFF0000000000FF00FF18181800CA
:100DA000000000FF6C6C6C6C6C6C6CFC000000183C
:100DB00018F818F80000000000F818F818181800C3
:100DC000000000FC6C6C6C6C6C6C6CFF6C6C6C18D8
:100DD00018FF18FF181818181818181F000000001E
:100DE000000000F8181818FFFFFFFFFFFFFFFF00CB
:100DF000000000FFFFFFFF0F0F0F0F0F0F0F0FF08F
:100E0000F0F0F0F0F0F0F0FFFFFFFF000000000056
:100E1000006E3B133B6E00001E331F331F030300A5
:100E20003F33030303030000007F36363636003FAE
:100E300033060C06333F0000007E1B1B1B0E000018
:100E4000666666663E0603006E3B18181818003F7B
:100E50000C1E33331E0C3F1C36637F63361C001C94
:100E600036636336367700380C183E33331E000085
:100E7000007EDBDB7E000060307EDBDB7E06031C59
:100E800006031F03061C001E3333333333330000C5
:100E90007E007E007E000018187E1818007E000676
:100EA0000C180C06003F00180C060C18003F0070D0
:100EB000D8D8181818181818181818181B1B0E1836
:100EC00018007E00181800006E3B006E3B00001CEE
:100ED00036361C000000000000001818000000005A
:100EE00000000018000000F030303037363C381A6F
:100EF000363636360000000E190C061F00000000C2
:100F0000003C3C3C3C0000007E424242427E0000ED
:100F1000020407090B0D0F121416181A1D1F2123A6
:100F20002527292B2E30323436383A3C3E40414377
:100F30004547494B4C4E5052535557585A5B5D5E8E
:100F400060616364656768696B6C6D6E6F70717208
:100F50007374757677777879797A7B7B7C7C7D7D05
:100F60007D7E7E7E7F7F7F7F7F7F7F7F7F7F7F7E97
:100F70007E7E7D7D7D7C7C7B7B7A797978777776C8
:100F80007574737271706F6E6D6C6B696867656490
:100F90006361605E5D5B5A5857555352504E4C4BDF
:100FA0004947454341403E3C3A38363432302E2B97
:100FB00029272523211F1D1A181614120F0D0B099E
:100FC00007040200FEFCF9F7F5F3F1EEECEAE8E6BF
:100FD000E3E1DFDDDBD9D7D5D2D0CECCCAC8C6C4D9
:100FE000C2C1BFBDBBB9B7B5B4B2B0AEADABA9A8B5
:100FF000A6A5A3A2A09F9D9C9B9998979594939238
:1010000091908F8E8D8C8B8A89898887878685853C
:1010100084848383838282828181818181818181B1
:101020008181818282828383838484858586878788
:101030008889898A8B8C8D8E8F90919293949597C5
:1010400098999B9C9D9FA0A2A3A5A6A8A9ABADAE75
:10105000B0B2B4B5B7B9BBBDBFC1C2C4C6C8CACCB3
:10106000CED0D2D5D7D9DBDDDFE1E3E6E8EAECEE9E
:10107000F1F3F5F7F9FCFE253464202534642048AB
:1010800025336400580050004E005A4D001B1819BB
:101090001A2053204800204D61702044656D6F0078
:1010A000546F61644374726C734469616700546F78
:1010B000616420412F4300546F61642048756D695D
:1010C00064696669657200546F6164204865617483
:1010D000657200544F4144004C45443320496E74BE
:1010E000656E20004C45443220496E74656E2000C8
:1010F0004C454420434F4E54524F4C00426565705E
:1011000046727100426565702000534F554E442071
:10111000434F4E54524F4C005468726573686F6C65
:1011200064204E656172005468726573686F6C6408
:1011300020466172004761696E00534F4E41522054
:10114000434F4E54524F4C004B74656D70004D6FC1
:1011500064650050574D204D6178004B64004B6929
:10116000004B7000557064617465203130307468D4
:10117000730050574D205269676874204D6F746F2B
:10118000720050574D204C656674204D6F746F721D
:101190000050574D20446972656374004D4F544FA1
:1011A0005220434F4E54524F4C005B585D204578BF
:1011B00069740A0A005B525D2052656164204545EE
:1011C00050524F4D205B575D205772697465204522
:1011D0004550524F4D0A005B2B2F2D5D20636861F7
:1011E0006E676520766172204F5220656E7465725D
:1011F0002064696769747320666F6C6C6F776564CF
:10120000206279205B456E7465725D0A005B475D04
:10121000204E6578742047726F757020205B3C5DAE
:101220005B3E5D2070726576206E65787420766115
:10123000720A000C5661726961626C6520456469CE
:10124000746F7220204D656761446F6E6B65792005
:10125000434F4D2564200A0056617220456469742D
:1012600020506F72742564005645204578697400DB
:10127000457869742E205468616E6B20596F752013
:10128000666F72207573696E67204D656761646F64
:101290006E6B6579205661726961626C6520456488
:1012A00069746F720A002D002B004720AEAF20201A
:1012B00023205752005661726961626C6520456453
:1012C00069746F7200580046696E69736865640AD4
:1012D0000A000A57726974696E6720454550524F7B
:1012E0004D2E2E2E000A52656164696E67204545B9
:1012F00050524F4D2E2E2E0057726974696E672022
:10130000454550524F4D0052656164696E672045F6
:101310004550524F4D000A00FD33363336373C3AC4
:101320003A3B3B3B3B3C3C323F3F4B3F4B404C3DD1
:10133000403C3C3C3C3C3B3E3B3F3B3F3B443B48D2
:10134000344C324C324C32502F4F2D4F2D4F2D4EAE
:101350002B4E2B4E2B4C2B4B2F492C492C482A4DD6
:101360002B4C284C284B254729462946293B2B2E18
:101370002B3114311432113A00390039003701325F
:1013800000300330032D0A2D172B192B19270C17AA
:10139000080A150A1505190A000900FE04000400D0
:1013A00000010520082908290829062906280628F9
:1013B000042502140115011500150129042C042C23
:1013C000062E082C082C082C1D2327263336FD4119
:1013D0003841383F383E383D38FE40364036403799
:1013E000413741374137423743364335433543353B
:1013F00042344134413440343F353F353F353F3648
:101400003F364036FE3D373D373D373D373D373D72
:10141000373D353E3341334133433345334535451D
:1014200035453643384138FD0E23FE252325232636
:101430002326232622FE26172617261626162516CD
:10144000FE21162116281827221B211B211C1D1CDA
:10145000191C16FE1A161A161A191A1D1B21FE1728
:1014600021FE151BFE1321FE0F210F210F1D0F1949
:101470000F16FE0E160E160E160E160E17FE0E2266
:101480000E220E230E230E23FE0E23FD1816FE1829
:101490001AFE1516FE1816FE1816FD1516FE121A5F
:1014A000FE1216FE1516FE1516FD1E1FFE1E171E39
:1014B000172518231F1E1FFF202530325800253006
:1014C00034583A004558495400434C454152204352
:1014D0004845434B504F494E540044554D5020749D
:1014E0006F20434F4D3000436865636B506F696EEA
:1014F000742044756D703A20253032580044554DA3
:1015000050494E472052414D3A202530325800581C
:101510000053657420636C6F636B00496E7665726F
:101520007420627574746F6E7300426565706572C5
:10153000004261636B6C69676874004D6973632076
:101540005365747570204D656E75005365747570C4
:10155000004152452042454C4F4E4720544F2055A4
:101560005300414C4C20594F555220424153452085
:1015700020200057686F277320796F75722064618F
:101580006464793F00526F6E6E7900446F6E6B75C4
:101590006C61746F720025346C75005800435452AE
:1015A0004C004B4244200043414C43004441524BC9
:1015B000004C414D50004C494748543200546F6133
:1015C00064204374726C00580020440020490020BD
:1015D0005000536572766F20436F6E74726F6C00AB
:1015E00021402324255E262A2F2E007E27225C3CC4
:1015F0003E7B7D5B5D0021402324255E262A2F2E25
:10160000005A584356424E4D2B2D3D005A584356D2
:10161000424E4D2C2E2F005A584356424E4D2B2DE4
:101620003D004153444647484A4B4C3B00415344DC
:101630004647484A4B4C3A004153444647484A4B78
:101640004C3B0051574552545955494F5000515742
:101650004552545955494F500051574552545955C8
:10166000494F500031323334353637383930003154
:101670003233343536373839300031323334353659
:10168000373839300053480021402324255E262A6C
:101690002F2E007368007E27225C3C3E7B7D5B5DC5
:1016A000002020004352004253004553005A584343
:1016B00056424E4D2B2D3D005A584356424E4D2C0E
:1016C0002E2F004153444647484A4B4C3B00415360
:1016D000444647484A4B4C3A005157455254595595
:1016E000494F500051574552545955494F500031B8
:1016F00032333435363738393000313233343536D9
:101700003738393000252D313673002531367300D6
:101710005800434C520044454C0020F120004845FD
:101720005800464958002E303000302E3D2F0031F1
:10173000323378003435362B003738392D00302ECF
:101740003D2000313233200034353620003738391F
:1017500020004445430030203D2F003132337800D3
:101760003435362B20444546003738392D20414248
:10177000430030203D0031323300343536204445BB
:1017800046003738392041424300200058002000ED
:101790005800580020004144432025643A20253455
:1017A0006400546F7563682073637265656E20749E
:1017B0006F20657869740043616C69627261746955
:1017C0006F6E20636F6D706C6574650043616C694A
:1017D00062726174696F6E2043414E43454C4544CB
:1017E0000043414C3A25346C642C252D346C640044
:1017F0004144433A25346C642C252D346C640043F9
:10180000414E43454C002020205468656E20746F83
:101810007563682027582700202020546F7563685F
:10182000206561636820272B2700546F756368204B
:1018300043616C6962726174696F6E0058002B00BD
:101840002B004441544120426974733F004261754A
:101850006420726174653F00580054494D454F55EE
:1018600054005254530043545300464C4F572043A6
:10187000544C00584D49540052435600584F4E2F77
:10188000584F4646004556454E004F44440050616F
:10189000726974793A200053544F503A20256400FD
:1018A000444154413A2025640042617564207261CC
:1018B00074653A2025366C6400434F4D25642053EF
:1018C00065747570204D656E7500000000000000A5
:1018D0000000000000000000000000000000000008
:1018E0000000000000000000000011241FBECFEF28
:1018F000D1E2DEBFCDBF14E0A0E0B2E0E2E7FEEF50
:1019000000E00BBF02C007900D92A23EB107D9F7CD
:101910001AE0A2EEB4E001C01D92A030B107E1F7D9
:101920000C94B44C0C9400009FB7F8941092B6003D
:1019300082E084BD85B5826085BD87EC87BDEEE61B
:10194000F0E080818260808380818E7F808310922E
:101950000907109208079FBF08952C9B02C02C987E
:1019600008952C9A08959C01809130098823F9F4F8
:101970006115710539F0CB01805F984D660F771FB7
:101980000E94E97E8AE090E0AC01249FC001259F7F
:10199000900D349F900D11242FB7F894909351051A
:1019A0008093500570932305609322052FBF0895FF
:1019B000809150059091510518161906CCF30895A1
:1019C000809150059091510520E030E018161906DD
:1019D00014F421E030E0C90108952FB7F894609124
:1019E00028057091290580912A0590912B052FBF1C
:1019F00008952FB7F89460914C0570914D05809132
:101A00004E0590914F052FBF08958FB7F89410920F
:101A10004C0510924D0510924E0510924F051092F4
:101A200028051092290510922A0510922B058FBFC8
:101A3000089540914C0550914D0560914E0570916F
:101A40004F0580911D0590911E05982F88272091A4
:101A5000C2093091C3092427352782279327FC0127
:101A6000E770F070EE0FFF1FED58F74F4081518186
:101A700029E6842795278227282F22952827022EBA
:101A8000269526952025022E269520252770082E9E
:101A9000892F269507942795902D822706942795C0
:101AA000902582279093C3098093C2090895E1E8A5
:101AB000F0E09081987F982B90830895E1E9F0E021
:101AC0009081987F982B90830895E1E8F0E0208141
:101AD000277E982F96959695990F990F990F922B8F
:101AE0009083E0E8F0E090819C7F8370982B908356
:101AF0000895E1E9F0E02081277E982F969596954C
:101B0000990F990F990F922B9083E0E9F0E0908163
:101B10009C7F8370982B90830895542F9091800020
:101B20009370482F4295440F440F407C492B262F39
:101B3000332723703070E4E0220F331FEA95E1F77A
:101B4000422B252F332723703070220F331F220F93
:101B5000331F422B409380008111259A6111269AF0
:101B60005111279A0895542F909190009370482F07
:101B70004295440F440F407C492B262F3327237076
:101B80003070A4E0220F331FAA95E1F7422B252FD6
:101B9000332723703070220F331F220F331F422B45
:101BA0004093900081116B9A61116C9A51116D9A5A
:101BB0000895EFE6F0E02081217077276170707062
:101BC000660F771F660F771F262B842F992781704A
:101BD0009070B3E0880F991FBA95E1F74170482BD8
:101BE000242B2083089520916F0021707727617046
:101BF0007070660F771F660F771F262B842F99272B
:101C00008170907033E0880F991F3A95E1F7417029
:101C1000482B242B209371000895882321F0809174
:101C20006F00816003C080916F008E7F80936F0092
:101C30000895882321F080917100816003C0809114
:101C400071008E7F809371000895882321F0809128
:101C50006F00806203C080916F008F7D80936F0062
:101C60000895882321F080917100806203C08091E3
:101C700071008F7D809371000895809154088F5F6B
:101C800080935408809154088C3308F469C01092F2
:101C90005408809155088F5F8093550880915508AE
:101CA0008C3308F45DC01092550820915C08309187
:101CB0005D0880911F0590912005821B930B9093E6
:101CC000200580931F05809156088F5F80935608EA
:101CD00080915608883108F443C0109256088091CC
:101CE0005B088F5F80935B0880915B08873010F002
:101CF00010925B08E0915808FF27EE50FF4F2491A7
:101D000080915808823059F48091590890915A086E
:101D100083709070892B19F0922F915001C0922FEF
:101D2000809157088F5F80935708809157089817C4
:101D3000B8F491E090935708809158088F5F809392
:101D40005808809158088D3058F090935808809129
:101D5000590890915A08019690935A08809359080F
:101D600008951F920F920FB60F9211242F933F9355
:101D70004F935F936F937F938F939F93AF93BF9393
:101D8000EF93FF9380915005909151051816190615
:101D90007CF58091500590915105019790935105E4
:101DA00080935005809150059091510518161906A1
:101DB000E4F4209122053091230521153105C1F06D
:101DC0008091260590912705019790932705809390
:101DD0002605809126059091270597FF09C030932D
:101DE0002705209326052C9902C02C9A01C02C9817
:101DF00080911D0590911E05019790931E0580937B
:101E00001D05181619060CF440C08AE090E0909366
:101E10001E0580931D0580914C0590914D05A09164
:101E20004E05B0914F050196A11DB11D80934C0543
:101E300090934D05A0934E05B0934F0580911F05DB
:101E40009091200501979093200580931F05181607
:101E50001906DCF088EE93E09093200580931F052F
:101E60008091280590912905A0912A05B0912B0514
:101E70000196A11DB11D8093280590932905A0937B
:101E80002A05B0932B050E943D0EE0919007F0913A
:101E90009107309709F01995FF91EF91BF91AF919C
:101EA0009F918F917F916F915F914F913F912F9172
:101EB0000F900FBE0F901F901895FF920F931F93D6
:101EC000CF93DF93F82EEA01633008F42197E62FD1
:101ED000FF27E658FE4FE491CE0160E971E00E94D1
:101EE000E97E8B010E0F111DCE0164E070E00E94AF
:101EF000E97E9B012C0F3D1FCE0164E670E00E943D
:101F0000E97E261B370B2F0D311DC801820F931F51
:101F100067E070E00E94E97E9927DF91CF911F91E1
:101F20000F91FF90089580915C0890915D08019752
:101F3000A0E3B0E00C010E948B7E0895A0E3B0E026
:101F40000E947A7E3196F0935D08E0935C08809160
:101F50005C0890915D08885E93402CF010925D08BB
:101F600010925C08089580915C0890915D088951F9
:101F70009C4F24F410925D0810925C080895EF9233
:101F8000FF920F931F937B018C01611571058105F1
:101F90009105D9F12FB7F89480914C0590914D059A
:101FA000A0914E05B0914F052FBFAC01BD014E0D64
:101FB0005F1D601F711F481759076A077B07A8F448
:101FC0008FB7F89410924C0510924D0510924E0563
:101FD00010924F05109228051092290510922A059B
:101FE00010922B058FBFB801A7012FB7F8948091ED
:101FF0004C0590914D05A0914E05B0914F052FBF16
:1020000084179507A607B70780F31F910F91FF90DC
:10201000EF9008958F929F92AF92BF92CF92DF92EE
:10202000EF92FF920F931F93CF93DF93CDB7DEB75D
:10203000A2970FB6F894DEBF0FBECDBF0E949E0FD1
:102040002FB7F8948091560899279D878C878091A7
:10205000550899279B838A838091540899279D83EB
:102060008C838091570899279F838E83809158088D
:102070009927998788878091590890915A089B875A
:102080008A8780905C0890905D082FBF0E94384D31
:102090000E941B4E8DE691E00E94202DAC0160E075
:1020A00080E00E94814D0C811D81EA80FB80CC8400
:1020B000DD848EE591E00E94202D1F930F93FF9207
:1020C000EF92DF92CF929F938F938E01025F1F4F0B
:1020D0001F930F930E94D77521E0A80160E180E172
:1020E0000E946B578A859B8564E670E00E94E97EBA
:1020F0007C01CE80DF80A884B9848FE491E00E94C7
:10210000202DFF92EF92DF92CF92BF92AF929F93DA
:102110008F931F930F930E94D77522E0A80160E26E
:1021200080E10E946B5786E491E00E94202D23E01D
:10213000AC0160E380E10E946B5784E491E00E946F
:10214000202DE0916F07FF27EE0FFF1FEE0FFF1FFF
:1021500020911106E20FF11DEE0FFF1F2FEFAC01D2
:1021600060E080EA8E1B0E946B5710922B070E9442
:10217000704D2DB73EB72C5E3F4F0FB6F8943EBF63
:102180000FBE2DBF823009F447C0833021F081306B
:1021900009F0CCC005C08114910409F490C0A0C01E
:1021A0001E8684E391E00E94202D8E01025F1F4F66
:1021B00049E0B8010E94BD4ECE0104969F938F93D3
:1021C0009E012F5F3F4F3F932F93CE0102969F9327
:1021D0008F933F932F93CE010C969F938F9380E024
:1021E00092E09F938F931F930F930E9409768DB770
:1021F0009EB70E960FB6F8949EBF0FBE8DBF8C850E
:102200009D85489774F68A819B81CC9754F68C8182
:102210009D81CC9734F68AC01E8684E291E00E94AC
:10222000202D8E01025F1F4F49E0B8010E94BD4E74
:1022300089E191E00E94202D9E01265F3F4F3F9350
:102240002F93AE014F5F5F4F5F934F939E012A5FC5
:102250003F4F3F932F935F934F939E01285F3F4FD4
:102260003F932F939F938F931F930F930E94097611
:10227000E885F985CF0101972DB73EB7225F3F4F23
:102280000FB6F8943EBF0FBE2DBF0C9730F62E81CF
:102290003F81121613060CF0C0CFEE50FF4F849111
:1022A0009927821793070CF4B8CF8A859B858436CB
:1022B0009105E4F58053984F9B878A8737C08BE060
:1022C00091E00E94202D9F938F93CE010E969F93B5
:1022D0008F930E94D7750F900F900F900F9016C09C
:1022E0008FEF90E00E94202D9F928F929F938F936B
:1022F000CE010E969F938F930E94D7758DB79EB790
:1023000006960FB6F8949EBF0FBE8DBF68E6CE014D
:102310000E960E9405594B0198EE891693E0990696
:1023200074F629E182162CEF92064CF20E94704D51
:102330008F3F09F0ADCE1FB7F8948C858093560877
:102340008A81809355088C81809354088E81809374
:1023500057086885609358084A855B8550935A08EA
:10236000409359080E945D0F80935B0890925D082E
:1023700080925C088FB7F89410924C0510924D052E
:1023800010924E0510924F051092280510922905C3
:1023900010922A0510922B058FBF1FBF0E942E6539
:1023A00080915C0890915D080197A0E3B0E00C017A
:1023B0000E948B7E0E94D62EA2960FB6F894DEBFA6
:1023C0000FBECDBFDF91CF911F910F91FF90EF9086
:1023D000DF90CF90BF90AF909F908F9008958093A3
:1023E00052056093590526E0629FB0011124609365
:1023F00054059927880F991F880F991F80935705B7
:1024000008958093C0096093A00808958093870879
:10241000609352080895809158058F5F8093580506
:1024200080FF18C0E0915505F09156053196F09364
:102430005605E09355053197EE0FFF1FE957FE4F04
:10244000E491E0935305E295EF708E2F992787FD75
:102450009095089580915305992787FD90958F70E9
:102460009070089589E292E09093FD098093FC09B1
:102470008FEF9FEF909355078093540708950F9324
:102480001F93CF93DF93182F062F0E94CB24C0E019
:10249000D0E00DC04091870880915705480F410F4B
:1024A0004150612F802F850F0E940E2821965C2FAE
:1024B0008C2F99272091540540915208240F312DDB
:1024C000311D8217930734F30E94CB24DF91CF9103
:1024D0001F910F9108954F925F926F927F928F920A
:1024E0009F92BF92CF92DF92EF92FF920F931F9332
:1024F000CF93DF932C013B01042F809154079091DF
:10250000550791FF03C0842D0E943F1201320CF445
:102510009AC0802F992787FD90950E944C7C26E0D9
:102520008202400111242AE33FEF820E931E6301D1
:1025300080C09092560580925505109258050E94D1
:102540000B128F3009F47FC0082F61C00E940B125C
:102550008F3059F40E940B12082F8F3009F45CC0A1
:102560000E940B128F3009F457C0B82E1127E0904B
:102570005205FF24E7FCF09460915905772767FD29
:102580007095A82FBB27FD01E65EFD4F808199273E
:1025900087FD9095869F9001879F300D969F300D07
:1025A00011242C0D3D1DA55FBD4F8C91992787FDF2
:1025B00090958E9DA0018F9D500D9E9D500D1124D4
:1025C0004C0F5D1FF801E65EFD4F8081992787FD66
:1025D0009095FB018E9FB0018F9F700D9E9F700D97
:1025E00011246C0D7D1D055F1D4FF8018081992719
:1025F00087FD9095FC01EE9DC001EF9D900DFE9D25
:10260000900D11248C0F9D1F0E94D9310B2D8091AC
:1026100058058D300CF49ACF21968091C009920113
:10262000280F311DC217D3070CF483CF0894C11CA7
:10263000D11C8091A008F301E80FF11DCE16DF0632
:1026400014F4E201EACFDF91CF911F910F91FF9037
:10265000EF90DF90CF90BF909F908F907F906F9082
:102660005F904F9008950E94DF2E61E081E00E940C
:10267000EF1181E08093C0098093A00882E08093ED
:1026800087088093520860E080E00E941725089533
:10269000EF92FF920F931F93CF93DF93082F162F84
:1026A0007A01809154079091550790FF17C080914F
:1026B0006F07682F0E94EF1180916F078093C00908
:1026C0008093A00899279C01220F331F220F331FEC
:1026D00020938708880F991F80935208C0E0D0E0AC
:1026E00001C02196F701EC0FF11D4491442349F1FB
:1026F000612F7727802F99270E946B128091FB060C
:1027000099279C012071307083FF0EC08091540581
:1027100090915208232B19F0890F181B02C0890FC2
:10272000180F1035F0F20DC0809157059091870871
:10273000232B19F0890F081B02C0890F080F003ADC
:1027400080F2DF91CF911F910F91FF90EF9008954C
:102750000F931F93CF93DF93082F162FEA018091D9
:1027600054079091550790FF41C080916F07682FE3
:102770000E94EF1180916F078093C0098093A00899
:1027800099279C01220F331F220F331F20938708A4
:10279000880F991F8093520829C0612F7727802FB7
:1027A00099270E946B128091FB0699279C0120714A
:1027B000307083FF0EC08091540590915208232BF6
:1027C00019F0890F181B02C0890F180F103570F00F
:1027D00010C08091570590918708232B19F0890F1D
:1027E000081B02C0890F080F003A18F449914423CE
:1027F000A1F6DF91CF911F910F9108951F93182F8C
:10280000809154079091550790FF17C080916F07F2
:10281000682F0E94EF1180916F078093C009809309
:10282000A00899279C01220F331F220F331F2093EA
:102830008708880F991F80935208809154079091C0
:10284000550780FF09C0173039F460ED77E088EC58
:1028500090E00E94B30C61C081FF16C01830A1F453
:10286000509181074091570560918708252F3327A4
:10287000E42FE60FF12DF11D2E173F075CF0460FF8
:10288000541B5093810749C082FF07C01C3029F4B4
:10289000109264081092810740C083FF09C01A306B
:1028A00039F41092810780915405909152081BC011
:1028B00084FF02C01D3071F385FF0DC0193059F43B
:1028C0008091570590918708890F90918107980F03
:1028D0009093810722C086FF0DC01B3059F4809170
:1028E000570590918708890F90916408980F9093ED
:1028F000640813C060916408772780918107412F95
:1029000099270E946B129091570580918708980F24
:1029100080918107890F8093810740918107552716
:102920002091570580918708280F312D311D80EAAD
:1029300090E0821B930B8417950764F41092810733
:102940008091540590915208890F90916408980FD6
:102950009093640860916408E09154057091520866
:10296000462F55278E2F870F912D911D9C0180E5B5
:1029700090E0821B930B8417950774F480915407A1
:1029800087FF08C08E2F870F681B609364080E9422
:10299000E12402C01092640880E090E01F91089545
:1029A000CF92DF92EF92FF921F93F82E0EC00E94FB
:1029B000346E182F8AEB94E00E94202D0E94FA6D4D
:1029C000812F0E94136E0E94076E809196088823C3
:1029D00071F789EA94E00E94202D0E94FA6DCF2CB5
:1029E000DD24EE24FF2442E050E0C701B6010E943E
:1029F0009B6D0E94076E0EC00E94796B182F88E9AC
:102A000094E00E94202D0E94456B812F0E945E6BF6
:102A10000E94526B80918607882371F787E894E0C3
:102A20000E94202D0E94456B42E050E0C701B60194
:102A30000E94E66A0E94526B1F91FF90EF90DF9018
:102A4000CF900895EF92FF920F931F93CF93DF9350
:102A500000E010E0EE24FF2419C0402F6E2D8C2FD3
:102A60000E9469230F5F1F4F0F3F110519F010F0EF
:102A700000E010E02896C03AD10579F788E090E0B0
:102A8000E80EF91E90E5E916F10419F0C0E0D0E077
:102A9000E4CFDF91CF911F910F91FF90EF900895B8
:102AA0000E94CB2447E855E060E080E00E942127A7
:102AB00042E755E068E080E00E9421274DE555E0BF
:102AC00060E180E00E9421270E94CB2448E455E089
:102AD00068E180E00E94212743E355E060E280E066
:102AE0000E9421274EE155E068E280E00E94212704
:102AF00049E055E060E380E00E94212744EF54E084
:102B000068E380E00E9421274FED54E060E480E01C
:102B10000E9421274AEC54E068E480E00E942127CB
:102B200008950F931F93009167081091040682E0A7
:102B300080936F071092FB0690E08FEF80936708F9
:102B40001092040680916F07880F880F880F899F65
:102B5000802D112447EE55E060E0885F0E94212718
:102B60000E94CB2460916F07772743E0660F771FA1
:102B70004A95E1F78091FB06869F802D112445EE52
:102B800055E0885F0E9421270E94CB248091AB09E9
:102B900082608093AB098AEA8093670860916F072F
:102BA00077278091FB0633E0660F771F3A95E1F7B0
:102BB000869F802D112443EE55E0660F771F885FB6
:102BC0000E94212785E58093670820916F073327AE
:102BD00088E190E0289FB001299F700D389F700D0B
:102BE00011248091FB0693E0220F331F9A95E1F7A1
:102BF000829F802D112441EE55E0885F0E9421279D
:102C00008091AB098D7F8093AB099091FB069F5F0C
:102C10009093FB06983008F490CF1092FB06009337
:102C200067081093040681E080936F071F910F914E
:102C300008951F930E94CB244CEC55E068E480E09B
:102C40000E9421270E94CB2427E44FE967E480E01B
:102C50000E94A12782E080936F074AEC55E060E074
:102C600080E00E94212760916F077727A3E0660F1D
:102C7000771FAA95E1F748EC55E080E00E942127F4
:102C800060916F077727F4E0660F771FFA95E1F7F9
:102C900046EC55E080E00E94212760916F0718E123
:102CA000619FB001112444EC55E080E00E9421278F
:102CB0004AEB55E060E080E10E94212760916F07B8
:102CC0007727E3E0660F771FEA95E1F740EB55E0E1
:102CD00080E10E94212760916F07772754E0660FFB
:102CE000771F5A95E1F746EA55E080E10E942127D7
:102CF00060916F07619FB00111244CE955E080E1BC
:102D00000E94212781E080936F071F910895FF9211
:102D10000F931F93CF93DF93F09067088091410347
:102D2000809367082FE440E56FE480E00E94A127CC
:102D30000FE410E0C0E5D0E02FE44C2F602F80E0DE
:102D40000E94A1270A5010402F978FEFC63FD80747
:102D500099F72FE440E06AE180E00E94A127F09219
:102D60006708DF91CF911F910F91FF9008950F9306
:102D70001F9310916708009104068AEA8093670800
:102D800083E08093AB0920EC30E047E268E280E525
:102D90000E94002A1092AB09109367080093040662
:102DA0001F910F9108951F93CF93DF9310916708A0
:102DB000C0ECD0E09E014EE167E383E50E94002A6B
:102DC000CE019695879596958795C81BD90B289720
:102DD000CD30D10578F710936708DF91CF911F911F
:102DE0000895AF92BF92CF92DF92EF92FF920F932E
:102DF0001F93CF93DF935C01EB017A0180E1809315
:102E0000AB099A01220F331F240F351F220F331FE6
:102E1000C90188599E4F68E671E00E94E97E8C01E5
:102E2000015F104FF8010491C901825F9E4F68E66F
:102E300071E00E94E97EFC01E15FF04FE491FAE26B
:102E4000EF02C0011124880F892F881F990BB0EC65
:102E5000CB2ED12C9C012C9DC0012D9D900D3C9D15
:102E6000900D112460E071E00E94E97E9B01275DD6
:102E70000F02A0011124440F452F441F550B405B46
:102E800069E280E50E94A127CE15DF0509F440C064
:102E90009E01220F331F2C0F3D1F220F331FC9012C
:102EA00088599E4F68E671E00E94E97E8C01015FBF
:102EB000104FF8010491C901825F9E4F68E671E0EE
:102EC0000E94E97EFC01E15FF04FE491FAE2EF023B
:102ED000C0011124880F892F881F990B9C012C9DFC
:102EE000C0012D9D900D3C9D900D112460E071E07E
:102EF0000E94E97E9B01275D0F02A0011124440F6F
:102F0000452F441F550B405B69E280E50E94A127D5
:102F1000AC16BD0609F44EC08EE190E0A89E90016B
:102F2000A99E300DB89E300D1124CE0162E070E0F4
:102F30000E94E97E260F371FC90188599E4F68E617
:102F400071E00E94E97E4FE0E42E4FE0F42EE80E9F
:102F5000F91EF701E490C901825F9E4F68E671E0B7
:102F60000E94E97EFC01E15FF04FE49105E2E0029E
:102F7000C0011124880F892F881F990B9C012C9D5B
:102F8000C0012D9D900D3C9D900D112460E071E0DD
:102F90000E94E97E9B01275D3E2D300280011124B5
:102FA000000F012F001F110B005B402F69E280E52D
:102FB0000E94A12781E08093AB0920EC30E044E03F
:102FC00069E280E50E94002A1092AB09DF91CF915F
:102FD0001F910F91FF90EF90DF90CF90BF90AF9037
:102FE0000895EF920F931F9306E02FE44FE960E0FE
:102FF00080E00E9476282FE44FE960E080E00E94A4
:10300000A1272FE440E060E08FE90E94A12781E042
:103010008093AB091FEF1093670820EC30E042E388
:1030200068E280E50E94002A1092670820EC30E0F8
:103030004DE268E280E50E94002A1093670820ECC8
:1030400030E048E268E280E50E94002A10926708BA
:1030500020EC30E043E268E280E50E94002A109311
:10306000670820EC30E04EE168E280E50E94002A2B
:103070001092670820EC30E049E168E280E50E94A8
:10308000002A1093670820EC30E044E168E280E514
:103090000E94002A1092670820EC30E04FE068E2BE
:1030A00080E50E94002A1093670820EC30E04AE097
:1030B00068E280E50E94002A1092670820EC30E068
:1030C00045E068E280E50E94002A81E18093AB0937
:1030D000109367081092040694E1E92E04E12CE3B2
:1030E0004CE364E184E10E94DC1F1092AB091F9164
:1030F0000F91EF9008951F938FEF809367081092C0
:10310000040660E080E00E9417250E942E65109260
:103110002C0810E040E060E070E087E392E00E945D
:10312000BD4E8823B9F38B3181F08D3071F0992732
:103130000E949D75185F183928F060E080E00E94B9
:10314000172510E00E942E65E5CF0E942E65109293
:103150002C081F9108958FEF809367081092040642
:1031600026E446E46AE08AE00E944C2823E244E137
:1031700069E18AE00E944C282CE346E462E38CE398
:103180000E944C280E94CB2422E24AE06AE18AE0B5
:103190000E94A1272BE346E463E386E40E94A12773
:1031A0000E94CB2484EF91E00E9407660E942E6566
:1031B0004FEF68E288E20E94ED2C089525E24DE38E
:1031C00065E283E10E94A12727E34BE165E28DE3FD
:1031D0000E94A12729E148E267E38BE10E94A12731
:1031E00027E345E369E188E20E94A12725E243E164
:1031F00067E385E30E94A1274FEF68E288E20E941F
:10320000ED2C08950F931F93CF93DF9300916708E0
:10321000C0E0D0E04C2F4F5A61E58C2F0E940E2861
:1032200060E56C1B40E58C2F885D0E940E2821967E
:10323000C832D10579F700936708DF91CF911F91CC
:103240000F9108951F93CF93DF9310916708C0E00B
:10325000D0E0C0FF06C08C2F805B482F60E586540D
:1032600005C08C2F40E54C1B60E5865F0E940E2850
:103270002196C431D10569F710936708DF91CF918A
:103280001F910895CF92DF92EF920F931F93CF93E8
:10329000DF9341E460E080E00E94692342E460E063
:1032A00088E00E94692343E468E080E00E9469238B
:1032B00044E468E088E00E94692327E04FE060E092
:1032C00080E00E944C2828E0C22ED12CC8E1D0E03A
:1032D000EC2C0C2F27E04FE060E080E00E94DC1F28
:1032E00001E50C1B27E04FE060E080E00E94DC1F5E
:1032F000219688E090E0C80ED91EC132D10541F771
:10330000C0906708C0E0D0E023C0EC2ED02E6C2F18
:10331000802F0E94A21EF801E770F070E25EFC4F61
:103320009081982311F08FEF01C080E080936708AF
:1033300090E4E90E6E2D8D2D80570E943C1F0F5F8B
:103340001F4F0F30110509F72196C031D10519F033
:1033500000E010E0DACFC0926708DF91CF911F91B3
:103360000F91EF90DF90CF9008951F931091670811
:103370002FE44FE960E080E00E944C288AEA8093C5
:1033800067088091AB0982608093AB0928E248E925
:103390006EE088E70E942B288FEF809367081092D9
:1033A000AB0925E448E968E288E70E942B281093DE
:1033B00067080E94DE180E9487160E9422190E9448
:1033C000D3161F91089581E00E94776420E030E0D9
:1033D000882311F021E030E0C9010895CF93DF93F5
:1033E0008091AB098E7F8093AB0920EC30E044E103
:1033F00061E482E30E94002A2CE34CE360E088E26F
:103400000E944C288091AB0981608093AB090E9497
:10341000CB2420EC30E043E161E482E30E94002A07
:103420002CE34BE361E089E20E942B2838C020ECBA
:1034300030E040E161E482E30E94002AC9E3D0E089
:1034400049E36BE28C2F0E940E2864E170E080E07B
:1034500090E00E94BF0F81E00E947764882329F5E5
:103460002197C330D10561F70E94CB24C4E0D0E09E
:1034700049E36BE28C2F0E940E2864E170E080E04B
:1034800090E00E94BF0F81E00E947764882319F0CA
:103490000E94CB240AC02196C933D10549F70E9466
:1034A000CB240E94E319882311F21092AB09DF911B
:1034B000CF9108950E94E3198823E1F30E94E31954
:1034C0008823E1F78AE290E00895EF92FF920F934C
:1034D0001F93CF93DF931092AB0900E010E0EE242E
:1034E000FF2464C0402F6E2D8C2F0E9469230F5F34
:1034F0001F4F0F3F110519F010F000E010E0289663
:10350000C03AD10579F788E090E0E80EF91E90E521
:10351000E916F10409F04AC0C0E0D0E040E5E42E2D
:1035200000E02FE44FE960E08FE90E94DC1FEE2409
:1035300001E02FE44EE960E080E00E94DC1F00E043
:103540002FE940E060E580E00E94DC1F0E94E31963
:10355000882321F42196C03AD10501F70E94E3198E
:10356000882311F00E945A1AC0E0D0E030E5E32E23
:1035700000E02FE440E060E080E00E94DC1FEE24E9
:103580002FE44FE960E081E00E94DC1F0FE92FE9A2
:1035900040E060E580E00E94DC1F0E94E319882380
:1035A00041F42196C03AD10521F0E0CFC0E0D0E04F
:1035B00099CFDF91CF911F910F91FF90EF900895D8
:1035C0008F929F92AF92BF92CF92DF92EF92FF9233
:1035D0000F931F93CF93DF930E94D62EC0E0D0E0CD
:1035E00076E0E72E73E0F72E6AE5C62ED12CC601F1
:1035F00068E671E00E94E97E5FE0852E5FE0952E2F
:103600009C01280D391DF9012491CE0168E671E075
:103610000E94E97EFC01E80DF91DE491D7010D91AE
:103620001D917D01BFE2EB02C0011124880F892F9B
:10363000881F990B30ECA32EB12CFC01EA9DC00130
:10364000EB9D900DFA9D900D112460E071E00E94B9
:10365000E97E6B5DFFE22F02C0011124880F892FE4
:10366000881F990BF80101900020E9F73197E01BC2
:10367000F10BEE0FEE0F8E1BA801805B0E946627F8
:103680006E962EE130E0C20ED31E31E0C836D3076D
:1036900009F0ADCFE9E6FFE0E4914FE2E402E0019A
:1036A0001124CC0FCD2FCC1FDD0BF40184918402AB
:1036B000C0011124880F892F881F990B9C012A9D16
:1036C000C0012B9D900D3A9D900D112460E071E09A
:1036D0000E94E97E4B01B1E0CB2ED12CABE5AA2EA6
:1036E000B12CC50168E671E00E94E97EFC01E15F52
:1036F000F04FE4912FE2E20280011124000F012F2C
:10370000001F110BC60168E671E00E94E97EFC0112
:10371000E15FF04FE491E20290011124220F232F88
:10372000221F330B80EC90E0AC01249FC001259F49
:10373000900D349F900D112460E071E00E94E97EAD
:103740007B01262F275D402F405B682D675DDE01E2
:10375000A05B8A2F0E94A1270894C11CD11C089449
:10376000A11CB11C4701E801B8E6CB16B1E0DB06AD
:1037700009F0B7CF2FE44FE960E080E00E944C28C9
:103780000E942E6573E6872E912C63E6A62EB12C3F
:1037900003E610E0CC2481E00E947764882311F5D1
:1037A0000E949E0F80915408C82FDD27E090550895
:1037B000D0905608C017D10771F3CC2029F0A8018A
:1037C000B501C4010E94F116FF240D2D1127AE0191
:1037D000B701C8010E94F116480157018E0151E05E
:1037E000C52ED9CF0E942E650E94D62EDF91CF9193
:1037F0001F910F91FF90EF90DF90CF90BF90AF900F
:103800009F908F9008959F92AF92BF92CF92DF9238
:10381000EF92FF920F931F93CF93DF93CDB7DEB755
:1038200065970FB6F894DEBF0FBECDBF82E00E9451
:1038300008270E942E6573E6972E63E6A62E81E088
:103840000E947764882309F015C10E949E0F809121
:103850005708891509F4B5C09090570882E0809305
:103860006F07BB240E94EA260E94D62E03E02FE4B5
:103870004FE960E080E00E947628C0905908D0901F
:103880005A08E0915808FF27EE0FFF1FE358FD4F3D
:10389000E080F1800091570884E096E00E94202D9E
:1038A0009C01C60164E670E00E94D57E9F938F93D1
:1038B000FF92EF9211271F930F933F932F937E0157
:1038C0000894E11CF11CFF92EF920E94D775809141
:1038D0006F0799279C01220F331F220F331F48E2E5
:1038E000421BF70101900020E9F73197EE19FF091B
:1038F00093E0EE0FFF1F9A95E1F78E9F802D112424
:1039000000EAC02ED12C9601281B3109C90162E0C2
:1039100070E00E94E97ECB01642F0E94172581E0B0
:1039200096E00E94202DFF92EF929F938F930E942A
:103930007D75E0915B08FF27EE0FFF1FE053FD4F01
:10394000008111818EEF95E00E94202D1F930F932F
:103950009F938F93FF92EF920E94D77580916F078C
:10396000F70101900020E9F73197EE19FF09B3E064
:10397000EE0FFF1FBA95E1F78E9F802D1124C81A14
:10398000D108C60162E070E00E94E97ECB0164E3E9
:103990000E9417258BEF95E00E94202DFF92EF9259
:1039A0009F938F930E947D75B3948DB79EB7489671
:1039B0000FB6F8949EBF0FBE8DBF92E0B91609F006
:1039C00051CF809154088A1509F439CFA09054083A
:1039D00082E080936F070E94EA2600915408E090ED
:1039E0005508C09056088CEE95E00E94202D1127B6
:1039F0001F930F93FF24FF92EF92DD24DF92CF926B
:103A00009F938F938E010F5F1F4F1F930F930E9401
:103A1000D77520916F07F80101900020E9F73197E1
:103A2000E01BF10BA3E0EE0FFF1FAA95E1F72E9F1D
:103A3000202D112480EA90E0821B910962E070E061
:103A40000E94E97ECB016CE00E94172589EE95E08B
:103A50000E94202D1F930F939F938F930E947D753B
:103A60002DB73EB7225F3F4F0FB6F8943EBF0FBE53
:103A70002DBFE5CE0E942E650E9415270E94D62EEE
:103A800081E080936F0765960FB6F894DEBF0FBE96
:103A9000CDBFDF91CF911F910F91FF90EF90DF90FD
:103AA000CF90BF90AF909F9008950F931F93082FD2
:103AB0000E94D62E14E066C0812F0E94D0140E946E
:103AC000D62E103119F40E94651A4DC01F3019F41A
:103AD0000E94421948C01E3019F40E94AB1843C01E
:103AE0001D3019F40E9402193EC01C3009F449C06F
:103AF0001B3019F40E94911536C01A3019F40E9437
:103B0000B51931C0193019F40E94031C2CC01830AB
:103B100019F40E94E01A27C0173019F40E94B71652
:103B200022C0163019F40E9419161DC0153019F460
:103B30000E947B1824C0143019F40E94F11713C09E
:103B4000133019F40E9450150EC0123019F40E945F
:103B5000221509C0113011F48FEF03C0112389F42D
:103B600080E00E949F1F68EC169FB00111248AEF2D
:103B700090E00E94B30C80ED97E00E9407660E94DF
:103B80002E651F5F113108F497CF002311F014E068
:103B900093CF1F910F91089582B386958695809556
:103BA000817099270895459A00000000000080E088
:103BB000079B04C0823311F08F5FFACF45980895B8
:103BC0001F931FEF12B911B8469A479A0E94D31D4E
:103BD000469811B947981F9108950F931F93182F76
:103BE000062F0E94E01D479A12B9459A0000000076
:103BF00000004598479802B9459A0000000000006F
:103C000045981F910F910895FF920F931F9390EA8B
:103C1000699F80011124080F111D23E01695079557
:103C20002A95E1F780916D0790916E07080F191F93
:103C3000A29846989FEFF92EF1B8602F8AE00E9473
:103C4000ED1D012F1127602F8BE00E94ED1DA29A20
:103C5000F2B811B8469A1F910F91FF900895EF9214
:103C6000FF920F931F93062FE42E06950695069557
:103C700094E1099F8001112486958695869520916F
:103C80006D0730916E07280F311D020F131FA29888
:103C900046984FEFF42EF1B8602F8AE00E94ED1D98
:103CA000012F1127602F8BE00E94ED1D6E2D8CE0FF
:103CB0000E94ED1DA29AF2B811B8469A1F910F9179
:103CC000FF90EF900895EF92FF920F931F93E42ED1
:103CD00090EA699F80011124080F111D73E0169569
:103CE00007957A95E1F780916D0790916E07080F1F
:103CF000191FA29846986FEFF62EF1B8602F8AE050
:103D00000E94ED1D012F1127602F8BE00E94ED1DF9
:103D10000E94E01D479A8CE082B9459A000000009D
:103D2000000045984798E2B8459A0000000000005E
:103D30004598A29AF2B811B8469A1F910F91FF9038
:103D4000EF900895FF920F931F9390EA699F80016F
:103D50001124080F111DA3E016950795AA95E1F708
:103D600080916D0790916E07080F191FA2984698D1
:103D7000FFEFFF2EF1B8602F8AE00E94ED1D012FAA
:103D80001127602F8BE00E94ED1D0E94E01D479AD5
:103D90008DE082B9459A0000000000004598F2B815
:103DA00011B8469A0E94D31D4798459A000000001A
:103DB00000004598479A0E94D31D4798459A0000F5
:103DC0000000000080B14598A29AF2B811B8469A56
:103DD00099271F910F91FF9008950F931F930091C2
:103DE0006D0710916E0790936E0780936D0760E0EA
:103DF00080E00E94A21E10936E0700936D07992722
:103E00001F910F9108950F931F93462F00916D07F7
:103E100010916E0790936E0780936D0760E080E0CD
:103E20000E94631E10936E0700936D071F910F9100
:103E30000895FF920F931F9324E130E0829F800149
:103E4000839F100D929F100D1124A29846988FEF1A
:103E5000F82EF1B8602F88E00E94ED1D012F112788
:103E6000602F89E00E94ED1DA29AF2B811B8469A1F
:103E70001F910F91FF9008950F931F93182F062FF6
:103E8000803A08F059C0603508F056C08091720839
:103E9000882331F040916708812F0E942F1E4CC06B
:103EA000812F0E94A21E482F8091AB09282F332713
:103EB000C9018C719070892B39F1E12FFF27E770D0
:103EC000F070E25EFC4FE081842F8E2323FF03C05D
:103ED0008823B9F004C022FF07C0882381F48091B1
:103EE0006708882361F40DC024FF22C09091670801
:103EF000882319F0992319F004C0992311F04E2B4F
:103F000017C0E0954E2314C080916708E12FFF276A
:103F1000882339F0E770F070E25EFC4F8081482B17
:103F200007C0E770F070E25EFC4F80818095482307
:103F3000602F812F0E94631E1F910F910895FF92A1
:103F40000F931F93CF93DF93F82E00916D0710917D
:103F50006E07A29846988FEF81B9602F8AE00E9481
:103F6000ED1D012F1127602F8BE00E94ED1D0E9497
:103F7000E01D479A8CE082B9459A000000000000DD
:103F800045984798CFE3D6E00E94E01DF2B8459AE5
:103F9000000000000000459821978FEFCF3FD80721
:103FA00099F7A29A8FEF82B911B8469ADF91CF9113
:103FB0001F910F91FF9008952F923F924F925F9221
:103FC0006F927F928F929F92AF92BF92CF92DF9229
:103FD000EF92FF920F931F93CF93DF93CDB7DEB78E
:103FE00025970FB6F894DEBF0FBECDBF782E902E6A
:103FF0003E2D261718F4822F262F682F471518F408
:10400000842F472D782E8FE9891508F449C3842E13
:10401000841710F4AFE98A2E492C5524882D99274E
:1040200087199109840D951D803A910530F0881A01
:104030009FE9890E871408F433C3A92CA694A6948B
:10404000A6943A2CAA2DBB27A7FDB095BA83A983C5
:10405000F7E06F2E6920872D8770681AB4E0B615D7
:1040600024F4E8EF6E0E339409C0AA2039F0FCEF77
:104070006F1624F488E0680E3A2C3A94922F961B1F
:104080009D83E92EE394631728F0262EB32EA1E03A
:10409000AC8306C0B32EBE0CBA94222EBFEFBC83F5
:1040A0001B82EBC2102F202F332707FF28C025FDCE
:1040B000F4C2882D99270196E3E095958795EA95B6
:1040C000E1F7482F60E070E04F5FC42EDD244150DF
:1040D000232D332727FD3095235A3A4F0AC0FF2757
:1040E000D901AE0FBF1FE35AFA4F80818C936F5FE7
:1040F0007F4FE42FE61B6C157D0589F7CAC2C90105
:1041000083709070892B09F441C025FDC6C221FD42
:1041100006C070916708672D40E050E02BC0B0FEEC
:10412000F8CFB0916708B095A72D60E070E0482DFA
:104130005527485F5F4F232D332727FD3095235A9E
:104140003A4F05C0F901EF0DF11DB083A85FF62EBF
:104150006F5F7F4F8A2F9927481759079CF79AC29C
:10416000E32DFF27E7FDF095E35AFA4FEF0DF11D20
:104170007083685FF42E4F5F5F4F262F3327882DA3
:1041800099270896821793075CF784C200EA209E5D
:1041900080011124070D111D73E0169507957A957E
:1041A000E1F780916D0790916E07080F191FA29893
:1041B00046986FEFF62EF1B8602F8AE00E94ED1D51
:1041C000012F1127602F8BE00E94ED1D0E94E01D42
:1041D000479A8DE082B9459A00000000000045989A
:1041E000F2B811B8469A0E94D31D4798459A00002C
:1041F000000000004598072DCC24DD2414C0479A08
:104200000E94D31D4798459A00000000000080B12D
:10421000E32DFF27E7FDF095E35AFA4FEF0DF11D6F
:1042200080834598085FFC2C0894C11CD11C202F6A
:104230003327882D992701968217930704F7A29AAE
:104240008FEF82B911B8469A1091AB09612F772789
:1042500065FD3DC0462D1614CCF01BC02F2D13C09C
:10426000A22FBB27A7FDB095E981FA81AE0FBF1F32
:10427000A35ABA4F9C91990F9C938E91119687FFE8
:1042800002C091609C93215027FFEACF415030F744
:104290001EC0662091F41BC09C9196959C93FD01D5
:1042A000818180FF02C090689C932F5F3F4F1196E1
:1042B0008F2D9927281739077CF34F5F413039F04C
:1042C000A981BA81A35ABA4F20E030E0F1CF61FF53
:1042D00002C01F7D04C0862F817819F010621093F0
:1042E000AB09C82CC718C90CEC2CFF249201287FFD
:1042F000C701887F8201077010702817390709F0FD
:104300005BC00A5D1C4FF7E0EF22FF248EE293E0D2
:10431000E80EF91ED8010C91F7018081082B8091DD
:10432000AB09282F3327C9018C719070892B31F488
:104330006B2D892D0E94A21E802306C022FF0DC076
:104340006B2D892D0E94A21EEA2DFF27E35AFA4FFA
:10435000009590810923082B1FC023FF0FC06B2DF0
:10436000892D0E94A21EEA2DFF27E35AFA4F902FB3
:10437000909520819223092B08230EC024FF0CC0A6
:104380006B2D892D0E94A21EEA2DFF27E35AFA4FBA
:1043900000959081092308278091AB0986FF06C00C
:1043A000EA2DFF27E35AFA4F008361C1402F6B2D9E
:1043B000892D0E94631E5BC10115110511F4D92CD2
:1043C00057C06B2D892D0E94A21E482F8091AB09EA
:1043D000682F7727CB018C719070892B51F40A5D7F
:1043E0001C4FD8018C914823EA2DFF27E35AFA4F3E
:1043F0000AC062FF0DC0EA2DFF27E35AFA4F0A5D9B
:104400001C4FD8018C91809590818923482B1FC027
:1044100063FF0FC00A5D1C4FF8012081EA2DFF27C2
:10442000E35AFA4F822F809590818923282B4223CB
:104430000EC064FF0CC0EA2DFF27E35AFA4F0A5D55
:104440001C4FD8018C91809590818923482766FF65
:1044500006C0EA2DFF27E35AFA4F408304C06B2DB4
:10446000892D0E94631E48EFD42ED920B8E0DB0EC0
:104470008701077010700730110509F467C06B2DB4
:104480008C2D0E94A21E482F8091AB09682F7727A0
:10449000CB018C719070892B69F4025D1C4FF8017F
:1044A00080814823EC2DE695E695E695FF27E35AB3
:1044B000FA4F0DC062FF10C0EC2DE695E695E6952B
:1044C000FF27E35AFA4F025D1C4FD8018C9180956B
:1044D00090818923482B25C063FF12C0025D1C4FC9
:1044E000F8012081EC2DE695E695E695FF27E35A45
:1044F000FA4F822F809590818923282B422311C067
:1045000064FF0FC0EC2DE695E695E695FF27E35A8C
:10451000FA4F025D1C4FD8018C91809590818923C0
:10452000482766FF09C0EC2DE695E695E695FF273E
:10453000E35AFA4F408304C06B2D8C2D0E94631EFA
:10454000B8EFCB22EFE9EC1508F491C0DC1408F0C9
:104550008EC08091AB09282F3327C9018C719070D0
:10456000892B09F045C026FD82C000EAB09E80017B
:1045700011240D0D111D33E0169507953A95E1F7BD
:1045800080916D0790916E07080F191FA2984698A9
:104590008FEF81B9602F8AE00E94ED1D012F112756
:1045A000602F8BE00E94ED1D0E94E01D479A8CE079
:1045B00082B9459A00000000000045980E94E01D65
:1045C000ED2DE695E695E695FF27E35AFA4F8081B3
:1045D00082B9459A0000000000004598F8E0DF0E1F
:1045E000DC1460F3A29A8FEF82B911B8469A3FC0EB
:1045F0006B2D8D2D0E94A21E482F8091AB09282F74
:10460000332722FF0AC0ED2DE695E695E695FF27B4
:10461000E35AFA4F8081482B17C023FF0AC0ED2DC3
:10462000E695E695E695FF27E35AFA4F8081482301
:104630000BC024FF09C0ED2DE695E695E695FF2712
:10464000E35AFA4F8081482726FF09C0ED2DE695F1
:10465000E695E695FF27E35AFA4F408304C06B2D99
:104660008D2D0E94631E88E0D80EDC1408F29C8118
:10467000290EB90EAB81A150AB838D81809500913D
:10468000AB09BB81B81709F00DCD0F7D0093AB09C5
:1046900007C0F62E602F7727DDCD602F772717CE46
:1046A00025960FB6F894DEBF0FBECDBFDF91CF9138
:1046B0001F910F91FF90EF90DF90CF90BF90AF9040
:1046C0009F908F907F906F905F904F903F902F9032
:1046D00008954F925F927F928F929F92AF92BF9276
:1046E000CF92DF92EF92FF920F931F93CF93DF93BE
:1046F000982E862E80917208882321F0892D0E94A1
:104700002F1E39C1492C5524C20187709070892B06
:1047100041F480916F07823020F48091AB098E7153
:1047200051F0C42EDD2493E0CC0CDD1C9A95E1F70A
:10473000C0E0D0E038C08091FB0680FDF2CFC42FEE
:10474000DD2783E0CC0FDD1F8A95E1F700E010E064
:10475000682D600F8091FB06992781FF05C0E7E077
:10476000F0E0E01BF10B01C0F801EC0FFD1FE15F71
:10477000F84F449182FF05C0E42FFF27E15FF94F16
:1047800044919091040680916708981708F040952D
:10479000892D0E94631E0F5F1F4F0830110509F419
:1047A000EAC0D6CF812E8091FB06992780FF30C0CA
:1047B000FF2420E030E0AEE1B3E0BC016270707035
:1047C00007E010E0AC01447050706115710521F0F4
:1047D000F801E21BF30B01C0F901EC0DFD1DE15FD7
:1047E000F84F94914115510521F0F801EC1BFD0B98
:1047F00001C0FE01E25EFC4F8081982311F08C9194
:10480000F82A2F5F3F4F119628303105B1F0DDCFE8
:1048100081FF05C0E7E0F0E0EC1BFD0B01C0FE01ED
:10482000EC0DFD1DE15FF84FE49182FD02C0FE2E0C
:1048300004C0FF27E15FF94FF49090910406809146
:104840006708981708F0F094AA24BB2468C08F2D3D
:10485000852309F47EC06115710581F010FD02C049
:10486000902F01C0972DF201E30FF11DE770F0705A
:10487000E25EFC4F8081982309F46BC0A32FA695BC
:10488000A695A695BB27A35ABA4FE32FFF27E7703B
:10489000F070E25EFC4F8C919081892B8C933F5F8E
:1048A000303A18F44F5F421790F2550F11F040E084
:1048B000FACF0894A11CB11C8E2D806A422F552777
:1048C000672BA9F08093AB0903E0440F551F0A95AD
:1048D000E1F74150E12E092D20E060E080E00E94E8
:1048E000DC1F8091AB098F758093AB0918C0809352
:1048F000AB092150B3E0440F551FBA95E1F7415081
:10490000E12E092D60E080E00E94DC1F8091AB0960
:104910008F758093AB0980916F07180F14C0182D05
:104920001A0D20916F07A21670F4E090AB096E2D5E
:1049300077276270707000916708702E7094392D1F
:1049400040E051E0B0CF2196C830D10509F02ACF20
:1049500012C0A32FA695A695A695BB27A35ABA4F1A
:10496000E32FFF27E770F070E25EFC4F9081909597
:104970008C91892393CFDF91CF911F910F91FF905D
:10498000EF90DF90CF90BF90AF909F908F907F90EF
:104990005F904F90089590916708809104068093EE
:1049A000670890930406089587E493E09093FD09C7
:1049B0008093FC098FEF9FEF9093550780935407E6
:1049C0000895CF92DF92EF920F931F93182FC0900C
:1049D000AB09DD241092AB09EE2400E02FE44FE98F
:1049E000682F80E00E94DC1F81E08093AB099091EA
:1049F000670880910406809367089093040660E539
:104A0000611BE62E2FE44FE980E00E94DC1F9091AD
:104A10006708809104068093670890930406C0920B
:104A2000AB091F910F91EF90DF90CF900895809385
:104A30008107609364080895EF92FF920F931F938C
:104A40007C018B010E94031F012F1127602FC701DA
:104A500001960E94031F1F910F91FF90EF90089500
:104A6000CF92DF92EF92FF920F931F936C017A0126
:104A70008B01642F0E94031F9927812F702F6F2DA8
:104A8000C60101960E94031FB80188279927C60115
:104A900002960E94031FE12EFF24002711276E2D8E
:104AA000C60103960E94031F1F910F91FF90EF9084
:104AB000DF90CF900895EF92FF920F931F937C01A8
:104AC00001960E94ED1E082F1127102F0027C70105
:104AD0000E94ED1E9927802B912B1F910F91FF9023
:104AE000EF900895CF92DF92EF92FF920F931F9372
:104AF0006C0103960E94ED1EE82EFF24002711276B
:104B0000102F0F2DFE2CEE24C60102960E94ED1EE2
:104B10009927AA27BB27E82AF92A0A2B1B2B102F33
:104B20000F2DFE2CEE24C60101960E94ED1E992742
:104B3000AA27BB27E82AF92A0A2B1B2B102F0F2D97
:104B4000FE2CEE24C6010E94ED1E9927AA27BB2742
:104B5000E82AF92A0A2B1B2BC801B7011F910F91D4
:104B6000FF90EF90DF90CF90089597FF06C0DB0194
:104B7000BF770E946D7E802D0AC096FF03C0FB01A7
:104B8000849105C095FF05C0CB010E94ED1E9927B9
:104B90000895FB0180819927089597FF06C0DB01E6
:104BA000BF770E947A7ECF01089596FF04C0FB0173
:104BB00085919491089595FF04C0CB010E945B25D7
:104BC0000895FB01808191810895CF92DF92EF9249
:104BD000FF920F931F93CF93DF93EA01C22EDD2440
:104BE00012C07B018C010894E11CF11C011D111DF8
:104BF0000E94B525882359F0FE01ED0DF11D80833B
:104C0000D394C801B701DC1461F77B018C01CD0D91
:104C1000D11D1882C801B701DF91CF911F910F916B
:104C2000FF90EF90DF90CF9008956F927F928F92D8
:104C30009F92AF92BF92CF92DF92EF92FF920F932B
:104C40001F93CF93DF935B016C013A014901E901A6
:104C50000EC07B018C010894E11CF11C011D111D8B
:104C60000E94B525F30181933F01C801B701219747
:104C7000FFEFCF3FDF0769F7B401882799276A0D57
:104C80007B1D8C1D9D1DDF91CF911F910F91FF907A
:104C9000EF90DF90CF90BF90AF909F908F907F90DC
:104CA0006F900895DC01CB01B7FF06C0DC01BF7730
:104CB000042E0E947F7E0895B5FF04C0642F0E94D9
:104CC000031F0895B6FD02C0FC0140830895DC0176
:104CD000CB01B7FF06C0DC01BF770A010E948B7EC3
:104CE0000895B5FF04C0BA010E941C250895B6FDC1
:104CF00003C0FC01518340830895BF92CF92DF929D
:104D0000EF92FF920F931F93CF93DF93EA01B22E9E
:104D100000E013C0FE01E00FF11D10816B017C016A
:104D20000894C11CD11CE11CF11C412F0E94522689
:104D3000112339F00F5FC701B6010B1559F76B014D
:104D40007C01C701B601DF91CF911F910F91FF90B8
:104D5000EF90DF90CF90BF9008956F927F928F92E7
:104D60009F92AF92BF92CF92DF92EF92FF920F93FA
:104D70001F93CF93DF935B016C013A014901E90175
:104D80000EC0F30141913F017B018C010894E11CAD
:104D9000F11C011D111D0E945226C801B701219767
:104DA000FFEFCF3FDF0769F7B401882799276A0D26
:104DB0007B1D8C1D9D1DDF91CF911F910F91FF9049
:104DC000EF90DF90CF90BF90AF909F908F907F90AB
:104DD0006F9008959091240980E5989FC001112457
:104DE0000E94191F8091240921E0822780932409C1
:104DF000992720E436E0AC01429FC001439F900D0B
:104E0000529F900D112490936E0780936D07089523
:104E1000853010F084E003C0882309F481E08150DC
:104E20008093BA098F5F9927089580E090E00E94EF
:104E3000191F10926E0710926D0781E00E940827DB
:104E40000895EF92FF920F931F93CF93DF93082F54
:104E5000162F7A01C0E0D0E001C02196F701EC0FD7
:104E6000F11D4491442359F1612F802F0E94692341
:104E70008091FB0699279C012071307083FF10C040
:104E800080916F07232B29F0880F880F880F181B3C
:104E900004C0880F880F880F180F1035F0F20FC06C
:104EA00080916F07232B29F0880F880F880F081B2C
:104EB00004C0880F880F880F080F003A70F2DF9146
:104EC000CF911F910F91FF90EF9008950F931F9333
:104ED000CF93DF93082F162FEA012BC0612F802F6D
:104EE0000E9469238091FB0699279C0120713070F4
:104EF00083FF10C080916F07232B29F0880F880F44
:104F0000880F181B04C0880F880F880F180F1035E2
:104F100080F012C080916F07232B29F0880F880F33
:104F2000880F081B04C0880F880F880F080F003AED
:104F300018F44991442391F6DF91CF911F910F917D
:104F400008958F929F92AF92BF92CF92DF92EF928D
:104F5000FF920F931F93CF93DF93C82ED62E842EEC
:104F6000922EE42EFF24E81AF108F7FC03C031E08A
:104F7000A32E06C0F094E194F108F3942FEFA22E33
:104F8000092D11270D19110917FD03C091E0B92E44
:104F900005C0109501951F4F8FEFB82E0E151F05F8
:104FA000C4F4E801CC0FDD1FCE19DF096D2D8C2D67
:104FB0000E943C1FC81429F1D7FD05C0CE19DF0996
:104FC000CE19DF09DB0CC00FD11FC00FD11FCA0CD7
:104FD000EDCFE701CC0FDD1FC01BD10B6D2D8C2D4C
:104FE0000E943C1FD91469F0D7FD05C0C01BD10B2E
:104FF000C01BD10BCA0CCE0DDF1DCE0DDF1DDB0C8F
:10500000EDCFDF91CF911F910F91FF90EF90DF9047
:10501000CF90BF90AF909F908F900895EF920F9395
:105020001F93382F962F461718F4842F462F982F4A
:105030001091AB09812F81608093AB09E32E092F7A
:10504000232F632F892F0E94DC1F1093AB091F9120
:105050000F91EF900895EF920F931F93382F26171B
:1050600020F4822F9927262F682F431720F4842FAE
:105070009927432F382F1091AB09812F816080939E
:10508000AB09E62E032F832F0E94DC1F1093AB0980
:105090001F910F91EF900895EF92FF920F931F933E
:1050A000F82EE62E142F022F8091AB0980FF04C04A
:1050B0008F2D0E942B2815C06F2D8E2D0E940E283B
:1050C000412F6F2D802F0E940E28202F412F6E2DF3
:1050D000812F0E94A127202F4F2D6E2D8F2D0E94F2
:1050E000A1271F910F91FF90EF900895CF92DF922B
:1050F000EF92FF920F931F93E82ED42EC22EF02E24
:105100000111FA94062F0F0D202F4D2D8E2D0E9488
:105110002B281C2D1F192C2D4D2D612F8E2D0E94FB
:105120002B284E2D4F0D212F602F8E2D0E942B28C6
:105130004D2D4F19212F602F8D2D0E942B281F914F
:105140000F91FF90EF90DF90CF9008952F923F92B4
:105150004F925F926F927F928F929F92AF92BF9287
:10516000CF92DF92EF92FF920F931F93CF93DF9333
:10517000282E362ED42EE9013801C65ADF4F2AE5F3
:1051800030E0620E731E6C167D0618F4C3013E01FA
:10519000EC0131E03E1508F41CC14D2C5524CE0124
:1051A00068E671E00E94D57EFC01E15FF04FE4917A
:1051B0008E2F992787FD9095489E6001499ED00CBF
:1051C000589ED00C112440E450E0C40ED51ECC0CE7
:1051D000CD2CCC1CDD088E01065A1F4FC80168E695
:1051E00071E00E94D57EFC01E15FF04FE4918E2FCB
:1051F000992787FD9095DC014A9EC0014B9E900D3A
:105200005A9E900D1124805C9F4F880F892F881F14
:10521000990B20EC30E0FC01E29FC001E39F900D70
:10522000F29F900D1124A92EBB24632D6A0D822DAF
:105230008C0D0E943C1F48014EC0CE0168E671E013
:105240000E94D57EFC01E15FF04FE4918E2F9927FB
:1052500087FD9095489E7001499EF00C589EF00C79
:10526000112420E430E0E20EF31EEE0CEF2CEE1CD5
:10527000FF08C40168E671E00E94D57EFC01E15F91
:10528000F04FE4918E2F992787FD9095AC01449EB5
:10529000C001459E900D549E900D1124805C9F4F3F
:1052A000880F892F881F990B20EC30E0829F8001A6
:1052B000839F100D929F100D1124012F1127232D74
:1052C000200F422D4E0D632D6A0D822D8C0D0E94F4
:1052D000A1275801670121960894811C911C6C1626
:1052E0007D0608F0AACF79C00D2D1127CE0168E602
:1052F00071E00E94D57EFC01E15FF04F3491CE0158
:10530000865A9F4F68E671E00E94D57EFC01E15FFE
:10531000F04FE491A8014E0D511DAE2FBB27A7FD04
:10532000B0954A9FC0014B9F900D5A9F900D11243C
:10533000805C9F4F880F892F881F990B60EC70E06D
:10534000FC01E69FC001E79F900DF69F900D112490
:10535000892F9927232D280FE32FFF27E7FDF095AD
:105360004E9FC0014F9F900D5E9F900D1124805C59
:105370009F4F880F892F881F990B422D480F0A9F36
:10538000C0010B9F900D1A9F900D1124805C9F4FC0
:10539000880F892F881F990BDC01A69FC001A79F4A
:1053A000900DB69F900D1124892F9927632D680FBA
:1053B0000E9FC0010F9F900D1E9F900D1124805CC9
:1053C0009F4F880F892F881F990B820D0E94A1275C
:1053D00021966C167D0608F087CFDF91CF911F9143
:1053E0000F91FF90EF90DF90CF90BF90AF909F9084
:1053F0008F907F906F905F904F903F902F90089587
:105400002F923F924F925F926F927F928F929F92D4
:10541000AF92BF92CF92DF92EF92FF920F931F93C2
:10542000CF93DF93CDB7DEB72F970FB6F894DEBFDB
:105430000FBECDBF982E6D87E42EFF2400271127C5
:10544000442737FD4095542FC801B7010E94B67E0E
:105450005B016C01C801B701EE0CFF1C001F111F9E
:10546000A80197010E94B67E69877A878B879C87FF
:10547000A601950194E055954795379527959A95FE
:10548000D1F7CA01B9010E94B67E9B01AC0187E049
:1054900055954795379527958A95D1F72D833E8366
:1054A0004F83588780E490E0A0E0B0E0A80EB91EDA
:1054B000CA1EDB1E07E0D594C794B794A7940A953B
:1054C000D1F7D601C501B595A795979587958D8498
:1054D000880E292C3324220C331CAD85BB27AA0F40
:1054E000BB1FBF87AE87E984FA840B851C851695A0
:1054F0000795F794E794C801B701A60195010E94AA
:10550000B67E22273327A901261B370B480B590BE0
:1055100029833A834B835C834D805E806F807884DF
:10552000769467945794479463015201AE18BF086C
:10553000C00AD10AAA0CBB1CCC1CDD1C1695079511
:10554000F794E794AE0CBF1CC01ED11E122D191982
:1055500049C08091AB09992783709070EE84E81858
:10556000892B59F0492D612F882D0E940E28492D35
:10557000612F8E2D0E940E2810C0682D892D0E944B
:105580003C1F6E2D892D0E943C1F682D812F0E948B
:105590003C1F6E2D812F0E943C1F8D819E81AF810B
:1055A000B885480E591E6A1E7B1EA40CB51CC61C6D
:1055B000D71CD7FC15C029813A814B815C81898534
:1055C0009A85AB85BC85280F391F4A1F5B1F29832D
:1055D0003A834B835C83A20EB31EC41ED51E8A94ED
:1055E0009394115089819A81AB81BC81840D951D62
:1055F000A61DB71DB7FDADCF1E8518194EC08091F1
:10560000AB09992783709070E22CE918892B59F027
:10561000492D6E2D882D0E940E28492D6E2D812F2B
:105620000E940E2810C0682D892D0E943C1F612FFA
:10563000892D0E943C1F682D8E2D0E943C1F612FDA
:105640008E2D0E943C1F1A141B041C041D046CF0B8
:105650002D813E814F815885420E531E641E751E5A
:10566000A40CB51CC61CD71C93941F5F8820C9F0DE
:105670008A9489819A81AB81BC8129853A854B8541
:105680005C85820F931FA41FB51F89839A83AB8308
:10569000BC83A80EB91ECA1EDB1E3D85831608F00A
:1056A000AECF2F960FB6F894DEBF0FBECDBFDF9101
:1056B000CF911F910F91FF90EF90DF90CF90BF900F
:1056C000AF909F908F907F906F905F904F903F90A2
:1056D0002F9008952F923F924F925F926F927F92F8
:1056E0008F929F92AF92BF92CF92DF92EF92FF92F2
:1056F0000F931F93CF93DF93662ED42E2901862E0E
:105700009924082F112778010894E11CF11CE80165
:105710002197782C682D0E94A21E07701070025EDF
:105720001C4FF8019081982369F00FEF10E00CC036
:10573000C0E0D0E029C030EAE32EF12C45C080E083
:1057400090E038C100E010E0AD2CBB240A151B0529
:1057500009F044C080914603C81BD109DD2344F3FE
:10576000672D8C2F0E94A21EFE01E770F070E25E92
:10577000FC4F9081982319F08FEF90E002C080E0F9
:1057800090E08017910731F380914603C82EDD2405
:1057900080914603E80EF11CF1EAEF16F1045CF685
:1057A000672D8E2D0E94A21EF701E770F070E25E59
:1057B000FC4F9081982319F08FEF90E002C080E0B9
:1057C00090E08017910721F3CC0DDD1D80914603F9
:1057D000E81AF10803C02197D7FD1CC0672D8C2F54
:1057E0000E94A21EFE01E770F070E25EFC4F908105
:1057F000982319F08FEF90E002C080E090E08A15C6
:105800009B0549F707C00894E11CF11C81EAE816E2
:10581000F104A4F4672D8E2D0E94A21EF701E770FB
:10582000F070E25EFC4F9081982319F08FEF90E0CA
:1058300002C080E090E08A159B0529F76E0108946C
:10584000C11CD11C0894E108F108840C951C242C7F
:105850003E2C4E2D6C2D862D0E940E28E0E58E16D6
:10586000910408F06CCF782C682D8C2D0E94A21E1C
:10587000F601E770F070E25EFC4F9081982319F01A
:105880008FEF90E002C080E090E08A159B05F9F070
:10589000E60121978E01D7FD15C0672D8C2F0E9440
:1058A000A21EFE01E770F070E25EFC4F908198232B
:1058B00019F08FEF90E002C080E090E021978A1508
:1058C0009B0541F768010894C11CD11C1BC0E6016F
:1058D00021966E01CE15DF05ACF4672D8C2F0E944A
:1058E000A21EFE01E770F070E25EFC4F90819823EB
:1058F00019F08FEF90E002C080E090E021968A15C9
:105900009B0539F3672D832D0E94A21EF701E770D6
:10591000F070E25EFC4F9081982319F08FEF90E0D9
:1059200002C080E090E08A159B05E1F4E701219731
:105930007E01CC15DD05ACF1672D8C2F0E94A21ED7
:10594000FE01E770F070E25EFC4F9081982319F041
:105950008FEF90E002C080E090E021978A159B05D0
:1059600001F5E6CFE70121968E01C03AD105ACF4EE
:10597000672D8C2F0E94A21EFE01E770F070E25E80
:10598000FC4F9081982319F08FEF90E002C080E0E7
:1059900090E021968A159B0539F778010894E10873
:1059A000F108840C951C620CEC14FD040CF050CF33
:1059B00081E090E0DF91CF911F910F91FF90EF90E8
:1059C000DF90CF90BF90AF909F908F907F906F901F
:1059D0005F904F903F902F900895FF920F931F93E9
:1059E000082F162FF42E0E94A21EE02FFF27E7702B
:1059F000F070E25EFC4F9081982319F02FEF30E0B9
:105A000002C020E030E08F2D99272817390719F4BC
:105A100080E090E011C02FEF3FEF4F2D612F802FDE
:105A20000E946A2B1F5F21E030E04F2D612F802FF5
:105A30000E946A2B81E090E01F910F91FF900895E2
:105A40000F931F9305E116E040E550E0BC01C8014B
:105A50000E944D75C8011F910F910895CF93DF9358
:105A6000CDB7DEB724970FB6F894DEBF0FBECDBF1B
:105A7000DC01CB0129833A834B835C83B7FF09C0E8
:105A8000DC01BF7784E0FE013196182E0E94907EE3
:105A900014C0B5FF07C049815A816B817C810E9487
:105AA00030250BC0B6FD09C0FC0189819A81AB810C
:105AB000BC8180839183A283B38324960FB6F8942C
:105AC000DEBF0FBECDBFDF91CF910895CF93DF939F
:105AD000CDB7DEB724970FB6F894DEBF0FBECDBFAB
